{
  "_format": "hh-sol-artifact-1",
  "contractName": "BillionaireBattles",
  "sourceName": "contracts/BillionaireBattles.sol",
  "abi": [
    {
      "inputs": [
        {
          "internalType": "string[]",
          "name": "names",
          "type": "string[]"
        },
        {
          "internalType": "string[]",
          "name": "descriptions",
          "type": "string[]"
        },
        {
          "internalType": "string[]",
          "name": "images",
          "type": "string[]"
        },
        {
          "internalType": "uint256[]",
          "name": "healths",
          "type": "uint256[]"
        },
        {
          "internalType": "uint256[]",
          "name": "maxHealths",
          "type": "uint256[]"
        },
        {
          "internalType": "string[]",
          "name": "attack1Names",
          "type": "string[]"
        },
        {
          "internalType": "string[]",
          "name": "attack2Names",
          "type": "string[]"
        },
        {
          "internalType": "string[]",
          "name": "attack3Names",
          "type": "string[]"
        },
        {
          "internalType": "uint256[]",
          "name": "attack1Damages",
          "type": "uint256[]"
        },
        {
          "internalType": "uint256[]",
          "name": "attack2Damages",
          "type": "uint256[]"
        },
        {
          "internalType": "uint256[]",
          "name": "attack3Damages",
          "type": "uint256[]"
        }
      ],
      "stateMutability": "nonpayable",
      "type": "constructor"
    },
    {
      "anonymous": false,
      "inputs": [
        {
          "indexed": true,
          "internalType": "address",
          "name": "owner",
          "type": "address"
        },
        {
          "indexed": true,
          "internalType": "address",
          "name": "approved",
          "type": "address"
        },
        {
          "indexed": true,
          "internalType": "uint256",
          "name": "tokenId",
          "type": "uint256"
        }
      ],
      "name": "Approval",
      "type": "event"
    },
    {
      "anonymous": false,
      "inputs": [
        {
          "indexed": true,
          "internalType": "address",
          "name": "owner",
          "type": "address"
        },
        {
          "indexed": true,
          "internalType": "address",
          "name": "operator",
          "type": "address"
        },
        {
          "indexed": false,
          "internalType": "bool",
          "name": "approved",
          "type": "bool"
        }
      ],
      "name": "ApprovalForAll",
      "type": "event"
    },
    {
      "anonymous": false,
      "inputs": [
        {
          "indexed": true,
          "internalType": "address",
          "name": "from",
          "type": "address"
        },
        {
          "indexed": true,
          "internalType": "address",
          "name": "to",
          "type": "address"
        },
        {
          "indexed": true,
          "internalType": "uint256",
          "name": "tokenId",
          "type": "uint256"
        }
      ],
      "name": "Transfer",
      "type": "event"
    },
    {
      "inputs": [
        {
          "internalType": "address",
          "name": "to",
          "type": "address"
        },
        {
          "internalType": "uint256",
          "name": "tokenId",
          "type": "uint256"
        }
      ],
      "name": "approve",
      "outputs": [],
      "stateMutability": "nonpayable",
      "type": "function"
    },
    {
      "inputs": [
        {
          "internalType": "address",
          "name": "owner",
          "type": "address"
        }
      ],
      "name": "balanceOf",
      "outputs": [
        {
          "internalType": "uint256",
          "name": "",
          "type": "uint256"
        }
      ],
      "stateMutability": "view",
      "type": "function"
    },
    {
      "inputs": [],
      "name": "getAllCharacters",
      "outputs": [
        {
          "internalType": "string",
          "name": "",
          "type": "string"
        }
      ],
      "stateMutability": "view",
      "type": "function"
    },
    {
      "inputs": [
        {
          "internalType": "uint256",
          "name": "tokenId",
          "type": "uint256"
        }
      ],
      "name": "getApproved",
      "outputs": [
        {
          "internalType": "address",
          "name": "",
          "type": "address"
        }
      ],
      "stateMutability": "view",
      "type": "function"
    },
    {
      "inputs": [
        {
          "internalType": "uint256",
          "name": "index",
          "type": "uint256"
        }
      ],
      "name": "getCharacterDisplayDataById",
      "outputs": [
        {
          "internalType": "string[]",
          "name": "",
          "type": "string[]"
        }
      ],
      "stateMutability": "view",
      "type": "function"
    },
    {
      "inputs": [
        {
          "internalType": "uint256",
          "name": "index",
          "type": "uint256"
        }
      ],
      "name": "getCharacterHealthAndMaxHealthById",
      "outputs": [
        {
          "internalType": "uint256[]",
          "name": "",
          "type": "uint256[]"
        }
      ],
      "stateMutability": "view",
      "type": "function"
    },
    {
      "inputs": [
        {
          "internalType": "address",
          "name": "current",
          "type": "address"
        }
      ],
      "name": "getCharactersFromAddress",
      "outputs": [
        {
          "internalType": "uint256[]",
          "name": "",
          "type": "uint256[]"
        }
      ],
      "stateMutability": "view",
      "type": "function"
    },
    {
      "inputs": [],
      "name": "getListingFee",
      "outputs": [
        {
          "internalType": "uint256",
          "name": "",
          "type": "uint256"
        }
      ],
      "stateMutability": "view",
      "type": "function"
    },
    {
      "inputs": [],
      "name": "getMarketItems",
      "outputs": [
        {
          "internalType": "uint256[]",
          "name": "",
          "type": "uint256[]"
        }
      ],
      "stateMutability": "view",
      "type": "function"
    },
    {
      "inputs": [],
      "name": "getReviveCost",
      "outputs": [
        {
          "internalType": "uint256",
          "name": "",
          "type": "uint256"
        }
      ],
      "stateMutability": "view",
      "type": "function"
    },
    {
      "inputs": [
        {
          "internalType": "address",
          "name": "owner",
          "type": "address"
        },
        {
          "internalType": "address",
          "name": "operator",
          "type": "address"
        }
      ],
      "name": "isApprovedForAll",
      "outputs": [
        {
          "internalType": "bool",
          "name": "",
          "type": "bool"
        }
      ],
      "stateMutability": "view",
      "type": "function"
    },
    {
      "inputs": [
        {
          "internalType": "uint256",
          "name": "id",
          "type": "uint256"
        }
      ],
      "name": "mintItemById",
      "outputs": [],
      "stateMutability": "nonpayable",
      "type": "function"
    },
    {
      "inputs": [],
      "name": "name",
      "outputs": [
        {
          "internalType": "string",
          "name": "",
          "type": "string"
        }
      ],
      "stateMutability": "view",
      "type": "function"
    },
    {
      "inputs": [
        {
          "internalType": "uint256",
          "name": "tokenId",
          "type": "uint256"
        }
      ],
      "name": "ownerOf",
      "outputs": [
        {
          "internalType": "address",
          "name": "",
          "type": "address"
        }
      ],
      "stateMutability": "view",
      "type": "function"
    },
    {
      "inputs": [
        {
          "internalType": "address",
          "name": "from",
          "type": "address"
        },
        {
          "internalType": "address",
          "name": "to",
          "type": "address"
        },
        {
          "internalType": "uint256",
          "name": "tokenId",
          "type": "uint256"
        }
      ],
      "name": "safeTransferFrom",
      "outputs": [],
      "stateMutability": "nonpayable",
      "type": "function"
    },
    {
      "inputs": [
        {
          "internalType": "address",
          "name": "from",
          "type": "address"
        },
        {
          "internalType": "address",
          "name": "to",
          "type": "address"
        },
        {
          "internalType": "uint256",
          "name": "tokenId",
          "type": "uint256"
        },
        {
          "internalType": "bytes",
          "name": "_data",
          "type": "bytes"
        }
      ],
      "name": "safeTransferFrom",
      "outputs": [],
      "stateMutability": "nonpayable",
      "type": "function"
    },
    {
      "inputs": [
        {
          "internalType": "address",
          "name": "operator",
          "type": "address"
        },
        {
          "internalType": "bool",
          "name": "approved",
          "type": "bool"
        }
      ],
      "name": "setApprovalForAll",
      "outputs": [],
      "stateMutability": "nonpayable",
      "type": "function"
    },
    {
      "inputs": [
        {
          "internalType": "bytes4",
          "name": "interfaceId",
          "type": "bytes4"
        }
      ],
      "name": "supportsInterface",
      "outputs": [
        {
          "internalType": "bool",
          "name": "",
          "type": "bool"
        }
      ],
      "stateMutability": "view",
      "type": "function"
    },
    {
      "inputs": [],
      "name": "symbol",
      "outputs": [
        {
          "internalType": "string",
          "name": "",
          "type": "string"
        }
      ],
      "stateMutability": "view",
      "type": "function"
    },
    {
      "inputs": [
        {
          "internalType": "uint256",
          "name": "tokenId",
          "type": "uint256"
        }
      ],
      "name": "tokenURI",
      "outputs": [
        {
          "internalType": "string",
          "name": "",
          "type": "string"
        }
      ],
      "stateMutability": "view",
      "type": "function"
    },
    {
      "inputs": [
        {
          "internalType": "address",
          "name": "from",
          "type": "address"
        },
        {
          "internalType": "address",
          "name": "to",
          "type": "address"
        },
        {
          "internalType": "uint256",
          "name": "tokenId",
          "type": "uint256"
        }
      ],
      "name": "transferFrom",
      "outputs": [],
      "stateMutability": "nonpayable",
      "type": "function"
    }
  ],
  "bytecode": "0x608060405260006008553480156200001657600080fd5b506040516200442a3803806200442a83398181016040528101906200003c919062000966565b6040518060400160405280601381526020017f42696c6c696f6e6169726520426174746c6573000000000000000000000000008152506040518060400160405280600381526020017f42425400000000000000000000000000000000000000000000000000000000008152508160009080519060200190620000c0929190620006f9565b508060019080519060200190620000d9929190620006f9565b505050620001276040518060400160405280600281526020017f68690000000000000000000000000000000000000000000000000000000000008152506200062d60201b6200155a1760201c565b6005600681905550600560078190555060005b60028110156200061b57600a604051806101a001604052803073ffffffffffffffffffffffffffffffffffffffff1681526020016000151581526020018e8481518110620001b1577f4e487b7100000000000000000000000000000000000000000000000000000000600052603260045260246000fd5b602002602001015181526020018d8481518110620001f8577f4e487b7100000000000000000000000000000000000000000000000000000000600052603260045260246000fd5b602002602001015181526020018c84815181106200023f577f4e487b7100000000000000000000000000000000000000000000000000000000600052603260045260246000fd5b602002602001015181526020018b848151811062000286577f4e487b7100000000000000000000000000000000000000000000000000000000600052603260045260246000fd5b602002602001015181526020018a8481518110620002cd577f4e487b7100000000000000000000000000000000000000000000000000000000600052603260045260246000fd5b6020026020010151815260200189848151811062000314577f4e487b7100000000000000000000000000000000000000000000000000000000600052603260045260246000fd5b602002602001015181526020018884815181106200035b577f4e487b7100000000000000000000000000000000000000000000000000000000600052603260045260246000fd5b60200260200101518152602001878481518110620003a2577f4e487b7100000000000000000000000000000000000000000000000000000000600052603260045260246000fd5b60200260200101518152602001868481518110620003e9577f4e487b7100000000000000000000000000000000000000000000000000000000600052603260045260246000fd5b6020026020010151815260200185848151811062000430577f4e487b7100000000000000000000000000000000000000000000000000000000600052603260045260246000fd5b6020026020010151815260200184848151811062000477577f4e487b7100000000000000000000000000000000000000000000000000000000600052603260045260246000fd5b602002602001015181525090806001815401808255809150506001900390600052602060002090600c020160009091909190915060008201518160000160006101000a81548173ffffffffffffffffffffffffffffffffffffffff021916908373ffffffffffffffffffffffffffffffffffffffff16021790555060208201518160000160146101000a81548160ff021916908315150217905550604082015181600101908051906020019062000530929190620006f9565b5060608201518160020190805190602001906200054f929190620006f9565b5060808201518160030190805190602001906200056e929190620006f9565b5060a0820151816004015560c0820151816005015560e0820151816006019080519060200190620005a1929190620006f9565b50610100820151816007019080519060200190620005c1929190620006f9565b50610120820151816008019080519060200190620005e1929190620006f9565b50610140820151816009015561016082015181600a015561018082015181600b015550508080620006129062000d3c565b9150506200013a565b50505050505050505050505062000e42565b620006cd8160405160240162000644919062000bc1565b6040516020818303038152906040527f41304fac000000000000000000000000000000000000000000000000000000007bffffffffffffffffffffffffffffffffffffffffffffffffffffffff19166020820180517bffffffffffffffffffffffffffffffffffffffffffffffffffffffff8381831617835250505050620006d060201b60201c565b50565b60008151905060006a636f6e736f6c652e6c6f679050602083016000808483855afa5050505050565b828054620007079062000d06565b90600052602060002090601f0160209004810192826200072b576000855562000777565b82601f106200074657805160ff191683800117855562000777565b8280016001018555821562000777579182015b828111156200077657825182559160200191906001019062000759565b5b5090506200078691906200078a565b5090565b5b80821115620007a55760008160009055506001016200078b565b5090565b6000620007c0620007ba8462000c19565b62000be5565b9050808382526020820190508260005b85811015620008045781518501620007e9888262000922565b845260208401935060208301925050600181019050620007d0565b5050509392505050565b6000620008256200081f8462000c48565b62000be5565b905080838252602082019050828560208602820111156200084557600080fd5b60005b858110156200087957816200085e88826200094f565b84526020840193506020830192505060018101905062000848565b5050509392505050565b60006200089a620008948462000c77565b62000be5565b905082815260208101848484011115620008b357600080fd5b620008c084828562000cd0565b509392505050565b600082601f830112620008da57600080fd5b8151620008ec848260208601620007a9565b91505092915050565b600082601f8301126200090757600080fd5b8151620009198482602086016200080e565b91505092915050565b600082601f8301126200093457600080fd5b81516200094684826020860162000883565b91505092915050565b600081519050620009608162000e28565b92915050565b60008060008060008060008060008060006101608c8e0312156200098957600080fd5b60008c015167ffffffffffffffff811115620009a457600080fd5b620009b28e828f01620008c8565b9b505060208c015167ffffffffffffffff811115620009d057600080fd5b620009de8e828f01620008c8565b9a505060408c015167ffffffffffffffff811115620009fc57600080fd5b62000a0a8e828f01620008c8565b99505060608c015167ffffffffffffffff81111562000a2857600080fd5b62000a368e828f01620008f5565b98505060808c015167ffffffffffffffff81111562000a5457600080fd5b62000a628e828f01620008f5565b97505060a08c015167ffffffffffffffff81111562000a8057600080fd5b62000a8e8e828f01620008c8565b96505060c08c015167ffffffffffffffff81111562000aac57600080fd5b62000aba8e828f01620008c8565b95505060e08c015167ffffffffffffffff81111562000ad857600080fd5b62000ae68e828f01620008c8565b9450506101008c015167ffffffffffffffff81111562000b0557600080fd5b62000b138e828f01620008f5565b9350506101208c015167ffffffffffffffff81111562000b3257600080fd5b62000b408e828f01620008f5565b9250506101408c015167ffffffffffffffff81111562000b5f57600080fd5b62000b6d8e828f01620008f5565b9150509295989b509295989b9093969950565b600062000b8d8262000caa565b62000b99818562000cb5565b935062000bab81856020860162000cd0565b62000bb68162000e17565b840191505092915050565b6000602082019050818103600083015262000bdd818462000b80565b905092915050565b6000604051905081810181811067ffffffffffffffff8211171562000c0f5762000c0e62000de8565b5b8060405250919050565b600067ffffffffffffffff82111562000c375762000c3662000de8565b5b602082029050602081019050919050565b600067ffffffffffffffff82111562000c665762000c6562000de8565b5b602082029050602081019050919050565b600067ffffffffffffffff82111562000c955762000c9462000de8565b5b601f19601f8301169050602081019050919050565b600081519050919050565b600082825260208201905092915050565b6000819050919050565b60005b8381101562000cf057808201518184015260208101905062000cd3565b8381111562000d00576000848401525b50505050565b6000600282049050600182168062000d1f57607f821691505b6020821081141562000d365762000d3562000db9565b5b50919050565b600062000d498262000cc6565b91507fffffffffffffffffffffffffffffffffffffffffffffffffffffffffffffffff82141562000d7f5762000d7e62000d8a565b5b600182019050919050565b7f4e487b7100000000000000000000000000000000000000000000000000000000600052601160045260246000fd5b7f4e487b7100000000000000000000000000000000000000000000000000000000600052602260045260246000fd5b7f4e487b7100000000000000000000000000000000000000000000000000000000600052604160045260246000fd5b6000601f19601f8301169050919050565b62000e338162000cc6565b811462000e3f57600080fd5b50565b6135d88062000e526000396000f3fe608060405234801561001057600080fd5b50600436106101375760003560e01c806368baf0a0116100b8578063a22cb4651161007c578063a22cb46514610362578063b88d4fde1461037e578063b8fe6abe1461039a578063c87b56dd146103b8578063e985e9c5146103e8578063fdb205eb1461041857610137565b806368baf0a01461029657806370a08231146102c65780637577e86d146102f657806383e56dca1461032657806395d89b411461034457610137565b806323b872dd116100ff57806323b872dd146101f257806329aa3a421461020e5780633d936d2d1461022c57806342842e0e1461024a5780636352211e1461026657610137565b806301ffc9a71461013c57806306fdde031461016c578063081812fc1461018a578063095ea7b3146101ba5780631bafbaa6146101d6575b600080fd5b610156600480360381019061015191906125da565b610448565b6040516101639190612edd565b60405180910390f35b61017461052a565b6040516101819190612ef8565b60405180910390f35b6101a4600480360381019061019f919061262c565b6105bc565b6040516101b19190612e32565b60405180910390f35b6101d460048036038101906101cf919061259e565b610641565b005b6101f060048036038101906101eb919061262c565b610759565b005b61020c60048036038101906102079190612498565b610a48565b005b610216610aa8565b6040516102239190612ebb565b60405180910390f35b610234610bce565b604051610241919061311a565b60405180910390f35b610264600480360381019061025f9190612498565b610bd8565b005b610280600480360381019061027b919061262c565b610bf8565b60405161028d9190612e32565b60405180910390f35b6102b060048036038101906102ab9190612433565b610caa565b6040516102bd9190612ebb565b60405180910390f35b6102e060048036038101906102db9190612433565b610e0f565b6040516102ed919061311a565b60405180910390f35b610310600480360381019061030b919061262c565b610ec7565b60405161031d9190612e99565b60405180910390f35b61032e61111f565b60405161033b9190612ef8565b60405180910390f35b61034c6111c6565b6040516103599190612ef8565b60405180910390f35b61037c60048036038101906103779190612562565b611258565b005b610398600480360381019061039391906124e7565b61126e565b005b6103a26112d0565b6040516103af919061311a565b60405180910390f35b6103d260048036038101906103cd919061262c565b6112da565b6040516103df9190612ef8565b60405180910390f35b61040260048036038101906103fd919061245c565b611381565b60405161040f9190612edd565b60405180910390f35b610432600480360381019061042d919061262c565b611415565b60405161043f9190612ebb565b60405180910390f35b60007f80ac58cd000000000000000000000000000000000000000000000000000000007bffffffffffffffffffffffffffffffffffffffffffffffffffffffff1916827bffffffffffffffffffffffffffffffffffffffffffffffffffffffff1916148061051357507f5b5e139f000000000000000000000000000000000000000000000000000000007bffffffffffffffffffffffffffffffffffffffffffffffffffffffff1916827bffffffffffffffffffffffffffffffffffffffffffffffffffffffff1916145b806105235750610522826115f3565b5b9050919050565b606060008054610539906133cd565b80601f0160208091040260200160405190810160405280929190818152602001828054610565906133cd565b80156105b25780601f10610587576101008083540402835291602001916105b2565b820191906000526020600020905b81548152906001019060200180831161059557829003601f168201915b5050505050905090565b60006105c78261165d565b610606576040517f08c379a00000000000000000000000000000000000000000000000000000000081526004016105fd9061307a565b60405180910390fd5b6004600083815260200190815260200160002060009054906101000a900473ffffffffffffffffffffffffffffffffffffffff169050919050565b600061064c82610bf8565b90508073ffffffffffffffffffffffffffffffffffffffff168373ffffffffffffffffffffffffffffffffffffffff1614156106bd576040517f08c379a00000000000000000000000000000000000000000000000000000000081526004016106b4906130ba565b60405180910390fd5b8073ffffffffffffffffffffffffffffffffffffffff166106dc6116c9565b73ffffffffffffffffffffffffffffffffffffffff16148061070b575061070a816107056116c9565b611381565b5b61074a576040517f08c379a000000000000000000000000000000000000000000000000000000000815260040161074190612ffa565b60405180910390fd5b61075483836116d1565b505050565b600081101561079d576040517f08c379a0000000000000000000000000000000000000000000000000000000008152600401610794906130da565b60405180910390fd5b600a8054905081106107e4576040517f08c379a00000000000000000000000000000000000000000000000000000000081526004016107db90612fba565b60405180910390fd5b600860008154809291906107f7906133ff565b9190505550600a8181548110610836577f4e487b7100000000000000000000000000000000000000000000000000000000600052603260045260246000fd5b90600052602060002090600c02016009600060085481526020019081526020016000206000820160009054906101000a900473ffffffffffffffffffffffffffffffffffffffff168160000160006101000a81548173ffffffffffffffffffffffffffffffffffffffff021916908373ffffffffffffffffffffffffffffffffffffffff1602179055506000820160149054906101000a900460ff168160000160146101000a81548160ff0219169083151502179055506001820181600101908054610901906133cd565b61090c9291906122b8565b506002820181600201908054610921906133cd565b61092c9291906122b8565b506003820181600301908054610941906133cd565b61094c9291906122b8565b5060048201548160040155600582015481600501556006820181600601908054610975906133cd565b6109809291906122b8565b506007820181600701908054610995906133cd565b6109a09291906122b8565b5060088201816008019080546109b5906133cd565b6109c09291906122b8565b5060098201548160090155600a82015481600a0155600b82015481600b01559050503360096000600854815260200190815260200160002060000160006101000a81548173ffffffffffffffffffffffffffffffffffffffff021916908373ffffffffffffffffffffffffffffffffffffffff160217905550610a453360085461178a565b50565b610a59610a536116c9565b826117a8565b610a98576040517f08c379a0000000000000000000000000000000000000000000000000000000008152600401610a8f906130fa565b60405180910390fd5b610aa3838383611886565b505050565b606060008060085467ffffffffffffffff811115610aef577f4e487b7100000000000000000000000000000000000000000000000000000000600052604160045260246000fd5b604051908082528060200260200182016040528015610b1d5781602001602082028036833780820191505090505b50905060005b600854811015610bc557600115156009600083815260200190815260200160002060000160149054906101000a900460ff1615151415610bb25780828481518110610b97577f4e487b7100000000000000000000000000000000000000000000000000000000600052603260045260246000fd5b6020026020010181815250508280610bae906133ff565b9350505b8080610bbd906133ff565b915050610b23565b50809250505090565b6000600754905090565b610bf38383836040518060200160405280600081525061126e565b505050565b6000806002600084815260200190815260200160002060009054906101000a900473ffffffffffffffffffffffffffffffffffffffff169050600073ffffffffffffffffffffffffffffffffffffffff168173ffffffffffffffffffffffffffffffffffffffff161415610ca1576040517f08c379a0000000000000000000000000000000000000000000000000000000008152600401610c989061303a565b60405180910390fd5b80915050919050565b606060008060085467ffffffffffffffff811115610cf1577f4e487b7100000000000000000000000000000000000000000000000000000000600052604160045260246000fd5b604051908082528060200260200182016040528015610d1f5781602001602082028036833780820191505090505b5090506000600190505b6008548111610e04578473ffffffffffffffffffffffffffffffffffffffff166009600083815260200190815260200160002060000160009054906101000a900473ffffffffffffffffffffffffffffffffffffffff1673ffffffffffffffffffffffffffffffffffffffff161415610df15780828481518110610dd6577f4e487b7100000000000000000000000000000000000000000000000000000000600052603260045260246000fd5b6020026020010181815250508280610ded906133ff565b9350505b8080610dfc906133ff565b915050610d29565b508092505050919050565b60008073ffffffffffffffffffffffffffffffffffffffff168273ffffffffffffffffffffffffffffffffffffffff161415610e80576040517f08c379a0000000000000000000000000000000000000000000000000000000008152600401610e779061301a565b60405180910390fd5b600360008373ffffffffffffffffffffffffffffffffffffffff1673ffffffffffffffffffffffffffffffffffffffff168152602001908152602001600020549050919050565b60606000600467ffffffffffffffff811115610f0c577f4e487b7100000000000000000000000000000000000000000000000000000000600052604160045260246000fd5b604051908082528060200260200182016040528015610f3f57816020015b6060815260200190600190039081610f2a5790505b5090506000600960008581526020019081526020016000206003018054610f65906133cd565b80601f0160208091040260200160405190810160405280929190818152602001828054610f91906133cd565b8015610fde5780601f10610fb357610100808354040283529160200191610fde565b820191906000526020600020905b815481529060010190602001808311610fc157829003601f168201915b505050505090506000600960008681526020019081526020016000206001018054611008906133cd565b80601f0160208091040260200160405190810160405280929190818152602001828054611034906133cd565b80156110815780601f1061105657610100808354040283529160200191611081565b820191906000526020600020905b81548152906001019060200180831161106457829003601f168201915b5050505050905081836000815181106110c3577f4e487b7100000000000000000000000000000000000000000000000000000000600052603260045260246000fd5b60200260200101819052508083600181518110611109577f4e487b7100000000000000000000000000000000000000000000000000000000600052603260045260246000fd5b6020026020010181905250829350505050919050565b606060096000600181526020019081526020016000206001018054611143906133cd565b80601f016020809104026020016040519081016040528092919081815260200182805461116f906133cd565b80156111bc5780601f10611191576101008083540402835291602001916111bc565b820191906000526020600020905b81548152906001019060200180831161119f57829003601f168201915b5050505050905090565b6060600180546111d5906133cd565b80601f0160208091040260200160405190810160405280929190818152602001828054611201906133cd565b801561124e5780601f106112235761010080835404028352916020019161124e565b820191906000526020600020905b81548152906001019060200180831161123157829003601f168201915b5050505050905090565b61126a6112636116c9565b8383611aed565b5050565b61127f6112796116c9565b836117a8565b6112be576040517f08c379a00000000000000000000000000000000000000000000000000000000081526004016112b5906130fa565b60405180910390fd5b6112ca84848484611c5a565b50505050565b6000600654905090565b60606112e58261165d565b611324576040517f08c379a000000000000000000000000000000000000000000000000000000000815260040161131b9061309a565b60405180910390fd5b600061132e611cb6565b9050600081511161134e5760405180602001604052806000815250611379565b8061135884611ccd565b604051602001611369929190612e0e565b6040516020818303038152906040525b915050919050565b6000600560008473ffffffffffffffffffffffffffffffffffffffff1673ffffffffffffffffffffffffffffffffffffffff16815260200190815260200160002060008373ffffffffffffffffffffffffffffffffffffffff1673ffffffffffffffffffffffffffffffffffffffff16815260200190815260200160002060009054906101000a900460ff16905092915050565b60606000600267ffffffffffffffff81111561145a577f4e487b7100000000000000000000000000000000000000000000000000000000600052604160045260246000fd5b6040519080825280602002602001820160405280156114885781602001602082028036833780820191505090505b50905060006009600085815260200190815260200160002060040154905060006009600086815260200190815260200160002060050154905081836000815181106114fc577f4e487b7100000000000000000000000000000000000000000000000000000000600052603260045260246000fd5b6020026020010181815250508083600181518110611543577f4e487b7100000000000000000000000000000000000000000000000000000000600052603260045260246000fd5b602002602001018181525050829350505050919050565b6115f08160405160240161156e9190612ef8565b6040516020818303038152906040527f41304fac000000000000000000000000000000000000000000000000000000007bffffffffffffffffffffffffffffffffffffffffffffffffffffffff19166020820180517bffffffffffffffffffffffffffffffffffffffffffffffffffffffff8381831617835250505050611e7a565b50565b60007f01ffc9a7000000000000000000000000000000000000000000000000000000007bffffffffffffffffffffffffffffffffffffffffffffffffffffffff1916827bffffffffffffffffffffffffffffffffffffffffffffffffffffffff1916149050919050565b60008073ffffffffffffffffffffffffffffffffffffffff166002600084815260200190815260200160002060009054906101000a900473ffffffffffffffffffffffffffffffffffffffff1673ffffffffffffffffffffffffffffffffffffffff1614159050919050565b600033905090565b816004600083815260200190815260200160002060006101000a81548173ffffffffffffffffffffffffffffffffffffffff021916908373ffffffffffffffffffffffffffffffffffffffff160217905550808273ffffffffffffffffffffffffffffffffffffffff1661174483610bf8565b73ffffffffffffffffffffffffffffffffffffffff167f8c5be1e5ebec7d5bd14f71427d1e84f3dd0314c0f7b2291e5b200ac8c7c3b92560405160405180910390a45050565b6117a4828260405180602001604052806000815250611ea3565b5050565b60006117b38261165d565b6117f2576040517f08c379a00000000000000000000000000000000000000000000000000000000081526004016117e990612fda565b60405180910390fd5b60006117fd83610bf8565b90508073ffffffffffffffffffffffffffffffffffffffff168473ffffffffffffffffffffffffffffffffffffffff16148061183f575061183e8185611381565b5b8061187d57508373ffffffffffffffffffffffffffffffffffffffff16611865846105bc565b73ffffffffffffffffffffffffffffffffffffffff16145b91505092915050565b8273ffffffffffffffffffffffffffffffffffffffff166118a682610bf8565b73ffffffffffffffffffffffffffffffffffffffff16146118fc576040517f08c379a00000000000000000000000000000000000000000000000000000000081526004016118f390612f3a565b60405180910390fd5b600073ffffffffffffffffffffffffffffffffffffffff168273ffffffffffffffffffffffffffffffffffffffff16141561196c576040517f08c379a000000000000000000000000000000000000000000000000000000000815260040161196390612f7a565b60405180910390fd5b611977838383611efe565b6119826000826116d1565b6001600360008573ffffffffffffffffffffffffffffffffffffffff1673ffffffffffffffffffffffffffffffffffffffff16815260200190815260200160002060008282546119d291906132e3565b925050819055506001600360008473ffffffffffffffffffffffffffffffffffffffff1673ffffffffffffffffffffffffffffffffffffffff1681526020019081526020016000206000828254611a29919061325c565b92505081905550816002600083815260200190815260200160002060006101000a81548173ffffffffffffffffffffffffffffffffffffffff021916908373ffffffffffffffffffffffffffffffffffffffff160217905550808273ffffffffffffffffffffffffffffffffffffffff168473ffffffffffffffffffffffffffffffffffffffff167fddf252ad1be2c89b69c2b068fc378daa952ba7f163c4a11628f55a4df523b3ef60405160405180910390a4611ae8838383611f03565b505050565b8173ffffffffffffffffffffffffffffffffffffffff168373ffffffffffffffffffffffffffffffffffffffff161415611b5c576040517f08c379a0000000000000000000000000000000000000000000000000000000008152600401611b5390612f9a565b60405180910390fd5b80600560008573ffffffffffffffffffffffffffffffffffffffff1673ffffffffffffffffffffffffffffffffffffffff16815260200190815260200160002060008473ffffffffffffffffffffffffffffffffffffffff1673ffffffffffffffffffffffffffffffffffffffff16815260200190815260200160002060006101000a81548160ff0219169083151502179055508173ffffffffffffffffffffffffffffffffffffffff168373ffffffffffffffffffffffffffffffffffffffff167f17307eab39ab6107e8899845ad3d59bd9653f200f220920489ca2b5937696c3183604051611c4d9190612edd565b60405180910390a3505050565b611c65848484611886565b611c7184848484611f08565b611cb0576040517f08c379a0000000000000000000000000000000000000000000000000000000008152600401611ca790612f1a565b60405180910390fd5b50505050565b606060405180602001604052806000815250905090565b60606000821415611d15576040518060400160405280600181526020017f30000000000000000000000000000000000000000000000000000000000000008152509050611e75565b600082905060005b60008214611d47578080611d30906133ff565b915050600a82611d4091906132b2565b9150611d1d565b60008167ffffffffffffffff811115611d89577f4e487b7100000000000000000000000000000000000000000000000000000000600052604160045260246000fd5b6040519080825280601f01601f191660200182016040528015611dbb5781602001600182028036833780820191505090505b5090505b60008514611e6e57600182611dd491906132e3565b9150600a85611de39190613448565b6030611def919061325c565b60f81b818381518110611e2b577f4e487b7100000000000000000000000000000000000000000000000000000000600052603260045260246000fd5b60200101907effffffffffffffffffffffffffffffffffffffffffffffffffffffffffffff1916908160001a905350600a85611e6791906132b2565b9450611dbf565b8093505050505b919050565b60008151905060006a636f6e736f6c652e6c6f679050602083016000808483855afa5050505050565b611ead838361209f565b611eba6000848484611f08565b611ef9576040517f08c379a0000000000000000000000000000000000000000000000000000000008152600401611ef090612f1a565b60405180910390fd5b505050565b505050565b505050565b6000611f298473ffffffffffffffffffffffffffffffffffffffff16612279565b15612092578373ffffffffffffffffffffffffffffffffffffffff1663150b7a02611f526116c9565b8786866040518563ffffffff1660e01b8152600401611f749493929190612e4d565b602060405180830381600087803b158015611f8e57600080fd5b505af1925050508015611fbf57506040513d601f19601f82011682018060405250810190611fbc9190612603565b60015b612042573d8060008114611fef576040519150601f19603f3d011682016040523d82523d6000602084013e611ff4565b606091505b5060008151141561203a576040517f08c379a000000000000000000000000000000000000000000000000000000000815260040161203190612f1a565b60405180910390fd5b805181602001fd5b63150b7a0260e01b7bffffffffffffffffffffffffffffffffffffffffffffffffffffffff1916817bffffffffffffffffffffffffffffffffffffffffffffffffffffffff191614915050612097565b600190505b949350505050565b600073ffffffffffffffffffffffffffffffffffffffff168273ffffffffffffffffffffffffffffffffffffffff16141561210f576040517f08c379a00000000000000000000000000000000000000000000000000000000081526004016121069061305a565b60405180910390fd5b6121188161165d565b15612158576040517f08c379a000000000000000000000000000000000000000000000000000000000815260040161214f90612f5a565b60405180910390fd5b61216460008383611efe565b6001600360008473ffffffffffffffffffffffffffffffffffffffff1673ffffffffffffffffffffffffffffffffffffffff16815260200190815260200160002060008282546121b4919061325c565b92505081905550816002600083815260200190815260200160002060006101000a81548173ffffffffffffffffffffffffffffffffffffffff021916908373ffffffffffffffffffffffffffffffffffffffff160217905550808273ffffffffffffffffffffffffffffffffffffffff16600073ffffffffffffffffffffffffffffffffffffffff167fddf252ad1be2c89b69c2b068fc378daa952ba7f163c4a11628f55a4df523b3ef60405160405180910390a461227560008383611f03565b5050565b6000808273ffffffffffffffffffffffffffffffffffffffff16803b806020016040519081016040528181526000908060200190933c51119050919050565b8280546122c4906133cd565b90600052602060002090601f0160209004810192826122e65760008555612334565b82601f106122f75780548555612334565b8280016001018555821561233457600052602060002091601f016020900482015b82811115612333578254825591600101919060010190612318565b5b5090506123419190612345565b5090565b5b8082111561235e576000816000905550600101612346565b5090565b600061237561237084613166565b613135565b90508281526020810184848401111561238d57600080fd5b61239884828561338b565b509392505050565b6000813590506123af81613546565b92915050565b6000813590506123c48161355d565b92915050565b6000813590506123d981613574565b92915050565b6000815190506123ee81613574565b92915050565b600082601f83011261240557600080fd5b8135612415848260208601612362565b91505092915050565b60008135905061242d8161358b565b92915050565b60006020828403121561244557600080fd5b6000612453848285016123a0565b91505092915050565b6000806040838503121561246f57600080fd5b600061247d858286016123a0565b925050602061248e858286016123a0565b9150509250929050565b6000806000606084860312156124ad57600080fd5b60006124bb868287016123a0565b93505060206124cc868287016123a0565b92505060406124dd8682870161241e565b9150509250925092565b600080600080608085870312156124fd57600080fd5b600061250b878288016123a0565b945050602061251c878288016123a0565b935050604061252d8782880161241e565b925050606085013567ffffffffffffffff81111561254a57600080fd5b612556878288016123f4565b91505092959194509250565b6000806040838503121561257557600080fd5b6000612583858286016123a0565b9250506020612594858286016123b5565b9150509250929050565b600080604083850312156125b157600080fd5b60006125bf858286016123a0565b92505060206125d08582860161241e565b9150509250929050565b6000602082840312156125ec57600080fd5b60006125fa848285016123ca565b91505092915050565b60006020828403121561261557600080fd5b6000612623848285016123df565b91505092915050565b60006020828403121561263e57600080fd5b600061264c8482850161241e565b91505092915050565b600061266183836127ab565b905092915050565b60006126758383612df0565b60208301905092915050565b61268a81613317565b82525050565b600061269b826131b6565b6126a581856131fc565b9350836020820285016126b785613196565b8060005b858110156126f357848403895281516126d48582612655565b94506126df836131e2565b925060208a019950506001810190506126bb565b50829750879550505050505092915050565b6000612710826131c1565b61271a818561320d565b9350612725836131a6565b8060005b8381101561275657815161273d8882612669565b9750612748836131ef565b925050600181019050612729565b5085935050505092915050565b61276c81613329565b82525050565b600061277d826131cc565b612787818561321e565b935061279781856020860161339a565b6127a081613535565b840191505092915050565b60006127b6826131d7565b6127c0818561322f565b93506127d081856020860161339a565b6127d981613535565b840191505092915050565b60006127ef826131d7565b6127f98185613240565b935061280981856020860161339a565b61281281613535565b840191505092915050565b6000612828826131d7565b6128328185613251565b935061284281856020860161339a565b80840191505092915050565b600061285b603283613240565b91507f4552433732313a207472616e7366657220746f206e6f6e20455243373231526560008301527f63656976657220696d706c656d656e74657200000000000000000000000000006020830152604082019050919050565b60006128c1602583613240565b91507f4552433732313a207472616e736665722066726f6d20696e636f72726563742060008301527f6f776e65720000000000000000000000000000000000000000000000000000006020830152604082019050919050565b6000612927601c83613240565b91507f4552433732313a20746f6b656e20616c7265616479206d696e746564000000006000830152602082019050919050565b6000612967602483613240565b91507f4552433732313a207472616e7366657220746f20746865207a65726f2061646460008301527f72657373000000000000000000000000000000000000000000000000000000006020830152604082019050919050565b60006129cd601983613240565b91507f4552433732313a20617070726f766520746f2063616c6c6572000000000000006000830152602082019050919050565b6000612a0d600f83613240565b91507f494420697320746f6f206c6172676500000000000000000000000000000000006000830152602082019050919050565b6000612a4d602c83613240565b91507f4552433732313a206f70657261746f7220717565727920666f72206e6f6e657860008301527f697374656e7420746f6b656e00000000000000000000000000000000000000006020830152604082019050919050565b6000612ab3603883613240565b91507f4552433732313a20617070726f76652063616c6c6572206973206e6f74206f7760008301527f6e6572206e6f7220617070726f76656420666f7220616c6c00000000000000006020830152604082019050919050565b6000612b19602a83613240565b91507f4552433732313a2062616c616e636520717565727920666f7220746865207a6560008301527f726f2061646472657373000000000000000000000000000000000000000000006020830152604082019050919050565b6000612b7f602983613240565b91507f4552433732313a206f776e657220717565727920666f72206e6f6e657869737460008301527f656e7420746f6b656e00000000000000000000000000000000000000000000006020830152604082019050919050565b6000612be5602083613240565b91507f4552433732313a206d696e7420746f20746865207a65726f20616464726573736000830152602082019050919050565b6000612c25602c83613240565b91507f4552433732313a20617070726f76656420717565727920666f72206e6f6e657860008301527f697374656e7420746f6b656e00000000000000000000000000000000000000006020830152604082019050919050565b6000612c8b602f83613240565b91507f4552433732314d657461646174613a2055524920717565727920666f72206e6f60008301527f6e6578697374656e7420746f6b656e00000000000000000000000000000000006020830152604082019050919050565b6000612cf1602183613240565b91507f4552433732313a20617070726f76616c20746f2063757272656e74206f776e6560008301527f72000000000000000000000000000000000000000000000000000000000000006020830152604082019050919050565b6000612d57601183613240565b91507f4d757374207573652076616c69642049440000000000000000000000000000006000830152602082019050919050565b6000612d97603183613240565b91507f4552433732313a207472616e736665722063616c6c6572206973206e6f74206f60008301527f776e6572206e6f7220617070726f7665640000000000000000000000000000006020830152604082019050919050565b612df981613381565b82525050565b612e0881613381565b82525050565b6000612e1a828561281d565b9150612e26828461281d565b91508190509392505050565b6000602082019050612e476000830184612681565b92915050565b6000608082019050612e626000830187612681565b612e6f6020830186612681565b612e7c6040830185612dff565b8181036060830152612e8e8184612772565b905095945050505050565b60006020820190508181036000830152612eb38184612690565b905092915050565b60006020820190508181036000830152612ed58184612705565b905092915050565b6000602082019050612ef26000830184612763565b92915050565b60006020820190508181036000830152612f1281846127e4565b905092915050565b60006020820190508181036000830152612f338161284e565b9050919050565b60006020820190508181036000830152612f53816128b4565b9050919050565b60006020820190508181036000830152612f738161291a565b9050919050565b60006020820190508181036000830152612f938161295a565b9050919050565b60006020820190508181036000830152612fb3816129c0565b9050919050565b60006020820190508181036000830152612fd381612a00565b9050919050565b60006020820190508181036000830152612ff381612a40565b9050919050565b6000602082019050818103600083015261301381612aa6565b9050919050565b6000602082019050818103600083015261303381612b0c565b9050919050565b6000602082019050818103600083015261305381612b72565b9050919050565b6000602082019050818103600083015261307381612bd8565b9050919050565b6000602082019050818103600083015261309381612c18565b9050919050565b600060208201905081810360008301526130b381612c7e565b9050919050565b600060208201905081810360008301526130d381612ce4565b9050919050565b600060208201905081810360008301526130f381612d4a565b9050919050565b6000602082019050818103600083015261311381612d8a565b9050919050565b600060208201905061312f6000830184612dff565b92915050565b6000604051905081810181811067ffffffffffffffff8211171561315c5761315b613506565b5b8060405250919050565b600067ffffffffffffffff82111561318157613180613506565b5b601f19601f8301169050602081019050919050565b6000819050602082019050919050565b6000819050602082019050919050565b600081519050919050565b600081519050919050565b600081519050919050565b600081519050919050565b6000602082019050919050565b6000602082019050919050565b600082825260208201905092915050565b600082825260208201905092915050565b600082825260208201905092915050565b600082825260208201905092915050565b600082825260208201905092915050565b600081905092915050565b600061326782613381565b915061327283613381565b9250827fffffffffffffffffffffffffffffffffffffffffffffffffffffffffffffffff038211156132a7576132a6613479565b5b828201905092915050565b60006132bd82613381565b91506132c883613381565b9250826132d8576132d76134a8565b5b828204905092915050565b60006132ee82613381565b91506132f983613381565b92508282101561330c5761330b613479565b5b828203905092915050565b600061332282613361565b9050919050565b60008115159050919050565b60007fffffffff0000000000000000000000000000000000000000000000000000000082169050919050565b600073ffffffffffffffffffffffffffffffffffffffff82169050919050565b6000819050919050565b82818337600083830152505050565b60005b838110156133b857808201518184015260208101905061339d565b838111156133c7576000848401525b50505050565b600060028204905060018216806133e557607f821691505b602082108114156133f9576133f86134d7565b5b50919050565b600061340a82613381565b91507fffffffffffffffffffffffffffffffffffffffffffffffffffffffffffffffff82141561343d5761343c613479565b5b600182019050919050565b600061345382613381565b915061345e83613381565b92508261346e5761346d6134a8565b5b828206905092915050565b7f4e487b7100000000000000000000000000000000000000000000000000000000600052601160045260246000fd5b7f4e487b7100000000000000000000000000000000000000000000000000000000600052601260045260246000fd5b7f4e487b7100000000000000000000000000000000000000000000000000000000600052602260045260246000fd5b7f4e487b7100000000000000000000000000000000000000000000000000000000600052604160045260246000fd5b6000601f19601f8301169050919050565b61354f81613317565b811461355a57600080fd5b50565b61356681613329565b811461357157600080fd5b50565b61357d81613335565b811461358857600080fd5b50565b61359481613381565b811461359f57600080fd5b5056fea264697066735822122007cf6b8fa85ee623ab8464fb14f3a7a200492d85db5d7ec21b5a67fb88776baf64736f6c63430008000033",
  "linkReferences": {},
  "deployedLinkReferences": {}
}