{
  "_format": "hh-sol-artifact-1",
  "contractName": "BillionaireBattles",
  "sourceName": "contracts/BillionaireBattles.sol",
  "abi": [
    {
      "inputs": [
        {
          "internalType": "string[]",
          "name": "names",
          "type": "string[]"
        },
        {
          "internalType": "string[]",
          "name": "descriptions",
          "type": "string[]"
        },
        {
          "internalType": "string[]",
          "name": "images",
          "type": "string[]"
        },
        {
          "internalType": "uint256[]",
          "name": "healths",
          "type": "uint256[]"
        },
        {
          "internalType": "uint256[]",
          "name": "maxHealths",
          "type": "uint256[]"
        },
        {
          "internalType": "string[]",
          "name": "attack1Names",
          "type": "string[]"
        },
        {
          "internalType": "string[]",
          "name": "attack2Names",
          "type": "string[]"
        },
        {
          "internalType": "string[]",
          "name": "attack3Names",
          "type": "string[]"
        },
        {
          "internalType": "uint256[]",
          "name": "attack1Damages",
          "type": "uint256[]"
        },
        {
          "internalType": "uint256[]",
          "name": "attack2Damages",
          "type": "uint256[]"
        },
        {
          "internalType": "uint256[]",
          "name": "attack3Damages",
          "type": "uint256[]"
        }
      ],
      "stateMutability": "nonpayable",
      "type": "constructor"
    },
    {
      "anonymous": false,
      "inputs": [
        {
          "indexed": true,
          "internalType": "address",
          "name": "owner",
          "type": "address"
        },
        {
          "indexed": true,
          "internalType": "address",
          "name": "approved",
          "type": "address"
        },
        {
          "indexed": true,
          "internalType": "uint256",
          "name": "tokenId",
          "type": "uint256"
        }
      ],
      "name": "Approval",
      "type": "event"
    },
    {
      "anonymous": false,
      "inputs": [
        {
          "indexed": true,
          "internalType": "address",
          "name": "owner",
          "type": "address"
        },
        {
          "indexed": true,
          "internalType": "address",
          "name": "operator",
          "type": "address"
        },
        {
          "indexed": false,
          "internalType": "bool",
          "name": "approved",
          "type": "bool"
        }
      ],
      "name": "ApprovalForAll",
      "type": "event"
    },
    {
      "anonymous": false,
      "inputs": [
        {
          "indexed": true,
          "internalType": "address",
          "name": "from",
          "type": "address"
        },
        {
          "indexed": true,
          "internalType": "address",
          "name": "to",
          "type": "address"
        },
        {
          "indexed": true,
          "internalType": "uint256",
          "name": "tokenId",
          "type": "uint256"
        }
      ],
      "name": "Transfer",
      "type": "event"
    },
    {
      "inputs": [
        {
          "internalType": "address",
          "name": "to",
          "type": "address"
        },
        {
          "internalType": "uint256",
          "name": "tokenId",
          "type": "uint256"
        }
      ],
      "name": "approve",
      "outputs": [],
      "stateMutability": "nonpayable",
      "type": "function"
    },
    {
      "inputs": [
        {
          "internalType": "address",
          "name": "owner",
          "type": "address"
        }
      ],
      "name": "balanceOf",
      "outputs": [
        {
          "internalType": "uint256",
          "name": "",
          "type": "uint256"
        }
      ],
      "stateMutability": "view",
      "type": "function"
    },
    {
      "inputs": [
        {
          "internalType": "uint256",
          "name": "tokenId",
          "type": "uint256"
        },
        {
          "internalType": "uint256",
          "name": "price",
          "type": "uint256"
        }
      ],
      "name": "createMarketListing",
      "outputs": [],
      "stateMutability": "nonpayable",
      "type": "function"
    },
    {
      "inputs": [
        {
          "internalType": "uint256",
          "name": "tokenId",
          "type": "uint256"
        }
      ],
      "name": "createMarketSale",
      "outputs": [],
      "stateMutability": "payable",
      "type": "function"
    },
    {
      "inputs": [],
      "name": "getAllCharacters",
      "outputs": [
        {
          "internalType": "string",
          "name": "",
          "type": "string"
        }
      ],
      "stateMutability": "view",
      "type": "function"
    },
    {
      "inputs": [
        {
          "internalType": "uint256",
          "name": "tokenId",
          "type": "uint256"
        }
      ],
      "name": "getApproved",
      "outputs": [
        {
          "internalType": "address",
          "name": "",
          "type": "address"
        }
      ],
      "stateMutability": "view",
      "type": "function"
    },
    {
      "inputs": [],
      "name": "getCharacterCount",
      "outputs": [
        {
          "internalType": "uint256",
          "name": "",
          "type": "uint256"
        }
      ],
      "stateMutability": "view",
      "type": "function"
    },
    {
      "inputs": [
        {
          "internalType": "uint256",
          "name": "index",
          "type": "uint256"
        }
      ],
      "name": "getCharacterDisplayDataById",
      "outputs": [
        {
          "internalType": "string[]",
          "name": "",
          "type": "string[]"
        }
      ],
      "stateMutability": "view",
      "type": "function"
    },
    {
      "inputs": [
        {
          "internalType": "uint256",
          "name": "index",
          "type": "uint256"
        }
      ],
      "name": "getCharacterHealthAndMaxHealthById",
      "outputs": [
        {
          "internalType": "uint256[]",
          "name": "",
          "type": "uint256[]"
        }
      ],
      "stateMutability": "view",
      "type": "function"
    },
    {
      "inputs": [
        {
          "internalType": "address",
          "name": "current",
          "type": "address"
        }
      ],
      "name": "getCharactersFromAddress",
      "outputs": [
        {
          "internalType": "uint256[]",
          "name": "",
          "type": "uint256[]"
        }
      ],
      "stateMutability": "view",
      "type": "function"
    },
    {
      "inputs": [],
      "name": "getListingFee",
      "outputs": [
        {
          "internalType": "uint256",
          "name": "",
          "type": "uint256"
        }
      ],
      "stateMutability": "view",
      "type": "function"
    },
    {
      "inputs": [],
      "name": "getMarketItems",
      "outputs": [
        {
          "internalType": "uint256[]",
          "name": "",
          "type": "uint256[]"
        }
      ],
      "stateMutability": "view",
      "type": "function"
    },
    {
      "inputs": [
        {
          "internalType": "uint256",
          "name": "id",
          "type": "uint256"
        }
      ],
      "name": "getOwnerOfCharcterByID",
      "outputs": [
        {
          "internalType": "address",
          "name": "",
          "type": "address"
        }
      ],
      "stateMutability": "view",
      "type": "function"
    },
    {
      "inputs": [
        {
          "internalType": "uint256",
          "name": "id",
          "type": "uint256"
        }
      ],
      "name": "getPriceById",
      "outputs": [
        {
          "internalType": "uint256",
          "name": "",
          "type": "uint256"
        }
      ],
      "stateMutability": "view",
      "type": "function"
    },
    {
      "inputs": [],
      "name": "getReviveCost",
      "outputs": [
        {
          "internalType": "uint256",
          "name": "",
          "type": "uint256"
        }
      ],
      "stateMutability": "view",
      "type": "function"
    },
    {
      "inputs": [
        {
          "internalType": "address",
          "name": "owner",
          "type": "address"
        },
        {
          "internalType": "address",
          "name": "operator",
          "type": "address"
        }
      ],
      "name": "isApprovedForAll",
      "outputs": [
        {
          "internalType": "bool",
          "name": "",
          "type": "bool"
        }
      ],
      "stateMutability": "view",
      "type": "function"
    },
    {
      "inputs": [
        {
          "internalType": "uint256",
          "name": "id",
          "type": "uint256"
        }
      ],
      "name": "mintItemById",
      "outputs": [],
      "stateMutability": "nonpayable",
      "type": "function"
    },
    {
      "inputs": [],
      "name": "name",
      "outputs": [
        {
          "internalType": "string",
          "name": "",
          "type": "string"
        }
      ],
      "stateMutability": "view",
      "type": "function"
    },
    {
      "inputs": [
        {
          "internalType": "uint256",
          "name": "tokenId",
          "type": "uint256"
        }
      ],
      "name": "ownerOf",
      "outputs": [
        {
          "internalType": "address",
          "name": "",
          "type": "address"
        }
      ],
      "stateMutability": "view",
      "type": "function"
    },
    {
      "inputs": [
        {
          "internalType": "address",
          "name": "from",
          "type": "address"
        },
        {
          "internalType": "address",
          "name": "to",
          "type": "address"
        },
        {
          "internalType": "uint256",
          "name": "tokenId",
          "type": "uint256"
        }
      ],
      "name": "safeTransferFrom",
      "outputs": [],
      "stateMutability": "nonpayable",
      "type": "function"
    },
    {
      "inputs": [
        {
          "internalType": "address",
          "name": "from",
          "type": "address"
        },
        {
          "internalType": "address",
          "name": "to",
          "type": "address"
        },
        {
          "internalType": "uint256",
          "name": "tokenId",
          "type": "uint256"
        },
        {
          "internalType": "bytes",
          "name": "_data",
          "type": "bytes"
        }
      ],
      "name": "safeTransferFrom",
      "outputs": [],
      "stateMutability": "nonpayable",
      "type": "function"
    },
    {
      "inputs": [
        {
          "internalType": "address",
          "name": "operator",
          "type": "address"
        },
        {
          "internalType": "bool",
          "name": "approved",
          "type": "bool"
        }
      ],
      "name": "setApprovalForAll",
      "outputs": [],
      "stateMutability": "nonpayable",
      "type": "function"
    },
    {
      "inputs": [
        {
          "internalType": "bytes4",
          "name": "interfaceId",
          "type": "bytes4"
        }
      ],
      "name": "supportsInterface",
      "outputs": [
        {
          "internalType": "bool",
          "name": "",
          "type": "bool"
        }
      ],
      "stateMutability": "view",
      "type": "function"
    },
    {
      "inputs": [],
      "name": "symbol",
      "outputs": [
        {
          "internalType": "string",
          "name": "",
          "type": "string"
        }
      ],
      "stateMutability": "view",
      "type": "function"
    },
    {
      "inputs": [
        {
          "internalType": "uint256",
          "name": "tokenId",
          "type": "uint256"
        }
      ],
      "name": "tokenURI",
      "outputs": [
        {
          "internalType": "string",
          "name": "",
          "type": "string"
        }
      ],
      "stateMutability": "view",
      "type": "function"
    },
    {
      "inputs": [
        {
          "internalType": "address",
          "name": "from",
          "type": "address"
        },
        {
          "internalType": "address",
          "name": "to",
          "type": "address"
        },
        {
          "internalType": "uint256",
          "name": "tokenId",
          "type": "uint256"
        }
      ],
      "name": "transferFrom",
      "outputs": [],
      "stateMutability": "nonpayable",
      "type": "function"
    }
  ],
  "bytecode": "0x608060405260006008553480156200001657600080fd5b5060405162004a9938038062004a9983398181016040528101906200003c919062000966565b6040518060400160405280601381526020017f42696c6c696f6e6169726520426174746c6573000000000000000000000000008152506040518060400160405280600381526020017f42425400000000000000000000000000000000000000000000000000000000008152508160009080519060200190620000c0929190620006f9565b508060019080519060200190620000d9929190620006f9565b505050620001276040518060400160405280600281526020017f68690000000000000000000000000000000000000000000000000000000000008152506200062d60201b62001a6d1760201c565b6005600681905550600560078190555060005b60028110156200061b57600b604051806101a001604052803073ffffffffffffffffffffffffffffffffffffffff1681526020016000151581526020018e8481518110620001b1577f4e487b7100000000000000000000000000000000000000000000000000000000600052603260045260246000fd5b602002602001015181526020018d8481518110620001f8577f4e487b7100000000000000000000000000000000000000000000000000000000600052603260045260246000fd5b602002602001015181526020018c84815181106200023f577f4e487b7100000000000000000000000000000000000000000000000000000000600052603260045260246000fd5b602002602001015181526020018b848151811062000286577f4e487b7100000000000000000000000000000000000000000000000000000000600052603260045260246000fd5b602002602001015181526020018a8481518110620002cd577f4e487b7100000000000000000000000000000000000000000000000000000000600052603260045260246000fd5b6020026020010151815260200189848151811062000314577f4e487b7100000000000000000000000000000000000000000000000000000000600052603260045260246000fd5b602002602001015181526020018884815181106200035b577f4e487b7100000000000000000000000000000000000000000000000000000000600052603260045260246000fd5b60200260200101518152602001878481518110620003a2577f4e487b7100000000000000000000000000000000000000000000000000000000600052603260045260246000fd5b60200260200101518152602001868481518110620003e9577f4e487b7100000000000000000000000000000000000000000000000000000000600052603260045260246000fd5b6020026020010151815260200185848151811062000430577f4e487b7100000000000000000000000000000000000000000000000000000000600052603260045260246000fd5b6020026020010151815260200184848151811062000477577f4e487b7100000000000000000000000000000000000000000000000000000000600052603260045260246000fd5b602002602001015181525090806001815401808255809150506001900390600052602060002090600c020160009091909190915060008201518160000160006101000a81548173ffffffffffffffffffffffffffffffffffffffff021916908373ffffffffffffffffffffffffffffffffffffffff16021790555060208201518160000160146101000a81548160ff021916908315150217905550604082015181600101908051906020019062000530929190620006f9565b5060608201518160020190805190602001906200054f929190620006f9565b5060808201518160030190805190602001906200056e929190620006f9565b5060a0820151816004015560c0820151816005015560e0820151816006019080519060200190620005a1929190620006f9565b50610100820151816007019080519060200190620005c1929190620006f9565b50610120820151816008019080519060200190620005e1929190620006f9565b50610140820151816009015561016082015181600a015561018082015181600b015550508080620006129062000d3c565b9150506200013a565b50505050505050505050505062000e42565b620006cd8160405160240162000644919062000bc1565b6040516020818303038152906040527f41304fac000000000000000000000000000000000000000000000000000000007bffffffffffffffffffffffffffffffffffffffffffffffffffffffff19166020820180517bffffffffffffffffffffffffffffffffffffffffffffffffffffffff8381831617835250505050620006d060201b60201c565b50565b60008151905060006a636f6e736f6c652e6c6f679050602083016000808483855afa5050505050565b828054620007079062000d06565b90600052602060002090601f0160209004810192826200072b576000855562000777565b82601f106200074657805160ff191683800117855562000777565b8280016001018555821562000777579182015b828111156200077657825182559160200191906001019062000759565b5b5090506200078691906200078a565b5090565b5b80821115620007a55760008160009055506001016200078b565b5090565b6000620007c0620007ba8462000c19565b62000be5565b9050808382526020820190508260005b85811015620008045781518501620007e9888262000922565b845260208401935060208301925050600181019050620007d0565b5050509392505050565b6000620008256200081f8462000c48565b62000be5565b905080838252602082019050828560208602820111156200084557600080fd5b60005b858110156200087957816200085e88826200094f565b84526020840193506020830192505060018101905062000848565b5050509392505050565b60006200089a620008948462000c77565b62000be5565b905082815260208101848484011115620008b357600080fd5b620008c084828562000cd0565b509392505050565b600082601f830112620008da57600080fd5b8151620008ec848260208601620007a9565b91505092915050565b600082601f8301126200090757600080fd5b8151620009198482602086016200080e565b91505092915050565b600082601f8301126200093457600080fd5b81516200094684826020860162000883565b91505092915050565b600081519050620009608162000e28565b92915050565b60008060008060008060008060008060006101608c8e0312156200098957600080fd5b60008c015167ffffffffffffffff811115620009a457600080fd5b620009b28e828f01620008c8565b9b505060208c015167ffffffffffffffff811115620009d057600080fd5b620009de8e828f01620008c8565b9a505060408c015167ffffffffffffffff811115620009fc57600080fd5b62000a0a8e828f01620008c8565b99505060608c015167ffffffffffffffff81111562000a2857600080fd5b62000a368e828f01620008f5565b98505060808c015167ffffffffffffffff81111562000a5457600080fd5b62000a628e828f01620008f5565b97505060a08c015167ffffffffffffffff81111562000a8057600080fd5b62000a8e8e828f01620008c8565b96505060c08c015167ffffffffffffffff81111562000aac57600080fd5b62000aba8e828f01620008c8565b95505060e08c015167ffffffffffffffff81111562000ad857600080fd5b62000ae68e828f01620008c8565b9450506101008c015167ffffffffffffffff81111562000b0557600080fd5b62000b138e828f01620008f5565b9350506101208c015167ffffffffffffffff81111562000b3257600080fd5b62000b408e828f01620008f5565b9250506101408c015167ffffffffffffffff81111562000b5f57600080fd5b62000b6d8e828f01620008f5565b9150509295989b509295989b9093969950565b600062000b8d8262000caa565b62000b99818562000cb5565b935062000bab81856020860162000cd0565b62000bb68162000e17565b840191505092915050565b6000602082019050818103600083015262000bdd818462000b80565b905092915050565b6000604051905081810181811067ffffffffffffffff8211171562000c0f5762000c0e62000de8565b5b8060405250919050565b600067ffffffffffffffff82111562000c375762000c3662000de8565b5b602082029050602081019050919050565b600067ffffffffffffffff82111562000c665762000c6562000de8565b5b602082029050602081019050919050565b600067ffffffffffffffff82111562000c955762000c9462000de8565b5b601f19601f8301169050602081019050919050565b600081519050919050565b600082825260208201905092915050565b6000819050919050565b60005b8381101562000cf057808201518184015260208101905062000cd3565b8381111562000d00576000848401525b50505050565b6000600282049050600182168062000d1f57607f821691505b6020821081141562000d365762000d3562000db9565b5b50919050565b600062000d498262000cc6565b91507fffffffffffffffffffffffffffffffffffffffffffffffffffffffffffffffff82141562000d7f5762000d7e62000d8a565b5b600182019050919050565b7f4e487b7100000000000000000000000000000000000000000000000000000000600052601160045260246000fd5b7f4e487b7100000000000000000000000000000000000000000000000000000000600052602260045260246000fd5b7f4e487b7100000000000000000000000000000000000000000000000000000000600052604160045260246000fd5b6000601f19601f8301169050919050565b62000e338162000cc6565b811462000e3f57600080fd5b50565b613c478062000e526000396000f3fe6080604052600436106101815760003560e01c806368baf0a0116100d1578063b88d4fde1161008a578063be9af53611610064578063be9af536146105ba578063c87b56dd146105d6578063e985e9c514610613578063fdb205eb1461065057610181565b8063b88d4fde14610529578063b8fe6abe14610552578063b9256b1b1461057d57610181565b806368baf0a0146103f357806370a08231146104305780637577e86d1461046d57806383e56dca146104aa57806395d89b41146104d5578063a22cb4651461050057610181565b806323b872dd1161013e57806342842e0e1161011857806342842e0e146103395780636352211e146103625780636456152a1461039f57806365df8ce7146103c857610181565b806323b872dd146102ba57806329aa3a42146102e35780633d936d2d1461030e57610181565b806301ffc9a71461018657806306fdde03146101c3578063081812fc146101ee578063095ea7b31461022b5780631a9a0428146102545780631bafbaa614610291575b600080fd5b34801561019257600080fd5b506101ad60048036038101906101a89190612aed565b61068d565b6040516101ba91906134ec565b60405180910390f35b3480156101cf57600080fd5b506101d861076f565b6040516101e59190613507565b60405180910390f35b3480156101fa57600080fd5b5061021560048036038101906102109190612b3f565b610801565b6040516102229190613441565b60405180910390f35b34801561023757600080fd5b50610252600480360381019061024d9190612ab1565b610886565b005b34801561026057600080fd5b5061027b60048036038101906102769190612b3f565b61099e565b6040516102889190613441565b60405180910390f35b34801561029d57600080fd5b506102b860048036038101906102b39190612b3f565b6109de565b005b3480156102c657600080fd5b506102e160048036038101906102dc91906129ab565b610ccd565b005b3480156102ef57600080fd5b506102f8610d2d565b60405161030591906134ca565b60405180910390f35b34801561031a57600080fd5b50610323610e53565b6040516103309190613789565b60405180910390f35b34801561034557600080fd5b50610360600480360381019061035b91906129ab565b610e5d565b005b34801561036e57600080fd5b5061038960048036038101906103849190612b3f565b610e7d565b6040516103969190613441565b60405180910390f35b3480156103ab57600080fd5b506103c660048036038101906103c19190612b68565b610f2f565b005b3480156103d457600080fd5b506103dd610fc8565b6040516103ea9190613789565b60405180910390f35b3480156103ff57600080fd5b5061041a60048036038101906104159190612946565b610fd2565b60405161042791906134ca565b60405180910390f35b34801561043c57600080fd5b5061045760048036038101906104529190612946565b611137565b6040516104649190613789565b60405180910390f35b34801561047957600080fd5b50610494600480360381019061048f9190612b3f565b6111ef565b6040516104a191906134a8565b60405180910390f35b3480156104b657600080fd5b506104bf611447565b6040516104cc9190613507565b60405180910390f35b3480156104e157600080fd5b506104ea6114ee565b6040516104f79190613507565b60405180910390f35b34801561050c57600080fd5b5061052760048036038101906105229190612a75565b611580565b005b34801561053557600080fd5b50610550600480360381019061054b91906129fa565b611596565b005b34801561055e57600080fd5b506105676115f8565b6040516105749190613789565b60405180910390f35b34801561058957600080fd5b506105a4600480360381019061059f9190612b3f565b611602565b6040516105b19190613789565b60405180910390f35b6105d460048036038101906105cf9190612b3f565b61161f565b005b3480156105e257600080fd5b506105fd60048036038101906105f89190612b3f565b6117ed565b60405161060a9190613507565b60405180910390f35b34801561061f57600080fd5b5061063a6004803603810190610635919061296f565b611894565b60405161064791906134ec565b60405180910390f35b34801561065c57600080fd5b5061067760048036038101906106729190612b3f565b611928565b60405161068491906134ca565b60405180910390f35b60007f80ac58cd000000000000000000000000000000000000000000000000000000007bffffffffffffffffffffffffffffffffffffffffffffffffffffffff1916827bffffffffffffffffffffffffffffffffffffffffffffffffffffffff1916148061075857507f5b5e139f000000000000000000000000000000000000000000000000000000007bffffffffffffffffffffffffffffffffffffffffffffffffffffffff1916827bffffffffffffffffffffffffffffffffffffffffffffffffffffffff1916145b80610768575061076782611b06565b5b9050919050565b60606000805461077e90613a3c565b80601f01602080910402602001604051908101604052809291908181526020018280546107aa90613a3c565b80156107f75780601f106107cc576101008083540402835291602001916107f7565b820191906000526020600020905b8154815290600101906020018083116107da57829003601f168201915b5050505050905090565b600061080c82611b70565b61084b576040517f08c379a0000000000000000000000000000000000000000000000000000000008152600401610842906136c9565b60405180910390fd5b6004600083815260200190815260200160002060009054906101000a900473ffffffffffffffffffffffffffffffffffffffff169050919050565b600061089182610e7d565b90508073ffffffffffffffffffffffffffffffffffffffff168373ffffffffffffffffffffffffffffffffffffffff161415610902576040517f08c379a00000000000000000000000000000000000000000000000000000000081526004016108f990613709565b60405180910390fd5b8073ffffffffffffffffffffffffffffffffffffffff16610921611bdc565b73ffffffffffffffffffffffffffffffffffffffff161480610950575061094f8161094a611bdc565b611894565b5b61098f576040517f08c379a000000000000000000000000000000000000000000000000000000000815260040161098690613649565b60405180910390fd5b6109998383611be4565b505050565b60006009600083815260200190815260200160002060000160009054906101000a900473ffffffffffffffffffffffffffffffffffffffff169050919050565b6000811015610a22576040517f08c379a0000000000000000000000000000000000000000000000000000000008152600401610a1990613729565b60405180910390fd5b600b805490508110610a69576040517f08c379a0000000000000000000000000000000000000000000000000000000008152600401610a6090613609565b60405180910390fd5b60086000815480929190610a7c90613a6e565b9190505550600b8181548110610abb577f4e487b7100000000000000000000000000000000000000000000000000000000600052603260045260246000fd5b90600052602060002090600c02016009600060085481526020019081526020016000206000820160009054906101000a900473ffffffffffffffffffffffffffffffffffffffff168160000160006101000a81548173ffffffffffffffffffffffffffffffffffffffff021916908373ffffffffffffffffffffffffffffffffffffffff1602179055506000820160149054906101000a900460ff168160000160146101000a81548160ff0219169083151502179055506001820181600101908054610b8690613a3c565b610b919291906127cb565b506002820181600201908054610ba690613a3c565b610bb19291906127cb565b506003820181600301908054610bc690613a3c565b610bd19291906127cb565b5060048201548160040155600582015481600501556006820181600601908054610bfa90613a3c565b610c059291906127cb565b506007820181600701908054610c1a90613a3c565b610c259291906127cb565b506008820181600801908054610c3a90613a3c565b610c459291906127cb565b5060098201548160090155600a82015481600a0155600b82015481600b01559050503360096000600854815260200190815260200160002060000160006101000a81548173ffffffffffffffffffffffffffffffffffffffff021916908373ffffffffffffffffffffffffffffffffffffffff160217905550610cca33600854611c9d565b50565b610cde610cd8611bdc565b82611cbb565b610d1d576040517f08c379a0000000000000000000000000000000000000000000000000000000008152600401610d1490613749565b60405180910390fd5b610d28838383611d99565b505050565b606060008060085467ffffffffffffffff811115610d74577f4e487b7100000000000000000000000000000000000000000000000000000000600052604160045260246000fd5b604051908082528060200260200182016040528015610da25781602001602082028036833780820191505090505b50905060005b600854811015610e4a57600115156009600083815260200190815260200160002060000160149054906101000a900460ff1615151415610e375780828481518110610e1c577f4e487b7100000000000000000000000000000000000000000000000000000000600052603260045260246000fd5b6020026020010181815250508280610e3390613a6e565b9350505b8080610e4290613a6e565b915050610da8565b50809250505090565b6000600754905090565b610e7883838360405180602001604052806000815250611596565b505050565b6000806002600084815260200190815260200160002060009054906101000a900473ffffffffffffffffffffffffffffffffffffffff169050600073ffffffffffffffffffffffffffffffffffffffff168173ffffffffffffffffffffffffffffffffffffffff161415610f26576040517f08c379a0000000000000000000000000000000000000000000000000000000008152600401610f1d90613689565b60405180910390fd5b80915050919050565b60008111610f72576040517f08c379a0000000000000000000000000000000000000000000000000000000008152600401610f6990613589565b60405180910390fd5b80600a600084815260200190815260200160002081905550610f95333084611d99565b60016009600084815260200190815260200160002060000160146101000a81548160ff0219169083151502179055505050565b6000600854905090565b606060008060085467ffffffffffffffff811115611019577f4e487b7100000000000000000000000000000000000000000000000000000000600052604160045260246000fd5b6040519080825280602002602001820160405280156110475781602001602082028036833780820191505090505b5090506000600190505b600854811161112c578473ffffffffffffffffffffffffffffffffffffffff166009600083815260200190815260200160002060000160009054906101000a900473ffffffffffffffffffffffffffffffffffffffff1673ffffffffffffffffffffffffffffffffffffffff16141561111957808284815181106110fe577f4e487b7100000000000000000000000000000000000000000000000000000000600052603260045260246000fd5b602002602001018181525050828061111590613a6e565b9350505b808061112490613a6e565b915050611051565b508092505050919050565b60008073ffffffffffffffffffffffffffffffffffffffff168273ffffffffffffffffffffffffffffffffffffffff1614156111a8576040517f08c379a000000000000000000000000000000000000000000000000000000000815260040161119f90613669565b60405180910390fd5b600360008373ffffffffffffffffffffffffffffffffffffffff1673ffffffffffffffffffffffffffffffffffffffff168152602001908152602001600020549050919050565b60606000600467ffffffffffffffff811115611234577f4e487b7100000000000000000000000000000000000000000000000000000000600052604160045260246000fd5b60405190808252806020026020018201604052801561126757816020015b60608152602001906001900390816112525790505b509050600060096000858152602001908152602001600020600301805461128d90613a3c565b80601f01602080910402602001604051908101604052809291908181526020018280546112b990613a3c565b80156113065780601f106112db57610100808354040283529160200191611306565b820191906000526020600020905b8154815290600101906020018083116112e957829003601f168201915b50505050509050600060096000868152602001908152602001600020600101805461133090613a3c565b80601f016020809104026020016040519081016040528092919081815260200182805461135c90613a3c565b80156113a95780601f1061137e576101008083540402835291602001916113a9565b820191906000526020600020905b81548152906001019060200180831161138c57829003601f168201915b5050505050905081836000815181106113eb577f4e487b7100000000000000000000000000000000000000000000000000000000600052603260045260246000fd5b60200260200101819052508083600181518110611431577f4e487b7100000000000000000000000000000000000000000000000000000000600052603260045260246000fd5b6020026020010181905250829350505050919050565b60606009600060018152602001908152602001600020600101805461146b90613a3c565b80601f016020809104026020016040519081016040528092919081815260200182805461149790613a3c565b80156114e45780601f106114b9576101008083540402835291602001916114e4565b820191906000526020600020905b8154815290600101906020018083116114c757829003601f168201915b5050505050905090565b6060600180546114fd90613a3c565b80601f016020809104026020016040519081016040528092919081815260200182805461152990613a3c565b80156115765780601f1061154b57610100808354040283529160200191611576565b820191906000526020600020905b81548152906001019060200180831161155957829003601f168201915b5050505050905090565b61159261158b611bdc565b8383612000565b5050565b6115a76115a1611bdc565b83611cbb565b6115e6576040517f08c379a00000000000000000000000000000000000000000000000000000000081526004016115dd90613749565b60405180910390fd5b6115f28484848461216d565b50505050565b6000600654905090565b6000600a6000838152602001908152602001600020549050919050565b600115156009600083815260200190815260200160002060000160149054906101000a900460ff16151514611689576040517f08c379a0000000000000000000000000000000000000000000000000000000008152600401611680906135e9565b60405180910390fd5b34600a600083815260200190815260200160002054146116de576040517f08c379a00000000000000000000000000000000000000000000000000000000081526004016116d590613769565b60405180910390fd5b6009600082815260200190815260200160002060000160009054906101000a900473ffffffffffffffffffffffffffffffffffffffff1673ffffffffffffffffffffffffffffffffffffffff166108fc349081150290604051600060405180830381858888f1935050505015801561175a573d6000803e3d6000fd5b50336009600083815260200190815260200160002060000160006101000a81548173ffffffffffffffffffffffffffffffffffffffff021916908373ffffffffffffffffffffffffffffffffffffffff16021790555060006009600083815260200190815260200160002060000160146101000a81548160ff0219169083151502179055506117ea303383611d99565b50565b60606117f882611b70565b611837576040517f08c379a000000000000000000000000000000000000000000000000000000000815260040161182e906136e9565b60405180910390fd5b60006118416121c9565b90506000815111611861576040518060200160405280600081525061188c565b8061186b846121e0565b60405160200161187c92919061341d565b6040516020818303038152906040525b915050919050565b6000600560008473ffffffffffffffffffffffffffffffffffffffff1673ffffffffffffffffffffffffffffffffffffffff16815260200190815260200160002060008373ffffffffffffffffffffffffffffffffffffffff1673ffffffffffffffffffffffffffffffffffffffff16815260200190815260200160002060009054906101000a900460ff16905092915050565b60606000600267ffffffffffffffff81111561196d577f4e487b7100000000000000000000000000000000000000000000000000000000600052604160045260246000fd5b60405190808252806020026020018201604052801561199b5781602001602082028036833780820191505090505b5090506000600960008581526020019081526020016000206004015490506000600960008681526020019081526020016000206005015490508183600081518110611a0f577f4e487b7100000000000000000000000000000000000000000000000000000000600052603260045260246000fd5b6020026020010181815250508083600181518110611a56577f4e487b7100000000000000000000000000000000000000000000000000000000600052603260045260246000fd5b602002602001018181525050829350505050919050565b611b0381604051602401611a819190613507565b6040516020818303038152906040527f41304fac000000000000000000000000000000000000000000000000000000007bffffffffffffffffffffffffffffffffffffffffffffffffffffffff19166020820180517bffffffffffffffffffffffffffffffffffffffffffffffffffffffff838183161783525050505061238d565b50565b60007f01ffc9a7000000000000000000000000000000000000000000000000000000007bffffffffffffffffffffffffffffffffffffffffffffffffffffffff1916827bffffffffffffffffffffffffffffffffffffffffffffffffffffffff1916149050919050565b60008073ffffffffffffffffffffffffffffffffffffffff166002600084815260200190815260200160002060009054906101000a900473ffffffffffffffffffffffffffffffffffffffff1673ffffffffffffffffffffffffffffffffffffffff1614159050919050565b600033905090565b816004600083815260200190815260200160002060006101000a81548173ffffffffffffffffffffffffffffffffffffffff021916908373ffffffffffffffffffffffffffffffffffffffff160217905550808273ffffffffffffffffffffffffffffffffffffffff16611c5783610e7d565b73ffffffffffffffffffffffffffffffffffffffff167f8c5be1e5ebec7d5bd14f71427d1e84f3dd0314c0f7b2291e5b200ac8c7c3b92560405160405180910390a45050565b611cb78282604051806020016040528060008152506123b6565b5050565b6000611cc682611b70565b611d05576040517f08c379a0000000000000000000000000000000000000000000000000000000008152600401611cfc90613629565b60405180910390fd5b6000611d1083610e7d565b90508073ffffffffffffffffffffffffffffffffffffffff168473ffffffffffffffffffffffffffffffffffffffff161480611d525750611d518185611894565b5b80611d9057508373ffffffffffffffffffffffffffffffffffffffff16611d7884610801565b73ffffffffffffffffffffffffffffffffffffffff16145b91505092915050565b8273ffffffffffffffffffffffffffffffffffffffff16611db982610e7d565b73ffffffffffffffffffffffffffffffffffffffff1614611e0f576040517f08c379a0000000000000000000000000000000000000000000000000000000008152600401611e0690613549565b60405180910390fd5b600073ffffffffffffffffffffffffffffffffffffffff168273ffffffffffffffffffffffffffffffffffffffff161415611e7f576040517f08c379a0000000000000000000000000000000000000000000000000000000008152600401611e76906135a9565b60405180910390fd5b611e8a838383612411565b611e95600082611be4565b6001600360008573ffffffffffffffffffffffffffffffffffffffff1673ffffffffffffffffffffffffffffffffffffffff1681526020019081526020016000206000828254611ee59190613952565b925050819055506001600360008473ffffffffffffffffffffffffffffffffffffffff1673ffffffffffffffffffffffffffffffffffffffff1681526020019081526020016000206000828254611f3c91906138cb565b92505081905550816002600083815260200190815260200160002060006101000a81548173ffffffffffffffffffffffffffffffffffffffff021916908373ffffffffffffffffffffffffffffffffffffffff160217905550808273ffffffffffffffffffffffffffffffffffffffff168473ffffffffffffffffffffffffffffffffffffffff167fddf252ad1be2c89b69c2b068fc378daa952ba7f163c4a11628f55a4df523b3ef60405160405180910390a4611ffb838383612416565b505050565b8173ffffffffffffffffffffffffffffffffffffffff168373ffffffffffffffffffffffffffffffffffffffff16141561206f576040517f08c379a0000000000000000000000000000000000000000000000000000000008152600401612066906135c9565b60405180910390fd5b80600560008573ffffffffffffffffffffffffffffffffffffffff1673ffffffffffffffffffffffffffffffffffffffff16815260200190815260200160002060008473ffffffffffffffffffffffffffffffffffffffff1673ffffffffffffffffffffffffffffffffffffffff16815260200190815260200160002060006101000a81548160ff0219169083151502179055508173ffffffffffffffffffffffffffffffffffffffff168373ffffffffffffffffffffffffffffffffffffffff167f17307eab39ab6107e8899845ad3d59bd9653f200f220920489ca2b5937696c318360405161216091906134ec565b60405180910390a3505050565b612178848484611d99565b6121848484848461241b565b6121c3576040517f08c379a00000000000000000000000000000000000000000000000000000000081526004016121ba90613529565b60405180910390fd5b50505050565b606060405180602001604052806000815250905090565b60606000821415612228576040518060400160405280600181526020017f30000000000000000000000000000000000000000000000000000000000000008152509050612388565b600082905060005b6000821461225a57808061224390613a6e565b915050600a826122539190613921565b9150612230565b60008167ffffffffffffffff81111561229c577f4e487b7100000000000000000000000000000000000000000000000000000000600052604160045260246000fd5b6040519080825280601f01601f1916602001820160405280156122ce5781602001600182028036833780820191505090505b5090505b60008514612381576001826122e79190613952565b9150600a856122f69190613ab7565b603061230291906138cb565b60f81b81838151811061233e577f4e487b7100000000000000000000000000000000000000000000000000000000600052603260045260246000fd5b60200101907effffffffffffffffffffffffffffffffffffffffffffffffffffffffffffff1916908160001a905350600a8561237a9190613921565b94506122d2565b8093505050505b919050565b60008151905060006a636f6e736f6c652e6c6f679050602083016000808483855afa5050505050565b6123c083836125b2565b6123cd600084848461241b565b61240c576040517f08c379a000000000000000000000000000000000000000000000000000000000815260040161240390613529565b60405180910390fd5b505050565b505050565b505050565b600061243c8473ffffffffffffffffffffffffffffffffffffffff1661278c565b156125a5578373ffffffffffffffffffffffffffffffffffffffff1663150b7a02612465611bdc565b8786866040518563ffffffff1660e01b8152600401612487949392919061345c565b602060405180830381600087803b1580156124a157600080fd5b505af19250505080156124d257506040513d601f19601f820116820180604052508101906124cf9190612b16565b60015b612555573d8060008114612502576040519150601f19603f3d011682016040523d82523d6000602084013e612507565b606091505b5060008151141561254d576040517f08c379a000000000000000000000000000000000000000000000000000000000815260040161254490613529565b60405180910390fd5b805181602001fd5b63150b7a0260e01b7bffffffffffffffffffffffffffffffffffffffffffffffffffffffff1916817bffffffffffffffffffffffffffffffffffffffffffffffffffffffff1916149150506125aa565b600190505b949350505050565b600073ffffffffffffffffffffffffffffffffffffffff168273ffffffffffffffffffffffffffffffffffffffff161415612622576040517f08c379a0000000000000000000000000000000000000000000000000000000008152600401612619906136a9565b60405180910390fd5b61262b81611b70565b1561266b576040517f08c379a000000000000000000000000000000000000000000000000000000000815260040161266290613569565b60405180910390fd5b61267760008383612411565b6001600360008473ffffffffffffffffffffffffffffffffffffffff1673ffffffffffffffffffffffffffffffffffffffff16815260200190815260200160002060008282546126c791906138cb565b92505081905550816002600083815260200190815260200160002060006101000a81548173ffffffffffffffffffffffffffffffffffffffff021916908373ffffffffffffffffffffffffffffffffffffffff160217905550808273ffffffffffffffffffffffffffffffffffffffff16600073ffffffffffffffffffffffffffffffffffffffff167fddf252ad1be2c89b69c2b068fc378daa952ba7f163c4a11628f55a4df523b3ef60405160405180910390a461278860008383612416565b5050565b6000808273ffffffffffffffffffffffffffffffffffffffff16803b806020016040519081016040528181526000908060200190933c51119050919050565b8280546127d790613a3c565b90600052602060002090601f0160209004810192826127f95760008555612847565b82601f1061280a5780548555612847565b8280016001018555821561284757600052602060002091601f016020900482015b8281111561284657825482559160010191906001019061282b565b5b5090506128549190612858565b5090565b5b80821115612871576000816000905550600101612859565b5090565b6000612888612883846137d5565b6137a4565b9050828152602081018484840111156128a057600080fd5b6128ab8482856139fa565b509392505050565b6000813590506128c281613bb5565b92915050565b6000813590506128d781613bcc565b92915050565b6000813590506128ec81613be3565b92915050565b60008151905061290181613be3565b92915050565b600082601f83011261291857600080fd5b8135612928848260208601612875565b91505092915050565b60008135905061294081613bfa565b92915050565b60006020828403121561295857600080fd5b6000612966848285016128b3565b91505092915050565b6000806040838503121561298257600080fd5b6000612990858286016128b3565b92505060206129a1858286016128b3565b9150509250929050565b6000806000606084860312156129c057600080fd5b60006129ce868287016128b3565b93505060206129df868287016128b3565b92505060406129f086828701612931565b9150509250925092565b60008060008060808587031215612a1057600080fd5b6000612a1e878288016128b3565b9450506020612a2f878288016128b3565b9350506040612a4087828801612931565b925050606085013567ffffffffffffffff811115612a5d57600080fd5b612a6987828801612907565b91505092959194509250565b60008060408385031215612a8857600080fd5b6000612a96858286016128b3565b9250506020612aa7858286016128c8565b9150509250929050565b60008060408385031215612ac457600080fd5b6000612ad2858286016128b3565b9250506020612ae385828601612931565b9150509250929050565b600060208284031215612aff57600080fd5b6000612b0d848285016128dd565b91505092915050565b600060208284031215612b2857600080fd5b6000612b36848285016128f2565b91505092915050565b600060208284031215612b5157600080fd5b6000612b5f84828501612931565b91505092915050565b60008060408385031215612b7b57600080fd5b6000612b8985828601612931565b9250506020612b9a85828601612931565b9150509250929050565b6000612bb08383612cfa565b905092915050565b6000612bc483836133ff565b60208301905092915050565b612bd981613986565b82525050565b6000612bea82613825565b612bf4818561386b565b935083602082028501612c0685613805565b8060005b85811015612c425784840389528151612c238582612ba4565b9450612c2e83613851565b925060208a01995050600181019050612c0a565b50829750879550505050505092915050565b6000612c5f82613830565b612c69818561387c565b9350612c7483613815565b8060005b83811015612ca5578151612c8c8882612bb8565b9750612c978361385e565b925050600181019050612c78565b5085935050505092915050565b612cbb81613998565b82525050565b6000612ccc8261383b565b612cd6818561388d565b9350612ce6818560208601613a09565b612cef81613ba4565b840191505092915050565b6000612d0582613846565b612d0f818561389e565b9350612d1f818560208601613a09565b612d2881613ba4565b840191505092915050565b6000612d3e82613846565b612d4881856138af565b9350612d58818560208601613a09565b612d6181613ba4565b840191505092915050565b6000612d7782613846565b612d8181856138c0565b9350612d91818560208601613a09565b80840191505092915050565b6000612daa6032836138af565b91507f4552433732313a207472616e7366657220746f206e6f6e20455243373231526560008301527f63656976657220696d706c656d656e74657200000000000000000000000000006020830152604082019050919050565b6000612e106025836138af565b91507f4552433732313a207472616e736665722066726f6d20696e636f72726563742060008301527f6f776e65720000000000000000000000000000000000000000000000000000006020830152604082019050919050565b6000612e76601c836138af565b91507f4552433732313a20746f6b656e20616c7265616479206d696e746564000000006000830152602082019050919050565b6000612eb66010836138af565b91507f50726963652063616e27742062652030000000000000000000000000000000006000830152602082019050919050565b6000612ef66024836138af565b91507f4552433732313a207472616e7366657220746f20746865207a65726f2061646460008301527f72657373000000000000000000000000000000000000000000000000000000006020830152604082019050919050565b6000612f5c6019836138af565b91507f4552433732313a20617070726f766520746f2063616c6c6572000000000000006000830152602082019050919050565b6000612f9c6019836138af565b91507f54686973206974656d206973206e6f7420666f722073616c65000000000000006000830152602082019050919050565b6000612fdc600f836138af565b91507f494420697320746f6f206c6172676500000000000000000000000000000000006000830152602082019050919050565b600061301c602c836138af565b91507f4552433732313a206f70657261746f7220717565727920666f72206e6f6e657860008301527f697374656e7420746f6b656e00000000000000000000000000000000000000006020830152604082019050919050565b60006130826038836138af565b91507f4552433732313a20617070726f76652063616c6c6572206973206e6f74206f7760008301527f6e6572206e6f7220617070726f76656420666f7220616c6c00000000000000006020830152604082019050919050565b60006130e8602a836138af565b91507f4552433732313a2062616c616e636520717565727920666f7220746865207a6560008301527f726f2061646472657373000000000000000000000000000000000000000000006020830152604082019050919050565b600061314e6029836138af565b91507f4552433732313a206f776e657220717565727920666f72206e6f6e657869737460008301527f656e7420746f6b656e00000000000000000000000000000000000000000000006020830152604082019050919050565b60006131b46020836138af565b91507f4552433732313a206d696e7420746f20746865207a65726f20616464726573736000830152602082019050919050565b60006131f4602c836138af565b91507f4552433732313a20617070726f76656420717565727920666f72206e6f6e657860008301527f697374656e7420746f6b656e00000000000000000000000000000000000000006020830152604082019050919050565b600061325a602f836138af565b91507f4552433732314d657461646174613a2055524920717565727920666f72206e6f60008301527f6e6578697374656e7420746f6b656e00000000000000000000000000000000006020830152604082019050919050565b60006132c06021836138af565b91507f4552433732313a20617070726f76616c20746f2063757272656e74206f776e6560008301527f72000000000000000000000000000000000000000000000000000000000000006020830152604082019050919050565b60006133266011836138af565b91507f4d757374207573652076616c69642049440000000000000000000000000000006000830152602082019050919050565b60006133666031836138af565b91507f4552433732313a207472616e736665722063616c6c6572206973206e6f74206f60008301527f776e6572206e6f7220617070726f7665640000000000000000000000000000006020830152604082019050919050565b60006133cc6017836138af565b91507f5375626d6974207468652061736b696e672070726963650000000000000000006000830152602082019050919050565b613408816139f0565b82525050565b613417816139f0565b82525050565b60006134298285612d6c565b91506134358284612d6c565b91508190509392505050565b60006020820190506134566000830184612bd0565b92915050565b60006080820190506134716000830187612bd0565b61347e6020830186612bd0565b61348b604083018561340e565b818103606083015261349d8184612cc1565b905095945050505050565b600060208201905081810360008301526134c28184612bdf565b905092915050565b600060208201905081810360008301526134e48184612c54565b905092915050565b60006020820190506135016000830184612cb2565b92915050565b600060208201905081810360008301526135218184612d33565b905092915050565b6000602082019050818103600083015261354281612d9d565b9050919050565b6000602082019050818103600083015261356281612e03565b9050919050565b6000602082019050818103600083015261358281612e69565b9050919050565b600060208201905081810360008301526135a281612ea9565b9050919050565b600060208201905081810360008301526135c281612ee9565b9050919050565b600060208201905081810360008301526135e281612f4f565b9050919050565b6000602082019050818103600083015261360281612f8f565b9050919050565b6000602082019050818103600083015261362281612fcf565b9050919050565b600060208201905081810360008301526136428161300f565b9050919050565b6000602082019050818103600083015261366281613075565b9050919050565b60006020820190508181036000830152613682816130db565b9050919050565b600060208201905081810360008301526136a281613141565b9050919050565b600060208201905081810360008301526136c2816131a7565b9050919050565b600060208201905081810360008301526136e2816131e7565b9050919050565b600060208201905081810360008301526137028161324d565b9050919050565b60006020820190508181036000830152613722816132b3565b9050919050565b6000602082019050818103600083015261374281613319565b9050919050565b6000602082019050818103600083015261376281613359565b9050919050565b60006020820190508181036000830152613782816133bf565b9050919050565b600060208201905061379e600083018461340e565b92915050565b6000604051905081810181811067ffffffffffffffff821117156137cb576137ca613b75565b5b8060405250919050565b600067ffffffffffffffff8211156137f0576137ef613b75565b5b601f19601f8301169050602081019050919050565b6000819050602082019050919050565b6000819050602082019050919050565b600081519050919050565b600081519050919050565b600081519050919050565b600081519050919050565b6000602082019050919050565b6000602082019050919050565b600082825260208201905092915050565b600082825260208201905092915050565b600082825260208201905092915050565b600082825260208201905092915050565b600082825260208201905092915050565b600081905092915050565b60006138d6826139f0565b91506138e1836139f0565b9250827fffffffffffffffffffffffffffffffffffffffffffffffffffffffffffffffff0382111561391657613915613ae8565b5b828201905092915050565b600061392c826139f0565b9150613937836139f0565b92508261394757613946613b17565b5b828204905092915050565b600061395d826139f0565b9150613968836139f0565b92508282101561397b5761397a613ae8565b5b828203905092915050565b6000613991826139d0565b9050919050565b60008115159050919050565b60007fffffffff0000000000000000000000000000000000000000000000000000000082169050919050565b600073ffffffffffffffffffffffffffffffffffffffff82169050919050565b6000819050919050565b82818337600083830152505050565b60005b83811015613a27578082015181840152602081019050613a0c565b83811115613a36576000848401525b50505050565b60006002820490506001821680613a5457607f821691505b60208210811415613a6857613a67613b46565b5b50919050565b6000613a79826139f0565b91507fffffffffffffffffffffffffffffffffffffffffffffffffffffffffffffffff821415613aac57613aab613ae8565b5b600182019050919050565b6000613ac2826139f0565b9150613acd836139f0565b925082613add57613adc613b17565b5b828206905092915050565b7f4e487b7100000000000000000000000000000000000000000000000000000000600052601160045260246000fd5b7f4e487b7100000000000000000000000000000000000000000000000000000000600052601260045260246000fd5b7f4e487b7100000000000000000000000000000000000000000000000000000000600052602260045260246000fd5b7f4e487b7100000000000000000000000000000000000000000000000000000000600052604160045260246000fd5b6000601f19601f8301169050919050565b613bbe81613986565b8114613bc957600080fd5b50565b613bd581613998565b8114613be057600080fd5b50565b613bec816139a4565b8114613bf757600080fd5b50565b613c03816139f0565b8114613c0e57600080fd5b5056fea2646970667358221220f530c89559fa0cf016a9e8c71cc85dc81cc64d6803d8817eb0c9d18d4fd0f75264736f6c63430008000033",
  "linkReferences": {},
  "deployedLinkReferences": {}
}