{
  "_format": "hh-sol-artifact-1",
  "contractName": "BillionaireBattles",
  "sourceName": "contracts/BillionaireBattles.sol",
  "abi": [
    {
      "inputs": [
        {
          "internalType": "string[]",
          "name": "names",
          "type": "string[]"
        },
        {
          "internalType": "string[]",
          "name": "descriptions",
          "type": "string[]"
        },
        {
          "internalType": "string[]",
          "name": "images",
          "type": "string[]"
        },
        {
          "internalType": "uint256[]",
          "name": "healths",
          "type": "uint256[]"
        },
        {
          "internalType": "uint256[]",
          "name": "maxHealths",
          "type": "uint256[]"
        },
        {
          "internalType": "string[]",
          "name": "attack1Names",
          "type": "string[]"
        },
        {
          "internalType": "string[]",
          "name": "attack2Names",
          "type": "string[]"
        },
        {
          "internalType": "string[]",
          "name": "attack3Names",
          "type": "string[]"
        },
        {
          "internalType": "uint256[]",
          "name": "attack1Damages",
          "type": "uint256[]"
        },
        {
          "internalType": "uint256[]",
          "name": "attack2Damages",
          "type": "uint256[]"
        },
        {
          "internalType": "uint256[]",
          "name": "attack3Damages",
          "type": "uint256[]"
        }
      ],
      "stateMutability": "nonpayable",
      "type": "constructor"
    },
    {
      "anonymous": false,
      "inputs": [
        {
          "indexed": true,
          "internalType": "address",
          "name": "owner",
          "type": "address"
        },
        {
          "indexed": true,
          "internalType": "address",
          "name": "approved",
          "type": "address"
        },
        {
          "indexed": true,
          "internalType": "uint256",
          "name": "tokenId",
          "type": "uint256"
        }
      ],
      "name": "Approval",
      "type": "event"
    },
    {
      "anonymous": false,
      "inputs": [
        {
          "indexed": true,
          "internalType": "address",
          "name": "owner",
          "type": "address"
        },
        {
          "indexed": true,
          "internalType": "address",
          "name": "operator",
          "type": "address"
        },
        {
          "indexed": false,
          "internalType": "bool",
          "name": "approved",
          "type": "bool"
        }
      ],
      "name": "ApprovalForAll",
      "type": "event"
    },
    {
      "anonymous": false,
      "inputs": [
        {
          "indexed": true,
          "internalType": "address",
          "name": "from",
          "type": "address"
        },
        {
          "indexed": true,
          "internalType": "address",
          "name": "to",
          "type": "address"
        },
        {
          "indexed": true,
          "internalType": "uint256",
          "name": "tokenId",
          "type": "uint256"
        }
      ],
      "name": "Transfer",
      "type": "event"
    },
    {
      "inputs": [
        {
          "internalType": "address",
          "name": "to",
          "type": "address"
        },
        {
          "internalType": "uint256",
          "name": "tokenId",
          "type": "uint256"
        }
      ],
      "name": "approve",
      "outputs": [],
      "stateMutability": "nonpayable",
      "type": "function"
    },
    {
      "inputs": [
        {
          "internalType": "address",
          "name": "owner",
          "type": "address"
        }
      ],
      "name": "balanceOf",
      "outputs": [
        {
          "internalType": "uint256",
          "name": "",
          "type": "uint256"
        }
      ],
      "stateMutability": "view",
      "type": "function"
    },
    {
      "inputs": [],
      "name": "getAllCharacters",
      "outputs": [
        {
          "internalType": "string",
          "name": "",
          "type": "string"
        }
      ],
      "stateMutability": "view",
      "type": "function"
    },
    {
      "inputs": [
        {
          "internalType": "uint256",
          "name": "tokenId",
          "type": "uint256"
        }
      ],
      "name": "getApproved",
      "outputs": [
        {
          "internalType": "address",
          "name": "",
          "type": "address"
        }
      ],
      "stateMutability": "view",
      "type": "function"
    },
    {
      "inputs": [],
      "name": "getCharacterCount",
      "outputs": [
        {
          "internalType": "uint256",
          "name": "",
          "type": "uint256"
        }
      ],
      "stateMutability": "view",
      "type": "function"
    },
    {
      "inputs": [
        {
          "internalType": "uint256",
          "name": "index",
          "type": "uint256"
        }
      ],
      "name": "getCharacterDisplayDataById",
      "outputs": [
        {
          "internalType": "string[]",
          "name": "",
          "type": "string[]"
        }
      ],
      "stateMutability": "view",
      "type": "function"
    },
    {
      "inputs": [
        {
          "internalType": "uint256",
          "name": "index",
          "type": "uint256"
        }
      ],
      "name": "getCharacterHealthAndMaxHealthById",
      "outputs": [
        {
          "internalType": "uint256[]",
          "name": "",
          "type": "uint256[]"
        }
      ],
      "stateMutability": "view",
      "type": "function"
    },
    {
      "inputs": [
        {
          "internalType": "address",
          "name": "current",
          "type": "address"
        }
      ],
      "name": "getCharactersFromAddress",
      "outputs": [
        {
          "internalType": "uint256[]",
          "name": "",
          "type": "uint256[]"
        }
      ],
      "stateMutability": "view",
      "type": "function"
    },
    {
      "inputs": [],
      "name": "getListingFee",
      "outputs": [
        {
          "internalType": "uint256",
          "name": "",
          "type": "uint256"
        }
      ],
      "stateMutability": "view",
      "type": "function"
    },
    {
      "inputs": [],
      "name": "getMarketItems",
      "outputs": [
        {
          "internalType": "uint256[]",
          "name": "",
          "type": "uint256[]"
        }
      ],
      "stateMutability": "view",
      "type": "function"
    },
    {
      "inputs": [
        {
          "internalType": "uint256",
          "name": "id",
          "type": "uint256"
        }
      ],
      "name": "getOwnerOfCharcterByID",
      "outputs": [
        {
          "internalType": "address",
          "name": "",
          "type": "address"
        }
      ],
      "stateMutability": "view",
      "type": "function"
    },
    {
      "inputs": [],
      "name": "getReviveCost",
      "outputs": [
        {
          "internalType": "uint256",
          "name": "",
          "type": "uint256"
        }
      ],
      "stateMutability": "view",
      "type": "function"
    },
    {
      "inputs": [
        {
          "internalType": "address",
          "name": "owner",
          "type": "address"
        },
        {
          "internalType": "address",
          "name": "operator",
          "type": "address"
        }
      ],
      "name": "isApprovedForAll",
      "outputs": [
        {
          "internalType": "bool",
          "name": "",
          "type": "bool"
        }
      ],
      "stateMutability": "view",
      "type": "function"
    },
    {
      "inputs": [
        {
          "internalType": "uint256",
          "name": "id",
          "type": "uint256"
        }
      ],
      "name": "mintItemById",
      "outputs": [],
      "stateMutability": "nonpayable",
      "type": "function"
    },
    {
      "inputs": [],
      "name": "name",
      "outputs": [
        {
          "internalType": "string",
          "name": "",
          "type": "string"
        }
      ],
      "stateMutability": "view",
      "type": "function"
    },
    {
      "inputs": [
        {
          "internalType": "uint256",
          "name": "tokenId",
          "type": "uint256"
        }
      ],
      "name": "ownerOf",
      "outputs": [
        {
          "internalType": "address",
          "name": "",
          "type": "address"
        }
      ],
      "stateMutability": "view",
      "type": "function"
    },
    {
      "inputs": [
        {
          "internalType": "address",
          "name": "from",
          "type": "address"
        },
        {
          "internalType": "address",
          "name": "to",
          "type": "address"
        },
        {
          "internalType": "uint256",
          "name": "tokenId",
          "type": "uint256"
        }
      ],
      "name": "safeTransferFrom",
      "outputs": [],
      "stateMutability": "nonpayable",
      "type": "function"
    },
    {
      "inputs": [
        {
          "internalType": "address",
          "name": "from",
          "type": "address"
        },
        {
          "internalType": "address",
          "name": "to",
          "type": "address"
        },
        {
          "internalType": "uint256",
          "name": "tokenId",
          "type": "uint256"
        },
        {
          "internalType": "bytes",
          "name": "_data",
          "type": "bytes"
        }
      ],
      "name": "safeTransferFrom",
      "outputs": [],
      "stateMutability": "nonpayable",
      "type": "function"
    },
    {
      "inputs": [
        {
          "internalType": "address",
          "name": "operator",
          "type": "address"
        },
        {
          "internalType": "bool",
          "name": "approved",
          "type": "bool"
        }
      ],
      "name": "setApprovalForAll",
      "outputs": [],
      "stateMutability": "nonpayable",
      "type": "function"
    },
    {
      "inputs": [
        {
          "internalType": "bytes4",
          "name": "interfaceId",
          "type": "bytes4"
        }
      ],
      "name": "supportsInterface",
      "outputs": [
        {
          "internalType": "bool",
          "name": "",
          "type": "bool"
        }
      ],
      "stateMutability": "view",
      "type": "function"
    },
    {
      "inputs": [],
      "name": "symbol",
      "outputs": [
        {
          "internalType": "string",
          "name": "",
          "type": "string"
        }
      ],
      "stateMutability": "view",
      "type": "function"
    },
    {
      "inputs": [
        {
          "internalType": "uint256",
          "name": "tokenId",
          "type": "uint256"
        }
      ],
      "name": "tokenURI",
      "outputs": [
        {
          "internalType": "string",
          "name": "",
          "type": "string"
        }
      ],
      "stateMutability": "view",
      "type": "function"
    },
    {
      "inputs": [
        {
          "internalType": "address",
          "name": "from",
          "type": "address"
        },
        {
          "internalType": "address",
          "name": "to",
          "type": "address"
        },
        {
          "internalType": "uint256",
          "name": "tokenId",
          "type": "uint256"
        }
      ],
      "name": "transferFrom",
      "outputs": [],
      "stateMutability": "nonpayable",
      "type": "function"
    }
  ],
  "bytecode": "0x608060405260006008553480156200001657600080fd5b50604051620044d8380380620044d883398181016040528101906200003c919062000966565b6040518060400160405280601381526020017f42696c6c696f6e6169726520426174746c6573000000000000000000000000008152506040518060400160405280600381526020017f42425400000000000000000000000000000000000000000000000000000000008152508160009080519060200190620000c0929190620006f9565b508060019080519060200190620000d9929190620006f9565b505050620001276040518060400160405280600281526020017f68690000000000000000000000000000000000000000000000000000000000008152506200062d60201b620016081760201c565b6005600681905550600560078190555060005b60028110156200061b57600a604051806101a001604052803073ffffffffffffffffffffffffffffffffffffffff1681526020016000151581526020018e8481518110620001b1577f4e487b7100000000000000000000000000000000000000000000000000000000600052603260045260246000fd5b602002602001015181526020018d8481518110620001f8577f4e487b7100000000000000000000000000000000000000000000000000000000600052603260045260246000fd5b602002602001015181526020018c84815181106200023f577f4e487b7100000000000000000000000000000000000000000000000000000000600052603260045260246000fd5b602002602001015181526020018b848151811062000286577f4e487b7100000000000000000000000000000000000000000000000000000000600052603260045260246000fd5b602002602001015181526020018a8481518110620002cd577f4e487b7100000000000000000000000000000000000000000000000000000000600052603260045260246000fd5b6020026020010151815260200189848151811062000314577f4e487b7100000000000000000000000000000000000000000000000000000000600052603260045260246000fd5b602002602001015181526020018884815181106200035b577f4e487b7100000000000000000000000000000000000000000000000000000000600052603260045260246000fd5b60200260200101518152602001878481518110620003a2577f4e487b7100000000000000000000000000000000000000000000000000000000600052603260045260246000fd5b60200260200101518152602001868481518110620003e9577f4e487b7100000000000000000000000000000000000000000000000000000000600052603260045260246000fd5b6020026020010151815260200185848151811062000430577f4e487b7100000000000000000000000000000000000000000000000000000000600052603260045260246000fd5b6020026020010151815260200184848151811062000477577f4e487b7100000000000000000000000000000000000000000000000000000000600052603260045260246000fd5b602002602001015181525090806001815401808255809150506001900390600052602060002090600c020160009091909190915060008201518160000160006101000a81548173ffffffffffffffffffffffffffffffffffffffff021916908373ffffffffffffffffffffffffffffffffffffffff16021790555060208201518160000160146101000a81548160ff021916908315150217905550604082015181600101908051906020019062000530929190620006f9565b5060608201518160020190805190602001906200054f929190620006f9565b5060808201518160030190805190602001906200056e929190620006f9565b5060a0820151816004015560c0820151816005015560e0820151816006019080519060200190620005a1929190620006f9565b50610100820151816007019080519060200190620005c1929190620006f9565b50610120820151816008019080519060200190620005e1929190620006f9565b50610140820151816009015561016082015181600a015561018082015181600b015550508080620006129062000d3c565b9150506200013a565b50505050505050505050505062000e42565b620006cd8160405160240162000644919062000bc1565b6040516020818303038152906040527f41304fac000000000000000000000000000000000000000000000000000000007bffffffffffffffffffffffffffffffffffffffffffffffffffffffff19166020820180517bffffffffffffffffffffffffffffffffffffffffffffffffffffffff8381831617835250505050620006d060201b60201c565b50565b60008151905060006a636f6e736f6c652e6c6f679050602083016000808483855afa5050505050565b828054620007079062000d06565b90600052602060002090601f0160209004810192826200072b576000855562000777565b82601f106200074657805160ff191683800117855562000777565b8280016001018555821562000777579182015b828111156200077657825182559160200191906001019062000759565b5b5090506200078691906200078a565b5090565b5b80821115620007a55760008160009055506001016200078b565b5090565b6000620007c0620007ba8462000c19565b62000be5565b9050808382526020820190508260005b85811015620008045781518501620007e9888262000922565b845260208401935060208301925050600181019050620007d0565b5050509392505050565b6000620008256200081f8462000c48565b62000be5565b905080838252602082019050828560208602820111156200084557600080fd5b60005b858110156200087957816200085e88826200094f565b84526020840193506020830192505060018101905062000848565b5050509392505050565b60006200089a620008948462000c77565b62000be5565b905082815260208101848484011115620008b357600080fd5b620008c084828562000cd0565b509392505050565b600082601f830112620008da57600080fd5b8151620008ec848260208601620007a9565b91505092915050565b600082601f8301126200090757600080fd5b8151620009198482602086016200080e565b91505092915050565b600082601f8301126200093457600080fd5b81516200094684826020860162000883565b91505092915050565b600081519050620009608162000e28565b92915050565b60008060008060008060008060008060006101608c8e0312156200098957600080fd5b60008c015167ffffffffffffffff811115620009a457600080fd5b620009b28e828f01620008c8565b9b505060208c015167ffffffffffffffff811115620009d057600080fd5b620009de8e828f01620008c8565b9a505060408c015167ffffffffffffffff811115620009fc57600080fd5b62000a0a8e828f01620008c8565b99505060608c015167ffffffffffffffff81111562000a2857600080fd5b62000a368e828f01620008f5565b98505060808c015167ffffffffffffffff81111562000a5457600080fd5b62000a628e828f01620008f5565b97505060a08c015167ffffffffffffffff81111562000a8057600080fd5b62000a8e8e828f01620008c8565b96505060c08c015167ffffffffffffffff81111562000aac57600080fd5b62000aba8e828f01620008c8565b95505060e08c015167ffffffffffffffff81111562000ad857600080fd5b62000ae68e828f01620008c8565b9450506101008c015167ffffffffffffffff81111562000b0557600080fd5b62000b138e828f01620008f5565b9350506101208c015167ffffffffffffffff81111562000b3257600080fd5b62000b408e828f01620008f5565b9250506101408c015167ffffffffffffffff81111562000b5f57600080fd5b62000b6d8e828f01620008f5565b9150509295989b509295989b9093969950565b600062000b8d8262000caa565b62000b99818562000cb5565b935062000bab81856020860162000cd0565b62000bb68162000e17565b840191505092915050565b6000602082019050818103600083015262000bdd818462000b80565b905092915050565b6000604051905081810181811067ffffffffffffffff8211171562000c0f5762000c0e62000de8565b5b8060405250919050565b600067ffffffffffffffff82111562000c375762000c3662000de8565b5b602082029050602081019050919050565b600067ffffffffffffffff82111562000c665762000c6562000de8565b5b602082029050602081019050919050565b600067ffffffffffffffff82111562000c955762000c9462000de8565b5b601f19601f8301169050602081019050919050565b600081519050919050565b600082825260208201905092915050565b6000819050919050565b60005b8381101562000cf057808201518184015260208101905062000cd3565b8381111562000d00576000848401525b50505050565b6000600282049050600182168062000d1f57607f821691505b6020821081141562000d365762000d3562000db9565b5b50919050565b600062000d498262000cc6565b91507fffffffffffffffffffffffffffffffffffffffffffffffffffffffffffffffff82141562000d7f5762000d7e62000d8a565b5b600182019050919050565b7f4e487b7100000000000000000000000000000000000000000000000000000000600052601160045260246000fd5b7f4e487b7100000000000000000000000000000000000000000000000000000000600052602260045260246000fd5b7f4e487b7100000000000000000000000000000000000000000000000000000000600052604160045260246000fd5b6000601f19601f8301169050919050565b62000e338162000cc6565b811462000e3f57600080fd5b50565b6136868062000e526000396000f3fe608060405234801561001057600080fd5b506004361061014d5760003560e01c806365df8ce7116100c3578063a22cb4651161007c578063a22cb465146103c6578063b88d4fde146103e2578063b8fe6abe146103fe578063c87b56dd1461041c578063e985e9c51461044c578063fdb205eb1461047c5761014d565b806365df8ce7146102dc57806368baf0a0146102fa57806370a082311461032a5780637577e86d1461035a57806383e56dca1461038a57806395d89b41146103a85761014d565b80631bafbaa6116101155780631bafbaa61461021c57806323b872dd1461023857806329aa3a42146102545780633d936d2d1461027257806342842e0e146102905780636352211e146102ac5761014d565b806301ffc9a71461015257806306fdde0314610182578063081812fc146101a0578063095ea7b3146101d05780631a9a0428146101ec575b600080fd5b61016c60048036038101906101679190612688565b6104ac565b6040516101799190612f8b565b60405180910390f35b61018a61058e565b6040516101979190612fa6565b60405180910390f35b6101ba60048036038101906101b591906126da565b610620565b6040516101c79190612ee0565b60405180910390f35b6101ea60048036038101906101e5919061264c565b6106a5565b005b610206600480360381019061020191906126da565b6107bd565b6040516102139190612ee0565b60405180910390f35b610236600480360381019061023191906126da565b6107fd565b005b610252600480360381019061024d9190612546565b610aec565b005b61025c610b4c565b6040516102699190612f69565b60405180910390f35b61027a610c72565b60405161028791906131c8565b60405180910390f35b6102aa60048036038101906102a59190612546565b610c7c565b005b6102c660048036038101906102c191906126da565b610c9c565b6040516102d39190612ee0565b60405180910390f35b6102e4610d4e565b6040516102f191906131c8565b60405180910390f35b610314600480360381019061030f91906124e1565b610d58565b6040516103219190612f69565b60405180910390f35b610344600480360381019061033f91906124e1565b610ebd565b60405161035191906131c8565b60405180910390f35b610374600480360381019061036f91906126da565b610f75565b6040516103819190612f47565b60405180910390f35b6103926111cd565b60405161039f9190612fa6565b60405180910390f35b6103b0611274565b6040516103bd9190612fa6565b60405180910390f35b6103e060048036038101906103db9190612610565b611306565b005b6103fc60048036038101906103f79190612595565b61131c565b005b61040661137e565b60405161041391906131c8565b60405180910390f35b610436600480360381019061043191906126da565b611388565b6040516104439190612fa6565b60405180910390f35b6104666004803603810190610461919061250a565b61142f565b6040516104739190612f8b565b60405180910390f35b610496600480360381019061049191906126da565b6114c3565b6040516104a39190612f69565b60405180910390f35b60007f80ac58cd000000000000000000000000000000000000000000000000000000007bffffffffffffffffffffffffffffffffffffffffffffffffffffffff1916827bffffffffffffffffffffffffffffffffffffffffffffffffffffffff1916148061057757507f5b5e139f000000000000000000000000000000000000000000000000000000007bffffffffffffffffffffffffffffffffffffffffffffffffffffffff1916827bffffffffffffffffffffffffffffffffffffffffffffffffffffffff1916145b806105875750610586826116a1565b5b9050919050565b60606000805461059d9061347b565b80601f01602080910402602001604051908101604052809291908181526020018280546105c99061347b565b80156106165780601f106105eb57610100808354040283529160200191610616565b820191906000526020600020905b8154815290600101906020018083116105f957829003601f168201915b5050505050905090565b600061062b8261170b565b61066a576040517f08c379a000000000000000000000000000000000000000000000000000000000815260040161066190613128565b60405180910390fd5b6004600083815260200190815260200160002060009054906101000a900473ffffffffffffffffffffffffffffffffffffffff169050919050565b60006106b082610c9c565b90508073ffffffffffffffffffffffffffffffffffffffff168373ffffffffffffffffffffffffffffffffffffffff161415610721576040517f08c379a000000000000000000000000000000000000000000000000000000000815260040161071890613168565b60405180910390fd5b8073ffffffffffffffffffffffffffffffffffffffff16610740611777565b73ffffffffffffffffffffffffffffffffffffffff16148061076f575061076e81610769611777565b61142f565b5b6107ae576040517f08c379a00000000000000000000000000000000000000000000000000000000081526004016107a5906130a8565b60405180910390fd5b6107b8838361177f565b505050565b60006009600083815260200190815260200160002060000160009054906101000a900473ffffffffffffffffffffffffffffffffffffffff169050919050565b6000811015610841576040517f08c379a000000000000000000000000000000000000000000000000000000000815260040161083890613188565b60405180910390fd5b600a805490508110610888576040517f08c379a000000000000000000000000000000000000000000000000000000000815260040161087f90613068565b60405180910390fd5b6008600081548092919061089b906134ad565b9190505550600a81815481106108da577f4e487b7100000000000000000000000000000000000000000000000000000000600052603260045260246000fd5b90600052602060002090600c02016009600060085481526020019081526020016000206000820160009054906101000a900473ffffffffffffffffffffffffffffffffffffffff168160000160006101000a81548173ffffffffffffffffffffffffffffffffffffffff021916908373ffffffffffffffffffffffffffffffffffffffff1602179055506000820160149054906101000a900460ff168160000160146101000a81548160ff02191690831515021790555060018201816001019080546109a59061347b565b6109b0929190612366565b5060028201816002019080546109c59061347b565b6109d0929190612366565b5060038201816003019080546109e59061347b565b6109f0929190612366565b5060048201548160040155600582015481600501556006820181600601908054610a199061347b565b610a24929190612366565b506007820181600701908054610a399061347b565b610a44929190612366565b506008820181600801908054610a599061347b565b610a64929190612366565b5060098201548160090155600a82015481600a0155600b82015481600b01559050503360096000600854815260200190815260200160002060000160006101000a81548173ffffffffffffffffffffffffffffffffffffffff021916908373ffffffffffffffffffffffffffffffffffffffff160217905550610ae933600854611838565b50565b610afd610af7611777565b82611856565b610b3c576040517f08c379a0000000000000000000000000000000000000000000000000000000008152600401610b33906131a8565b60405180910390fd5b610b47838383611934565b505050565b606060008060085467ffffffffffffffff811115610b93577f4e487b7100000000000000000000000000000000000000000000000000000000600052604160045260246000fd5b604051908082528060200260200182016040528015610bc15781602001602082028036833780820191505090505b50905060005b600854811015610c6957600115156009600083815260200190815260200160002060000160149054906101000a900460ff1615151415610c565780828481518110610c3b577f4e487b7100000000000000000000000000000000000000000000000000000000600052603260045260246000fd5b6020026020010181815250508280610c52906134ad565b9350505b8080610c61906134ad565b915050610bc7565b50809250505090565b6000600754905090565b610c978383836040518060200160405280600081525061131c565b505050565b6000806002600084815260200190815260200160002060009054906101000a900473ffffffffffffffffffffffffffffffffffffffff169050600073ffffffffffffffffffffffffffffffffffffffff168173ffffffffffffffffffffffffffffffffffffffff161415610d45576040517f08c379a0000000000000000000000000000000000000000000000000000000008152600401610d3c906130e8565b60405180910390fd5b80915050919050565b6000600854905090565b606060008060085467ffffffffffffffff811115610d9f577f4e487b7100000000000000000000000000000000000000000000000000000000600052604160045260246000fd5b604051908082528060200260200182016040528015610dcd5781602001602082028036833780820191505090505b5090506000600190505b6008548111610eb2578473ffffffffffffffffffffffffffffffffffffffff166009600083815260200190815260200160002060000160009054906101000a900473ffffffffffffffffffffffffffffffffffffffff1673ffffffffffffffffffffffffffffffffffffffff161415610e9f5780828481518110610e84577f4e487b7100000000000000000000000000000000000000000000000000000000600052603260045260246000fd5b6020026020010181815250508280610e9b906134ad565b9350505b8080610eaa906134ad565b915050610dd7565b508092505050919050565b60008073ffffffffffffffffffffffffffffffffffffffff168273ffffffffffffffffffffffffffffffffffffffff161415610f2e576040517f08c379a0000000000000000000000000000000000000000000000000000000008152600401610f25906130c8565b60405180910390fd5b600360008373ffffffffffffffffffffffffffffffffffffffff1673ffffffffffffffffffffffffffffffffffffffff168152602001908152602001600020549050919050565b60606000600467ffffffffffffffff811115610fba577f4e487b7100000000000000000000000000000000000000000000000000000000600052604160045260246000fd5b604051908082528060200260200182016040528015610fed57816020015b6060815260200190600190039081610fd85790505b50905060006009600085815260200190815260200160002060030180546110139061347b565b80601f016020809104026020016040519081016040528092919081815260200182805461103f9061347b565b801561108c5780601f106110615761010080835404028352916020019161108c565b820191906000526020600020905b81548152906001019060200180831161106f57829003601f168201915b5050505050905060006009600086815260200190815260200160002060010180546110b69061347b565b80601f01602080910402602001604051908101604052809291908181526020018280546110e29061347b565b801561112f5780601f106111045761010080835404028352916020019161112f565b820191906000526020600020905b81548152906001019060200180831161111257829003601f168201915b505050505090508183600081518110611171577f4e487b7100000000000000000000000000000000000000000000000000000000600052603260045260246000fd5b602002602001018190525080836001815181106111b7577f4e487b7100000000000000000000000000000000000000000000000000000000600052603260045260246000fd5b6020026020010181905250829350505050919050565b6060600960006001815260200190815260200160002060010180546111f19061347b565b80601f016020809104026020016040519081016040528092919081815260200182805461121d9061347b565b801561126a5780601f1061123f5761010080835404028352916020019161126a565b820191906000526020600020905b81548152906001019060200180831161124d57829003601f168201915b5050505050905090565b6060600180546112839061347b565b80601f01602080910402602001604051908101604052809291908181526020018280546112af9061347b565b80156112fc5780601f106112d1576101008083540402835291602001916112fc565b820191906000526020600020905b8154815290600101906020018083116112df57829003601f168201915b5050505050905090565b611318611311611777565b8383611b9b565b5050565b61132d611327611777565b83611856565b61136c576040517f08c379a0000000000000000000000000000000000000000000000000000000008152600401611363906131a8565b60405180910390fd5b61137884848484611d08565b50505050565b6000600654905090565b60606113938261170b565b6113d2576040517f08c379a00000000000000000000000000000000000000000000000000000000081526004016113c990613148565b60405180910390fd5b60006113dc611d64565b905060008151116113fc5760405180602001604052806000815250611427565b8061140684611d7b565b604051602001611417929190612ebc565b6040516020818303038152906040525b915050919050565b6000600560008473ffffffffffffffffffffffffffffffffffffffff1673ffffffffffffffffffffffffffffffffffffffff16815260200190815260200160002060008373ffffffffffffffffffffffffffffffffffffffff1673ffffffffffffffffffffffffffffffffffffffff16815260200190815260200160002060009054906101000a900460ff16905092915050565b60606000600267ffffffffffffffff811115611508577f4e487b7100000000000000000000000000000000000000000000000000000000600052604160045260246000fd5b6040519080825280602002602001820160405280156115365781602001602082028036833780820191505090505b50905060006009600085815260200190815260200160002060040154905060006009600086815260200190815260200160002060050154905081836000815181106115aa577f4e487b7100000000000000000000000000000000000000000000000000000000600052603260045260246000fd5b60200260200101818152505080836001815181106115f1577f4e487b7100000000000000000000000000000000000000000000000000000000600052603260045260246000fd5b602002602001018181525050829350505050919050565b61169e8160405160240161161c9190612fa6565b6040516020818303038152906040527f41304fac000000000000000000000000000000000000000000000000000000007bffffffffffffffffffffffffffffffffffffffffffffffffffffffff19166020820180517bffffffffffffffffffffffffffffffffffffffffffffffffffffffff8381831617835250505050611f28565b50565b60007f01ffc9a7000000000000000000000000000000000000000000000000000000007bffffffffffffffffffffffffffffffffffffffffffffffffffffffff1916827bffffffffffffffffffffffffffffffffffffffffffffffffffffffff1916149050919050565b60008073ffffffffffffffffffffffffffffffffffffffff166002600084815260200190815260200160002060009054906101000a900473ffffffffffffffffffffffffffffffffffffffff1673ffffffffffffffffffffffffffffffffffffffff1614159050919050565b600033905090565b816004600083815260200190815260200160002060006101000a81548173ffffffffffffffffffffffffffffffffffffffff021916908373ffffffffffffffffffffffffffffffffffffffff160217905550808273ffffffffffffffffffffffffffffffffffffffff166117f283610c9c565b73ffffffffffffffffffffffffffffffffffffffff167f8c5be1e5ebec7d5bd14f71427d1e84f3dd0314c0f7b2291e5b200ac8c7c3b92560405160405180910390a45050565b611852828260405180602001604052806000815250611f51565b5050565b60006118618261170b565b6118a0576040517f08c379a000000000000000000000000000000000000000000000000000000000815260040161189790613088565b60405180910390fd5b60006118ab83610c9c565b90508073ffffffffffffffffffffffffffffffffffffffff168473ffffffffffffffffffffffffffffffffffffffff1614806118ed57506118ec818561142f565b5b8061192b57508373ffffffffffffffffffffffffffffffffffffffff1661191384610620565b73ffffffffffffffffffffffffffffffffffffffff16145b91505092915050565b8273ffffffffffffffffffffffffffffffffffffffff1661195482610c9c565b73ffffffffffffffffffffffffffffffffffffffff16146119aa576040517f08c379a00000000000000000000000000000000000000000000000000000000081526004016119a190612fe8565b60405180910390fd5b600073ffffffffffffffffffffffffffffffffffffffff168273ffffffffffffffffffffffffffffffffffffffff161415611a1a576040517f08c379a0000000000000000000000000000000000000000000000000000000008152600401611a1190613028565b60405180910390fd5b611a25838383611fac565b611a3060008261177f565b6001600360008573ffffffffffffffffffffffffffffffffffffffff1673ffffffffffffffffffffffffffffffffffffffff1681526020019081526020016000206000828254611a809190613391565b925050819055506001600360008473ffffffffffffffffffffffffffffffffffffffff1673ffffffffffffffffffffffffffffffffffffffff1681526020019081526020016000206000828254611ad7919061330a565b92505081905550816002600083815260200190815260200160002060006101000a81548173ffffffffffffffffffffffffffffffffffffffff021916908373ffffffffffffffffffffffffffffffffffffffff160217905550808273ffffffffffffffffffffffffffffffffffffffff168473ffffffffffffffffffffffffffffffffffffffff167fddf252ad1be2c89b69c2b068fc378daa952ba7f163c4a11628f55a4df523b3ef60405160405180910390a4611b96838383611fb1565b505050565b8173ffffffffffffffffffffffffffffffffffffffff168373ffffffffffffffffffffffffffffffffffffffff161415611c0a576040517f08c379a0000000000000000000000000000000000000000000000000000000008152600401611c0190613048565b60405180910390fd5b80600560008573ffffffffffffffffffffffffffffffffffffffff1673ffffffffffffffffffffffffffffffffffffffff16815260200190815260200160002060008473ffffffffffffffffffffffffffffffffffffffff1673ffffffffffffffffffffffffffffffffffffffff16815260200190815260200160002060006101000a81548160ff0219169083151502179055508173ffffffffffffffffffffffffffffffffffffffff168373ffffffffffffffffffffffffffffffffffffffff167f17307eab39ab6107e8899845ad3d59bd9653f200f220920489ca2b5937696c3183604051611cfb9190612f8b565b60405180910390a3505050565b611d13848484611934565b611d1f84848484611fb6565b611d5e576040517f08c379a0000000000000000000000000000000000000000000000000000000008152600401611d5590612fc8565b60405180910390fd5b50505050565b606060405180602001604052806000815250905090565b60606000821415611dc3576040518060400160405280600181526020017f30000000000000000000000000000000000000000000000000000000000000008152509050611f23565b600082905060005b60008214611df5578080611dde906134ad565b915050600a82611dee9190613360565b9150611dcb565b60008167ffffffffffffffff811115611e37577f4e487b7100000000000000000000000000000000000000000000000000000000600052604160045260246000fd5b6040519080825280601f01601f191660200182016040528015611e695781602001600182028036833780820191505090505b5090505b60008514611f1c57600182611e829190613391565b9150600a85611e9191906134f6565b6030611e9d919061330a565b60f81b818381518110611ed9577f4e487b7100000000000000000000000000000000000000000000000000000000600052603260045260246000fd5b60200101907effffffffffffffffffffffffffffffffffffffffffffffffffffffffffffff1916908160001a905350600a85611f159190613360565b9450611e6d565b8093505050505b919050565b60008151905060006a636f6e736f6c652e6c6f679050602083016000808483855afa5050505050565b611f5b838361214d565b611f686000848484611fb6565b611fa7576040517f08c379a0000000000000000000000000000000000000000000000000000000008152600401611f9e90612fc8565b60405180910390fd5b505050565b505050565b505050565b6000611fd78473ffffffffffffffffffffffffffffffffffffffff16612327565b15612140578373ffffffffffffffffffffffffffffffffffffffff1663150b7a02612000611777565b8786866040518563ffffffff1660e01b81526004016120229493929190612efb565b602060405180830381600087803b15801561203c57600080fd5b505af192505050801561206d57506040513d601f19601f8201168201806040525081019061206a91906126b1565b60015b6120f0573d806000811461209d576040519150601f19603f3d011682016040523d82523d6000602084013e6120a2565b606091505b506000815114156120e8576040517f08c379a00000000000000000000000000000000000000000000000000000000081526004016120df90612fc8565b60405180910390fd5b805181602001fd5b63150b7a0260e01b7bffffffffffffffffffffffffffffffffffffffffffffffffffffffff1916817bffffffffffffffffffffffffffffffffffffffffffffffffffffffff191614915050612145565b600190505b949350505050565b600073ffffffffffffffffffffffffffffffffffffffff168273ffffffffffffffffffffffffffffffffffffffff1614156121bd576040517f08c379a00000000000000000000000000000000000000000000000000000000081526004016121b490613108565b60405180910390fd5b6121c68161170b565b15612206576040517f08c379a00000000000000000000000000000000000000000000000000000000081526004016121fd90613008565b60405180910390fd5b61221260008383611fac565b6001600360008473ffffffffffffffffffffffffffffffffffffffff1673ffffffffffffffffffffffffffffffffffffffff1681526020019081526020016000206000828254612262919061330a565b92505081905550816002600083815260200190815260200160002060006101000a81548173ffffffffffffffffffffffffffffffffffffffff021916908373ffffffffffffffffffffffffffffffffffffffff160217905550808273ffffffffffffffffffffffffffffffffffffffff16600073ffffffffffffffffffffffffffffffffffffffff167fddf252ad1be2c89b69c2b068fc378daa952ba7f163c4a11628f55a4df523b3ef60405160405180910390a461232360008383611fb1565b5050565b6000808273ffffffffffffffffffffffffffffffffffffffff16803b806020016040519081016040528181526000908060200190933c51119050919050565b8280546123729061347b565b90600052602060002090601f01602090048101928261239457600085556123e2565b82601f106123a557805485556123e2565b828001600101855582156123e257600052602060002091601f016020900482015b828111156123e15782548255916001019190600101906123c6565b5b5090506123ef91906123f3565b5090565b5b8082111561240c5760008160009055506001016123f4565b5090565b600061242361241e84613214565b6131e3565b90508281526020810184848401111561243b57600080fd5b612446848285613439565b509392505050565b60008135905061245d816135f4565b92915050565b6000813590506124728161360b565b92915050565b60008135905061248781613622565b92915050565b60008151905061249c81613622565b92915050565b600082601f8301126124b357600080fd5b81356124c3848260208601612410565b91505092915050565b6000813590506124db81613639565b92915050565b6000602082840312156124f357600080fd5b60006125018482850161244e565b91505092915050565b6000806040838503121561251d57600080fd5b600061252b8582860161244e565b925050602061253c8582860161244e565b9150509250929050565b60008060006060848603121561255b57600080fd5b60006125698682870161244e565b935050602061257a8682870161244e565b925050604061258b868287016124cc565b9150509250925092565b600080600080608085870312156125ab57600080fd5b60006125b98782880161244e565b94505060206125ca8782880161244e565b93505060406125db878288016124cc565b925050606085013567ffffffffffffffff8111156125f857600080fd5b612604878288016124a2565b91505092959194509250565b6000806040838503121561262357600080fd5b60006126318582860161244e565b925050602061264285828601612463565b9150509250929050565b6000806040838503121561265f57600080fd5b600061266d8582860161244e565b925050602061267e858286016124cc565b9150509250929050565b60006020828403121561269a57600080fd5b60006126a884828501612478565b91505092915050565b6000602082840312156126c357600080fd5b60006126d18482850161248d565b91505092915050565b6000602082840312156126ec57600080fd5b60006126fa848285016124cc565b91505092915050565b600061270f8383612859565b905092915050565b60006127238383612e9e565b60208301905092915050565b612738816133c5565b82525050565b600061274982613264565b61275381856132aa565b93508360208202850161276585613244565b8060005b858110156127a157848403895281516127828582612703565b945061278d83613290565b925060208a01995050600181019050612769565b50829750879550505050505092915050565b60006127be8261326f565b6127c881856132bb565b93506127d383613254565b8060005b838110156128045781516127eb8882612717565b97506127f68361329d565b9250506001810190506127d7565b5085935050505092915050565b61281a816133d7565b82525050565b600061282b8261327a565b61283581856132cc565b9350612845818560208601613448565b61284e816135e3565b840191505092915050565b600061286482613285565b61286e81856132dd565b935061287e818560208601613448565b612887816135e3565b840191505092915050565b600061289d82613285565b6128a781856132ee565b93506128b7818560208601613448565b6128c0816135e3565b840191505092915050565b60006128d682613285565b6128e081856132ff565b93506128f0818560208601613448565b80840191505092915050565b60006129096032836132ee565b91507f4552433732313a207472616e7366657220746f206e6f6e20455243373231526560008301527f63656976657220696d706c656d656e74657200000000000000000000000000006020830152604082019050919050565b600061296f6025836132ee565b91507f4552433732313a207472616e736665722066726f6d20696e636f72726563742060008301527f6f776e65720000000000000000000000000000000000000000000000000000006020830152604082019050919050565b60006129d5601c836132ee565b91507f4552433732313a20746f6b656e20616c7265616479206d696e746564000000006000830152602082019050919050565b6000612a156024836132ee565b91507f4552433732313a207472616e7366657220746f20746865207a65726f2061646460008301527f72657373000000000000000000000000000000000000000000000000000000006020830152604082019050919050565b6000612a7b6019836132ee565b91507f4552433732313a20617070726f766520746f2063616c6c6572000000000000006000830152602082019050919050565b6000612abb600f836132ee565b91507f494420697320746f6f206c6172676500000000000000000000000000000000006000830152602082019050919050565b6000612afb602c836132ee565b91507f4552433732313a206f70657261746f7220717565727920666f72206e6f6e657860008301527f697374656e7420746f6b656e00000000000000000000000000000000000000006020830152604082019050919050565b6000612b616038836132ee565b91507f4552433732313a20617070726f76652063616c6c6572206973206e6f74206f7760008301527f6e6572206e6f7220617070726f76656420666f7220616c6c00000000000000006020830152604082019050919050565b6000612bc7602a836132ee565b91507f4552433732313a2062616c616e636520717565727920666f7220746865207a6560008301527f726f2061646472657373000000000000000000000000000000000000000000006020830152604082019050919050565b6000612c2d6029836132ee565b91507f4552433732313a206f776e657220717565727920666f72206e6f6e657869737460008301527f656e7420746f6b656e00000000000000000000000000000000000000000000006020830152604082019050919050565b6000612c936020836132ee565b91507f4552433732313a206d696e7420746f20746865207a65726f20616464726573736000830152602082019050919050565b6000612cd3602c836132ee565b91507f4552433732313a20617070726f76656420717565727920666f72206e6f6e657860008301527f697374656e7420746f6b656e00000000000000000000000000000000000000006020830152604082019050919050565b6000612d39602f836132ee565b91507f4552433732314d657461646174613a2055524920717565727920666f72206e6f60008301527f6e6578697374656e7420746f6b656e00000000000000000000000000000000006020830152604082019050919050565b6000612d9f6021836132ee565b91507f4552433732313a20617070726f76616c20746f2063757272656e74206f776e6560008301527f72000000000000000000000000000000000000000000000000000000000000006020830152604082019050919050565b6000612e056011836132ee565b91507f4d757374207573652076616c69642049440000000000000000000000000000006000830152602082019050919050565b6000612e456031836132ee565b91507f4552433732313a207472616e736665722063616c6c6572206973206e6f74206f60008301527f776e6572206e6f7220617070726f7665640000000000000000000000000000006020830152604082019050919050565b612ea78161342f565b82525050565b612eb68161342f565b82525050565b6000612ec882856128cb565b9150612ed482846128cb565b91508190509392505050565b6000602082019050612ef5600083018461272f565b92915050565b6000608082019050612f10600083018761272f565b612f1d602083018661272f565b612f2a6040830185612ead565b8181036060830152612f3c8184612820565b905095945050505050565b60006020820190508181036000830152612f61818461273e565b905092915050565b60006020820190508181036000830152612f8381846127b3565b905092915050565b6000602082019050612fa06000830184612811565b92915050565b60006020820190508181036000830152612fc08184612892565b905092915050565b60006020820190508181036000830152612fe1816128fc565b9050919050565b6000602082019050818103600083015261300181612962565b9050919050565b60006020820190508181036000830152613021816129c8565b9050919050565b6000602082019050818103600083015261304181612a08565b9050919050565b6000602082019050818103600083015261306181612a6e565b9050919050565b6000602082019050818103600083015261308181612aae565b9050919050565b600060208201905081810360008301526130a181612aee565b9050919050565b600060208201905081810360008301526130c181612b54565b9050919050565b600060208201905081810360008301526130e181612bba565b9050919050565b6000602082019050818103600083015261310181612c20565b9050919050565b6000602082019050818103600083015261312181612c86565b9050919050565b6000602082019050818103600083015261314181612cc6565b9050919050565b6000602082019050818103600083015261316181612d2c565b9050919050565b6000602082019050818103600083015261318181612d92565b9050919050565b600060208201905081810360008301526131a181612df8565b9050919050565b600060208201905081810360008301526131c181612e38565b9050919050565b60006020820190506131dd6000830184612ead565b92915050565b6000604051905081810181811067ffffffffffffffff8211171561320a576132096135b4565b5b8060405250919050565b600067ffffffffffffffff82111561322f5761322e6135b4565b5b601f19601f8301169050602081019050919050565b6000819050602082019050919050565b6000819050602082019050919050565b600081519050919050565b600081519050919050565b600081519050919050565b600081519050919050565b6000602082019050919050565b6000602082019050919050565b600082825260208201905092915050565b600082825260208201905092915050565b600082825260208201905092915050565b600082825260208201905092915050565b600082825260208201905092915050565b600081905092915050565b60006133158261342f565b91506133208361342f565b9250827fffffffffffffffffffffffffffffffffffffffffffffffffffffffffffffffff0382111561335557613354613527565b5b828201905092915050565b600061336b8261342f565b91506133768361342f565b92508261338657613385613556565b5b828204905092915050565b600061339c8261342f565b91506133a78361342f565b9250828210156133ba576133b9613527565b5b828203905092915050565b60006133d08261340f565b9050919050565b60008115159050919050565b60007fffffffff0000000000000000000000000000000000000000000000000000000082169050919050565b600073ffffffffffffffffffffffffffffffffffffffff82169050919050565b6000819050919050565b82818337600083830152505050565b60005b8381101561346657808201518184015260208101905061344b565b83811115613475576000848401525b50505050565b6000600282049050600182168061349357607f821691505b602082108114156134a7576134a6613585565b5b50919050565b60006134b88261342f565b91507fffffffffffffffffffffffffffffffffffffffffffffffffffffffffffffffff8214156134eb576134ea613527565b5b600182019050919050565b60006135018261342f565b915061350c8361342f565b92508261351c5761351b613556565b5b828206905092915050565b7f4e487b7100000000000000000000000000000000000000000000000000000000600052601160045260246000fd5b7f4e487b7100000000000000000000000000000000000000000000000000000000600052601260045260246000fd5b7f4e487b7100000000000000000000000000000000000000000000000000000000600052602260045260246000fd5b7f4e487b7100000000000000000000000000000000000000000000000000000000600052604160045260246000fd5b6000601f19601f8301169050919050565b6135fd816133c5565b811461360857600080fd5b50565b613614816133d7565b811461361f57600080fd5b50565b61362b816133e3565b811461363657600080fd5b50565b6136428161342f565b811461364d57600080fd5b5056fea26469706673582212205f84b1a6158d3e39006c8582c094af339eb9d133c2c0d099765a5d12b267ba4064736f6c63430008000033",
  "linkReferences": {},
  "deployedLinkReferences": {}
}