{
  "_format": "hh-sol-artifact-1",
  "contractName": "BillionaireBattles",
  "sourceName": "contracts/BillionaireBattles.sol",
  "abi": [
    {
      "inputs": [
        {
          "internalType": "string[]",
          "name": "names",
          "type": "string[]"
        },
        {
          "internalType": "string[]",
          "name": "descriptions",
          "type": "string[]"
        },
        {
          "internalType": "string[]",
          "name": "images",
          "type": "string[]"
        },
        {
          "internalType": "uint256[]",
          "name": "healths",
          "type": "uint256[]"
        },
        {
          "internalType": "uint256[]",
          "name": "maxHealths",
          "type": "uint256[]"
        },
        {
          "internalType": "string[]",
          "name": "attack1Names",
          "type": "string[]"
        },
        {
          "internalType": "string[]",
          "name": "attack2Names",
          "type": "string[]"
        },
        {
          "internalType": "string[]",
          "name": "attack3Names",
          "type": "string[]"
        },
        {
          "internalType": "uint256[]",
          "name": "attack1Damages",
          "type": "uint256[]"
        },
        {
          "internalType": "uint256[]",
          "name": "attack2Damages",
          "type": "uint256[]"
        },
        {
          "internalType": "uint256[]",
          "name": "attack3Damages",
          "type": "uint256[]"
        }
      ],
      "stateMutability": "nonpayable",
      "type": "constructor"
    },
    {
      "anonymous": false,
      "inputs": [
        {
          "indexed": true,
          "internalType": "address",
          "name": "owner",
          "type": "address"
        },
        {
          "indexed": true,
          "internalType": "address",
          "name": "approved",
          "type": "address"
        },
        {
          "indexed": true,
          "internalType": "uint256",
          "name": "tokenId",
          "type": "uint256"
        }
      ],
      "name": "Approval",
      "type": "event"
    },
    {
      "anonymous": false,
      "inputs": [
        {
          "indexed": true,
          "internalType": "address",
          "name": "owner",
          "type": "address"
        },
        {
          "indexed": true,
          "internalType": "address",
          "name": "operator",
          "type": "address"
        },
        {
          "indexed": false,
          "internalType": "bool",
          "name": "approved",
          "type": "bool"
        }
      ],
      "name": "ApprovalForAll",
      "type": "event"
    },
    {
      "anonymous": false,
      "inputs": [
        {
          "indexed": true,
          "internalType": "address",
          "name": "from",
          "type": "address"
        },
        {
          "indexed": true,
          "internalType": "address",
          "name": "to",
          "type": "address"
        },
        {
          "indexed": true,
          "internalType": "uint256",
          "name": "tokenId",
          "type": "uint256"
        }
      ],
      "name": "Transfer",
      "type": "event"
    },
    {
      "inputs": [
        {
          "internalType": "address",
          "name": "to",
          "type": "address"
        },
        {
          "internalType": "uint256",
          "name": "tokenId",
          "type": "uint256"
        }
      ],
      "name": "approve",
      "outputs": [],
      "stateMutability": "nonpayable",
      "type": "function"
    },
    {
      "inputs": [
        {
          "internalType": "address",
          "name": "owner",
          "type": "address"
        }
      ],
      "name": "balanceOf",
      "outputs": [
        {
          "internalType": "uint256",
          "name": "",
          "type": "uint256"
        }
      ],
      "stateMutability": "view",
      "type": "function"
    },
    {
      "inputs": [
        {
          "internalType": "uint256",
          "name": "tokenId",
          "type": "uint256"
        },
        {
          "internalType": "uint256",
          "name": "price",
          "type": "uint256"
        }
      ],
      "name": "createMarketListing",
      "outputs": [],
      "stateMutability": "nonpayable",
      "type": "function"
    },
    {
      "inputs": [
        {
          "internalType": "uint256",
          "name": "tokenId",
          "type": "uint256"
        }
      ],
      "name": "createMarketSale",
      "outputs": [],
      "stateMutability": "payable",
      "type": "function"
    },
    {
      "inputs": [],
      "name": "getAllCharacters",
      "outputs": [
        {
          "internalType": "string",
          "name": "",
          "type": "string"
        }
      ],
      "stateMutability": "view",
      "type": "function"
    },
    {
      "inputs": [
        {
          "internalType": "uint256",
          "name": "tokenId",
          "type": "uint256"
        }
      ],
      "name": "getApproved",
      "outputs": [
        {
          "internalType": "address",
          "name": "",
          "type": "address"
        }
      ],
      "stateMutability": "view",
      "type": "function"
    },
    {
      "inputs": [],
      "name": "getBossIds",
      "outputs": [
        {
          "internalType": "uint256[]",
          "name": "ids",
          "type": "uint256[]"
        }
      ],
      "stateMutability": "view",
      "type": "function"
    },
    {
      "inputs": [],
      "name": "getCharacterCount",
      "outputs": [
        {
          "internalType": "uint256",
          "name": "",
          "type": "uint256"
        }
      ],
      "stateMutability": "view",
      "type": "function"
    },
    {
      "inputs": [
        {
          "internalType": "uint256",
          "name": "index",
          "type": "uint256"
        }
      ],
      "name": "getCharacterDisplayDataById",
      "outputs": [
        {
          "internalType": "string[]",
          "name": "",
          "type": "string[]"
        }
      ],
      "stateMutability": "view",
      "type": "function"
    },
    {
      "inputs": [
        {
          "internalType": "uint256",
          "name": "index",
          "type": "uint256"
        }
      ],
      "name": "getCharacterHealthAndMaxHealthById",
      "outputs": [
        {
          "internalType": "uint256[]",
          "name": "",
          "type": "uint256[]"
        }
      ],
      "stateMutability": "view",
      "type": "function"
    },
    {
      "inputs": [
        {
          "internalType": "address",
          "name": "current",
          "type": "address"
        }
      ],
      "name": "getCharactersFromAddress",
      "outputs": [
        {
          "internalType": "uint256[]",
          "name": "",
          "type": "uint256[]"
        }
      ],
      "stateMutability": "view",
      "type": "function"
    },
    {
      "inputs": [],
      "name": "getListingFee",
      "outputs": [
        {
          "internalType": "uint256",
          "name": "",
          "type": "uint256"
        }
      ],
      "stateMutability": "view",
      "type": "function"
    },
    {
      "inputs": [],
      "name": "getMarketItems",
      "outputs": [
        {
          "internalType": "uint256[]",
          "name": "",
          "type": "uint256[]"
        }
      ],
      "stateMutability": "view",
      "type": "function"
    },
    {
      "inputs": [
        {
          "internalType": "uint256",
          "name": "id",
          "type": "uint256"
        }
      ],
      "name": "getOwnerOfCharcterByID",
      "outputs": [
        {
          "internalType": "address",
          "name": "",
          "type": "address"
        }
      ],
      "stateMutability": "view",
      "type": "function"
    },
    {
      "inputs": [
        {
          "internalType": "uint256",
          "name": "id",
          "type": "uint256"
        }
      ],
      "name": "getPriceById",
      "outputs": [
        {
          "internalType": "uint256",
          "name": "",
          "type": "uint256"
        }
      ],
      "stateMutability": "view",
      "type": "function"
    },
    {
      "inputs": [],
      "name": "getReviveCost",
      "outputs": [
        {
          "internalType": "uint256",
          "name": "",
          "type": "uint256"
        }
      ],
      "stateMutability": "view",
      "type": "function"
    },
    {
      "inputs": [
        {
          "internalType": "address",
          "name": "owner",
          "type": "address"
        },
        {
          "internalType": "address",
          "name": "operator",
          "type": "address"
        }
      ],
      "name": "isApprovedForAll",
      "outputs": [
        {
          "internalType": "bool",
          "name": "",
          "type": "bool"
        }
      ],
      "stateMutability": "view",
      "type": "function"
    },
    {
      "inputs": [
        {
          "internalType": "uint256",
          "name": "id",
          "type": "uint256"
        }
      ],
      "name": "mintItemById",
      "outputs": [],
      "stateMutability": "nonpayable",
      "type": "function"
    },
    {
      "inputs": [
        {
          "internalType": "string",
          "name": "_name",
          "type": "string"
        },
        {
          "internalType": "string",
          "name": "_description",
          "type": "string"
        },
        {
          "internalType": "uint256",
          "name": "_attack",
          "type": "uint256"
        },
        {
          "internalType": "string",
          "name": "_image",
          "type": "string"
        },
        {
          "internalType": "uint256",
          "name": "_health",
          "type": "uint256"
        }
      ],
      "name": "mintNewBoss",
      "outputs": [],
      "stateMutability": "nonpayable",
      "type": "function"
    },
    {
      "inputs": [],
      "name": "name",
      "outputs": [
        {
          "internalType": "string",
          "name": "",
          "type": "string"
        }
      ],
      "stateMutability": "view",
      "type": "function"
    },
    {
      "inputs": [
        {
          "internalType": "uint256",
          "name": "tokenId",
          "type": "uint256"
        }
      ],
      "name": "ownerOf",
      "outputs": [
        {
          "internalType": "address",
          "name": "",
          "type": "address"
        }
      ],
      "stateMutability": "view",
      "type": "function"
    },
    {
      "inputs": [
        {
          "internalType": "address",
          "name": "from",
          "type": "address"
        },
        {
          "internalType": "address",
          "name": "to",
          "type": "address"
        },
        {
          "internalType": "uint256",
          "name": "tokenId",
          "type": "uint256"
        }
      ],
      "name": "safeTransferFrom",
      "outputs": [],
      "stateMutability": "nonpayable",
      "type": "function"
    },
    {
      "inputs": [
        {
          "internalType": "address",
          "name": "from",
          "type": "address"
        },
        {
          "internalType": "address",
          "name": "to",
          "type": "address"
        },
        {
          "internalType": "uint256",
          "name": "tokenId",
          "type": "uint256"
        },
        {
          "internalType": "bytes",
          "name": "_data",
          "type": "bytes"
        }
      ],
      "name": "safeTransferFrom",
      "outputs": [],
      "stateMutability": "nonpayable",
      "type": "function"
    },
    {
      "inputs": [
        {
          "internalType": "address",
          "name": "operator",
          "type": "address"
        },
        {
          "internalType": "bool",
          "name": "approved",
          "type": "bool"
        }
      ],
      "name": "setApprovalForAll",
      "outputs": [],
      "stateMutability": "nonpayable",
      "type": "function"
    },
    {
      "inputs": [
        {
          "internalType": "bytes4",
          "name": "interfaceId",
          "type": "bytes4"
        }
      ],
      "name": "supportsInterface",
      "outputs": [
        {
          "internalType": "bool",
          "name": "",
          "type": "bool"
        }
      ],
      "stateMutability": "view",
      "type": "function"
    },
    {
      "inputs": [],
      "name": "symbol",
      "outputs": [
        {
          "internalType": "string",
          "name": "",
          "type": "string"
        }
      ],
      "stateMutability": "view",
      "type": "function"
    },
    {
      "inputs": [
        {
          "internalType": "uint256",
          "name": "tokenId",
          "type": "uint256"
        }
      ],
      "name": "tokenURI",
      "outputs": [
        {
          "internalType": "string",
          "name": "",
          "type": "string"
        }
      ],
      "stateMutability": "view",
      "type": "function"
    },
    {
      "inputs": [
        {
          "internalType": "address",
          "name": "from",
          "type": "address"
        },
        {
          "internalType": "address",
          "name": "to",
          "type": "address"
        },
        {
          "internalType": "uint256",
          "name": "tokenId",
          "type": "uint256"
        }
      ],
      "name": "transferFrom",
      "outputs": [],
      "stateMutability": "nonpayable",
      "type": "function"
    }
  ],
  "bytecode": "0x608060405260006008553480156200001657600080fd5b5060405162004eff38038062004eff83398181016040528101906200003c919062000966565b6040518060400160405280601381526020017f42696c6c696f6e6169726520426174746c6573000000000000000000000000008152506040518060400160405280600381526020017f42425400000000000000000000000000000000000000000000000000000000008152508160009080519060200190620000c0929190620006f9565b508060019080519060200190620000d9929190620006f9565b505050620001276040518060400160405280600281526020017f68690000000000000000000000000000000000000000000000000000000000008152506200062d60201b62001cf61760201c565b6005600681905550600560078190555060005b60028110156200061b57600c604051806101a001604052803073ffffffffffffffffffffffffffffffffffffffff1681526020016000151581526020018e8481518110620001b1577f4e487b7100000000000000000000000000000000000000000000000000000000600052603260045260246000fd5b602002602001015181526020018d8481518110620001f8577f4e487b7100000000000000000000000000000000000000000000000000000000600052603260045260246000fd5b602002602001015181526020018c84815181106200023f577f4e487b7100000000000000000000000000000000000000000000000000000000600052603260045260246000fd5b602002602001015181526020018b848151811062000286577f4e487b7100000000000000000000000000000000000000000000000000000000600052603260045260246000fd5b602002602001015181526020018a8481518110620002cd577f4e487b7100000000000000000000000000000000000000000000000000000000600052603260045260246000fd5b6020026020010151815260200189848151811062000314577f4e487b7100000000000000000000000000000000000000000000000000000000600052603260045260246000fd5b602002602001015181526020018884815181106200035b577f4e487b7100000000000000000000000000000000000000000000000000000000600052603260045260246000fd5b60200260200101518152602001878481518110620003a2577f4e487b7100000000000000000000000000000000000000000000000000000000600052603260045260246000fd5b60200260200101518152602001868481518110620003e9577f4e487b7100000000000000000000000000000000000000000000000000000000600052603260045260246000fd5b6020026020010151815260200185848151811062000430577f4e487b7100000000000000000000000000000000000000000000000000000000600052603260045260246000fd5b6020026020010151815260200184848151811062000477577f4e487b7100000000000000000000000000000000000000000000000000000000600052603260045260246000fd5b602002602001015181525090806001815401808255809150506001900390600052602060002090600c020160009091909190915060008201518160000160006101000a81548173ffffffffffffffffffffffffffffffffffffffff021916908373ffffffffffffffffffffffffffffffffffffffff16021790555060208201518160000160146101000a81548160ff021916908315150217905550604082015181600101908051906020019062000530929190620006f9565b5060608201518160020190805190602001906200054f929190620006f9565b5060808201518160030190805190602001906200056e929190620006f9565b5060a0820151816004015560c0820151816005015560e0820151816006019080519060200190620005a1929190620006f9565b50610100820151816007019080519060200190620005c1929190620006f9565b50610120820151816008019080519060200190620005e1929190620006f9565b50610140820151816009015561016082015181600a015561018082015181600b015550508080620006129062000d3c565b9150506200013a565b50505050505050505050505062000e42565b620006cd8160405160240162000644919062000bc1565b6040516020818303038152906040527f41304fac000000000000000000000000000000000000000000000000000000007bffffffffffffffffffffffffffffffffffffffffffffffffffffffff19166020820180517bffffffffffffffffffffffffffffffffffffffffffffffffffffffff8381831617835250505050620006d060201b60201c565b50565b60008151905060006a636f6e736f6c652e6c6f679050602083016000808483855afa5050505050565b828054620007079062000d06565b90600052602060002090601f0160209004810192826200072b576000855562000777565b82601f106200074657805160ff191683800117855562000777565b8280016001018555821562000777579182015b828111156200077657825182559160200191906001019062000759565b5b5090506200078691906200078a565b5090565b5b80821115620007a55760008160009055506001016200078b565b5090565b6000620007c0620007ba8462000c19565b62000be5565b9050808382526020820190508260005b85811015620008045781518501620007e9888262000922565b845260208401935060208301925050600181019050620007d0565b5050509392505050565b6000620008256200081f8462000c48565b62000be5565b905080838252602082019050828560208602820111156200084557600080fd5b60005b858110156200087957816200085e88826200094f565b84526020840193506020830192505060018101905062000848565b5050509392505050565b60006200089a620008948462000c77565b62000be5565b905082815260208101848484011115620008b357600080fd5b620008c084828562000cd0565b509392505050565b600082601f830112620008da57600080fd5b8151620008ec848260208601620007a9565b91505092915050565b600082601f8301126200090757600080fd5b8151620009198482602086016200080e565b91505092915050565b600082601f8301126200093457600080fd5b81516200094684826020860162000883565b91505092915050565b600081519050620009608162000e28565b92915050565b60008060008060008060008060008060006101608c8e0312156200098957600080fd5b60008c015167ffffffffffffffff811115620009a457600080fd5b620009b28e828f01620008c8565b9b505060208c015167ffffffffffffffff811115620009d057600080fd5b620009de8e828f01620008c8565b9a505060408c015167ffffffffffffffff811115620009fc57600080fd5b62000a0a8e828f01620008c8565b99505060608c015167ffffffffffffffff81111562000a2857600080fd5b62000a368e828f01620008f5565b98505060808c015167ffffffffffffffff81111562000a5457600080fd5b62000a628e828f01620008f5565b97505060a08c015167ffffffffffffffff81111562000a8057600080fd5b62000a8e8e828f01620008c8565b96505060c08c015167ffffffffffffffff81111562000aac57600080fd5b62000aba8e828f01620008c8565b95505060e08c015167ffffffffffffffff81111562000ad857600080fd5b62000ae68e828f01620008c8565b9450506101008c015167ffffffffffffffff81111562000b0557600080fd5b62000b138e828f01620008f5565b9350506101208c015167ffffffffffffffff81111562000b3257600080fd5b62000b408e828f01620008f5565b9250506101408c015167ffffffffffffffff81111562000b5f57600080fd5b62000b6d8e828f01620008f5565b9150509295989b509295989b9093969950565b600062000b8d8262000caa565b62000b99818562000cb5565b935062000bab81856020860162000cd0565b62000bb68162000e17565b840191505092915050565b6000602082019050818103600083015262000bdd818462000b80565b905092915050565b6000604051905081810181811067ffffffffffffffff8211171562000c0f5762000c0e62000de8565b5b8060405250919050565b600067ffffffffffffffff82111562000c375762000c3662000de8565b5b602082029050602081019050919050565b600067ffffffffffffffff82111562000c665762000c6562000de8565b5b602082029050602081019050919050565b600067ffffffffffffffff82111562000c955762000c9462000de8565b5b601f19601f8301169050602081019050919050565b600081519050919050565b600082825260208201905092915050565b6000819050919050565b60005b8381101562000cf057808201518184015260208101905062000cd3565b8381111562000d00576000848401525b50505050565b6000600282049050600182168062000d1f57607f821691505b6020821081141562000d365762000d3562000db9565b5b50919050565b600062000d498262000cc6565b91507fffffffffffffffffffffffffffffffffffffffffffffffffffffffffffffffff82141562000d7f5762000d7e62000d8a565b5b600182019050919050565b7f4e487b7100000000000000000000000000000000000000000000000000000000600052601160045260246000fd5b7f4e487b7100000000000000000000000000000000000000000000000000000000600052602260045260246000fd5b7f4e487b7100000000000000000000000000000000000000000000000000000000600052604160045260246000fd5b6000601f19601f8301169050919050565b62000e338162000cc6565b811462000e3f57600080fd5b50565b6140ad8062000e526000396000f3fe6080604052600436106101b75760003560e01c806368baf0a0116100ec578063b88d4fde1161008a578063be9af53611610064578063be9af53614610644578063c87b56dd14610660578063e985e9c51461069d578063fdb205eb146106da576101b7565b8063b88d4fde146105b3578063b8fe6abe146105dc578063b9256b1b14610607576101b7565b80637577e86d116100c65780637577e86d146104f757806383e56dca1461053457806395d89b411461055f578063a22cb4651461058a576101b7565b806368baf0a0146104525780636cfc05421461048f57806370a08231146104ba576101b7565b806323b872dd1161015957806342842e0e1161013357806342842e0e146103985780636352211e146103c15780636456152a146103fe57806365df8ce714610427576101b7565b806323b872dd1461031957806329aa3a42146103425780633d936d2d1461036d576101b7565b8063095ea7b311610195578063095ea7b3146102615780631a9a04281461028a5780631bafbaa6146102c75780631bf5de90146102f0576101b7565b806301ffc9a7146101bc57806306fdde03146101f9578063081812fc14610224575b600080fd5b3480156101c857600080fd5b506101e360048036038101906101de9190612e64565b610717565b6040516101f09190613922565b60405180910390f35b34801561020557600080fd5b5061020e6107f9565b60405161021b919061393d565b60405180910390f35b34801561023057600080fd5b5061024b60048036038101906102469190612f75565b61088b565b6040516102589190613877565b60405180910390f35b34801561026d57600080fd5b5061028860048036038101906102839190612e28565b610910565b005b34801561029657600080fd5b506102b160048036038101906102ac9190612f75565b610a28565b6040516102be9190613877565b60405180910390f35b3480156102d357600080fd5b506102ee60048036038101906102e99190612f75565b610a68565b005b3480156102fc57600080fd5b5061031760048036038101906103129190612eb6565b610d57565b005b34801561032557600080fd5b50610340600480360381019061033b9190612d22565b610e42565b005b34801561034e57600080fd5b50610357610ea2565b6040516103649190613900565b60405180910390f35b34801561037957600080fd5b50610382610fc8565b60405161038f9190613bbf565b60405180910390f35b3480156103a457600080fd5b506103bf60048036038101906103ba9190612d22565b610fd2565b005b3480156103cd57600080fd5b506103e860048036038101906103e39190612f75565b610ff2565b6040516103f59190613877565b60405180910390f35b34801561040a57600080fd5b5061042560048036038101906104209190612f9e565b6110a4565b005b34801561043357600080fd5b5061043c61113d565b6040516104499190613bbf565b60405180910390f35b34801561045e57600080fd5b5061047960048036038101906104749190612cbd565b611147565b6040516104869190613900565b60405180910390f35b34801561049b57600080fd5b506104a46112ac565b6040516104b19190613900565b60405180910390f35b3480156104c657600080fd5b506104e160048036038101906104dc9190612cbd565b6113c0565b6040516104ee9190613bbf565b60405180910390f35b34801561050357600080fd5b5061051e60048036038101906105199190612f75565b611478565b60405161052b91906138de565b60405180910390f35b34801561054057600080fd5b506105496116d0565b604051610556919061393d565b60405180910390f35b34801561056b57600080fd5b50610574611777565b604051610581919061393d565b60405180910390f35b34801561059657600080fd5b506105b160048036038101906105ac9190612dec565b611809565b005b3480156105bf57600080fd5b506105da60048036038101906105d59190612d71565b61181f565b005b3480156105e857600080fd5b506105f1611881565b6040516105fe9190613bbf565b60405180910390f35b34801561061357600080fd5b5061062e60048036038101906106299190612f75565b61188b565b60405161063b9190613bbf565b60405180910390f35b61065e60048036038101906106599190612f75565b6118a8565b005b34801561066c57600080fd5b5061068760048036038101906106829190612f75565b611a76565b604051610694919061393d565b60405180910390f35b3480156106a957600080fd5b506106c460048036038101906106bf9190612ce6565b611b1d565b6040516106d19190613922565b60405180910390f35b3480156106e657600080fd5b5061070160048036038101906106fc9190612f75565b611bb1565b60405161070e9190613900565b60405180910390f35b60007f80ac58cd000000000000000000000000000000000000000000000000000000007bffffffffffffffffffffffffffffffffffffffffffffffffffffffff1916827bffffffffffffffffffffffffffffffffffffffffffffffffffffffff191614806107e257507f5b5e139f000000000000000000000000000000000000000000000000000000007bffffffffffffffffffffffffffffffffffffffffffffffffffffffff1916827bffffffffffffffffffffffffffffffffffffffffffffffffffffffff1916145b806107f257506107f182611d8f565b5b9050919050565b60606000805461080890613ea2565b80601f016020809104026020016040519081016040528092919081815260200182805461083490613ea2565b80156108815780601f1061085657610100808354040283529160200191610881565b820191906000526020600020905b81548152906001019060200180831161086457829003601f168201915b5050505050905090565b600061089682611df9565b6108d5576040517f08c379a00000000000000000000000000000000000000000000000000000000081526004016108cc90613aff565b60405180910390fd5b6004600083815260200190815260200160002060009054906101000a900473ffffffffffffffffffffffffffffffffffffffff169050919050565b600061091b82610ff2565b90508073ffffffffffffffffffffffffffffffffffffffff168373ffffffffffffffffffffffffffffffffffffffff16141561098c576040517f08c379a000000000000000000000000000000000000000000000000000000000815260040161098390613b3f565b60405180910390fd5b8073ffffffffffffffffffffffffffffffffffffffff166109ab611e65565b73ffffffffffffffffffffffffffffffffffffffff1614806109da57506109d9816109d4611e65565b611b1d565b5b610a19576040517f08c379a0000000000000000000000000000000000000000000000000000000008152600401610a1090613a7f565b60405180910390fd5b610a238383611e6d565b505050565b6000600a600083815260200190815260200160002060000160009054906101000a900473ffffffffffffffffffffffffffffffffffffffff169050919050565b6000811015610aac576040517f08c379a0000000000000000000000000000000000000000000000000000000008152600401610aa390613b5f565b60405180910390fd5b600c805490508110610af3576040517f08c379a0000000000000000000000000000000000000000000000000000000008152600401610aea90613a3f565b60405180910390fd5b60086000815480929190610b0690613ed4565b9190505550600c8181548110610b45577f4e487b7100000000000000000000000000000000000000000000000000000000600052603260045260246000fd5b90600052602060002090600c0201600a600060085481526020019081526020016000206000820160009054906101000a900473ffffffffffffffffffffffffffffffffffffffff168160000160006101000a81548173ffffffffffffffffffffffffffffffffffffffff021916908373ffffffffffffffffffffffffffffffffffffffff1602179055506000820160149054906101000a900460ff168160000160146101000a81548160ff0219169083151502179055506001820181600101908054610c1090613ea2565b610c1b929190612a54565b506002820181600201908054610c3090613ea2565b610c3b929190612a54565b506003820181600301908054610c5090613ea2565b610c5b929190612a54565b5060048201548160040155600582015481600501556006820181600601908054610c8490613ea2565b610c8f929190612a54565b506007820181600701908054610ca490613ea2565b610caf929190612a54565b506008820181600801908054610cc490613ea2565b610ccf929190612a54565b5060098201548160090155600a82015481600a0155600b82015481600b015590505033600a6000600854815260200190815260200160002060000160006101000a81548173ffffffffffffffffffffffffffffffffffffffff021916908373ffffffffffffffffffffffffffffffffffffffff160217905550610d5433600854611f26565b50565b60086000815480929190610d6a90613ed4565b9190505550600060085490506040518060c0016040528087815260200186815260200184815260200183815260200183815260200185815250600960008381526020019081526020016000206000820151816000019080519060200190610dd2929190612ae1565b506020820151816001019080519060200190610def929190612ae1565b506040820151816002019080519060200190610e0c929190612ae1565b50606082015181600301556080820151816004015560a08201518160050155905050610e3a33600854611f26565b505050505050565b610e53610e4d611e65565b82611f44565b610e92576040517f08c379a0000000000000000000000000000000000000000000000000000000008152600401610e8990613b7f565b60405180910390fd5b610e9d838383612022565b505050565b606060008060085467ffffffffffffffff811115610ee9577f4e487b7100000000000000000000000000000000000000000000000000000000600052604160045260246000fd5b604051908082528060200260200182016040528015610f175781602001602082028036833780820191505090505b50905060005b600854811015610fbf5760011515600a600083815260200190815260200160002060000160149054906101000a900460ff1615151415610fac5780828481518110610f91577f4e487b7100000000000000000000000000000000000000000000000000000000600052603260045260246000fd5b6020026020010181815250508280610fa890613ed4565b9350505b8080610fb790613ed4565b915050610f1d565b50809250505090565b6000600754905090565b610fed8383836040518060200160405280600081525061181f565b505050565b6000806002600084815260200190815260200160002060009054906101000a900473ffffffffffffffffffffffffffffffffffffffff169050600073ffffffffffffffffffffffffffffffffffffffff168173ffffffffffffffffffffffffffffffffffffffff16141561109b576040517f08c379a000000000000000000000000000000000000000000000000000000000815260040161109290613abf565b60405180910390fd5b80915050919050565b600081116110e7576040517f08c379a00000000000000000000000000000000000000000000000000000000081526004016110de906139bf565b60405180910390fd5b80600b6000848152602001908152602001600020819055506001600a600084815260200190815260200160002060000160146101000a81548160ff021916908315150217905550611139333084612022565b5050565b6000600854905090565b606060008060085467ffffffffffffffff81111561118e577f4e487b7100000000000000000000000000000000000000000000000000000000600052604160045260246000fd5b6040519080825280602002602001820160405280156111bc5781602001602082028036833780820191505090505b5090506000600190505b60085481116112a1578473ffffffffffffffffffffffffffffffffffffffff16600a600083815260200190815260200160002060000160009054906101000a900473ffffffffffffffffffffffffffffffffffffffff1673ffffffffffffffffffffffffffffffffffffffff16141561128e5780828481518110611273577f4e487b7100000000000000000000000000000000000000000000000000000000600052603260045260246000fd5b602002602001018181525050828061128a90613ed4565b9350505b808061129990613ed4565b9150506111c6565b508092505050919050565b606060008060085467ffffffffffffffff8111156112f3577f4e487b7100000000000000000000000000000000000000000000000000000000600052604160045260246000fd5b6040519080825280602002602001820160405280156113215781602001602082028036833780820191505090505b50905060005b6008548110156113b75760006009600083815260200190815260200160002060040154146113a45780848481518110611389577f4e487b7100000000000000000000000000000000000000000000000000000000600052603260045260246000fd5b60200260200101818152505082806113a090613ed4565b9350505b80806113af90613ed4565b915050611327565b50809250505090565b60008073ffffffffffffffffffffffffffffffffffffffff168273ffffffffffffffffffffffffffffffffffffffff161415611431576040517f08c379a000000000000000000000000000000000000000000000000000000000815260040161142890613a9f565b60405180910390fd5b600360008373ffffffffffffffffffffffffffffffffffffffff1673ffffffffffffffffffffffffffffffffffffffff168152602001908152602001600020549050919050565b60606000600467ffffffffffffffff8111156114bd577f4e487b7100000000000000000000000000000000000000000000000000000000600052604160045260246000fd5b6040519080825280602002602001820160405280156114f057816020015b60608152602001906001900390816114db5790505b5090506000600a6000858152602001908152602001600020600301805461151690613ea2565b80601f016020809104026020016040519081016040528092919081815260200182805461154290613ea2565b801561158f5780601f106115645761010080835404028352916020019161158f565b820191906000526020600020905b81548152906001019060200180831161157257829003601f168201915b505050505090506000600a600086815260200190815260200160002060010180546115b990613ea2565b80601f01602080910402602001604051908101604052809291908181526020018280546115e590613ea2565b80156116325780601f1061160757610100808354040283529160200191611632565b820191906000526020600020905b81548152906001019060200180831161161557829003601f168201915b505050505090508183600081518110611674577f4e487b7100000000000000000000000000000000000000000000000000000000600052603260045260246000fd5b602002602001018190525080836001815181106116ba577f4e487b7100000000000000000000000000000000000000000000000000000000600052603260045260246000fd5b6020026020010181905250829350505050919050565b6060600a60006001815260200190815260200160002060010180546116f490613ea2565b80601f016020809104026020016040519081016040528092919081815260200182805461172090613ea2565b801561176d5780601f106117425761010080835404028352916020019161176d565b820191906000526020600020905b81548152906001019060200180831161175057829003601f168201915b5050505050905090565b60606001805461178690613ea2565b80601f01602080910402602001604051908101604052809291908181526020018280546117b290613ea2565b80156117ff5780601f106117d4576101008083540402835291602001916117ff565b820191906000526020600020905b8154815290600101906020018083116117e257829003601f168201915b5050505050905090565b61181b611814611e65565b8383612289565b5050565b61183061182a611e65565b83611f44565b61186f576040517f08c379a000000000000000000000000000000000000000000000000000000000815260040161186690613b7f565b60405180910390fd5b61187b848484846123f6565b50505050565b6000600654905090565b6000600b6000838152602001908152602001600020549050919050565b60011515600a600083815260200190815260200160002060000160149054906101000a900460ff16151514611912576040517f08c379a000000000000000000000000000000000000000000000000000000000815260040161190990613a1f565b60405180910390fd5b34600b60008381526020019081526020016000205414611967576040517f08c379a000000000000000000000000000000000000000000000000000000000815260040161195e90613b9f565b60405180910390fd5b600a600082815260200190815260200160002060000160009054906101000a900473ffffffffffffffffffffffffffffffffffffffff1673ffffffffffffffffffffffffffffffffffffffff166108fc349081150290604051600060405180830381858888f193505050501580156119e3573d6000803e3d6000fd5b5033600a600083815260200190815260200160002060000160006101000a81548173ffffffffffffffffffffffffffffffffffffffff021916908373ffffffffffffffffffffffffffffffffffffffff1602179055506000600a600083815260200190815260200160002060000160146101000a81548160ff021916908315150217905550611a73303383612022565b50565b6060611a8182611df9565b611ac0576040517f08c379a0000000000000000000000000000000000000000000000000000000008152600401611ab790613b1f565b60405180910390fd5b6000611aca612452565b90506000815111611aea5760405180602001604052806000815250611b15565b80611af484612469565b604051602001611b05929190613853565b6040516020818303038152906040525b915050919050565b6000600560008473ffffffffffffffffffffffffffffffffffffffff1673ffffffffffffffffffffffffffffffffffffffff16815260200190815260200160002060008373ffffffffffffffffffffffffffffffffffffffff1673ffffffffffffffffffffffffffffffffffffffff16815260200190815260200160002060009054906101000a900460ff16905092915050565b60606000600267ffffffffffffffff811115611bf6577f4e487b7100000000000000000000000000000000000000000000000000000000600052604160045260246000fd5b604051908082528060200260200182016040528015611c245781602001602082028036833780820191505090505b5090506000600a60008581526020019081526020016000206004015490506000600a60008681526020019081526020016000206005015490508183600081518110611c98577f4e487b7100000000000000000000000000000000000000000000000000000000600052603260045260246000fd5b6020026020010181815250508083600181518110611cdf577f4e487b7100000000000000000000000000000000000000000000000000000000600052603260045260246000fd5b602002602001018181525050829350505050919050565b611d8c81604051602401611d0a919061393d565b6040516020818303038152906040527f41304fac000000000000000000000000000000000000000000000000000000007bffffffffffffffffffffffffffffffffffffffffffffffffffffffff19166020820180517bffffffffffffffffffffffffffffffffffffffffffffffffffffffff8381831617835250505050612616565b50565b60007f01ffc9a7000000000000000000000000000000000000000000000000000000007bffffffffffffffffffffffffffffffffffffffffffffffffffffffff1916827bffffffffffffffffffffffffffffffffffffffffffffffffffffffff1916149050919050565b60008073ffffffffffffffffffffffffffffffffffffffff166002600084815260200190815260200160002060009054906101000a900473ffffffffffffffffffffffffffffffffffffffff1673ffffffffffffffffffffffffffffffffffffffff1614159050919050565b600033905090565b816004600083815260200190815260200160002060006101000a81548173ffffffffffffffffffffffffffffffffffffffff021916908373ffffffffffffffffffffffffffffffffffffffff160217905550808273ffffffffffffffffffffffffffffffffffffffff16611ee083610ff2565b73ffffffffffffffffffffffffffffffffffffffff167f8c5be1e5ebec7d5bd14f71427d1e84f3dd0314c0f7b2291e5b200ac8c7c3b92560405160405180910390a45050565b611f4082826040518060200160405280600081525061263f565b5050565b6000611f4f82611df9565b611f8e576040517f08c379a0000000000000000000000000000000000000000000000000000000008152600401611f8590613a5f565b60405180910390fd5b6000611f9983610ff2565b90508073ffffffffffffffffffffffffffffffffffffffff168473ffffffffffffffffffffffffffffffffffffffff161480611fdb5750611fda8185611b1d565b5b8061201957508373ffffffffffffffffffffffffffffffffffffffff166120018461088b565b73ffffffffffffffffffffffffffffffffffffffff16145b91505092915050565b8273ffffffffffffffffffffffffffffffffffffffff1661204282610ff2565b73ffffffffffffffffffffffffffffffffffffffff1614612098576040517f08c379a000000000000000000000000000000000000000000000000000000000815260040161208f9061397f565b60405180910390fd5b600073ffffffffffffffffffffffffffffffffffffffff168273ffffffffffffffffffffffffffffffffffffffff161415612108576040517f08c379a00000000000000000000000000000000000000000000000000000000081526004016120ff906139df565b60405180910390fd5b61211383838361269a565b61211e600082611e6d565b6001600360008573ffffffffffffffffffffffffffffffffffffffff1673ffffffffffffffffffffffffffffffffffffffff168152602001908152602001600020600082825461216e9190613db8565b925050819055506001600360008473ffffffffffffffffffffffffffffffffffffffff1673ffffffffffffffffffffffffffffffffffffffff16815260200190815260200160002060008282546121c59190613d31565b92505081905550816002600083815260200190815260200160002060006101000a81548173ffffffffffffffffffffffffffffffffffffffff021916908373ffffffffffffffffffffffffffffffffffffffff160217905550808273ffffffffffffffffffffffffffffffffffffffff168473ffffffffffffffffffffffffffffffffffffffff167fddf252ad1be2c89b69c2b068fc378daa952ba7f163c4a11628f55a4df523b3ef60405160405180910390a461228483838361269f565b505050565b8173ffffffffffffffffffffffffffffffffffffffff168373ffffffffffffffffffffffffffffffffffffffff1614156122f8576040517f08c379a00000000000000000000000000000000000000000000000000000000081526004016122ef906139ff565b60405180910390fd5b80600560008573ffffffffffffffffffffffffffffffffffffffff1673ffffffffffffffffffffffffffffffffffffffff16815260200190815260200160002060008473ffffffffffffffffffffffffffffffffffffffff1673ffffffffffffffffffffffffffffffffffffffff16815260200190815260200160002060006101000a81548160ff0219169083151502179055508173ffffffffffffffffffffffffffffffffffffffff168373ffffffffffffffffffffffffffffffffffffffff167f17307eab39ab6107e8899845ad3d59bd9653f200f220920489ca2b5937696c31836040516123e99190613922565b60405180910390a3505050565b612401848484612022565b61240d848484846126a4565b61244c576040517f08c379a00000000000000000000000000000000000000000000000000000000081526004016124439061395f565b60405180910390fd5b50505050565b606060405180602001604052806000815250905090565b606060008214156124b1576040518060400160405280600181526020017f30000000000000000000000000000000000000000000000000000000000000008152509050612611565b600082905060005b600082146124e35780806124cc90613ed4565b915050600a826124dc9190613d87565b91506124b9565b60008167ffffffffffffffff811115612525577f4e487b7100000000000000000000000000000000000000000000000000000000600052604160045260246000fd5b6040519080825280601f01601f1916602001820160405280156125575781602001600182028036833780820191505090505b5090505b6000851461260a576001826125709190613db8565b9150600a8561257f9190613f1d565b603061258b9190613d31565b60f81b8183815181106125c7577f4e487b7100000000000000000000000000000000000000000000000000000000600052603260045260246000fd5b60200101907effffffffffffffffffffffffffffffffffffffffffffffffffffffffffffff1916908160001a905350600a856126039190613d87565b945061255b565b8093505050505b919050565b60008151905060006a636f6e736f6c652e6c6f679050602083016000808483855afa5050505050565b612649838361283b565b61265660008484846126a4565b612695576040517f08c379a000000000000000000000000000000000000000000000000000000000815260040161268c9061395f565b60405180910390fd5b505050565b505050565b505050565b60006126c58473ffffffffffffffffffffffffffffffffffffffff16612a15565b1561282e578373ffffffffffffffffffffffffffffffffffffffff1663150b7a026126ee611e65565b8786866040518563ffffffff1660e01b81526004016127109493929190613892565b602060405180830381600087803b15801561272a57600080fd5b505af192505050801561275b57506040513d601f19601f820116820180604052508101906127589190612e8d565b60015b6127de573d806000811461278b576040519150601f19603f3d011682016040523d82523d6000602084013e612790565b606091505b506000815114156127d6576040517f08c379a00000000000000000000000000000000000000000000000000000000081526004016127cd9061395f565b60405180910390fd5b805181602001fd5b63150b7a0260e01b7bffffffffffffffffffffffffffffffffffffffffffffffffffffffff1916817bffffffffffffffffffffffffffffffffffffffffffffffffffffffff191614915050612833565b600190505b949350505050565b600073ffffffffffffffffffffffffffffffffffffffff168273ffffffffffffffffffffffffffffffffffffffff1614156128ab576040517f08c379a00000000000000000000000000000000000000000000000000000000081526004016128a290613adf565b60405180910390fd5b6128b481611df9565b156128f4576040517f08c379a00000000000000000000000000000000000000000000000000000000081526004016128eb9061399f565b60405180910390fd5b6129006000838361269a565b6001600360008473ffffffffffffffffffffffffffffffffffffffff1673ffffffffffffffffffffffffffffffffffffffff16815260200190815260200160002060008282546129509190613d31565b92505081905550816002600083815260200190815260200160002060006101000a81548173ffffffffffffffffffffffffffffffffffffffff021916908373ffffffffffffffffffffffffffffffffffffffff160217905550808273ffffffffffffffffffffffffffffffffffffffff16600073ffffffffffffffffffffffffffffffffffffffff167fddf252ad1be2c89b69c2b068fc378daa952ba7f163c4a11628f55a4df523b3ef60405160405180910390a4612a116000838361269f565b5050565b6000808273ffffffffffffffffffffffffffffffffffffffff16803b806020016040519081016040528181526000908060200190933c51119050919050565b828054612a6090613ea2565b90600052602060002090601f016020900481019282612a825760008555612ad0565b82601f10612a935780548555612ad0565b82800160010185558215612ad057600052602060002091601f016020900482015b82811115612acf578254825591600101919060010190612ab4565b5b509050612add9190612b67565b5090565b828054612aed90613ea2565b90600052602060002090601f016020900481019282612b0f5760008555612b56565b82601f10612b2857805160ff1916838001178555612b56565b82800160010185558215612b56579182015b82811115612b55578251825591602001919060010190612b3a565b5b509050612b639190612b67565b5090565b5b80821115612b80576000816000905550600101612b68565b5090565b6000612b97612b9284613c0b565b613bda565b905082815260208101848484011115612baf57600080fd5b612bba848285613e60565b509392505050565b6000612bd5612bd084613c3b565b613bda565b905082815260208101848484011115612bed57600080fd5b612bf8848285613e60565b509392505050565b600081359050612c0f8161401b565b92915050565b600081359050612c2481614032565b92915050565b600081359050612c3981614049565b92915050565b600081519050612c4e81614049565b92915050565b600082601f830112612c6557600080fd5b8135612c75848260208601612b84565b91505092915050565b600082601f830112612c8f57600080fd5b8135612c9f848260208601612bc2565b91505092915050565b600081359050612cb781614060565b92915050565b600060208284031215612ccf57600080fd5b6000612cdd84828501612c00565b91505092915050565b60008060408385031215612cf957600080fd5b6000612d0785828601612c00565b9250506020612d1885828601612c00565b9150509250929050565b600080600060608486031215612d3757600080fd5b6000612d4586828701612c00565b9350506020612d5686828701612c00565b9250506040612d6786828701612ca8565b9150509250925092565b60008060008060808587031215612d8757600080fd5b6000612d9587828801612c00565b9450506020612da687828801612c00565b9350506040612db787828801612ca8565b925050606085013567ffffffffffffffff811115612dd457600080fd5b612de087828801612c54565b91505092959194509250565b60008060408385031215612dff57600080fd5b6000612e0d85828601612c00565b9250506020612e1e85828601612c15565b9150509250929050565b60008060408385031215612e3b57600080fd5b6000612e4985828601612c00565b9250506020612e5a85828601612ca8565b9150509250929050565b600060208284031215612e7657600080fd5b6000612e8484828501612c2a565b91505092915050565b600060208284031215612e9f57600080fd5b6000612ead84828501612c3f565b91505092915050565b600080600080600060a08688031215612ece57600080fd5b600086013567ffffffffffffffff811115612ee857600080fd5b612ef488828901612c7e565b955050602086013567ffffffffffffffff811115612f1157600080fd5b612f1d88828901612c7e565b9450506040612f2e88828901612ca8565b935050606086013567ffffffffffffffff811115612f4b57600080fd5b612f5788828901612c7e565b9250506080612f6888828901612ca8565b9150509295509295909350565b600060208284031215612f8757600080fd5b6000612f9584828501612ca8565b91505092915050565b60008060408385031215612fb157600080fd5b6000612fbf85828601612ca8565b9250506020612fd085828601612ca8565b9150509250929050565b6000612fe68383613130565b905092915050565b6000612ffa8383613835565b60208301905092915050565b61300f81613dec565b82525050565b600061302082613c8b565b61302a8185613cd1565b93508360208202850161303c85613c6b565b8060005b8581101561307857848403895281516130598582612fda565b945061306483613cb7565b925060208a01995050600181019050613040565b50829750879550505050505092915050565b600061309582613c96565b61309f8185613ce2565b93506130aa83613c7b565b8060005b838110156130db5781516130c28882612fee565b97506130cd83613cc4565b9250506001810190506130ae565b5085935050505092915050565b6130f181613dfe565b82525050565b600061310282613ca1565b61310c8185613cf3565b935061311c818560208601613e6f565b6131258161400a565b840191505092915050565b600061313b82613cac565b6131458185613d04565b9350613155818560208601613e6f565b61315e8161400a565b840191505092915050565b600061317482613cac565b61317e8185613d15565b935061318e818560208601613e6f565b6131978161400a565b840191505092915050565b60006131ad82613cac565b6131b78185613d26565b93506131c7818560208601613e6f565b80840191505092915050565b60006131e0603283613d15565b91507f4552433732313a207472616e7366657220746f206e6f6e20455243373231526560008301527f63656976657220696d706c656d656e74657200000000000000000000000000006020830152604082019050919050565b6000613246602583613d15565b91507f4552433732313a207472616e736665722066726f6d20696e636f72726563742060008301527f6f776e65720000000000000000000000000000000000000000000000000000006020830152604082019050919050565b60006132ac601c83613d15565b91507f4552433732313a20746f6b656e20616c7265616479206d696e746564000000006000830152602082019050919050565b60006132ec601083613d15565b91507f50726963652063616e27742062652030000000000000000000000000000000006000830152602082019050919050565b600061332c602483613d15565b91507f4552433732313a207472616e7366657220746f20746865207a65726f2061646460008301527f72657373000000000000000000000000000000000000000000000000000000006020830152604082019050919050565b6000613392601983613d15565b91507f4552433732313a20617070726f766520746f2063616c6c6572000000000000006000830152602082019050919050565b60006133d2601983613d15565b91507f54686973206974656d206973206e6f7420666f722073616c65000000000000006000830152602082019050919050565b6000613412600f83613d15565b91507f494420697320746f6f206c6172676500000000000000000000000000000000006000830152602082019050919050565b6000613452602c83613d15565b91507f4552433732313a206f70657261746f7220717565727920666f72206e6f6e657860008301527f697374656e7420746f6b656e00000000000000000000000000000000000000006020830152604082019050919050565b60006134b8603883613d15565b91507f4552433732313a20617070726f76652063616c6c6572206973206e6f74206f7760008301527f6e6572206e6f7220617070726f76656420666f7220616c6c00000000000000006020830152604082019050919050565b600061351e602a83613d15565b91507f4552433732313a2062616c616e636520717565727920666f7220746865207a6560008301527f726f2061646472657373000000000000000000000000000000000000000000006020830152604082019050919050565b6000613584602983613d15565b91507f4552433732313a206f776e657220717565727920666f72206e6f6e657869737460008301527f656e7420746f6b656e00000000000000000000000000000000000000000000006020830152604082019050919050565b60006135ea602083613d15565b91507f4552433732313a206d696e7420746f20746865207a65726f20616464726573736000830152602082019050919050565b600061362a602c83613d15565b91507f4552433732313a20617070726f76656420717565727920666f72206e6f6e657860008301527f697374656e7420746f6b656e00000000000000000000000000000000000000006020830152604082019050919050565b6000613690602f83613d15565b91507f4552433732314d657461646174613a2055524920717565727920666f72206e6f60008301527f6e6578697374656e7420746f6b656e00000000000000000000000000000000006020830152604082019050919050565b60006136f6602183613d15565b91507f4552433732313a20617070726f76616c20746f2063757272656e74206f776e6560008301527f72000000000000000000000000000000000000000000000000000000000000006020830152604082019050919050565b600061375c601183613d15565b91507f4d757374207573652076616c69642049440000000000000000000000000000006000830152602082019050919050565b600061379c603183613d15565b91507f4552433732313a207472616e736665722063616c6c6572206973206e6f74206f60008301527f776e6572206e6f7220617070726f7665640000000000000000000000000000006020830152604082019050919050565b6000613802601783613d15565b91507f5375626d6974207468652061736b696e672070726963650000000000000000006000830152602082019050919050565b61383e81613e56565b82525050565b61384d81613e56565b82525050565b600061385f82856131a2565b915061386b82846131a2565b91508190509392505050565b600060208201905061388c6000830184613006565b92915050565b60006080820190506138a76000830187613006565b6138b46020830186613006565b6138c16040830185613844565b81810360608301526138d381846130f7565b905095945050505050565b600060208201905081810360008301526138f88184613015565b905092915050565b6000602082019050818103600083015261391a818461308a565b905092915050565b600060208201905061393760008301846130e8565b92915050565b600060208201905081810360008301526139578184613169565b905092915050565b60006020820190508181036000830152613978816131d3565b9050919050565b6000602082019050818103600083015261399881613239565b9050919050565b600060208201905081810360008301526139b88161329f565b9050919050565b600060208201905081810360008301526139d8816132df565b9050919050565b600060208201905081810360008301526139f88161331f565b9050919050565b60006020820190508181036000830152613a1881613385565b9050919050565b60006020820190508181036000830152613a38816133c5565b9050919050565b60006020820190508181036000830152613a5881613405565b9050919050565b60006020820190508181036000830152613a7881613445565b9050919050565b60006020820190508181036000830152613a98816134ab565b9050919050565b60006020820190508181036000830152613ab881613511565b9050919050565b60006020820190508181036000830152613ad881613577565b9050919050565b60006020820190508181036000830152613af8816135dd565b9050919050565b60006020820190508181036000830152613b188161361d565b9050919050565b60006020820190508181036000830152613b3881613683565b9050919050565b60006020820190508181036000830152613b58816136e9565b9050919050565b60006020820190508181036000830152613b788161374f565b9050919050565b60006020820190508181036000830152613b988161378f565b9050919050565b60006020820190508181036000830152613bb8816137f5565b9050919050565b6000602082019050613bd46000830184613844565b92915050565b6000604051905081810181811067ffffffffffffffff82111715613c0157613c00613fdb565b5b8060405250919050565b600067ffffffffffffffff821115613c2657613c25613fdb565b5b601f19601f8301169050602081019050919050565b600067ffffffffffffffff821115613c5657613c55613fdb565b5b601f19601f8301169050602081019050919050565b6000819050602082019050919050565b6000819050602082019050919050565b600081519050919050565b600081519050919050565b600081519050919050565b600081519050919050565b6000602082019050919050565b6000602082019050919050565b600082825260208201905092915050565b600082825260208201905092915050565b600082825260208201905092915050565b600082825260208201905092915050565b600082825260208201905092915050565b600081905092915050565b6000613d3c82613e56565b9150613d4783613e56565b9250827fffffffffffffffffffffffffffffffffffffffffffffffffffffffffffffffff03821115613d7c57613d7b613f4e565b5b828201905092915050565b6000613d9282613e56565b9150613d9d83613e56565b925082613dad57613dac613f7d565b5b828204905092915050565b6000613dc382613e56565b9150613dce83613e56565b925082821015613de157613de0613f4e565b5b828203905092915050565b6000613df782613e36565b9050919050565b60008115159050919050565b60007fffffffff0000000000000000000000000000000000000000000000000000000082169050919050565b600073ffffffffffffffffffffffffffffffffffffffff82169050919050565b6000819050919050565b82818337600083830152505050565b60005b83811015613e8d578082015181840152602081019050613e72565b83811115613e9c576000848401525b50505050565b60006002820490506001821680613eba57607f821691505b60208210811415613ece57613ecd613fac565b5b50919050565b6000613edf82613e56565b91507fffffffffffffffffffffffffffffffffffffffffffffffffffffffffffffffff821415613f1257613f11613f4e565b5b600182019050919050565b6000613f2882613e56565b9150613f3383613e56565b925082613f4357613f42613f7d565b5b828206905092915050565b7f4e487b7100000000000000000000000000000000000000000000000000000000600052601160045260246000fd5b7f4e487b7100000000000000000000000000000000000000000000000000000000600052601260045260246000fd5b7f4e487b7100000000000000000000000000000000000000000000000000000000600052602260045260246000fd5b7f4e487b7100000000000000000000000000000000000000000000000000000000600052604160045260246000fd5b6000601f19601f8301169050919050565b61402481613dec565b811461402f57600080fd5b50565b61403b81613dfe565b811461404657600080fd5b50565b61405281613e0a565b811461405d57600080fd5b50565b61406981613e56565b811461407457600080fd5b5056fea26469706673582212205d9e6c7059c9a12a0d9f328c84951940bbaaf55e86a760b744373f8c4fc13d4664736f6c63430008000033",
  "linkReferences": {},
  "deployedLinkReferences": {}
}