{
  "_format": "hh-sol-artifact-1",
  "contractName": "BillionaireBattles",
  "sourceName": "contracts/BillionaireBattles.sol",
  "abi": [
    {
      "inputs": [
        {
          "internalType": "string[]",
          "name": "names",
          "type": "string[]"
        },
        {
          "internalType": "string[]",
          "name": "descriptions",
          "type": "string[]"
        },
        {
          "internalType": "string[]",
          "name": "images",
          "type": "string[]"
        },
        {
          "internalType": "uint256[]",
          "name": "healths",
          "type": "uint256[]"
        },
        {
          "internalType": "uint256[]",
          "name": "maxHealths",
          "type": "uint256[]"
        },
        {
          "internalType": "string[]",
          "name": "attack1Names",
          "type": "string[]"
        },
        {
          "internalType": "string[]",
          "name": "attack2Names",
          "type": "string[]"
        },
        {
          "internalType": "string[]",
          "name": "attack3Names",
          "type": "string[]"
        },
        {
          "internalType": "uint256[]",
          "name": "attack1Damages",
          "type": "uint256[]"
        },
        {
          "internalType": "uint256[]",
          "name": "attack2Damages",
          "type": "uint256[]"
        },
        {
          "internalType": "uint256[]",
          "name": "attack3Damages",
          "type": "uint256[]"
        }
      ],
      "stateMutability": "nonpayable",
      "type": "constructor"
    },
    {
      "anonymous": false,
      "inputs": [
        {
          "indexed": true,
          "internalType": "address",
          "name": "owner",
          "type": "address"
        },
        {
          "indexed": true,
          "internalType": "address",
          "name": "approved",
          "type": "address"
        },
        {
          "indexed": true,
          "internalType": "uint256",
          "name": "tokenId",
          "type": "uint256"
        }
      ],
      "name": "Approval",
      "type": "event"
    },
    {
      "anonymous": false,
      "inputs": [
        {
          "indexed": true,
          "internalType": "address",
          "name": "owner",
          "type": "address"
        },
        {
          "indexed": true,
          "internalType": "address",
          "name": "operator",
          "type": "address"
        },
        {
          "indexed": false,
          "internalType": "bool",
          "name": "approved",
          "type": "bool"
        }
      ],
      "name": "ApprovalForAll",
      "type": "event"
    },
    {
      "anonymous": false,
      "inputs": [
        {
          "indexed": true,
          "internalType": "address",
          "name": "from",
          "type": "address"
        },
        {
          "indexed": true,
          "internalType": "address",
          "name": "to",
          "type": "address"
        },
        {
          "indexed": true,
          "internalType": "uint256",
          "name": "tokenId",
          "type": "uint256"
        }
      ],
      "name": "Transfer",
      "type": "event"
    },
    {
      "inputs": [
        {
          "internalType": "address",
          "name": "to",
          "type": "address"
        },
        {
          "internalType": "uint256",
          "name": "tokenId",
          "type": "uint256"
        }
      ],
      "name": "approve",
      "outputs": [],
      "stateMutability": "nonpayable",
      "type": "function"
    },
    {
      "inputs": [
        {
          "internalType": "address",
          "name": "owner",
          "type": "address"
        }
      ],
      "name": "balanceOf",
      "outputs": [
        {
          "internalType": "uint256",
          "name": "",
          "type": "uint256"
        }
      ],
      "stateMutability": "view",
      "type": "function"
    },
    {
      "inputs": [
        {
          "internalType": "uint256",
          "name": "tokenId",
          "type": "uint256"
        },
        {
          "internalType": "uint256",
          "name": "price",
          "type": "uint256"
        }
      ],
      "name": "createMarketListing",
      "outputs": [],
      "stateMutability": "nonpayable",
      "type": "function"
    },
    {
      "inputs": [
        {
          "internalType": "uint256",
          "name": "tokenId",
          "type": "uint256"
        }
      ],
      "name": "createMarketSale",
      "outputs": [],
      "stateMutability": "payable",
      "type": "function"
    },
    {
      "inputs": [],
      "name": "getAllCharacters",
      "outputs": [
        {
          "internalType": "string",
          "name": "",
          "type": "string"
        }
      ],
      "stateMutability": "view",
      "type": "function"
    },
    {
      "inputs": [
        {
          "internalType": "uint256",
          "name": "tokenId",
          "type": "uint256"
        }
      ],
      "name": "getApproved",
      "outputs": [
        {
          "internalType": "address",
          "name": "",
          "type": "address"
        }
      ],
      "stateMutability": "view",
      "type": "function"
    },
    {
      "inputs": [],
      "name": "getBossIds",
      "outputs": [
        {
          "internalType": "uint256[]",
          "name": "ids",
          "type": "uint256[]"
        }
      ],
      "stateMutability": "view",
      "type": "function"
    },
    {
      "inputs": [],
      "name": "getCharacterCount",
      "outputs": [
        {
          "internalType": "uint256",
          "name": "",
          "type": "uint256"
        }
      ],
      "stateMutability": "view",
      "type": "function"
    },
    {
      "inputs": [
        {
          "internalType": "uint256",
          "name": "index",
          "type": "uint256"
        }
      ],
      "name": "getCharacterDisplayDataById",
      "outputs": [
        {
          "internalType": "string[]",
          "name": "",
          "type": "string[]"
        }
      ],
      "stateMutability": "view",
      "type": "function"
    },
    {
      "inputs": [
        {
          "internalType": "uint256",
          "name": "index",
          "type": "uint256"
        }
      ],
      "name": "getCharacterHealthAndMaxHealthById",
      "outputs": [
        {
          "internalType": "uint256[]",
          "name": "",
          "type": "uint256[]"
        }
      ],
      "stateMutability": "view",
      "type": "function"
    },
    {
      "inputs": [
        {
          "internalType": "address",
          "name": "current",
          "type": "address"
        }
      ],
      "name": "getCharactersFromAddress",
      "outputs": [
        {
          "internalType": "uint256[]",
          "name": "",
          "type": "uint256[]"
        }
      ],
      "stateMutability": "view",
      "type": "function"
    },
    {
      "inputs": [],
      "name": "getListingFee",
      "outputs": [
        {
          "internalType": "uint256",
          "name": "",
          "type": "uint256"
        }
      ],
      "stateMutability": "view",
      "type": "function"
    },
    {
      "inputs": [],
      "name": "getMarketItems",
      "outputs": [
        {
          "internalType": "uint256[]",
          "name": "",
          "type": "uint256[]"
        }
      ],
      "stateMutability": "view",
      "type": "function"
    },
    {
      "inputs": [
        {
          "internalType": "uint256",
          "name": "id",
          "type": "uint256"
        }
      ],
      "name": "getOwnerOfCharcterByID",
      "outputs": [
        {
          "internalType": "address",
          "name": "",
          "type": "address"
        }
      ],
      "stateMutability": "view",
      "type": "function"
    },
    {
      "inputs": [
        {
          "internalType": "uint256",
          "name": "id",
          "type": "uint256"
        }
      ],
      "name": "getPriceById",
      "outputs": [
        {
          "internalType": "uint256",
          "name": "",
          "type": "uint256"
        }
      ],
      "stateMutability": "view",
      "type": "function"
    },
    {
      "inputs": [],
      "name": "getReviveCost",
      "outputs": [
        {
          "internalType": "uint256",
          "name": "",
          "type": "uint256"
        }
      ],
      "stateMutability": "view",
      "type": "function"
    },
    {
      "inputs": [],
      "name": "getThirdIndex",
      "outputs": [
        {
          "components": [
            {
              "internalType": "address",
              "name": "owner",
              "type": "address"
            },
            {
              "internalType": "string",
              "name": "name",
              "type": "string"
            },
            {
              "internalType": "string",
              "name": "description",
              "type": "string"
            },
            {
              "internalType": "string",
              "name": "image",
              "type": "string"
            },
            {
              "internalType": "uint256",
              "name": "health",
              "type": "uint256"
            },
            {
              "internalType": "uint256",
              "name": "maxHealth",
              "type": "uint256"
            },
            {
              "internalType": "uint256",
              "name": "attackDamage",
              "type": "uint256"
            }
          ],
          "internalType": "struct BillionaireBattles.boss",
          "name": "thing",
          "type": "tuple"
        }
      ],
      "stateMutability": "view",
      "type": "function"
    },
    {
      "inputs": [
        {
          "internalType": "address",
          "name": "owner",
          "type": "address"
        },
        {
          "internalType": "address",
          "name": "operator",
          "type": "address"
        }
      ],
      "name": "isApprovedForAll",
      "outputs": [
        {
          "internalType": "bool",
          "name": "",
          "type": "bool"
        }
      ],
      "stateMutability": "view",
      "type": "function"
    },
    {
      "inputs": [
        {
          "internalType": "uint256",
          "name": "id",
          "type": "uint256"
        }
      ],
      "name": "mintItemById",
      "outputs": [],
      "stateMutability": "nonpayable",
      "type": "function"
    },
    {
      "inputs": [
        {
          "internalType": "string",
          "name": "_name",
          "type": "string"
        },
        {
          "internalType": "string",
          "name": "_description",
          "type": "string"
        },
        {
          "internalType": "uint256",
          "name": "_attack",
          "type": "uint256"
        },
        {
          "internalType": "string",
          "name": "_image",
          "type": "string"
        },
        {
          "internalType": "uint256",
          "name": "_health",
          "type": "uint256"
        }
      ],
      "name": "mintNewBoss",
      "outputs": [],
      "stateMutability": "nonpayable",
      "type": "function"
    },
    {
      "inputs": [],
      "name": "name",
      "outputs": [
        {
          "internalType": "string",
          "name": "",
          "type": "string"
        }
      ],
      "stateMutability": "view",
      "type": "function"
    },
    {
      "inputs": [
        {
          "internalType": "uint256",
          "name": "tokenId",
          "type": "uint256"
        }
      ],
      "name": "ownerOf",
      "outputs": [
        {
          "internalType": "address",
          "name": "",
          "type": "address"
        }
      ],
      "stateMutability": "view",
      "type": "function"
    },
    {
      "inputs": [
        {
          "internalType": "address",
          "name": "from",
          "type": "address"
        },
        {
          "internalType": "address",
          "name": "to",
          "type": "address"
        },
        {
          "internalType": "uint256",
          "name": "tokenId",
          "type": "uint256"
        }
      ],
      "name": "safeTransferFrom",
      "outputs": [],
      "stateMutability": "nonpayable",
      "type": "function"
    },
    {
      "inputs": [
        {
          "internalType": "address",
          "name": "from",
          "type": "address"
        },
        {
          "internalType": "address",
          "name": "to",
          "type": "address"
        },
        {
          "internalType": "uint256",
          "name": "tokenId",
          "type": "uint256"
        },
        {
          "internalType": "bytes",
          "name": "_data",
          "type": "bytes"
        }
      ],
      "name": "safeTransferFrom",
      "outputs": [],
      "stateMutability": "nonpayable",
      "type": "function"
    },
    {
      "inputs": [
        {
          "internalType": "address",
          "name": "operator",
          "type": "address"
        },
        {
          "internalType": "bool",
          "name": "approved",
          "type": "bool"
        }
      ],
      "name": "setApprovalForAll",
      "outputs": [],
      "stateMutability": "nonpayable",
      "type": "function"
    },
    {
      "inputs": [
        {
          "internalType": "bytes4",
          "name": "interfaceId",
          "type": "bytes4"
        }
      ],
      "name": "supportsInterface",
      "outputs": [
        {
          "internalType": "bool",
          "name": "",
          "type": "bool"
        }
      ],
      "stateMutability": "view",
      "type": "function"
    },
    {
      "inputs": [],
      "name": "symbol",
      "outputs": [
        {
          "internalType": "string",
          "name": "",
          "type": "string"
        }
      ],
      "stateMutability": "view",
      "type": "function"
    },
    {
      "inputs": [
        {
          "internalType": "uint256",
          "name": "tokenId",
          "type": "uint256"
        }
      ],
      "name": "tokenURI",
      "outputs": [
        {
          "internalType": "string",
          "name": "",
          "type": "string"
        }
      ],
      "stateMutability": "view",
      "type": "function"
    },
    {
      "inputs": [
        {
          "internalType": "address",
          "name": "from",
          "type": "address"
        },
        {
          "internalType": "address",
          "name": "to",
          "type": "address"
        },
        {
          "internalType": "uint256",
          "name": "tokenId",
          "type": "uint256"
        }
      ],
      "name": "transferFrom",
      "outputs": [],
      "stateMutability": "nonpayable",
      "type": "function"
    }
  ],
  "bytecode": "0x608060405260006008553480156200001657600080fd5b50604051620053203803806200532083398181016040528101906200003c919062000966565b6040518060400160405280601381526020017f42696c6c696f6e6169726520426174746c6573000000000000000000000000008152506040518060400160405280600381526020017f42425400000000000000000000000000000000000000000000000000000000008152508160009080519060200190620000c0929190620006f9565b508060019080519060200190620000d9929190620006f9565b505050620001276040518060400160405280600281526020017f68690000000000000000000000000000000000000000000000000000000000008152506200062d60201b62001fe91760201c565b6005600681905550600560078190555060005b60028110156200061b57600c604051806101a001604052803073ffffffffffffffffffffffffffffffffffffffff1681526020016000151581526020018e8481518110620001b1577f4e487b7100000000000000000000000000000000000000000000000000000000600052603260045260246000fd5b602002602001015181526020018d8481518110620001f8577f4e487b7100000000000000000000000000000000000000000000000000000000600052603260045260246000fd5b602002602001015181526020018c84815181106200023f577f4e487b7100000000000000000000000000000000000000000000000000000000600052603260045260246000fd5b602002602001015181526020018b848151811062000286577f4e487b7100000000000000000000000000000000000000000000000000000000600052603260045260246000fd5b602002602001015181526020018a8481518110620002cd577f4e487b7100000000000000000000000000000000000000000000000000000000600052603260045260246000fd5b6020026020010151815260200189848151811062000314577f4e487b7100000000000000000000000000000000000000000000000000000000600052603260045260246000fd5b602002602001015181526020018884815181106200035b577f4e487b7100000000000000000000000000000000000000000000000000000000600052603260045260246000fd5b60200260200101518152602001878481518110620003a2577f4e487b7100000000000000000000000000000000000000000000000000000000600052603260045260246000fd5b60200260200101518152602001868481518110620003e9577f4e487b7100000000000000000000000000000000000000000000000000000000600052603260045260246000fd5b6020026020010151815260200185848151811062000430577f4e487b7100000000000000000000000000000000000000000000000000000000600052603260045260246000fd5b6020026020010151815260200184848151811062000477577f4e487b7100000000000000000000000000000000000000000000000000000000600052603260045260246000fd5b602002602001015181525090806001815401808255809150506001900390600052602060002090600c020160009091909190915060008201518160000160006101000a81548173ffffffffffffffffffffffffffffffffffffffff021916908373ffffffffffffffffffffffffffffffffffffffff16021790555060208201518160000160146101000a81548160ff021916908315150217905550604082015181600101908051906020019062000530929190620006f9565b5060608201518160020190805190602001906200054f929190620006f9565b5060808201518160030190805190602001906200056e929190620006f9565b5060a0820151816004015560c0820151816005015560e0820151816006019080519060200190620005a1929190620006f9565b50610100820151816007019080519060200190620005c1929190620006f9565b50610120820151816008019080519060200190620005e1929190620006f9565b50610140820151816009015561016082015181600a015561018082015181600b015550508080620006129062000d3c565b9150506200013a565b50505050505050505050505062000e42565b620006cd8160405160240162000644919062000bc1565b6040516020818303038152906040527f41304fac000000000000000000000000000000000000000000000000000000007bffffffffffffffffffffffffffffffffffffffffffffffffffffffff19166020820180517bffffffffffffffffffffffffffffffffffffffffffffffffffffffff8381831617835250505050620006d060201b60201c565b50565b60008151905060006a636f6e736f6c652e6c6f679050602083016000808483855afa5050505050565b828054620007079062000d06565b90600052602060002090601f0160209004810192826200072b576000855562000777565b82601f106200074657805160ff191683800117855562000777565b8280016001018555821562000777579182015b828111156200077657825182559160200191906001019062000759565b5b5090506200078691906200078a565b5090565b5b80821115620007a55760008160009055506001016200078b565b5090565b6000620007c0620007ba8462000c19565b62000be5565b9050808382526020820190508260005b85811015620008045781518501620007e9888262000922565b845260208401935060208301925050600181019050620007d0565b5050509392505050565b6000620008256200081f8462000c48565b62000be5565b905080838252602082019050828560208602820111156200084557600080fd5b60005b858110156200087957816200085e88826200094f565b84526020840193506020830192505060018101905062000848565b5050509392505050565b60006200089a620008948462000c77565b62000be5565b905082815260208101848484011115620008b357600080fd5b620008c084828562000cd0565b509392505050565b600082601f830112620008da57600080fd5b8151620008ec848260208601620007a9565b91505092915050565b600082601f8301126200090757600080fd5b8151620009198482602086016200080e565b91505092915050565b600082601f8301126200093457600080fd5b81516200094684826020860162000883565b91505092915050565b600081519050620009608162000e28565b92915050565b60008060008060008060008060008060006101608c8e0312156200098957600080fd5b60008c015167ffffffffffffffff811115620009a457600080fd5b620009b28e828f01620008c8565b9b505060208c015167ffffffffffffffff811115620009d057600080fd5b620009de8e828f01620008c8565b9a505060408c015167ffffffffffffffff811115620009fc57600080fd5b62000a0a8e828f01620008c8565b99505060608c015167ffffffffffffffff81111562000a2857600080fd5b62000a368e828f01620008f5565b98505060808c015167ffffffffffffffff81111562000a5457600080fd5b62000a628e828f01620008f5565b97505060a08c015167ffffffffffffffff81111562000a8057600080fd5b62000a8e8e828f01620008c8565b96505060c08c015167ffffffffffffffff81111562000aac57600080fd5b62000aba8e828f01620008c8565b95505060e08c015167ffffffffffffffff81111562000ad857600080fd5b62000ae68e828f01620008c8565b9450506101008c015167ffffffffffffffff81111562000b0557600080fd5b62000b138e828f01620008f5565b9350506101208c015167ffffffffffffffff81111562000b3257600080fd5b62000b408e828f01620008f5565b9250506101408c015167ffffffffffffffff81111562000b5f57600080fd5b62000b6d8e828f01620008f5565b9150509295989b509295989b9093969950565b600062000b8d8262000caa565b62000b99818562000cb5565b935062000bab81856020860162000cd0565b62000bb68162000e17565b840191505092915050565b6000602082019050818103600083015262000bdd818462000b80565b905092915050565b6000604051905081810181811067ffffffffffffffff8211171562000c0f5762000c0e62000de8565b5b8060405250919050565b600067ffffffffffffffff82111562000c375762000c3662000de8565b5b602082029050602081019050919050565b600067ffffffffffffffff82111562000c665762000c6562000de8565b5b602082029050602081019050919050565b600067ffffffffffffffff82111562000c955762000c9462000de8565b5b601f19601f8301169050602081019050919050565b600081519050919050565b600082825260208201905092915050565b6000819050919050565b60005b8381101562000cf057808201518184015260208101905062000cd3565b8381111562000d00576000848401525b50505050565b6000600282049050600182168062000d1f57607f821691505b6020821081141562000d365762000d3562000db9565b5b50919050565b600062000d498262000cc6565b91507fffffffffffffffffffffffffffffffffffffffffffffffffffffffffffffffff82141562000d7f5762000d7e62000d8a565b5b600182019050919050565b7f4e487b7100000000000000000000000000000000000000000000000000000000600052601160045260246000fd5b7f4e487b7100000000000000000000000000000000000000000000000000000000600052602260045260246000fd5b7f4e487b7100000000000000000000000000000000000000000000000000000000600052604160045260246000fd5b6000601f19601f8301169050919050565b62000e338162000cc6565b811462000e3f57600080fd5b50565b6144ce8062000e526000396000f3fe6080604052600436106101c25760003560e01c806368baf0a0116100f7578063a22cb46511610095578063be9af53611610064578063be9af5361461067a578063c87b56dd14610696578063e985e9c5146106d3578063fdb205eb14610710576101c2565b8063a22cb465146105c0578063b88d4fde146105e9578063b8fe6abe14610612578063b9256b1b1461063d576101c2565b806370a08231116100d157806370a08231146104f05780637577e86d1461052d57806383e56dca1461056a57806395d89b4114610595576101c2565b806368baf0a01461045d5780636b4b502d1461049a5780636cfc0542146104c5576101c2565b806323b872dd1161016457806342842e0e1161013e57806342842e0e146103a35780636352211e146103cc5780636456152a1461040957806365df8ce714610432576101c2565b806323b872dd1461032457806329aa3a421461034d5780633d936d2d14610378576101c2565b8063095ea7b3116101a0578063095ea7b31461026c5780631a9a0428146102955780631bafbaa6146102d25780631bf5de90146102fb576101c2565b806301ffc9a7146101c757806306fdde0314610204578063081812fc1461022f575b600080fd5b3480156101d357600080fd5b506101ee60048036038101906101e991906131aa565b61074d565b6040516101fb9190613d21565b60405180910390f35b34801561021057600080fd5b5061021961082f565b6040516102269190613d3c565b60405180910390f35b34801561023b57600080fd5b50610256600480360381019061025191906132bb565b6108c1565b6040516102639190613c76565b60405180910390f35b34801561027857600080fd5b50610293600480360381019061028e919061316e565b610946565b005b3480156102a157600080fd5b506102bc60048036038101906102b791906132bb565b610a5e565b6040516102c99190613c76565b60405180910390f35b3480156102de57600080fd5b506102f960048036038101906102f491906132bb565b610a9e565b005b34801561030757600080fd5b50610322600480360381019061031d91906131fc565b610d8d565b005b34801561033057600080fd5b5061034b60048036038101906103469190613068565b610edb565b005b34801561035957600080fd5b50610362610f3b565b60405161036f9190613cff565b60405180910390f35b34801561038457600080fd5b5061038d611061565b60405161039a9190613fe0565b60405180910390f35b3480156103af57600080fd5b506103ca60048036038101906103c59190613068565b61106b565b005b3480156103d857600080fd5b506103f360048036038101906103ee91906132bb565b61108b565b6040516104009190613c76565b60405180910390f35b34801561041557600080fd5b50610430600480360381019061042b91906132e4565b61113d565b005b34801561043e57600080fd5b506104476111d6565b6040516104549190613fe0565b60405180910390f35b34801561046957600080fd5b50610484600480360381019061047f9190613003565b6111e0565b6040516104919190613cff565b60405180910390f35b3480156104a657600080fd5b506104af611345565b6040516104bc9190613fbe565b60405180910390f35b3480156104d157600080fd5b506104da61159b565b6040516104e79190613cff565b60405180910390f35b3480156104fc57600080fd5b5061051760048036038101906105129190613003565b6116b3565b6040516105249190613fe0565b60405180910390f35b34801561053957600080fd5b50610554600480360381019061054f91906132bb565b61176b565b6040516105619190613cdd565b60405180910390f35b34801561057657600080fd5b5061057f6119c3565b60405161058c9190613d3c565b60405180910390f35b3480156105a157600080fd5b506105aa611a6a565b6040516105b79190613d3c565b60405180910390f35b3480156105cc57600080fd5b506105e760048036038101906105e29190613132565b611afc565b005b3480156105f557600080fd5b50610610600480360381019061060b91906130b7565b611b12565b005b34801561061e57600080fd5b50610627611b74565b6040516106349190613fe0565b60405180910390f35b34801561064957600080fd5b50610664600480360381019061065f91906132bb565b611b7e565b6040516106719190613fe0565b60405180910390f35b610694600480360381019061068f91906132bb565b611b9b565b005b3480156106a257600080fd5b506106bd60048036038101906106b891906132bb565b611d69565b6040516106ca9190613d3c565b60405180910390f35b3480156106df57600080fd5b506106fa60048036038101906106f5919061302c565b611e10565b6040516107079190613d21565b60405180910390f35b34801561071c57600080fd5b50610737600480360381019061073291906132bb565b611ea4565b6040516107449190613cff565b60405180910390f35b60007f80ac58cd000000000000000000000000000000000000000000000000000000007bffffffffffffffffffffffffffffffffffffffffffffffffffffffff1916827bffffffffffffffffffffffffffffffffffffffffffffffffffffffff1916148061081857507f5b5e139f000000000000000000000000000000000000000000000000000000007bffffffffffffffffffffffffffffffffffffffffffffffffffffffff1916827bffffffffffffffffffffffffffffffffffffffffffffffffffffffff1916145b80610828575061082782612082565b5b9050919050565b60606000805461083e906142c3565b80601f016020809104026020016040519081016040528092919081815260200182805461086a906142c3565b80156108b75780601f1061088c576101008083540402835291602001916108b7565b820191906000526020600020905b81548152906001019060200180831161089a57829003601f168201915b5050505050905090565b60006108cc826120ec565b61090b576040517f08c379a000000000000000000000000000000000000000000000000000000000815260040161090290613efe565b60405180910390fd5b6004600083815260200190815260200160002060009054906101000a900473ffffffffffffffffffffffffffffffffffffffff169050919050565b60006109518261108b565b90508073ffffffffffffffffffffffffffffffffffffffff168373ffffffffffffffffffffffffffffffffffffffff1614156109c2576040517f08c379a00000000000000000000000000000000000000000000000000000000081526004016109b990613f3e565b60405180910390fd5b8073ffffffffffffffffffffffffffffffffffffffff166109e1612158565b73ffffffffffffffffffffffffffffffffffffffff161480610a105750610a0f81610a0a612158565b611e10565b5b610a4f576040517f08c379a0000000000000000000000000000000000000000000000000000000008152600401610a4690613e7e565b60405180910390fd5b610a598383612160565b505050565b6000600a600083815260200190815260200160002060000160009054906101000a900473ffffffffffffffffffffffffffffffffffffffff169050919050565b6000811015610ae2576040517f08c379a0000000000000000000000000000000000000000000000000000000008152600401610ad990613f5e565b60405180910390fd5b600c805490508110610b29576040517f08c379a0000000000000000000000000000000000000000000000000000000008152600401610b2090613e3e565b60405180910390fd5b60086000815480929190610b3c906142f5565b9190505550600c8181548110610b7b577f4e487b7100000000000000000000000000000000000000000000000000000000600052603260045260246000fd5b90600052602060002090600c0201600a600060085481526020019081526020016000206000820160009054906101000a900473ffffffffffffffffffffffffffffffffffffffff168160000160006101000a81548173ffffffffffffffffffffffffffffffffffffffff021916908373ffffffffffffffffffffffffffffffffffffffff1602179055506000820160149054906101000a900460ff168160000160146101000a81548160ff0219169083151502179055506001820181600101908054610c46906142c3565b610c51929190612d47565b506002820181600201908054610c66906142c3565b610c71929190612d47565b506003820181600301908054610c86906142c3565b610c91929190612d47565b5060048201548160040155600582015481600501556006820181600601908054610cba906142c3565b610cc5929190612d47565b506007820181600701908054610cda906142c3565b610ce5929190612d47565b506008820181600801908054610cfa906142c3565b610d05929190612d47565b5060098201548160090155600a82015481600a0155600b82015481600b015590505033600a6000600854815260200190815260200160002060000160006101000a81548173ffffffffffffffffffffffffffffffffffffffff021916908373ffffffffffffffffffffffffffffffffffffffff160217905550610d8a33600854612219565b50565b60086000815480929190610da0906142f5565b9190505550600060085490506040518060e001604052803373ffffffffffffffffffffffffffffffffffffffff168152602001878152602001868152602001848152602001838152602001838152602001858152506009600083815260200190815260200160002060008201518160000160006101000a81548173ffffffffffffffffffffffffffffffffffffffff021916908373ffffffffffffffffffffffffffffffffffffffff1602179055506020820151816001019080519060200190610e6b929190612dd4565b506040820151816002019080519060200190610e88929190612dd4565b506060820151816003019080519060200190610ea5929190612dd4565b506080820151816004015560a0820151816005015560c08201518160060155905050610ed333600854612219565b505050505050565b610eec610ee6612158565b82612237565b610f2b576040517f08c379a0000000000000000000000000000000000000000000000000000000008152600401610f2290613f7e565b60405180910390fd5b610f36838383612315565b505050565b606060008060085467ffffffffffffffff811115610f82577f4e487b7100000000000000000000000000000000000000000000000000000000600052604160045260246000fd5b604051908082528060200260200182016040528015610fb05781602001602082028036833780820191505090505b50905060005b6008548110156110585760011515600a600083815260200190815260200160002060000160149054906101000a900460ff1615151415611045578082848151811061102a577f4e487b7100000000000000000000000000000000000000000000000000000000600052603260045260246000fd5b6020026020010181815250508280611041906142f5565b9350505b8080611050906142f5565b915050610fb6565b50809250505090565b6000600754905090565b61108683838360405180602001604052806000815250611b12565b505050565b6000806002600084815260200190815260200160002060009054906101000a900473ffffffffffffffffffffffffffffffffffffffff169050600073ffffffffffffffffffffffffffffffffffffffff168173ffffffffffffffffffffffffffffffffffffffff161415611134576040517f08c379a000000000000000000000000000000000000000000000000000000000815260040161112b90613ebe565b60405180910390fd5b80915050919050565b60008111611180576040517f08c379a000000000000000000000000000000000000000000000000000000000815260040161117790613dbe565b60405180910390fd5b80600b6000848152602001908152602001600020819055506001600a600084815260200190815260200160002060000160146101000a81548160ff0219169083151502179055506111d2333084612315565b5050565b6000600854905090565b606060008060085467ffffffffffffffff811115611227577f4e487b7100000000000000000000000000000000000000000000000000000000600052604160045260246000fd5b6040519080825280602002602001820160405280156112555781602001602082028036833780820191505090505b5090506000600190505b600854811161133a578473ffffffffffffffffffffffffffffffffffffffff16600a600083815260200190815260200160002060000160009054906101000a900473ffffffffffffffffffffffffffffffffffffffff1673ffffffffffffffffffffffffffffffffffffffff161415611327578082848151811061130c577f4e487b7100000000000000000000000000000000000000000000000000000000600052603260045260246000fd5b6020026020010181815250508280611323906142f5565b9350505b8080611332906142f5565b91505061125f565b508092505050919050565b61134d612e5a565b60096000600381526020019081526020016000206040518060e00160405290816000820160009054906101000a900473ffffffffffffffffffffffffffffffffffffffff1673ffffffffffffffffffffffffffffffffffffffff1673ffffffffffffffffffffffffffffffffffffffff1681526020016001820180546113d2906142c3565b80601f01602080910402602001604051908101604052809291908181526020018280546113fe906142c3565b801561144b5780601f106114205761010080835404028352916020019161144b565b820191906000526020600020905b81548152906001019060200180831161142e57829003601f168201915b50505050508152602001600282018054611464906142c3565b80601f0160208091040260200160405190810160405280929190818152602001828054611490906142c3565b80156114dd5780601f106114b2576101008083540402835291602001916114dd565b820191906000526020600020905b8154815290600101906020018083116114c057829003601f168201915b505050505081526020016003820180546114f6906142c3565b80601f0160208091040260200160405190810160405280929190818152602001828054611522906142c3565b801561156f5780601f106115445761010080835404028352916020019161156f565b820191906000526020600020905b81548152906001019060200180831161155257829003601f168201915b505050505081526020016004820154815260200160058201548152602001600682015481525050905090565b606060008060085467ffffffffffffffff8111156115e2577f4e487b7100000000000000000000000000000000000000000000000000000000600052604160045260246000fd5b6040519080825280602002602001820160405280156116105781602001602082028036833780820191505090505b5090506000600190505b60085481116116aa57600060096000838152602001908152602001600020600401541115611697578082848151811061167c577f4e487b7100000000000000000000000000000000000000000000000000000000600052603260045260246000fd5b6020026020010181815250508280611693906142f5565b9350505b80806116a2906142f5565b91505061161a565b50809250505090565b60008073ffffffffffffffffffffffffffffffffffffffff168273ffffffffffffffffffffffffffffffffffffffff161415611724576040517f08c379a000000000000000000000000000000000000000000000000000000000815260040161171b90613e9e565b60405180910390fd5b600360008373ffffffffffffffffffffffffffffffffffffffff1673ffffffffffffffffffffffffffffffffffffffff168152602001908152602001600020549050919050565b60606000600467ffffffffffffffff8111156117b0577f4e487b7100000000000000000000000000000000000000000000000000000000600052604160045260246000fd5b6040519080825280602002602001820160405280156117e357816020015b60608152602001906001900390816117ce5790505b5090506000600a60008581526020019081526020016000206003018054611809906142c3565b80601f0160208091040260200160405190810160405280929190818152602001828054611835906142c3565b80156118825780601f1061185757610100808354040283529160200191611882565b820191906000526020600020905b81548152906001019060200180831161186557829003601f168201915b505050505090506000600a600086815260200190815260200160002060010180546118ac906142c3565b80601f01602080910402602001604051908101604052809291908181526020018280546118d8906142c3565b80156119255780601f106118fa57610100808354040283529160200191611925565b820191906000526020600020905b81548152906001019060200180831161190857829003601f168201915b505050505090508183600081518110611967577f4e487b7100000000000000000000000000000000000000000000000000000000600052603260045260246000fd5b602002602001018190525080836001815181106119ad577f4e487b7100000000000000000000000000000000000000000000000000000000600052603260045260246000fd5b6020026020010181905250829350505050919050565b6060600a60006001815260200190815260200160002060010180546119e7906142c3565b80601f0160208091040260200160405190810160405280929190818152602001828054611a13906142c3565b8015611a605780601f10611a3557610100808354040283529160200191611a60565b820191906000526020600020905b815481529060010190602001808311611a4357829003601f168201915b5050505050905090565b606060018054611a79906142c3565b80601f0160208091040260200160405190810160405280929190818152602001828054611aa5906142c3565b8015611af25780601f10611ac757610100808354040283529160200191611af2565b820191906000526020600020905b815481529060010190602001808311611ad557829003601f168201915b5050505050905090565b611b0e611b07612158565b838361257c565b5050565b611b23611b1d612158565b83612237565b611b62576040517f08c379a0000000000000000000000000000000000000000000000000000000008152600401611b5990613f7e565b60405180910390fd5b611b6e848484846126e9565b50505050565b6000600654905090565b6000600b6000838152602001908152602001600020549050919050565b60011515600a600083815260200190815260200160002060000160149054906101000a900460ff16151514611c05576040517f08c379a0000000000000000000000000000000000000000000000000000000008152600401611bfc90613e1e565b60405180910390fd5b34600b60008381526020019081526020016000205414611c5a576040517f08c379a0000000000000000000000000000000000000000000000000000000008152600401611c5190613f9e565b60405180910390fd5b600a600082815260200190815260200160002060000160009054906101000a900473ffffffffffffffffffffffffffffffffffffffff1673ffffffffffffffffffffffffffffffffffffffff166108fc349081150290604051600060405180830381858888f19350505050158015611cd6573d6000803e3d6000fd5b5033600a600083815260200190815260200160002060000160006101000a81548173ffffffffffffffffffffffffffffffffffffffff021916908373ffffffffffffffffffffffffffffffffffffffff1602179055506000600a600083815260200190815260200160002060000160146101000a81548160ff021916908315150217905550611d66303383612315565b50565b6060611d74826120ec565b611db3576040517f08c379a0000000000000000000000000000000000000000000000000000000008152600401611daa90613f1e565b60405180910390fd5b6000611dbd612745565b90506000815111611ddd5760405180602001604052806000815250611e08565b80611de78461275c565b604051602001611df8929190613c52565b6040516020818303038152906040525b915050919050565b6000600560008473ffffffffffffffffffffffffffffffffffffffff1673ffffffffffffffffffffffffffffffffffffffff16815260200190815260200160002060008373ffffffffffffffffffffffffffffffffffffffff1673ffffffffffffffffffffffffffffffffffffffff16815260200190815260200160002060009054906101000a900460ff16905092915050565b60606000600267ffffffffffffffff811115611ee9577f4e487b7100000000000000000000000000000000000000000000000000000000600052604160045260246000fd5b604051908082528060200260200182016040528015611f175781602001602082028036833780820191505090505b5090506000600a60008581526020019081526020016000206004015490506000600a60008681526020019081526020016000206005015490508183600081518110611f8b577f4e487b7100000000000000000000000000000000000000000000000000000000600052603260045260246000fd5b6020026020010181815250508083600181518110611fd2577f4e487b7100000000000000000000000000000000000000000000000000000000600052603260045260246000fd5b602002602001018181525050829350505050919050565b61207f81604051602401611ffd9190613d3c565b6040516020818303038152906040527f41304fac000000000000000000000000000000000000000000000000000000007bffffffffffffffffffffffffffffffffffffffffffffffffffffffff19166020820180517bffffffffffffffffffffffffffffffffffffffffffffffffffffffff8381831617835250505050612909565b50565b60007f01ffc9a7000000000000000000000000000000000000000000000000000000007bffffffffffffffffffffffffffffffffffffffffffffffffffffffff1916827bffffffffffffffffffffffffffffffffffffffffffffffffffffffff1916149050919050565b60008073ffffffffffffffffffffffffffffffffffffffff166002600084815260200190815260200160002060009054906101000a900473ffffffffffffffffffffffffffffffffffffffff1673ffffffffffffffffffffffffffffffffffffffff1614159050919050565b600033905090565b816004600083815260200190815260200160002060006101000a81548173ffffffffffffffffffffffffffffffffffffffff021916908373ffffffffffffffffffffffffffffffffffffffff160217905550808273ffffffffffffffffffffffffffffffffffffffff166121d38361108b565b73ffffffffffffffffffffffffffffffffffffffff167f8c5be1e5ebec7d5bd14f71427d1e84f3dd0314c0f7b2291e5b200ac8c7c3b92560405160405180910390a45050565b612233828260405180602001604052806000815250612932565b5050565b6000612242826120ec565b612281576040517f08c379a000000000000000000000000000000000000000000000000000000000815260040161227890613e5e565b60405180910390fd5b600061228c8361108b565b90508073ffffffffffffffffffffffffffffffffffffffff168473ffffffffffffffffffffffffffffffffffffffff1614806122ce57506122cd8185611e10565b5b8061230c57508373ffffffffffffffffffffffffffffffffffffffff166122f4846108c1565b73ffffffffffffffffffffffffffffffffffffffff16145b91505092915050565b8273ffffffffffffffffffffffffffffffffffffffff166123358261108b565b73ffffffffffffffffffffffffffffffffffffffff161461238b576040517f08c379a000000000000000000000000000000000000000000000000000000000815260040161238290613d7e565b60405180910390fd5b600073ffffffffffffffffffffffffffffffffffffffff168273ffffffffffffffffffffffffffffffffffffffff1614156123fb576040517f08c379a00000000000000000000000000000000000000000000000000000000081526004016123f290613dde565b60405180910390fd5b61240683838361298d565b612411600082612160565b6001600360008573ffffffffffffffffffffffffffffffffffffffff1673ffffffffffffffffffffffffffffffffffffffff168152602001908152602001600020600082825461246191906141d9565b925050819055506001600360008473ffffffffffffffffffffffffffffffffffffffff1673ffffffffffffffffffffffffffffffffffffffff16815260200190815260200160002060008282546124b89190614152565b92505081905550816002600083815260200190815260200160002060006101000a81548173ffffffffffffffffffffffffffffffffffffffff021916908373ffffffffffffffffffffffffffffffffffffffff160217905550808273ffffffffffffffffffffffffffffffffffffffff168473ffffffffffffffffffffffffffffffffffffffff167fddf252ad1be2c89b69c2b068fc378daa952ba7f163c4a11628f55a4df523b3ef60405160405180910390a4612577838383612992565b505050565b8173ffffffffffffffffffffffffffffffffffffffff168373ffffffffffffffffffffffffffffffffffffffff1614156125eb576040517f08c379a00000000000000000000000000000000000000000000000000000000081526004016125e290613dfe565b60405180910390fd5b80600560008573ffffffffffffffffffffffffffffffffffffffff1673ffffffffffffffffffffffffffffffffffffffff16815260200190815260200160002060008473ffffffffffffffffffffffffffffffffffffffff1673ffffffffffffffffffffffffffffffffffffffff16815260200190815260200160002060006101000a81548160ff0219169083151502179055508173ffffffffffffffffffffffffffffffffffffffff168373ffffffffffffffffffffffffffffffffffffffff167f17307eab39ab6107e8899845ad3d59bd9653f200f220920489ca2b5937696c31836040516126dc9190613d21565b60405180910390a3505050565b6126f4848484612315565b61270084848484612997565b61273f576040517f08c379a000000000000000000000000000000000000000000000000000000000815260040161273690613d5e565b60405180910390fd5b50505050565b606060405180602001604052806000815250905090565b606060008214156127a4576040518060400160405280600181526020017f30000000000000000000000000000000000000000000000000000000000000008152509050612904565b600082905060005b600082146127d65780806127bf906142f5565b915050600a826127cf91906141a8565b91506127ac565b60008167ffffffffffffffff811115612818577f4e487b7100000000000000000000000000000000000000000000000000000000600052604160045260246000fd5b6040519080825280601f01601f19166020018201604052801561284a5781602001600182028036833780820191505090505b5090505b600085146128fd5760018261286391906141d9565b9150600a85612872919061433e565b603061287e9190614152565b60f81b8183815181106128ba577f4e487b7100000000000000000000000000000000000000000000000000000000600052603260045260246000fd5b60200101907effffffffffffffffffffffffffffffffffffffffffffffffffffffffffffff1916908160001a905350600a856128f691906141a8565b945061284e565b8093505050505b919050565b60008151905060006a636f6e736f6c652e6c6f679050602083016000808483855afa5050505050565b61293c8383612b2e565b6129496000848484612997565b612988576040517f08c379a000000000000000000000000000000000000000000000000000000000815260040161297f90613d5e565b60405180910390fd5b505050565b505050565b505050565b60006129b88473ffffffffffffffffffffffffffffffffffffffff16612d08565b15612b21578373ffffffffffffffffffffffffffffffffffffffff1663150b7a026129e1612158565b8786866040518563ffffffff1660e01b8152600401612a039493929190613c91565b602060405180830381600087803b158015612a1d57600080fd5b505af1925050508015612a4e57506040513d601f19601f82011682018060405250810190612a4b91906131d3565b60015b612ad1573d8060008114612a7e576040519150601f19603f3d011682016040523d82523d6000602084013e612a83565b606091505b50600081511415612ac9576040517f08c379a0000000000000000000000000000000000000000000000000000000008152600401612ac090613d5e565b60405180910390fd5b805181602001fd5b63150b7a0260e01b7bffffffffffffffffffffffffffffffffffffffffffffffffffffffff1916817bffffffffffffffffffffffffffffffffffffffffffffffffffffffff191614915050612b26565b600190505b949350505050565b600073ffffffffffffffffffffffffffffffffffffffff168273ffffffffffffffffffffffffffffffffffffffff161415612b9e576040517f08c379a0000000000000000000000000000000000000000000000000000000008152600401612b9590613ede565b60405180910390fd5b612ba7816120ec565b15612be7576040517f08c379a0000000000000000000000000000000000000000000000000000000008152600401612bde90613d9e565b60405180910390fd5b612bf36000838361298d565b6001600360008473ffffffffffffffffffffffffffffffffffffffff1673ffffffffffffffffffffffffffffffffffffffff1681526020019081526020016000206000828254612c439190614152565b92505081905550816002600083815260200190815260200160002060006101000a81548173ffffffffffffffffffffffffffffffffffffffff021916908373ffffffffffffffffffffffffffffffffffffffff160217905550808273ffffffffffffffffffffffffffffffffffffffff16600073ffffffffffffffffffffffffffffffffffffffff167fddf252ad1be2c89b69c2b068fc378daa952ba7f163c4a11628f55a4df523b3ef60405160405180910390a4612d0460008383612992565b5050565b6000808273ffffffffffffffffffffffffffffffffffffffff16803b806020016040519081016040528181526000908060200190933c51119050919050565b828054612d53906142c3565b90600052602060002090601f016020900481019282612d755760008555612dc3565b82601f10612d865780548555612dc3565b82800160010185558215612dc357600052602060002091601f016020900482015b82811115612dc2578254825591600101919060010190612da7565b5b509050612dd09190612ead565b5090565b828054612de0906142c3565b90600052602060002090601f016020900481019282612e025760008555612e49565b82601f10612e1b57805160ff1916838001178555612e49565b82800160010185558215612e49579182015b82811115612e48578251825591602001919060010190612e2d565b5b509050612e569190612ead565b5090565b6040518060e00160405280600073ffffffffffffffffffffffffffffffffffffffff1681526020016060815260200160608152602001606081526020016000815260200160008152602001600081525090565b5b80821115612ec6576000816000905550600101612eae565b5090565b6000612edd612ed88461402c565b613ffb565b905082815260208101848484011115612ef557600080fd5b612f00848285614281565b509392505050565b6000612f1b612f168461405c565b613ffb565b905082815260208101848484011115612f3357600080fd5b612f3e848285614281565b509392505050565b600081359050612f558161443c565b92915050565b600081359050612f6a81614453565b92915050565b600081359050612f7f8161446a565b92915050565b600081519050612f948161446a565b92915050565b600082601f830112612fab57600080fd5b8135612fbb848260208601612eca565b91505092915050565b600082601f830112612fd557600080fd5b8135612fe5848260208601612f08565b91505092915050565b600081359050612ffd81614481565b92915050565b60006020828403121561301557600080fd5b600061302384828501612f46565b91505092915050565b6000806040838503121561303f57600080fd5b600061304d85828601612f46565b925050602061305e85828601612f46565b9150509250929050565b60008060006060848603121561307d57600080fd5b600061308b86828701612f46565b935050602061309c86828701612f46565b92505060406130ad86828701612fee565b9150509250925092565b600080600080608085870312156130cd57600080fd5b60006130db87828801612f46565b94505060206130ec87828801612f46565b93505060406130fd87828801612fee565b925050606085013567ffffffffffffffff81111561311a57600080fd5b61312687828801612f9a565b91505092959194509250565b6000806040838503121561314557600080fd5b600061315385828601612f46565b925050602061316485828601612f5b565b9150509250929050565b6000806040838503121561318157600080fd5b600061318f85828601612f46565b92505060206131a085828601612fee565b9150509250929050565b6000602082840312156131bc57600080fd5b60006131ca84828501612f70565b91505092915050565b6000602082840312156131e557600080fd5b60006131f384828501612f85565b91505092915050565b600080600080600060a0868803121561321457600080fd5b600086013567ffffffffffffffff81111561322e57600080fd5b61323a88828901612fc4565b955050602086013567ffffffffffffffff81111561325757600080fd5b61326388828901612fc4565b945050604061327488828901612fee565b935050606086013567ffffffffffffffff81111561329157600080fd5b61329d88828901612fc4565b92505060806132ae88828901612fee565b9150509295509295909350565b6000602082840312156132cd57600080fd5b60006132db84828501612fee565b91505092915050565b600080604083850312156132f757600080fd5b600061330585828601612fee565b925050602061331685828601612fee565b9150509250929050565b600061332c8383613485565b905092915050565b60006133408383613c34565b60208301905092915050565b6133558161420d565b82525050565b6133648161420d565b82525050565b6000613375826140ac565b61337f81856140f2565b9350836020820285016133918561408c565b8060005b858110156133cd57848403895281516133ae8582613320565b94506133b9836140d8565b925060208a01995050600181019050613395565b50829750879550505050505092915050565b60006133ea826140b7565b6133f48185614103565b93506133ff8361409c565b8060005b838110156134305781516134178882613334565b9750613422836140e5565b925050600181019050613403565b5085935050505092915050565b6134468161421f565b82525050565b6000613457826140c2565b6134618185614114565b9350613471818560208601614290565b61347a8161442b565b840191505092915050565b6000613490826140cd565b61349a8185614125565b93506134aa818560208601614290565b6134b38161442b565b840191505092915050565b60006134c9826140cd565b6134d38185614136565b93506134e3818560208601614290565b6134ec8161442b565b840191505092915050565b6000613502826140cd565b61350c8185614147565b935061351c818560208601614290565b80840191505092915050565b6000613535603283614136565b91507f4552433732313a207472616e7366657220746f206e6f6e20455243373231526560008301527f63656976657220696d706c656d656e74657200000000000000000000000000006020830152604082019050919050565b600061359b602583614136565b91507f4552433732313a207472616e736665722066726f6d20696e636f72726563742060008301527f6f776e65720000000000000000000000000000000000000000000000000000006020830152604082019050919050565b6000613601601c83614136565b91507f4552433732313a20746f6b656e20616c7265616479206d696e746564000000006000830152602082019050919050565b6000613641601083614136565b91507f50726963652063616e27742062652030000000000000000000000000000000006000830152602082019050919050565b6000613681602483614136565b91507f4552433732313a207472616e7366657220746f20746865207a65726f2061646460008301527f72657373000000000000000000000000000000000000000000000000000000006020830152604082019050919050565b60006136e7601983614136565b91507f4552433732313a20617070726f766520746f2063616c6c6572000000000000006000830152602082019050919050565b6000613727601983614136565b91507f54686973206974656d206973206e6f7420666f722073616c65000000000000006000830152602082019050919050565b6000613767600f83614136565b91507f494420697320746f6f206c6172676500000000000000000000000000000000006000830152602082019050919050565b60006137a7602c83614136565b91507f4552433732313a206f70657261746f7220717565727920666f72206e6f6e657860008301527f697374656e7420746f6b656e00000000000000000000000000000000000000006020830152604082019050919050565b600061380d603883614136565b91507f4552433732313a20617070726f76652063616c6c6572206973206e6f74206f7760008301527f6e6572206e6f7220617070726f76656420666f7220616c6c00000000000000006020830152604082019050919050565b6000613873602a83614136565b91507f4552433732313a2062616c616e636520717565727920666f7220746865207a6560008301527f726f2061646472657373000000000000000000000000000000000000000000006020830152604082019050919050565b60006138d9602983614136565b91507f4552433732313a206f776e657220717565727920666f72206e6f6e657869737460008301527f656e7420746f6b656e00000000000000000000000000000000000000000000006020830152604082019050919050565b600061393f602083614136565b91507f4552433732313a206d696e7420746f20746865207a65726f20616464726573736000830152602082019050919050565b600061397f602c83614136565b91507f4552433732313a20617070726f76656420717565727920666f72206e6f6e657860008301527f697374656e7420746f6b656e00000000000000000000000000000000000000006020830152604082019050919050565b60006139e5602f83614136565b91507f4552433732314d657461646174613a2055524920717565727920666f72206e6f60008301527f6e6578697374656e7420746f6b656e00000000000000000000000000000000006020830152604082019050919050565b6000613a4b602183614136565b91507f4552433732313a20617070726f76616c20746f2063757272656e74206f776e6560008301527f72000000000000000000000000000000000000000000000000000000000000006020830152604082019050919050565b6000613ab1601183614136565b91507f4d757374207573652076616c69642049440000000000000000000000000000006000830152602082019050919050565b6000613af1603183614136565b91507f4552433732313a207472616e736665722063616c6c6572206973206e6f74206f60008301527f776e6572206e6f7220617070726f7665640000000000000000000000000000006020830152604082019050919050565b6000613b57601783614136565b91507f5375626d6974207468652061736b696e672070726963650000000000000000006000830152602082019050919050565b600060e083016000830151613ba2600086018261334c565b5060208301518482036020860152613bba8282613485565b91505060408301518482036040860152613bd48282613485565b91505060608301518482036060860152613bee8282613485565b9150506080830151613c036080860182613c34565b5060a0830151613c1660a0860182613c34565b5060c0830151613c2960c0860182613c34565b508091505092915050565b613c3d81614277565b82525050565b613c4c81614277565b82525050565b6000613c5e82856134f7565b9150613c6a82846134f7565b91508190509392505050565b6000602082019050613c8b600083018461335b565b92915050565b6000608082019050613ca6600083018761335b565b613cb3602083018661335b565b613cc06040830185613c43565b8181036060830152613cd2818461344c565b905095945050505050565b60006020820190508181036000830152613cf7818461336a565b905092915050565b60006020820190508181036000830152613d1981846133df565b905092915050565b6000602082019050613d36600083018461343d565b92915050565b60006020820190508181036000830152613d5681846134be565b905092915050565b60006020820190508181036000830152613d7781613528565b9050919050565b60006020820190508181036000830152613d978161358e565b9050919050565b60006020820190508181036000830152613db7816135f4565b9050919050565b60006020820190508181036000830152613dd781613634565b9050919050565b60006020820190508181036000830152613df781613674565b9050919050565b60006020820190508181036000830152613e17816136da565b9050919050565b60006020820190508181036000830152613e378161371a565b9050919050565b60006020820190508181036000830152613e578161375a565b9050919050565b60006020820190508181036000830152613e778161379a565b9050919050565b60006020820190508181036000830152613e9781613800565b9050919050565b60006020820190508181036000830152613eb781613866565b9050919050565b60006020820190508181036000830152613ed7816138cc565b9050919050565b60006020820190508181036000830152613ef781613932565b9050919050565b60006020820190508181036000830152613f1781613972565b9050919050565b60006020820190508181036000830152613f37816139d8565b9050919050565b60006020820190508181036000830152613f5781613a3e565b9050919050565b60006020820190508181036000830152613f7781613aa4565b9050919050565b60006020820190508181036000830152613f9781613ae4565b9050919050565b60006020820190508181036000830152613fb781613b4a565b9050919050565b60006020820190508181036000830152613fd88184613b8a565b905092915050565b6000602082019050613ff56000830184613c43565b92915050565b6000604051905081810181811067ffffffffffffffff82111715614022576140216143fc565b5b8060405250919050565b600067ffffffffffffffff821115614047576140466143fc565b5b601f19601f8301169050602081019050919050565b600067ffffffffffffffff821115614077576140766143fc565b5b601f19601f8301169050602081019050919050565b6000819050602082019050919050565b6000819050602082019050919050565b600081519050919050565b600081519050919050565b600081519050919050565b600081519050919050565b6000602082019050919050565b6000602082019050919050565b600082825260208201905092915050565b600082825260208201905092915050565b600082825260208201905092915050565b600082825260208201905092915050565b600082825260208201905092915050565b600081905092915050565b600061415d82614277565b915061416883614277565b9250827fffffffffffffffffffffffffffffffffffffffffffffffffffffffffffffffff0382111561419d5761419c61436f565b5b828201905092915050565b60006141b382614277565b91506141be83614277565b9250826141ce576141cd61439e565b5b828204905092915050565b60006141e482614277565b91506141ef83614277565b9250828210156142025761420161436f565b5b828203905092915050565b600061421882614257565b9050919050565b60008115159050919050565b60007fffffffff0000000000000000000000000000000000000000000000000000000082169050919050565b600073ffffffffffffffffffffffffffffffffffffffff82169050919050565b6000819050919050565b82818337600083830152505050565b60005b838110156142ae578082015181840152602081019050614293565b838111156142bd576000848401525b50505050565b600060028204905060018216806142db57607f821691505b602082108114156142ef576142ee6143cd565b5b50919050565b600061430082614277565b91507fffffffffffffffffffffffffffffffffffffffffffffffffffffffffffffffff8214156143335761433261436f565b5b600182019050919050565b600061434982614277565b915061435483614277565b9250826143645761436361439e565b5b828206905092915050565b7f4e487b7100000000000000000000000000000000000000000000000000000000600052601160045260246000fd5b7f4e487b7100000000000000000000000000000000000000000000000000000000600052601260045260246000fd5b7f4e487b7100000000000000000000000000000000000000000000000000000000600052602260045260246000fd5b7f4e487b7100000000000000000000000000000000000000000000000000000000600052604160045260246000fd5b6000601f19601f8301169050919050565b6144458161420d565b811461445057600080fd5b50565b61445c8161421f565b811461446757600080fd5b50565b6144738161422b565b811461447e57600080fd5b50565b61448a81614277565b811461449557600080fd5b5056fea26469706673582212202fcd097b09895a3cb6bba95cb5618328a8ee9b6f9973beb974544cb81137db4764736f6c63430008000033",
  "linkReferences": {},
  "deployedLinkReferences": {}
}