{
  "_format": "hh-sol-artifact-1",
  "contractName": "BillionaireBattles",
  "sourceName": "contracts/BillionaireBattles.sol",
  "abi": [
    {
      "inputs": [
        {
          "internalType": "string[]",
          "name": "names",
          "type": "string[]"
        },
        {
          "internalType": "string[]",
          "name": "descriptions",
          "type": "string[]"
        },
        {
          "internalType": "string[]",
          "name": "images",
          "type": "string[]"
        },
        {
          "internalType": "uint256[]",
          "name": "healths",
          "type": "uint256[]"
        },
        {
          "internalType": "uint256[]",
          "name": "maxHealths",
          "type": "uint256[]"
        },
        {
          "internalType": "string[]",
          "name": "attack1Names",
          "type": "string[]"
        },
        {
          "internalType": "string[]",
          "name": "attack2Names",
          "type": "string[]"
        },
        {
          "internalType": "string[]",
          "name": "attack3Names",
          "type": "string[]"
        },
        {
          "internalType": "uint256[]",
          "name": "attack1Damages",
          "type": "uint256[]"
        },
        {
          "internalType": "uint256[]",
          "name": "attack2Damages",
          "type": "uint256[]"
        },
        {
          "internalType": "uint256[]",
          "name": "attack3Damages",
          "type": "uint256[]"
        }
      ],
      "stateMutability": "nonpayable",
      "type": "constructor"
    },
    {
      "anonymous": false,
      "inputs": [
        {
          "indexed": true,
          "internalType": "address",
          "name": "owner",
          "type": "address"
        },
        {
          "indexed": true,
          "internalType": "address",
          "name": "approved",
          "type": "address"
        },
        {
          "indexed": true,
          "internalType": "uint256",
          "name": "tokenId",
          "type": "uint256"
        }
      ],
      "name": "Approval",
      "type": "event"
    },
    {
      "anonymous": false,
      "inputs": [
        {
          "indexed": true,
          "internalType": "address",
          "name": "owner",
          "type": "address"
        },
        {
          "indexed": true,
          "internalType": "address",
          "name": "operator",
          "type": "address"
        },
        {
          "indexed": false,
          "internalType": "bool",
          "name": "approved",
          "type": "bool"
        }
      ],
      "name": "ApprovalForAll",
      "type": "event"
    },
    {
      "anonymous": false,
      "inputs": [
        {
          "indexed": true,
          "internalType": "address",
          "name": "from",
          "type": "address"
        },
        {
          "indexed": true,
          "internalType": "address",
          "name": "to",
          "type": "address"
        },
        {
          "indexed": true,
          "internalType": "uint256",
          "name": "tokenId",
          "type": "uint256"
        }
      ],
      "name": "Transfer",
      "type": "event"
    },
    {
      "inputs": [
        {
          "internalType": "address",
          "name": "to",
          "type": "address"
        },
        {
          "internalType": "uint256",
          "name": "tokenId",
          "type": "uint256"
        }
      ],
      "name": "approve",
      "outputs": [],
      "stateMutability": "nonpayable",
      "type": "function"
    },
    {
      "inputs": [
        {
          "internalType": "address",
          "name": "owner",
          "type": "address"
        }
      ],
      "name": "balanceOf",
      "outputs": [
        {
          "internalType": "uint256",
          "name": "",
          "type": "uint256"
        }
      ],
      "stateMutability": "view",
      "type": "function"
    },
    {
      "inputs": [
        {
          "internalType": "uint256",
          "name": "tokenId",
          "type": "uint256"
        },
        {
          "internalType": "uint256",
          "name": "price",
          "type": "uint256"
        }
      ],
      "name": "createMarketListing",
      "outputs": [],
      "stateMutability": "nonpayable",
      "type": "function"
    },
    {
      "inputs": [],
      "name": "getAllCharacters",
      "outputs": [
        {
          "internalType": "string",
          "name": "",
          "type": "string"
        }
      ],
      "stateMutability": "view",
      "type": "function"
    },
    {
      "inputs": [
        {
          "internalType": "uint256",
          "name": "tokenId",
          "type": "uint256"
        }
      ],
      "name": "getApproved",
      "outputs": [
        {
          "internalType": "address",
          "name": "",
          "type": "address"
        }
      ],
      "stateMutability": "view",
      "type": "function"
    },
    {
      "inputs": [],
      "name": "getCharacterCount",
      "outputs": [
        {
          "internalType": "uint256",
          "name": "",
          "type": "uint256"
        }
      ],
      "stateMutability": "view",
      "type": "function"
    },
    {
      "inputs": [
        {
          "internalType": "uint256",
          "name": "index",
          "type": "uint256"
        }
      ],
      "name": "getCharacterDisplayDataById",
      "outputs": [
        {
          "internalType": "string[]",
          "name": "",
          "type": "string[]"
        }
      ],
      "stateMutability": "view",
      "type": "function"
    },
    {
      "inputs": [
        {
          "internalType": "uint256",
          "name": "index",
          "type": "uint256"
        }
      ],
      "name": "getCharacterHealthAndMaxHealthById",
      "outputs": [
        {
          "internalType": "uint256[]",
          "name": "",
          "type": "uint256[]"
        }
      ],
      "stateMutability": "view",
      "type": "function"
    },
    {
      "inputs": [
        {
          "internalType": "address",
          "name": "current",
          "type": "address"
        }
      ],
      "name": "getCharactersFromAddress",
      "outputs": [
        {
          "internalType": "uint256[]",
          "name": "",
          "type": "uint256[]"
        }
      ],
      "stateMutability": "view",
      "type": "function"
    },
    {
      "inputs": [],
      "name": "getListingFee",
      "outputs": [
        {
          "internalType": "uint256",
          "name": "",
          "type": "uint256"
        }
      ],
      "stateMutability": "view",
      "type": "function"
    },
    {
      "inputs": [],
      "name": "getMarketItems",
      "outputs": [
        {
          "internalType": "uint256[]",
          "name": "",
          "type": "uint256[]"
        }
      ],
      "stateMutability": "view",
      "type": "function"
    },
    {
      "inputs": [
        {
          "internalType": "uint256",
          "name": "id",
          "type": "uint256"
        }
      ],
      "name": "getOwnerOfCharcterByID",
      "outputs": [
        {
          "internalType": "address",
          "name": "",
          "type": "address"
        }
      ],
      "stateMutability": "view",
      "type": "function"
    },
    {
      "inputs": [],
      "name": "getReviveCost",
      "outputs": [
        {
          "internalType": "uint256",
          "name": "",
          "type": "uint256"
        }
      ],
      "stateMutability": "view",
      "type": "function"
    },
    {
      "inputs": [
        {
          "internalType": "address",
          "name": "owner",
          "type": "address"
        },
        {
          "internalType": "address",
          "name": "operator",
          "type": "address"
        }
      ],
      "name": "isApprovedForAll",
      "outputs": [
        {
          "internalType": "bool",
          "name": "",
          "type": "bool"
        }
      ],
      "stateMutability": "view",
      "type": "function"
    },
    {
      "inputs": [
        {
          "internalType": "uint256",
          "name": "id",
          "type": "uint256"
        }
      ],
      "name": "mintItemById",
      "outputs": [],
      "stateMutability": "nonpayable",
      "type": "function"
    },
    {
      "inputs": [],
      "name": "name",
      "outputs": [
        {
          "internalType": "string",
          "name": "",
          "type": "string"
        }
      ],
      "stateMutability": "view",
      "type": "function"
    },
    {
      "inputs": [
        {
          "internalType": "uint256",
          "name": "tokenId",
          "type": "uint256"
        }
      ],
      "name": "ownerOf",
      "outputs": [
        {
          "internalType": "address",
          "name": "",
          "type": "address"
        }
      ],
      "stateMutability": "view",
      "type": "function"
    },
    {
      "inputs": [
        {
          "internalType": "address",
          "name": "from",
          "type": "address"
        },
        {
          "internalType": "address",
          "name": "to",
          "type": "address"
        },
        {
          "internalType": "uint256",
          "name": "tokenId",
          "type": "uint256"
        }
      ],
      "name": "safeTransferFrom",
      "outputs": [],
      "stateMutability": "nonpayable",
      "type": "function"
    },
    {
      "inputs": [
        {
          "internalType": "address",
          "name": "from",
          "type": "address"
        },
        {
          "internalType": "address",
          "name": "to",
          "type": "address"
        },
        {
          "internalType": "uint256",
          "name": "tokenId",
          "type": "uint256"
        },
        {
          "internalType": "bytes",
          "name": "_data",
          "type": "bytes"
        }
      ],
      "name": "safeTransferFrom",
      "outputs": [],
      "stateMutability": "nonpayable",
      "type": "function"
    },
    {
      "inputs": [
        {
          "internalType": "address",
          "name": "operator",
          "type": "address"
        },
        {
          "internalType": "bool",
          "name": "approved",
          "type": "bool"
        }
      ],
      "name": "setApprovalForAll",
      "outputs": [],
      "stateMutability": "nonpayable",
      "type": "function"
    },
    {
      "inputs": [
        {
          "internalType": "bytes4",
          "name": "interfaceId",
          "type": "bytes4"
        }
      ],
      "name": "supportsInterface",
      "outputs": [
        {
          "internalType": "bool",
          "name": "",
          "type": "bool"
        }
      ],
      "stateMutability": "view",
      "type": "function"
    },
    {
      "inputs": [],
      "name": "symbol",
      "outputs": [
        {
          "internalType": "string",
          "name": "",
          "type": "string"
        }
      ],
      "stateMutability": "view",
      "type": "function"
    },
    {
      "inputs": [
        {
          "internalType": "uint256",
          "name": "tokenId",
          "type": "uint256"
        }
      ],
      "name": "tokenURI",
      "outputs": [
        {
          "internalType": "string",
          "name": "",
          "type": "string"
        }
      ],
      "stateMutability": "view",
      "type": "function"
    },
    {
      "inputs": [
        {
          "internalType": "address",
          "name": "from",
          "type": "address"
        },
        {
          "internalType": "address",
          "name": "to",
          "type": "address"
        },
        {
          "internalType": "uint256",
          "name": "tokenId",
          "type": "uint256"
        }
      ],
      "name": "transferFrom",
      "outputs": [],
      "stateMutability": "nonpayable",
      "type": "function"
    }
  ],
  "bytecode": "0x608060405260006008553480156200001657600080fd5b50604051620046343803806200463483398181016040528101906200003c919062000966565b6040518060400160405280601381526020017f42696c6c696f6e6169726520426174746c6573000000000000000000000000008152506040518060400160405280600381526020017f42425400000000000000000000000000000000000000000000000000000000008152508160009080519060200190620000c0929190620006f9565b508060019080519060200190620000d9929190620006f9565b505050620001276040518060400160405280600281526020017f68690000000000000000000000000000000000000000000000000000000000008152506200062d60201b620016c81760201c565b6005600681905550600560078190555060005b60028110156200061b57600b604051806101a001604052803073ffffffffffffffffffffffffffffffffffffffff1681526020016000151581526020018e8481518110620001b1577f4e487b7100000000000000000000000000000000000000000000000000000000600052603260045260246000fd5b602002602001015181526020018d8481518110620001f8577f4e487b7100000000000000000000000000000000000000000000000000000000600052603260045260246000fd5b602002602001015181526020018c84815181106200023f577f4e487b7100000000000000000000000000000000000000000000000000000000600052603260045260246000fd5b602002602001015181526020018b848151811062000286577f4e487b7100000000000000000000000000000000000000000000000000000000600052603260045260246000fd5b602002602001015181526020018a8481518110620002cd577f4e487b7100000000000000000000000000000000000000000000000000000000600052603260045260246000fd5b6020026020010151815260200189848151811062000314577f4e487b7100000000000000000000000000000000000000000000000000000000600052603260045260246000fd5b602002602001015181526020018884815181106200035b577f4e487b7100000000000000000000000000000000000000000000000000000000600052603260045260246000fd5b60200260200101518152602001878481518110620003a2577f4e487b7100000000000000000000000000000000000000000000000000000000600052603260045260246000fd5b60200260200101518152602001868481518110620003e9577f4e487b7100000000000000000000000000000000000000000000000000000000600052603260045260246000fd5b6020026020010151815260200185848151811062000430577f4e487b7100000000000000000000000000000000000000000000000000000000600052603260045260246000fd5b6020026020010151815260200184848151811062000477577f4e487b7100000000000000000000000000000000000000000000000000000000600052603260045260246000fd5b602002602001015181525090806001815401808255809150506001900390600052602060002090600c020160009091909190915060008201518160000160006101000a81548173ffffffffffffffffffffffffffffffffffffffff021916908373ffffffffffffffffffffffffffffffffffffffff16021790555060208201518160000160146101000a81548160ff021916908315150217905550604082015181600101908051906020019062000530929190620006f9565b5060608201518160020190805190602001906200054f929190620006f9565b5060808201518160030190805190602001906200056e929190620006f9565b5060a0820151816004015560c0820151816005015560e0820151816006019080519060200190620005a1929190620006f9565b50610100820151816007019080519060200190620005c1929190620006f9565b50610120820151816008019080519060200190620005e1929190620006f9565b50610140820151816009015561016082015181600a015561018082015181600b015550508080620006129062000d3c565b9150506200013a565b50505050505050505050505062000e42565b620006cd8160405160240162000644919062000bc1565b6040516020818303038152906040527f41304fac000000000000000000000000000000000000000000000000000000007bffffffffffffffffffffffffffffffffffffffffffffffffffffffff19166020820180517bffffffffffffffffffffffffffffffffffffffffffffffffffffffff8381831617835250505050620006d060201b60201c565b50565b60008151905060006a636f6e736f6c652e6c6f679050602083016000808483855afa5050505050565b828054620007079062000d06565b90600052602060002090601f0160209004810192826200072b576000855562000777565b82601f106200074657805160ff191683800117855562000777565b8280016001018555821562000777579182015b828111156200077657825182559160200191906001019062000759565b5b5090506200078691906200078a565b5090565b5b80821115620007a55760008160009055506001016200078b565b5090565b6000620007c0620007ba8462000c19565b62000be5565b9050808382526020820190508260005b85811015620008045781518501620007e9888262000922565b845260208401935060208301925050600181019050620007d0565b5050509392505050565b6000620008256200081f8462000c48565b62000be5565b905080838252602082019050828560208602820111156200084557600080fd5b60005b858110156200087957816200085e88826200094f565b84526020840193506020830192505060018101905062000848565b5050509392505050565b60006200089a620008948462000c77565b62000be5565b905082815260208101848484011115620008b357600080fd5b620008c084828562000cd0565b509392505050565b600082601f830112620008da57600080fd5b8151620008ec848260208601620007a9565b91505092915050565b600082601f8301126200090757600080fd5b8151620009198482602086016200080e565b91505092915050565b600082601f8301126200093457600080fd5b81516200094684826020860162000883565b91505092915050565b600081519050620009608162000e28565b92915050565b60008060008060008060008060008060006101608c8e0312156200098957600080fd5b60008c015167ffffffffffffffff811115620009a457600080fd5b620009b28e828f01620008c8565b9b505060208c015167ffffffffffffffff811115620009d057600080fd5b620009de8e828f01620008c8565b9a505060408c015167ffffffffffffffff811115620009fc57600080fd5b62000a0a8e828f01620008c8565b99505060608c015167ffffffffffffffff81111562000a2857600080fd5b62000a368e828f01620008f5565b98505060808c015167ffffffffffffffff81111562000a5457600080fd5b62000a628e828f01620008f5565b97505060a08c015167ffffffffffffffff81111562000a8057600080fd5b62000a8e8e828f01620008c8565b96505060c08c015167ffffffffffffffff81111562000aac57600080fd5b62000aba8e828f01620008c8565b95505060e08c015167ffffffffffffffff81111562000ad857600080fd5b62000ae68e828f01620008c8565b9450506101008c015167ffffffffffffffff81111562000b0557600080fd5b62000b138e828f01620008f5565b9350506101208c015167ffffffffffffffff81111562000b3257600080fd5b62000b408e828f01620008f5565b9250506101408c015167ffffffffffffffff81111562000b5f57600080fd5b62000b6d8e828f01620008f5565b9150509295989b509295989b9093969950565b600062000b8d8262000caa565b62000b99818562000cb5565b935062000bab81856020860162000cd0565b62000bb68162000e17565b840191505092915050565b6000602082019050818103600083015262000bdd818462000b80565b905092915050565b6000604051905081810181811067ffffffffffffffff8211171562000c0f5762000c0e62000de8565b5b8060405250919050565b600067ffffffffffffffff82111562000c375762000c3662000de8565b5b602082029050602081019050919050565b600067ffffffffffffffff82111562000c665762000c6562000de8565b5b602082029050602081019050919050565b600067ffffffffffffffff82111562000c955762000c9462000de8565b5b601f19601f8301169050602081019050919050565b600081519050919050565b600082825260208201905092915050565b6000819050919050565b60005b8381101562000cf057808201518184015260208101905062000cd3565b8381111562000d00576000848401525b50505050565b6000600282049050600182168062000d1f57607f821691505b6020821081141562000d365762000d3562000db9565b5b50919050565b600062000d498262000cc6565b91507fffffffffffffffffffffffffffffffffffffffffffffffffffffffffffffffff82141562000d7f5762000d7e62000d8a565b5b600182019050919050565b7f4e487b7100000000000000000000000000000000000000000000000000000000600052601160045260246000fd5b7f4e487b7100000000000000000000000000000000000000000000000000000000600052602260045260246000fd5b7f4e487b7100000000000000000000000000000000000000000000000000000000600052604160045260246000fd5b6000601f19601f8301169050919050565b62000e338162000cc6565b811462000e3f57600080fd5b50565b6137e28062000e526000396000f3fe608060405234801561001057600080fd5b50600436106101585760003560e01c806365df8ce7116100c3578063a22cb4651161007c578063a22cb465146103ed578063b88d4fde14610409578063b8fe6abe14610425578063c87b56dd14610443578063e985e9c514610473578063fdb205eb146104a357610158565b806365df8ce71461030357806368baf0a01461032157806370a08231146103515780637577e86d1461038157806383e56dca146103b157806395d89b41146103cf57610158565b806323b872dd1161011557806323b872dd1461024357806329aa3a421461025f5780633d936d2d1461027d57806342842e0e1461029b5780636352211e146102b75780636456152a146102e757610158565b806301ffc9a71461015d57806306fdde031461018d578063081812fc146101ab578063095ea7b3146101db5780631a9a0428146101f75780631bafbaa614610227575b600080fd5b61017760048036038101906101729190612748565b6104d3565b60405161018491906130c7565b60405180910390f35b6101956105b5565b6040516101a291906130e2565b60405180910390f35b6101c560048036038101906101c0919061279a565b610647565b6040516101d2919061301c565b60405180910390f35b6101f560048036038101906101f0919061270c565b6106cc565b005b610211600480360381019061020c919061279a565b6107e4565b60405161021e919061301c565b60405180910390f35b610241600480360381019061023c919061279a565b610824565b005b61025d60048036038101906102589190612606565b610b13565b005b610267610b73565b60405161027491906130a5565b60405180910390f35b610285610c99565b6040516102929190613324565b60405180910390f35b6102b560048036038101906102b09190612606565b610ca3565b005b6102d160048036038101906102cc919061279a565b610cc3565b6040516102de919061301c565b60405180910390f35b61030160048036038101906102fc91906127c3565b610d75565b005b61030b610e0e565b6040516103189190613324565b60405180910390f35b61033b600480360381019061033691906125a1565b610e18565b60405161034891906130a5565b60405180910390f35b61036b600480360381019061036691906125a1565b610f7d565b6040516103789190613324565b60405180910390f35b61039b6004803603810190610396919061279a565b611035565b6040516103a89190613083565b60405180910390f35b6103b961128d565b6040516103c691906130e2565b60405180910390f35b6103d7611334565b6040516103e491906130e2565b60405180910390f35b610407600480360381019061040291906126d0565b6113c6565b005b610423600480360381019061041e9190612655565b6113dc565b005b61042d61143e565b60405161043a9190613324565b60405180910390f35b61045d6004803603810190610458919061279a565b611448565b60405161046a91906130e2565b60405180910390f35b61048d600480360381019061048891906125ca565b6114ef565b60405161049a91906130c7565b60405180910390f35b6104bd60048036038101906104b8919061279a565b611583565b6040516104ca91906130a5565b60405180910390f35b60007f80ac58cd000000000000000000000000000000000000000000000000000000007bffffffffffffffffffffffffffffffffffffffffffffffffffffffff1916827bffffffffffffffffffffffffffffffffffffffffffffffffffffffff1916148061059e57507f5b5e139f000000000000000000000000000000000000000000000000000000007bffffffffffffffffffffffffffffffffffffffffffffffffffffffff1916827bffffffffffffffffffffffffffffffffffffffffffffffffffffffff1916145b806105ae57506105ad82611761565b5b9050919050565b6060600080546105c4906135d7565b80601f01602080910402602001604051908101604052809291908181526020018280546105f0906135d7565b801561063d5780601f106106125761010080835404028352916020019161063d565b820191906000526020600020905b81548152906001019060200180831161062057829003601f168201915b5050505050905090565b6000610652826117cb565b610691576040517f08c379a000000000000000000000000000000000000000000000000000000000815260040161068890613284565b60405180910390fd5b6004600083815260200190815260200160002060009054906101000a900473ffffffffffffffffffffffffffffffffffffffff169050919050565b60006106d782610cc3565b90508073ffffffffffffffffffffffffffffffffffffffff168373ffffffffffffffffffffffffffffffffffffffff161415610748576040517f08c379a000000000000000000000000000000000000000000000000000000000815260040161073f906132c4565b60405180910390fd5b8073ffffffffffffffffffffffffffffffffffffffff16610767611837565b73ffffffffffffffffffffffffffffffffffffffff161480610796575061079581610790611837565b6114ef565b5b6107d5576040517f08c379a00000000000000000000000000000000000000000000000000000000081526004016107cc90613204565b60405180910390fd5b6107df838361183f565b505050565b60006009600083815260200190815260200160002060000160009054906101000a900473ffffffffffffffffffffffffffffffffffffffff169050919050565b6000811015610868576040517f08c379a000000000000000000000000000000000000000000000000000000000815260040161085f906132e4565b60405180910390fd5b600b8054905081106108af576040517f08c379a00000000000000000000000000000000000000000000000000000000081526004016108a6906131c4565b60405180910390fd5b600860008154809291906108c290613609565b9190505550600b8181548110610901577f4e487b7100000000000000000000000000000000000000000000000000000000600052603260045260246000fd5b90600052602060002090600c02016009600060085481526020019081526020016000206000820160009054906101000a900473ffffffffffffffffffffffffffffffffffffffff168160000160006101000a81548173ffffffffffffffffffffffffffffffffffffffff021916908373ffffffffffffffffffffffffffffffffffffffff1602179055506000820160149054906101000a900460ff168160000160146101000a81548160ff02191690831515021790555060018201816001019080546109cc906135d7565b6109d7929190612426565b5060028201816002019080546109ec906135d7565b6109f7929190612426565b506003820181600301908054610a0c906135d7565b610a17929190612426565b5060048201548160040155600582015481600501556006820181600601908054610a40906135d7565b610a4b929190612426565b506007820181600701908054610a60906135d7565b610a6b929190612426565b506008820181600801908054610a80906135d7565b610a8b929190612426565b5060098201548160090155600a82015481600a0155600b82015481600b01559050503360096000600854815260200190815260200160002060000160006101000a81548173ffffffffffffffffffffffffffffffffffffffff021916908373ffffffffffffffffffffffffffffffffffffffff160217905550610b10336008546118f8565b50565b610b24610b1e611837565b82611916565b610b63576040517f08c379a0000000000000000000000000000000000000000000000000000000008152600401610b5a90613304565b60405180910390fd5b610b6e8383836119f4565b505050565b606060008060085467ffffffffffffffff811115610bba577f4e487b7100000000000000000000000000000000000000000000000000000000600052604160045260246000fd5b604051908082528060200260200182016040528015610be85781602001602082028036833780820191505090505b50905060005b600854811015610c9057600115156009600083815260200190815260200160002060000160149054906101000a900460ff1615151415610c7d5780828481518110610c62577f4e487b7100000000000000000000000000000000000000000000000000000000600052603260045260246000fd5b6020026020010181815250508280610c7990613609565b9350505b8080610c8890613609565b915050610bee565b50809250505090565b6000600754905090565b610cbe838383604051806020016040528060008152506113dc565b505050565b6000806002600084815260200190815260200160002060009054906101000a900473ffffffffffffffffffffffffffffffffffffffff169050600073ffffffffffffffffffffffffffffffffffffffff168173ffffffffffffffffffffffffffffffffffffffff161415610d6c576040517f08c379a0000000000000000000000000000000000000000000000000000000008152600401610d6390613244565b60405180910390fd5b80915050919050565b60008111610db8576040517f08c379a0000000000000000000000000000000000000000000000000000000008152600401610daf90613164565b60405180910390fd5b80600a600084815260200190815260200160002081905550610ddb3330846119f4565b60016009600084815260200190815260200160002060000160146101000a81548160ff0219169083151502179055505050565b6000600854905090565b606060008060085467ffffffffffffffff811115610e5f577f4e487b7100000000000000000000000000000000000000000000000000000000600052604160045260246000fd5b604051908082528060200260200182016040528015610e8d5781602001602082028036833780820191505090505b5090506000600190505b6008548111610f72578473ffffffffffffffffffffffffffffffffffffffff166009600083815260200190815260200160002060000160009054906101000a900473ffffffffffffffffffffffffffffffffffffffff1673ffffffffffffffffffffffffffffffffffffffff161415610f5f5780828481518110610f44577f4e487b7100000000000000000000000000000000000000000000000000000000600052603260045260246000fd5b6020026020010181815250508280610f5b90613609565b9350505b8080610f6a90613609565b915050610e97565b508092505050919050565b60008073ffffffffffffffffffffffffffffffffffffffff168273ffffffffffffffffffffffffffffffffffffffff161415610fee576040517f08c379a0000000000000000000000000000000000000000000000000000000008152600401610fe590613224565b60405180910390fd5b600360008373ffffffffffffffffffffffffffffffffffffffff1673ffffffffffffffffffffffffffffffffffffffff168152602001908152602001600020549050919050565b60606000600467ffffffffffffffff81111561107a577f4e487b7100000000000000000000000000000000000000000000000000000000600052604160045260246000fd5b6040519080825280602002602001820160405280156110ad57816020015b60608152602001906001900390816110985790505b50905060006009600085815260200190815260200160002060030180546110d3906135d7565b80601f01602080910402602001604051908101604052809291908181526020018280546110ff906135d7565b801561114c5780601f106111215761010080835404028352916020019161114c565b820191906000526020600020905b81548152906001019060200180831161112f57829003601f168201915b505050505090506000600960008681526020019081526020016000206001018054611176906135d7565b80601f01602080910402602001604051908101604052809291908181526020018280546111a2906135d7565b80156111ef5780601f106111c4576101008083540402835291602001916111ef565b820191906000526020600020905b8154815290600101906020018083116111d257829003601f168201915b505050505090508183600081518110611231577f4e487b7100000000000000000000000000000000000000000000000000000000600052603260045260246000fd5b60200260200101819052508083600181518110611277577f4e487b7100000000000000000000000000000000000000000000000000000000600052603260045260246000fd5b6020026020010181905250829350505050919050565b6060600960006001815260200190815260200160002060010180546112b1906135d7565b80601f01602080910402602001604051908101604052809291908181526020018280546112dd906135d7565b801561132a5780601f106112ff5761010080835404028352916020019161132a565b820191906000526020600020905b81548152906001019060200180831161130d57829003601f168201915b5050505050905090565b606060018054611343906135d7565b80601f016020809104026020016040519081016040528092919081815260200182805461136f906135d7565b80156113bc5780601f10611391576101008083540402835291602001916113bc565b820191906000526020600020905b81548152906001019060200180831161139f57829003601f168201915b5050505050905090565b6113d86113d1611837565b8383611c5b565b5050565b6113ed6113e7611837565b83611916565b61142c576040517f08c379a000000000000000000000000000000000000000000000000000000000815260040161142390613304565b60405180910390fd5b61143884848484611dc8565b50505050565b6000600654905090565b6060611453826117cb565b611492576040517f08c379a0000000000000000000000000000000000000000000000000000000008152600401611489906132a4565b60405180910390fd5b600061149c611e24565b905060008151116114bc57604051806020016040528060008152506114e7565b806114c684611e3b565b6040516020016114d7929190612ff8565b6040516020818303038152906040525b915050919050565b6000600560008473ffffffffffffffffffffffffffffffffffffffff1673ffffffffffffffffffffffffffffffffffffffff16815260200190815260200160002060008373ffffffffffffffffffffffffffffffffffffffff1673ffffffffffffffffffffffffffffffffffffffff16815260200190815260200160002060009054906101000a900460ff16905092915050565b60606000600267ffffffffffffffff8111156115c8577f4e487b7100000000000000000000000000000000000000000000000000000000600052604160045260246000fd5b6040519080825280602002602001820160405280156115f65781602001602082028036833780820191505090505b509050600060096000858152602001908152602001600020600401549050600060096000868152602001908152602001600020600501549050818360008151811061166a577f4e487b7100000000000000000000000000000000000000000000000000000000600052603260045260246000fd5b60200260200101818152505080836001815181106116b1577f4e487b7100000000000000000000000000000000000000000000000000000000600052603260045260246000fd5b602002602001018181525050829350505050919050565b61175e816040516024016116dc91906130e2565b6040516020818303038152906040527f41304fac000000000000000000000000000000000000000000000000000000007bffffffffffffffffffffffffffffffffffffffffffffffffffffffff19166020820180517bffffffffffffffffffffffffffffffffffffffffffffffffffffffff8381831617835250505050611fe8565b50565b60007f01ffc9a7000000000000000000000000000000000000000000000000000000007bffffffffffffffffffffffffffffffffffffffffffffffffffffffff1916827bffffffffffffffffffffffffffffffffffffffffffffffffffffffff1916149050919050565b60008073ffffffffffffffffffffffffffffffffffffffff166002600084815260200190815260200160002060009054906101000a900473ffffffffffffffffffffffffffffffffffffffff1673ffffffffffffffffffffffffffffffffffffffff1614159050919050565b600033905090565b816004600083815260200190815260200160002060006101000a81548173ffffffffffffffffffffffffffffffffffffffff021916908373ffffffffffffffffffffffffffffffffffffffff160217905550808273ffffffffffffffffffffffffffffffffffffffff166118b283610cc3565b73ffffffffffffffffffffffffffffffffffffffff167f8c5be1e5ebec7d5bd14f71427d1e84f3dd0314c0f7b2291e5b200ac8c7c3b92560405160405180910390a45050565b611912828260405180602001604052806000815250612011565b5050565b6000611921826117cb565b611960576040517f08c379a0000000000000000000000000000000000000000000000000000000008152600401611957906131e4565b60405180910390fd5b600061196b83610cc3565b90508073ffffffffffffffffffffffffffffffffffffffff168473ffffffffffffffffffffffffffffffffffffffff1614806119ad57506119ac81856114ef565b5b806119eb57508373ffffffffffffffffffffffffffffffffffffffff166119d384610647565b73ffffffffffffffffffffffffffffffffffffffff16145b91505092915050565b8273ffffffffffffffffffffffffffffffffffffffff16611a1482610cc3565b73ffffffffffffffffffffffffffffffffffffffff1614611a6a576040517f08c379a0000000000000000000000000000000000000000000000000000000008152600401611a6190613124565b60405180910390fd5b600073ffffffffffffffffffffffffffffffffffffffff168273ffffffffffffffffffffffffffffffffffffffff161415611ada576040517f08c379a0000000000000000000000000000000000000000000000000000000008152600401611ad190613184565b60405180910390fd5b611ae583838361206c565b611af060008261183f565b6001600360008573ffffffffffffffffffffffffffffffffffffffff1673ffffffffffffffffffffffffffffffffffffffff1681526020019081526020016000206000828254611b4091906134ed565b925050819055506001600360008473ffffffffffffffffffffffffffffffffffffffff1673ffffffffffffffffffffffffffffffffffffffff1681526020019081526020016000206000828254611b979190613466565b92505081905550816002600083815260200190815260200160002060006101000a81548173ffffffffffffffffffffffffffffffffffffffff021916908373ffffffffffffffffffffffffffffffffffffffff160217905550808273ffffffffffffffffffffffffffffffffffffffff168473ffffffffffffffffffffffffffffffffffffffff167fddf252ad1be2c89b69c2b068fc378daa952ba7f163c4a11628f55a4df523b3ef60405160405180910390a4611c56838383612071565b505050565b8173ffffffffffffffffffffffffffffffffffffffff168373ffffffffffffffffffffffffffffffffffffffff161415611cca576040517f08c379a0000000000000000000000000000000000000000000000000000000008152600401611cc1906131a4565b60405180910390fd5b80600560008573ffffffffffffffffffffffffffffffffffffffff1673ffffffffffffffffffffffffffffffffffffffff16815260200190815260200160002060008473ffffffffffffffffffffffffffffffffffffffff1673ffffffffffffffffffffffffffffffffffffffff16815260200190815260200160002060006101000a81548160ff0219169083151502179055508173ffffffffffffffffffffffffffffffffffffffff168373ffffffffffffffffffffffffffffffffffffffff167f17307eab39ab6107e8899845ad3d59bd9653f200f220920489ca2b5937696c3183604051611dbb91906130c7565b60405180910390a3505050565b611dd38484846119f4565b611ddf84848484612076565b611e1e576040517f08c379a0000000000000000000000000000000000000000000000000000000008152600401611e1590613104565b60405180910390fd5b50505050565b606060405180602001604052806000815250905090565b60606000821415611e83576040518060400160405280600181526020017f30000000000000000000000000000000000000000000000000000000000000008152509050611fe3565b600082905060005b60008214611eb5578080611e9e90613609565b915050600a82611eae91906134bc565b9150611e8b565b60008167ffffffffffffffff811115611ef7577f4e487b7100000000000000000000000000000000000000000000000000000000600052604160045260246000fd5b6040519080825280601f01601f191660200182016040528015611f295781602001600182028036833780820191505090505b5090505b60008514611fdc57600182611f4291906134ed565b9150600a85611f519190613652565b6030611f5d9190613466565b60f81b818381518110611f99577f4e487b7100000000000000000000000000000000000000000000000000000000600052603260045260246000fd5b60200101907effffffffffffffffffffffffffffffffffffffffffffffffffffffffffffff1916908160001a905350600a85611fd591906134bc565b9450611f2d565b8093505050505b919050565b60008151905060006a636f6e736f6c652e6c6f679050602083016000808483855afa5050505050565b61201b838361220d565b6120286000848484612076565b612067576040517f08c379a000000000000000000000000000000000000000000000000000000000815260040161205e90613104565b60405180910390fd5b505050565b505050565b505050565b60006120978473ffffffffffffffffffffffffffffffffffffffff166123e7565b15612200578373ffffffffffffffffffffffffffffffffffffffff1663150b7a026120c0611837565b8786866040518563ffffffff1660e01b81526004016120e29493929190613037565b602060405180830381600087803b1580156120fc57600080fd5b505af192505050801561212d57506040513d601f19601f8201168201806040525081019061212a9190612771565b60015b6121b0573d806000811461215d576040519150601f19603f3d011682016040523d82523d6000602084013e612162565b606091505b506000815114156121a8576040517f08c379a000000000000000000000000000000000000000000000000000000000815260040161219f90613104565b60405180910390fd5b805181602001fd5b63150b7a0260e01b7bffffffffffffffffffffffffffffffffffffffffffffffffffffffff1916817bffffffffffffffffffffffffffffffffffffffffffffffffffffffff191614915050612205565b600190505b949350505050565b600073ffffffffffffffffffffffffffffffffffffffff168273ffffffffffffffffffffffffffffffffffffffff16141561227d576040517f08c379a000000000000000000000000000000000000000000000000000000000815260040161227490613264565b60405180910390fd5b612286816117cb565b156122c6576040517f08c379a00000000000000000000000000000000000000000000000000000000081526004016122bd90613144565b60405180910390fd5b6122d26000838361206c565b6001600360008473ffffffffffffffffffffffffffffffffffffffff1673ffffffffffffffffffffffffffffffffffffffff16815260200190815260200160002060008282546123229190613466565b92505081905550816002600083815260200190815260200160002060006101000a81548173ffffffffffffffffffffffffffffffffffffffff021916908373ffffffffffffffffffffffffffffffffffffffff160217905550808273ffffffffffffffffffffffffffffffffffffffff16600073ffffffffffffffffffffffffffffffffffffffff167fddf252ad1be2c89b69c2b068fc378daa952ba7f163c4a11628f55a4df523b3ef60405160405180910390a46123e360008383612071565b5050565b6000808273ffffffffffffffffffffffffffffffffffffffff16803b806020016040519081016040528181526000908060200190933c51119050919050565b828054612432906135d7565b90600052602060002090601f01602090048101928261245457600085556124a2565b82601f1061246557805485556124a2565b828001600101855582156124a257600052602060002091601f016020900482015b828111156124a1578254825591600101919060010190612486565b5b5090506124af91906124b3565b5090565b5b808211156124cc5760008160009055506001016124b4565b5090565b60006124e36124de84613370565b61333f565b9050828152602081018484840111156124fb57600080fd5b612506848285613595565b509392505050565b60008135905061251d81613750565b92915050565b60008135905061253281613767565b92915050565b6000813590506125478161377e565b92915050565b60008151905061255c8161377e565b92915050565b600082601f83011261257357600080fd5b81356125838482602086016124d0565b91505092915050565b60008135905061259b81613795565b92915050565b6000602082840312156125b357600080fd5b60006125c18482850161250e565b91505092915050565b600080604083850312156125dd57600080fd5b60006125eb8582860161250e565b92505060206125fc8582860161250e565b9150509250929050565b60008060006060848603121561261b57600080fd5b60006126298682870161250e565b935050602061263a8682870161250e565b925050604061264b8682870161258c565b9150509250925092565b6000806000806080858703121561266b57600080fd5b60006126798782880161250e565b945050602061268a8782880161250e565b935050604061269b8782880161258c565b925050606085013567ffffffffffffffff8111156126b857600080fd5b6126c487828801612562565b91505092959194509250565b600080604083850312156126e357600080fd5b60006126f18582860161250e565b925050602061270285828601612523565b9150509250929050565b6000806040838503121561271f57600080fd5b600061272d8582860161250e565b925050602061273e8582860161258c565b9150509250929050565b60006020828403121561275a57600080fd5b600061276884828501612538565b91505092915050565b60006020828403121561278357600080fd5b60006127918482850161254d565b91505092915050565b6000602082840312156127ac57600080fd5b60006127ba8482850161258c565b91505092915050565b600080604083850312156127d657600080fd5b60006127e48582860161258c565b92505060206127f58582860161258c565b9150509250929050565b600061280b8383612955565b905092915050565b600061281f8383612fda565b60208301905092915050565b61283481613521565b82525050565b6000612845826133c0565b61284f8185613406565b935083602082028501612861856133a0565b8060005b8581101561289d578484038952815161287e85826127ff565b9450612889836133ec565b925060208a01995050600181019050612865565b50829750879550505050505092915050565b60006128ba826133cb565b6128c48185613417565b93506128cf836133b0565b8060005b838110156129005781516128e78882612813565b97506128f2836133f9565b9250506001810190506128d3565b5085935050505092915050565b61291681613533565b82525050565b6000612927826133d6565b6129318185613428565b93506129418185602086016135a4565b61294a8161373f565b840191505092915050565b6000612960826133e1565b61296a8185613439565b935061297a8185602086016135a4565b6129838161373f565b840191505092915050565b6000612999826133e1565b6129a3818561344a565b93506129b38185602086016135a4565b6129bc8161373f565b840191505092915050565b60006129d2826133e1565b6129dc818561345b565b93506129ec8185602086016135a4565b80840191505092915050565b6000612a0560328361344a565b91507f4552433732313a207472616e7366657220746f206e6f6e20455243373231526560008301527f63656976657220696d706c656d656e74657200000000000000000000000000006020830152604082019050919050565b6000612a6b60258361344a565b91507f4552433732313a207472616e736665722066726f6d20696e636f72726563742060008301527f6f776e65720000000000000000000000000000000000000000000000000000006020830152604082019050919050565b6000612ad1601c8361344a565b91507f4552433732313a20746f6b656e20616c7265616479206d696e746564000000006000830152602082019050919050565b6000612b1160108361344a565b91507f50726963652063616e27742062652030000000000000000000000000000000006000830152602082019050919050565b6000612b5160248361344a565b91507f4552433732313a207472616e7366657220746f20746865207a65726f2061646460008301527f72657373000000000000000000000000000000000000000000000000000000006020830152604082019050919050565b6000612bb760198361344a565b91507f4552433732313a20617070726f766520746f2063616c6c6572000000000000006000830152602082019050919050565b6000612bf7600f8361344a565b91507f494420697320746f6f206c6172676500000000000000000000000000000000006000830152602082019050919050565b6000612c37602c8361344a565b91507f4552433732313a206f70657261746f7220717565727920666f72206e6f6e657860008301527f697374656e7420746f6b656e00000000000000000000000000000000000000006020830152604082019050919050565b6000612c9d60388361344a565b91507f4552433732313a20617070726f76652063616c6c6572206973206e6f74206f7760008301527f6e6572206e6f7220617070726f76656420666f7220616c6c00000000000000006020830152604082019050919050565b6000612d03602a8361344a565b91507f4552433732313a2062616c616e636520717565727920666f7220746865207a6560008301527f726f2061646472657373000000000000000000000000000000000000000000006020830152604082019050919050565b6000612d6960298361344a565b91507f4552433732313a206f776e657220717565727920666f72206e6f6e657869737460008301527f656e7420746f6b656e00000000000000000000000000000000000000000000006020830152604082019050919050565b6000612dcf60208361344a565b91507f4552433732313a206d696e7420746f20746865207a65726f20616464726573736000830152602082019050919050565b6000612e0f602c8361344a565b91507f4552433732313a20617070726f76656420717565727920666f72206e6f6e657860008301527f697374656e7420746f6b656e00000000000000000000000000000000000000006020830152604082019050919050565b6000612e75602f8361344a565b91507f4552433732314d657461646174613a2055524920717565727920666f72206e6f60008301527f6e6578697374656e7420746f6b656e00000000000000000000000000000000006020830152604082019050919050565b6000612edb60218361344a565b91507f4552433732313a20617070726f76616c20746f2063757272656e74206f776e6560008301527f72000000000000000000000000000000000000000000000000000000000000006020830152604082019050919050565b6000612f4160118361344a565b91507f4d757374207573652076616c69642049440000000000000000000000000000006000830152602082019050919050565b6000612f8160318361344a565b91507f4552433732313a207472616e736665722063616c6c6572206973206e6f74206f60008301527f776e6572206e6f7220617070726f7665640000000000000000000000000000006020830152604082019050919050565b612fe38161358b565b82525050565b612ff28161358b565b82525050565b600061300482856129c7565b915061301082846129c7565b91508190509392505050565b6000602082019050613031600083018461282b565b92915050565b600060808201905061304c600083018761282b565b613059602083018661282b565b6130666040830185612fe9565b8181036060830152613078818461291c565b905095945050505050565b6000602082019050818103600083015261309d818461283a565b905092915050565b600060208201905081810360008301526130bf81846128af565b905092915050565b60006020820190506130dc600083018461290d565b92915050565b600060208201905081810360008301526130fc818461298e565b905092915050565b6000602082019050818103600083015261311d816129f8565b9050919050565b6000602082019050818103600083015261313d81612a5e565b9050919050565b6000602082019050818103600083015261315d81612ac4565b9050919050565b6000602082019050818103600083015261317d81612b04565b9050919050565b6000602082019050818103600083015261319d81612b44565b9050919050565b600060208201905081810360008301526131bd81612baa565b9050919050565b600060208201905081810360008301526131dd81612bea565b9050919050565b600060208201905081810360008301526131fd81612c2a565b9050919050565b6000602082019050818103600083015261321d81612c90565b9050919050565b6000602082019050818103600083015261323d81612cf6565b9050919050565b6000602082019050818103600083015261325d81612d5c565b9050919050565b6000602082019050818103600083015261327d81612dc2565b9050919050565b6000602082019050818103600083015261329d81612e02565b9050919050565b600060208201905081810360008301526132bd81612e68565b9050919050565b600060208201905081810360008301526132dd81612ece565b9050919050565b600060208201905081810360008301526132fd81612f34565b9050919050565b6000602082019050818103600083015261331d81612f74565b9050919050565b60006020820190506133396000830184612fe9565b92915050565b6000604051905081810181811067ffffffffffffffff8211171561336657613365613710565b5b8060405250919050565b600067ffffffffffffffff82111561338b5761338a613710565b5b601f19601f8301169050602081019050919050565b6000819050602082019050919050565b6000819050602082019050919050565b600081519050919050565b600081519050919050565b600081519050919050565b600081519050919050565b6000602082019050919050565b6000602082019050919050565b600082825260208201905092915050565b600082825260208201905092915050565b600082825260208201905092915050565b600082825260208201905092915050565b600082825260208201905092915050565b600081905092915050565b60006134718261358b565b915061347c8361358b565b9250827fffffffffffffffffffffffffffffffffffffffffffffffffffffffffffffffff038211156134b1576134b0613683565b5b828201905092915050565b60006134c78261358b565b91506134d28361358b565b9250826134e2576134e16136b2565b5b828204905092915050565b60006134f88261358b565b91506135038361358b565b92508282101561351657613515613683565b5b828203905092915050565b600061352c8261356b565b9050919050565b60008115159050919050565b60007fffffffff0000000000000000000000000000000000000000000000000000000082169050919050565b600073ffffffffffffffffffffffffffffffffffffffff82169050919050565b6000819050919050565b82818337600083830152505050565b60005b838110156135c25780820151818401526020810190506135a7565b838111156135d1576000848401525b50505050565b600060028204905060018216806135ef57607f821691505b60208210811415613603576136026136e1565b5b50919050565b60006136148261358b565b91507fffffffffffffffffffffffffffffffffffffffffffffffffffffffffffffffff82141561364757613646613683565b5b600182019050919050565b600061365d8261358b565b91506136688361358b565b925082613678576136776136b2565b5b828206905092915050565b7f4e487b7100000000000000000000000000000000000000000000000000000000600052601160045260246000fd5b7f4e487b7100000000000000000000000000000000000000000000000000000000600052601260045260246000fd5b7f4e487b7100000000000000000000000000000000000000000000000000000000600052602260045260246000fd5b7f4e487b7100000000000000000000000000000000000000000000000000000000600052604160045260246000fd5b6000601f19601f8301169050919050565b61375981613521565b811461376457600080fd5b50565b61377081613533565b811461377b57600080fd5b50565b6137878161353f565b811461379257600080fd5b50565b61379e8161358b565b81146137a957600080fd5b5056fea26469706673582212201a93f04af323ba58d282e072e49c0d790abbc2ef198d66c8086c106a63ebeee364736f6c63430008000033",
  "linkReferences": {},
  "deployedLinkReferences": {}
}