{
  "_format": "hh-sol-artifact-1",
  "contractName": "BillionaireBattles",
  "sourceName": "contracts/BillionaireBattles.sol",
  "abi": [
    {
      "inputs": [
        {
          "internalType": "string[]",
          "name": "names",
          "type": "string[]"
        },
        {
          "internalType": "string[]",
          "name": "descriptions",
          "type": "string[]"
        },
        {
          "internalType": "string[]",
          "name": "images",
          "type": "string[]"
        },
        {
          "internalType": "uint256[]",
          "name": "healths",
          "type": "uint256[]"
        },
        {
          "internalType": "uint256[]",
          "name": "maxHealths",
          "type": "uint256[]"
        },
        {
          "internalType": "string[]",
          "name": "attack1Names",
          "type": "string[]"
        },
        {
          "internalType": "string[]",
          "name": "attack2Names",
          "type": "string[]"
        },
        {
          "internalType": "string[]",
          "name": "attack3Names",
          "type": "string[]"
        },
        {
          "internalType": "uint256[]",
          "name": "attack1Damages",
          "type": "uint256[]"
        },
        {
          "internalType": "uint256[]",
          "name": "attack2Damages",
          "type": "uint256[]"
        },
        {
          "internalType": "uint256[]",
          "name": "attack3Damages",
          "type": "uint256[]"
        }
      ],
      "stateMutability": "nonpayable",
      "type": "constructor"
    },
    {
      "anonymous": false,
      "inputs": [
        {
          "indexed": true,
          "internalType": "address",
          "name": "owner",
          "type": "address"
        },
        {
          "indexed": true,
          "internalType": "address",
          "name": "approved",
          "type": "address"
        },
        {
          "indexed": true,
          "internalType": "uint256",
          "name": "tokenId",
          "type": "uint256"
        }
      ],
      "name": "Approval",
      "type": "event"
    },
    {
      "anonymous": false,
      "inputs": [
        {
          "indexed": true,
          "internalType": "address",
          "name": "owner",
          "type": "address"
        },
        {
          "indexed": true,
          "internalType": "address",
          "name": "operator",
          "type": "address"
        },
        {
          "indexed": false,
          "internalType": "bool",
          "name": "approved",
          "type": "bool"
        }
      ],
      "name": "ApprovalForAll",
      "type": "event"
    },
    {
      "anonymous": false,
      "inputs": [
        {
          "indexed": true,
          "internalType": "address",
          "name": "from",
          "type": "address"
        },
        {
          "indexed": true,
          "internalType": "address",
          "name": "to",
          "type": "address"
        },
        {
          "indexed": true,
          "internalType": "uint256",
          "name": "tokenId",
          "type": "uint256"
        }
      ],
      "name": "Transfer",
      "type": "event"
    },
    {
      "inputs": [
        {
          "internalType": "address",
          "name": "to",
          "type": "address"
        },
        {
          "internalType": "uint256",
          "name": "tokenId",
          "type": "uint256"
        }
      ],
      "name": "approve",
      "outputs": [],
      "stateMutability": "nonpayable",
      "type": "function"
    },
    {
      "inputs": [
        {
          "internalType": "address",
          "name": "owner",
          "type": "address"
        }
      ],
      "name": "balanceOf",
      "outputs": [
        {
          "internalType": "uint256",
          "name": "",
          "type": "uint256"
        }
      ],
      "stateMutability": "view",
      "type": "function"
    },
    {
      "inputs": [
        {
          "internalType": "uint256",
          "name": "tokenId",
          "type": "uint256"
        },
        {
          "internalType": "uint256",
          "name": "price",
          "type": "uint256"
        }
      ],
      "name": "createMarketListing",
      "outputs": [],
      "stateMutability": "nonpayable",
      "type": "function"
    },
    {
      "inputs": [
        {
          "internalType": "uint256",
          "name": "tokenId",
          "type": "uint256"
        }
      ],
      "name": "createMarketSale",
      "outputs": [],
      "stateMutability": "payable",
      "type": "function"
    },
    {
      "inputs": [],
      "name": "getAllCharacters",
      "outputs": [
        {
          "internalType": "string",
          "name": "",
          "type": "string"
        }
      ],
      "stateMutability": "view",
      "type": "function"
    },
    {
      "inputs": [
        {
          "internalType": "uint256",
          "name": "tokenId",
          "type": "uint256"
        }
      ],
      "name": "getApproved",
      "outputs": [
        {
          "internalType": "address",
          "name": "",
          "type": "address"
        }
      ],
      "stateMutability": "view",
      "type": "function"
    },
    {
      "inputs": [],
      "name": "getCharacterCount",
      "outputs": [
        {
          "internalType": "uint256",
          "name": "",
          "type": "uint256"
        }
      ],
      "stateMutability": "view",
      "type": "function"
    },
    {
      "inputs": [
        {
          "internalType": "uint256",
          "name": "index",
          "type": "uint256"
        }
      ],
      "name": "getCharacterDisplayDataById",
      "outputs": [
        {
          "internalType": "string[]",
          "name": "",
          "type": "string[]"
        }
      ],
      "stateMutability": "view",
      "type": "function"
    },
    {
      "inputs": [
        {
          "internalType": "uint256",
          "name": "index",
          "type": "uint256"
        }
      ],
      "name": "getCharacterHealthAndMaxHealthById",
      "outputs": [
        {
          "internalType": "uint256[]",
          "name": "",
          "type": "uint256[]"
        }
      ],
      "stateMutability": "view",
      "type": "function"
    },
    {
      "inputs": [
        {
          "internalType": "address",
          "name": "current",
          "type": "address"
        }
      ],
      "name": "getCharactersFromAddress",
      "outputs": [
        {
          "internalType": "uint256[]",
          "name": "",
          "type": "uint256[]"
        }
      ],
      "stateMutability": "view",
      "type": "function"
    },
    {
      "inputs": [],
      "name": "getListingFee",
      "outputs": [
        {
          "internalType": "uint256",
          "name": "",
          "type": "uint256"
        }
      ],
      "stateMutability": "view",
      "type": "function"
    },
    {
      "inputs": [],
      "name": "getMarketItems",
      "outputs": [
        {
          "internalType": "uint256[]",
          "name": "",
          "type": "uint256[]"
        }
      ],
      "stateMutability": "view",
      "type": "function"
    },
    {
      "inputs": [
        {
          "internalType": "uint256",
          "name": "id",
          "type": "uint256"
        }
      ],
      "name": "getOwnerOfCharcterByID",
      "outputs": [
        {
          "internalType": "address",
          "name": "",
          "type": "address"
        }
      ],
      "stateMutability": "view",
      "type": "function"
    },
    {
      "inputs": [
        {
          "internalType": "uint256",
          "name": "id",
          "type": "uint256"
        }
      ],
      "name": "getPriceById",
      "outputs": [
        {
          "internalType": "uint256",
          "name": "",
          "type": "uint256"
        }
      ],
      "stateMutability": "view",
      "type": "function"
    },
    {
      "inputs": [],
      "name": "getReviveCost",
      "outputs": [
        {
          "internalType": "uint256",
          "name": "",
          "type": "uint256"
        }
      ],
      "stateMutability": "view",
      "type": "function"
    },
    {
      "inputs": [
        {
          "internalType": "address",
          "name": "owner",
          "type": "address"
        },
        {
          "internalType": "address",
          "name": "operator",
          "type": "address"
        }
      ],
      "name": "isApprovedForAll",
      "outputs": [
        {
          "internalType": "bool",
          "name": "",
          "type": "bool"
        }
      ],
      "stateMutability": "view",
      "type": "function"
    },
    {
      "inputs": [
        {
          "internalType": "uint256",
          "name": "id",
          "type": "uint256"
        }
      ],
      "name": "mintItemById",
      "outputs": [],
      "stateMutability": "nonpayable",
      "type": "function"
    },
    {
      "inputs": [
        {
          "internalType": "string",
          "name": "_name",
          "type": "string"
        },
        {
          "internalType": "string",
          "name": "_description",
          "type": "string"
        },
        {
          "internalType": "uint256",
          "name": "_attack",
          "type": "uint256"
        },
        {
          "internalType": "string",
          "name": "_image",
          "type": "string"
        },
        {
          "internalType": "uint256",
          "name": "_health",
          "type": "uint256"
        }
      ],
      "name": "mintNewBoss",
      "outputs": [],
      "stateMutability": "nonpayable",
      "type": "function"
    },
    {
      "inputs": [],
      "name": "name",
      "outputs": [
        {
          "internalType": "string",
          "name": "",
          "type": "string"
        }
      ],
      "stateMutability": "view",
      "type": "function"
    },
    {
      "inputs": [
        {
          "internalType": "uint256",
          "name": "tokenId",
          "type": "uint256"
        }
      ],
      "name": "ownerOf",
      "outputs": [
        {
          "internalType": "address",
          "name": "",
          "type": "address"
        }
      ],
      "stateMutability": "view",
      "type": "function"
    },
    {
      "inputs": [
        {
          "internalType": "address",
          "name": "from",
          "type": "address"
        },
        {
          "internalType": "address",
          "name": "to",
          "type": "address"
        },
        {
          "internalType": "uint256",
          "name": "tokenId",
          "type": "uint256"
        }
      ],
      "name": "safeTransferFrom",
      "outputs": [],
      "stateMutability": "nonpayable",
      "type": "function"
    },
    {
      "inputs": [
        {
          "internalType": "address",
          "name": "from",
          "type": "address"
        },
        {
          "internalType": "address",
          "name": "to",
          "type": "address"
        },
        {
          "internalType": "uint256",
          "name": "tokenId",
          "type": "uint256"
        },
        {
          "internalType": "bytes",
          "name": "_data",
          "type": "bytes"
        }
      ],
      "name": "safeTransferFrom",
      "outputs": [],
      "stateMutability": "nonpayable",
      "type": "function"
    },
    {
      "inputs": [
        {
          "internalType": "address",
          "name": "operator",
          "type": "address"
        },
        {
          "internalType": "bool",
          "name": "approved",
          "type": "bool"
        }
      ],
      "name": "setApprovalForAll",
      "outputs": [],
      "stateMutability": "nonpayable",
      "type": "function"
    },
    {
      "inputs": [
        {
          "internalType": "bytes4",
          "name": "interfaceId",
          "type": "bytes4"
        }
      ],
      "name": "supportsInterface",
      "outputs": [
        {
          "internalType": "bool",
          "name": "",
          "type": "bool"
        }
      ],
      "stateMutability": "view",
      "type": "function"
    },
    {
      "inputs": [],
      "name": "symbol",
      "outputs": [
        {
          "internalType": "string",
          "name": "",
          "type": "string"
        }
      ],
      "stateMutability": "view",
      "type": "function"
    },
    {
      "inputs": [
        {
          "internalType": "uint256",
          "name": "tokenId",
          "type": "uint256"
        }
      ],
      "name": "tokenURI",
      "outputs": [
        {
          "internalType": "string",
          "name": "",
          "type": "string"
        }
      ],
      "stateMutability": "view",
      "type": "function"
    },
    {
      "inputs": [
        {
          "internalType": "address",
          "name": "from",
          "type": "address"
        },
        {
          "internalType": "address",
          "name": "to",
          "type": "address"
        },
        {
          "internalType": "uint256",
          "name": "tokenId",
          "type": "uint256"
        }
      ],
      "name": "transferFrom",
      "outputs": [],
      "stateMutability": "nonpayable",
      "type": "function"
    }
  ],
  "bytecode": "0x608060405260006008553480156200001657600080fd5b5060405162004da538038062004da583398181016040528101906200003c919062000966565b6040518060400160405280601381526020017f42696c6c696f6e6169726520426174746c6573000000000000000000000000008152506040518060400160405280600381526020017f42425400000000000000000000000000000000000000000000000000000000008152508160009080519060200190620000c0929190620006f9565b508060019080519060200190620000d9929190620006f9565b505050620001276040518060400160405280600281526020017f68690000000000000000000000000000000000000000000000000000000000008152506200062d60201b62001b9c1760201c565b6005600681905550600560078190555060005b60028110156200061b57600c604051806101a001604052803073ffffffffffffffffffffffffffffffffffffffff1681526020016000151581526020018e8481518110620001b1577f4e487b7100000000000000000000000000000000000000000000000000000000600052603260045260246000fd5b602002602001015181526020018d8481518110620001f8577f4e487b7100000000000000000000000000000000000000000000000000000000600052603260045260246000fd5b602002602001015181526020018c84815181106200023f577f4e487b7100000000000000000000000000000000000000000000000000000000600052603260045260246000fd5b602002602001015181526020018b848151811062000286577f4e487b7100000000000000000000000000000000000000000000000000000000600052603260045260246000fd5b602002602001015181526020018a8481518110620002cd577f4e487b7100000000000000000000000000000000000000000000000000000000600052603260045260246000fd5b6020026020010151815260200189848151811062000314577f4e487b7100000000000000000000000000000000000000000000000000000000600052603260045260246000fd5b602002602001015181526020018884815181106200035b577f4e487b7100000000000000000000000000000000000000000000000000000000600052603260045260246000fd5b60200260200101518152602001878481518110620003a2577f4e487b7100000000000000000000000000000000000000000000000000000000600052603260045260246000fd5b60200260200101518152602001868481518110620003e9577f4e487b7100000000000000000000000000000000000000000000000000000000600052603260045260246000fd5b6020026020010151815260200185848151811062000430577f4e487b7100000000000000000000000000000000000000000000000000000000600052603260045260246000fd5b6020026020010151815260200184848151811062000477577f4e487b7100000000000000000000000000000000000000000000000000000000600052603260045260246000fd5b602002602001015181525090806001815401808255809150506001900390600052602060002090600c020160009091909190915060008201518160000160006101000a81548173ffffffffffffffffffffffffffffffffffffffff021916908373ffffffffffffffffffffffffffffffffffffffff16021790555060208201518160000160146101000a81548160ff021916908315150217905550604082015181600101908051906020019062000530929190620006f9565b5060608201518160020190805190602001906200054f929190620006f9565b5060808201518160030190805190602001906200056e929190620006f9565b5060a0820151816004015560c0820151816005015560e0820151816006019080519060200190620005a1929190620006f9565b50610100820151816007019080519060200190620005c1929190620006f9565b50610120820151816008019080519060200190620005e1929190620006f9565b50610140820151816009015561016082015181600a015561018082015181600b015550508080620006129062000d3c565b9150506200013a565b50505050505050505050505062000e42565b620006cd8160405160240162000644919062000bc1565b6040516020818303038152906040527f41304fac000000000000000000000000000000000000000000000000000000007bffffffffffffffffffffffffffffffffffffffffffffffffffffffff19166020820180517bffffffffffffffffffffffffffffffffffffffffffffffffffffffff8381831617835250505050620006d060201b60201c565b50565b60008151905060006a636f6e736f6c652e6c6f679050602083016000808483855afa5050505050565b828054620007079062000d06565b90600052602060002090601f0160209004810192826200072b576000855562000777565b82601f106200074657805160ff191683800117855562000777565b8280016001018555821562000777579182015b828111156200077657825182559160200191906001019062000759565b5b5090506200078691906200078a565b5090565b5b80821115620007a55760008160009055506001016200078b565b5090565b6000620007c0620007ba8462000c19565b62000be5565b9050808382526020820190508260005b85811015620008045781518501620007e9888262000922565b845260208401935060208301925050600181019050620007d0565b5050509392505050565b6000620008256200081f8462000c48565b62000be5565b905080838252602082019050828560208602820111156200084557600080fd5b60005b858110156200087957816200085e88826200094f565b84526020840193506020830192505060018101905062000848565b5050509392505050565b60006200089a620008948462000c77565b62000be5565b905082815260208101848484011115620008b357600080fd5b620008c084828562000cd0565b509392505050565b600082601f830112620008da57600080fd5b8151620008ec848260208601620007a9565b91505092915050565b600082601f8301126200090757600080fd5b8151620009198482602086016200080e565b91505092915050565b600082601f8301126200093457600080fd5b81516200094684826020860162000883565b91505092915050565b600081519050620009608162000e28565b92915050565b60008060008060008060008060008060006101608c8e0312156200098957600080fd5b60008c015167ffffffffffffffff811115620009a457600080fd5b620009b28e828f01620008c8565b9b505060208c015167ffffffffffffffff811115620009d057600080fd5b620009de8e828f01620008c8565b9a505060408c015167ffffffffffffffff811115620009fc57600080fd5b62000a0a8e828f01620008c8565b99505060608c015167ffffffffffffffff81111562000a2857600080fd5b62000a368e828f01620008f5565b98505060808c015167ffffffffffffffff81111562000a5457600080fd5b62000a628e828f01620008f5565b97505060a08c015167ffffffffffffffff81111562000a8057600080fd5b62000a8e8e828f01620008c8565b96505060c08c015167ffffffffffffffff81111562000aac57600080fd5b62000aba8e828f01620008c8565b95505060e08c015167ffffffffffffffff81111562000ad857600080fd5b62000ae68e828f01620008c8565b9450506101008c015167ffffffffffffffff81111562000b0557600080fd5b62000b138e828f01620008f5565b9350506101208c015167ffffffffffffffff81111562000b3257600080fd5b62000b408e828f01620008f5565b9250506101408c015167ffffffffffffffff81111562000b5f57600080fd5b62000b6d8e828f01620008f5565b9150509295989b509295989b9093969950565b600062000b8d8262000caa565b62000b99818562000cb5565b935062000bab81856020860162000cd0565b62000bb68162000e17565b840191505092915050565b6000602082019050818103600083015262000bdd818462000b80565b905092915050565b6000604051905081810181811067ffffffffffffffff8211171562000c0f5762000c0e62000de8565b5b8060405250919050565b600067ffffffffffffffff82111562000c375762000c3662000de8565b5b602082029050602081019050919050565b600067ffffffffffffffff82111562000c665762000c6562000de8565b5b602082029050602081019050919050565b600067ffffffffffffffff82111562000c955762000c9462000de8565b5b601f19601f8301169050602081019050919050565b600081519050919050565b600082825260208201905092915050565b6000819050919050565b60005b8381101562000cf057808201518184015260208101905062000cd3565b8381111562000d00576000848401525b50505050565b6000600282049050600182168062000d1f57607f821691505b6020821081141562000d365762000d3562000db9565b5b50919050565b600062000d498262000cc6565b91507fffffffffffffffffffffffffffffffffffffffffffffffffffffffffffffffff82141562000d7f5762000d7e62000d8a565b5b600182019050919050565b7f4e487b7100000000000000000000000000000000000000000000000000000000600052601160045260246000fd5b7f4e487b7100000000000000000000000000000000000000000000000000000000600052602260045260246000fd5b7f4e487b7100000000000000000000000000000000000000000000000000000000600052604160045260246000fd5b6000601f19601f8301169050919050565b62000e338162000cc6565b811462000e3f57600080fd5b50565b613f538062000e526000396000f3fe60806040526004361061019c5760003560e01c806365df8ce7116100ec578063b88d4fde1161008a578063be9af53611610064578063be9af536146105fe578063c87b56dd1461061a578063e985e9c514610657578063fdb205eb146106945761019c565b8063b88d4fde1461056d578063b8fe6abe14610596578063b9256b1b146105c15761019c565b80637577e86d116100c65780637577e86d146104b157806383e56dca146104ee57806395d89b4114610519578063a22cb465146105445761019c565b806365df8ce71461040c57806368baf0a01461043757806370a08231146104745761019c565b80631bf5de90116101595780633d936d2d116101335780633d936d2d1461035257806342842e0e1461037d5780636352211e146103a65780636456152a146103e35761019c565b80631bf5de90146102d557806323b872dd146102fe57806329aa3a42146103275761019c565b806301ffc9a7146101a157806306fdde03146101de578063081812fc14610209578063095ea7b3146102465780631a9a04281461026f5780631bafbaa6146102ac575b600080fd5b3480156101ad57600080fd5b506101c860048036038101906101c39190612d0a565b6106d1565b6040516101d591906137c8565b60405180910390f35b3480156101ea57600080fd5b506101f36107b3565b60405161020091906137e3565b60405180910390f35b34801561021557600080fd5b50610230600480360381019061022b9190612e1b565b610845565b60405161023d919061371d565b60405180910390f35b34801561025257600080fd5b5061026d60048036038101906102689190612cce565b6108ca565b005b34801561027b57600080fd5b5061029660048036038101906102919190612e1b565b6109e2565b6040516102a3919061371d565b60405180910390f35b3480156102b857600080fd5b506102d360048036038101906102ce9190612e1b565b610a22565b005b3480156102e157600080fd5b506102fc60048036038101906102f79190612d5c565b610d11565b005b34801561030a57600080fd5b5061032560048036038101906103209190612bc8565b610dfc565b005b34801561033357600080fd5b5061033c610e5c565b60405161034991906137a6565b60405180910390f35b34801561035e57600080fd5b50610367610f82565b6040516103749190613a65565b60405180910390f35b34801561038957600080fd5b506103a4600480360381019061039f9190612bc8565b610f8c565b005b3480156103b257600080fd5b506103cd60048036038101906103c89190612e1b565b610fac565b6040516103da919061371d565b60405180910390f35b3480156103ef57600080fd5b5061040a60048036038101906104059190612e44565b61105e565b005b34801561041857600080fd5b506104216110f7565b60405161042e9190613a65565b60405180910390f35b34801561044357600080fd5b5061045e60048036038101906104599190612b63565b611101565b60405161046b91906137a6565b60405180910390f35b34801561048057600080fd5b5061049b60048036038101906104969190612b63565b611266565b6040516104a89190613a65565b60405180910390f35b3480156104bd57600080fd5b506104d860048036038101906104d39190612e1b565b61131e565b6040516104e59190613784565b60405180910390f35b3480156104fa57600080fd5b50610503611576565b60405161051091906137e3565b60405180910390f35b34801561052557600080fd5b5061052e61161d565b60405161053b91906137e3565b60405180910390f35b34801561055057600080fd5b5061056b60048036038101906105669190612c92565b6116af565b005b34801561057957600080fd5b50610594600480360381019061058f9190612c17565b6116c5565b005b3480156105a257600080fd5b506105ab611727565b6040516105b89190613a65565b60405180910390f35b3480156105cd57600080fd5b506105e860048036038101906105e39190612e1b565b611731565b6040516105f59190613a65565b60405180910390f35b61061860048036038101906106139190612e1b565b61174e565b005b34801561062657600080fd5b50610641600480360381019061063c9190612e1b565b61191c565b60405161064e91906137e3565b60405180910390f35b34801561066357600080fd5b5061067e60048036038101906106799190612b8c565b6119c3565b60405161068b91906137c8565b60405180910390f35b3480156106a057600080fd5b506106bb60048036038101906106b69190612e1b565b611a57565b6040516106c891906137a6565b60405180910390f35b60007f80ac58cd000000000000000000000000000000000000000000000000000000007bffffffffffffffffffffffffffffffffffffffffffffffffffffffff1916827bffffffffffffffffffffffffffffffffffffffffffffffffffffffff1916148061079c57507f5b5e139f000000000000000000000000000000000000000000000000000000007bffffffffffffffffffffffffffffffffffffffffffffffffffffffff1916827bffffffffffffffffffffffffffffffffffffffffffffffffffffffff1916145b806107ac57506107ab82611c35565b5b9050919050565b6060600080546107c290613d48565b80601f01602080910402602001604051908101604052809291908181526020018280546107ee90613d48565b801561083b5780601f106108105761010080835404028352916020019161083b565b820191906000526020600020905b81548152906001019060200180831161081e57829003601f168201915b5050505050905090565b600061085082611c9f565b61088f576040517f08c379a0000000000000000000000000000000000000000000000000000000008152600401610886906139a5565b60405180910390fd5b6004600083815260200190815260200160002060009054906101000a900473ffffffffffffffffffffffffffffffffffffffff169050919050565b60006108d582610fac565b90508073ffffffffffffffffffffffffffffffffffffffff168373ffffffffffffffffffffffffffffffffffffffff161415610946576040517f08c379a000000000000000000000000000000000000000000000000000000000815260040161093d906139e5565b60405180910390fd5b8073ffffffffffffffffffffffffffffffffffffffff16610965611d0b565b73ffffffffffffffffffffffffffffffffffffffff16148061099457506109938161098e611d0b565b6119c3565b5b6109d3576040517f08c379a00000000000000000000000000000000000000000000000000000000081526004016109ca90613925565b60405180910390fd5b6109dd8383611d13565b505050565b6000600a600083815260200190815260200160002060000160009054906101000a900473ffffffffffffffffffffffffffffffffffffffff169050919050565b6000811015610a66576040517f08c379a0000000000000000000000000000000000000000000000000000000008152600401610a5d90613a05565b60405180910390fd5b600c805490508110610aad576040517f08c379a0000000000000000000000000000000000000000000000000000000008152600401610aa4906138e5565b60405180910390fd5b60086000815480929190610ac090613d7a565b9190505550600c8181548110610aff577f4e487b7100000000000000000000000000000000000000000000000000000000600052603260045260246000fd5b90600052602060002090600c0201600a600060085481526020019081526020016000206000820160009054906101000a900473ffffffffffffffffffffffffffffffffffffffff168160000160006101000a81548173ffffffffffffffffffffffffffffffffffffffff021916908373ffffffffffffffffffffffffffffffffffffffff1602179055506000820160149054906101000a900460ff168160000160146101000a81548160ff0219169083151502179055506001820181600101908054610bca90613d48565b610bd59291906128fa565b506002820181600201908054610bea90613d48565b610bf59291906128fa565b506003820181600301908054610c0a90613d48565b610c159291906128fa565b5060048201548160040155600582015481600501556006820181600601908054610c3e90613d48565b610c499291906128fa565b506007820181600701908054610c5e90613d48565b610c699291906128fa565b506008820181600801908054610c7e90613d48565b610c899291906128fa565b5060098201548160090155600a82015481600a0155600b82015481600b015590505033600a6000600854815260200190815260200160002060000160006101000a81548173ffffffffffffffffffffffffffffffffffffffff021916908373ffffffffffffffffffffffffffffffffffffffff160217905550610d0e33600854611dcc565b50565b60086000815480929190610d2490613d7a565b9190505550600060085490506040518060c0016040528087815260200186815260200184815260200183815260200183815260200185815250600960008381526020019081526020016000206000820151816000019080519060200190610d8c929190612987565b506020820151816001019080519060200190610da9929190612987565b506040820151816002019080519060200190610dc6929190612987565b50606082015181600301556080820151816004015560a08201518160050155905050610df433600854611dcc565b505050505050565b610e0d610e07611d0b565b82611dea565b610e4c576040517f08c379a0000000000000000000000000000000000000000000000000000000008152600401610e4390613a25565b60405180910390fd5b610e57838383611ec8565b505050565b606060008060085467ffffffffffffffff811115610ea3577f4e487b7100000000000000000000000000000000000000000000000000000000600052604160045260246000fd5b604051908082528060200260200182016040528015610ed15781602001602082028036833780820191505090505b50905060005b600854811015610f795760011515600a600083815260200190815260200160002060000160149054906101000a900460ff1615151415610f665780828481518110610f4b577f4e487b7100000000000000000000000000000000000000000000000000000000600052603260045260246000fd5b6020026020010181815250508280610f6290613d7a565b9350505b8080610f7190613d7a565b915050610ed7565b50809250505090565b6000600754905090565b610fa7838383604051806020016040528060008152506116c5565b505050565b6000806002600084815260200190815260200160002060009054906101000a900473ffffffffffffffffffffffffffffffffffffffff169050600073ffffffffffffffffffffffffffffffffffffffff168173ffffffffffffffffffffffffffffffffffffffff161415611055576040517f08c379a000000000000000000000000000000000000000000000000000000000815260040161104c90613965565b60405180910390fd5b80915050919050565b600081116110a1576040517f08c379a000000000000000000000000000000000000000000000000000000000815260040161109890613865565b60405180910390fd5b80600b6000848152602001908152602001600020819055506001600a600084815260200190815260200160002060000160146101000a81548160ff0219169083151502179055506110f3333084611ec8565b5050565b6000600854905090565b606060008060085467ffffffffffffffff811115611148577f4e487b7100000000000000000000000000000000000000000000000000000000600052604160045260246000fd5b6040519080825280602002602001820160405280156111765781602001602082028036833780820191505090505b5090506000600190505b600854811161125b578473ffffffffffffffffffffffffffffffffffffffff16600a600083815260200190815260200160002060000160009054906101000a900473ffffffffffffffffffffffffffffffffffffffff1673ffffffffffffffffffffffffffffffffffffffff161415611248578082848151811061122d577f4e487b7100000000000000000000000000000000000000000000000000000000600052603260045260246000fd5b602002602001018181525050828061124490613d7a565b9350505b808061125390613d7a565b915050611180565b508092505050919050565b60008073ffffffffffffffffffffffffffffffffffffffff168273ffffffffffffffffffffffffffffffffffffffff1614156112d7576040517f08c379a00000000000000000000000000000000000000000000000000000000081526004016112ce90613945565b60405180910390fd5b600360008373ffffffffffffffffffffffffffffffffffffffff1673ffffffffffffffffffffffffffffffffffffffff168152602001908152602001600020549050919050565b60606000600467ffffffffffffffff811115611363577f4e487b7100000000000000000000000000000000000000000000000000000000600052604160045260246000fd5b60405190808252806020026020018201604052801561139657816020015b60608152602001906001900390816113815790505b5090506000600a600085815260200190815260200160002060030180546113bc90613d48565b80601f01602080910402602001604051908101604052809291908181526020018280546113e890613d48565b80156114355780601f1061140a57610100808354040283529160200191611435565b820191906000526020600020905b81548152906001019060200180831161141857829003601f168201915b505050505090506000600a6000868152602001908152602001600020600101805461145f90613d48565b80601f016020809104026020016040519081016040528092919081815260200182805461148b90613d48565b80156114d85780601f106114ad576101008083540402835291602001916114d8565b820191906000526020600020905b8154815290600101906020018083116114bb57829003601f168201915b50505050509050818360008151811061151a577f4e487b7100000000000000000000000000000000000000000000000000000000600052603260045260246000fd5b60200260200101819052508083600181518110611560577f4e487b7100000000000000000000000000000000000000000000000000000000600052603260045260246000fd5b6020026020010181905250829350505050919050565b6060600a600060018152602001908152602001600020600101805461159a90613d48565b80601f01602080910402602001604051908101604052809291908181526020018280546115c690613d48565b80156116135780601f106115e857610100808354040283529160200191611613565b820191906000526020600020905b8154815290600101906020018083116115f657829003601f168201915b5050505050905090565b60606001805461162c90613d48565b80601f016020809104026020016040519081016040528092919081815260200182805461165890613d48565b80156116a55780601f1061167a576101008083540402835291602001916116a5565b820191906000526020600020905b81548152906001019060200180831161168857829003601f168201915b5050505050905090565b6116c16116ba611d0b565b838361212f565b5050565b6116d66116d0611d0b565b83611dea565b611715576040517f08c379a000000000000000000000000000000000000000000000000000000000815260040161170c90613a25565b60405180910390fd5b6117218484848461229c565b50505050565b6000600654905090565b6000600b6000838152602001908152602001600020549050919050565b60011515600a600083815260200190815260200160002060000160149054906101000a900460ff161515146117b8576040517f08c379a00000000000000000000000000000000000000000000000000000000081526004016117af906138c5565b60405180910390fd5b34600b6000838152602001908152602001600020541461180d576040517f08c379a000000000000000000000000000000000000000000000000000000000815260040161180490613a45565b60405180910390fd5b600a600082815260200190815260200160002060000160009054906101000a900473ffffffffffffffffffffffffffffffffffffffff1673ffffffffffffffffffffffffffffffffffffffff166108fc349081150290604051600060405180830381858888f19350505050158015611889573d6000803e3d6000fd5b5033600a600083815260200190815260200160002060000160006101000a81548173ffffffffffffffffffffffffffffffffffffffff021916908373ffffffffffffffffffffffffffffffffffffffff1602179055506000600a600083815260200190815260200160002060000160146101000a81548160ff021916908315150217905550611919303383611ec8565b50565b606061192782611c9f565b611966576040517f08c379a000000000000000000000000000000000000000000000000000000000815260040161195d906139c5565b60405180910390fd5b60006119706122f8565b9050600081511161199057604051806020016040528060008152506119bb565b8061199a8461230f565b6040516020016119ab9291906136f9565b6040516020818303038152906040525b915050919050565b6000600560008473ffffffffffffffffffffffffffffffffffffffff1673ffffffffffffffffffffffffffffffffffffffff16815260200190815260200160002060008373ffffffffffffffffffffffffffffffffffffffff1673ffffffffffffffffffffffffffffffffffffffff16815260200190815260200160002060009054906101000a900460ff16905092915050565b60606000600267ffffffffffffffff811115611a9c577f4e487b7100000000000000000000000000000000000000000000000000000000600052604160045260246000fd5b604051908082528060200260200182016040528015611aca5781602001602082028036833780820191505090505b5090506000600a60008581526020019081526020016000206004015490506000600a60008681526020019081526020016000206005015490508183600081518110611b3e577f4e487b7100000000000000000000000000000000000000000000000000000000600052603260045260246000fd5b6020026020010181815250508083600181518110611b85577f4e487b7100000000000000000000000000000000000000000000000000000000600052603260045260246000fd5b602002602001018181525050829350505050919050565b611c3281604051602401611bb091906137e3565b6040516020818303038152906040527f41304fac000000000000000000000000000000000000000000000000000000007bffffffffffffffffffffffffffffffffffffffffffffffffffffffff19166020820180517bffffffffffffffffffffffffffffffffffffffffffffffffffffffff83818316178352505050506124bc565b50565b60007f01ffc9a7000000000000000000000000000000000000000000000000000000007bffffffffffffffffffffffffffffffffffffffffffffffffffffffff1916827bffffffffffffffffffffffffffffffffffffffffffffffffffffffff1916149050919050565b60008073ffffffffffffffffffffffffffffffffffffffff166002600084815260200190815260200160002060009054906101000a900473ffffffffffffffffffffffffffffffffffffffff1673ffffffffffffffffffffffffffffffffffffffff1614159050919050565b600033905090565b816004600083815260200190815260200160002060006101000a81548173ffffffffffffffffffffffffffffffffffffffff021916908373ffffffffffffffffffffffffffffffffffffffff160217905550808273ffffffffffffffffffffffffffffffffffffffff16611d8683610fac565b73ffffffffffffffffffffffffffffffffffffffff167f8c5be1e5ebec7d5bd14f71427d1e84f3dd0314c0f7b2291e5b200ac8c7c3b92560405160405180910390a45050565b611de68282604051806020016040528060008152506124e5565b5050565b6000611df582611c9f565b611e34576040517f08c379a0000000000000000000000000000000000000000000000000000000008152600401611e2b90613905565b60405180910390fd5b6000611e3f83610fac565b90508073ffffffffffffffffffffffffffffffffffffffff168473ffffffffffffffffffffffffffffffffffffffff161480611e815750611e8081856119c3565b5b80611ebf57508373ffffffffffffffffffffffffffffffffffffffff16611ea784610845565b73ffffffffffffffffffffffffffffffffffffffff16145b91505092915050565b8273ffffffffffffffffffffffffffffffffffffffff16611ee882610fac565b73ffffffffffffffffffffffffffffffffffffffff1614611f3e576040517f08c379a0000000000000000000000000000000000000000000000000000000008152600401611f3590613825565b60405180910390fd5b600073ffffffffffffffffffffffffffffffffffffffff168273ffffffffffffffffffffffffffffffffffffffff161415611fae576040517f08c379a0000000000000000000000000000000000000000000000000000000008152600401611fa590613885565b60405180910390fd5b611fb9838383612540565b611fc4600082611d13565b6001600360008573ffffffffffffffffffffffffffffffffffffffff1673ffffffffffffffffffffffffffffffffffffffff16815260200190815260200160002060008282546120149190613c5e565b925050819055506001600360008473ffffffffffffffffffffffffffffffffffffffff1673ffffffffffffffffffffffffffffffffffffffff168152602001908152602001600020600082825461206b9190613bd7565b92505081905550816002600083815260200190815260200160002060006101000a81548173ffffffffffffffffffffffffffffffffffffffff021916908373ffffffffffffffffffffffffffffffffffffffff160217905550808273ffffffffffffffffffffffffffffffffffffffff168473ffffffffffffffffffffffffffffffffffffffff167fddf252ad1be2c89b69c2b068fc378daa952ba7f163c4a11628f55a4df523b3ef60405160405180910390a461212a838383612545565b505050565b8173ffffffffffffffffffffffffffffffffffffffff168373ffffffffffffffffffffffffffffffffffffffff16141561219e576040517f08c379a0000000000000000000000000000000000000000000000000000000008152600401612195906138a5565b60405180910390fd5b80600560008573ffffffffffffffffffffffffffffffffffffffff1673ffffffffffffffffffffffffffffffffffffffff16815260200190815260200160002060008473ffffffffffffffffffffffffffffffffffffffff1673ffffffffffffffffffffffffffffffffffffffff16815260200190815260200160002060006101000a81548160ff0219169083151502179055508173ffffffffffffffffffffffffffffffffffffffff168373ffffffffffffffffffffffffffffffffffffffff167f17307eab39ab6107e8899845ad3d59bd9653f200f220920489ca2b5937696c318360405161228f91906137c8565b60405180910390a3505050565b6122a7848484611ec8565b6122b38484848461254a565b6122f2576040517f08c379a00000000000000000000000000000000000000000000000000000000081526004016122e990613805565b60405180910390fd5b50505050565b606060405180602001604052806000815250905090565b60606000821415612357576040518060400160405280600181526020017f300000000000000000000000000000000000000000000000000000000000000081525090506124b7565b600082905060005b6000821461238957808061237290613d7a565b915050600a826123829190613c2d565b915061235f565b60008167ffffffffffffffff8111156123cb577f4e487b7100000000000000000000000000000000000000000000000000000000600052604160045260246000fd5b6040519080825280601f01601f1916602001820160405280156123fd5781602001600182028036833780820191505090505b5090505b600085146124b0576001826124169190613c5e565b9150600a856124259190613dc3565b60306124319190613bd7565b60f81b81838151811061246d577f4e487b7100000000000000000000000000000000000000000000000000000000600052603260045260246000fd5b60200101907effffffffffffffffffffffffffffffffffffffffffffffffffffffffffffff1916908160001a905350600a856124a99190613c2d565b9450612401565b8093505050505b919050565b60008151905060006a636f6e736f6c652e6c6f679050602083016000808483855afa5050505050565b6124ef83836126e1565b6124fc600084848461254a565b61253b576040517f08c379a000000000000000000000000000000000000000000000000000000000815260040161253290613805565b60405180910390fd5b505050565b505050565b505050565b600061256b8473ffffffffffffffffffffffffffffffffffffffff166128bb565b156126d4578373ffffffffffffffffffffffffffffffffffffffff1663150b7a02612594611d0b565b8786866040518563ffffffff1660e01b81526004016125b69493929190613738565b602060405180830381600087803b1580156125d057600080fd5b505af192505050801561260157506040513d601f19601f820116820180604052508101906125fe9190612d33565b60015b612684573d8060008114612631576040519150601f19603f3d011682016040523d82523d6000602084013e612636565b606091505b5060008151141561267c576040517f08c379a000000000000000000000000000000000000000000000000000000000815260040161267390613805565b60405180910390fd5b805181602001fd5b63150b7a0260e01b7bffffffffffffffffffffffffffffffffffffffffffffffffffffffff1916817bffffffffffffffffffffffffffffffffffffffffffffffffffffffff1916149150506126d9565b600190505b949350505050565b600073ffffffffffffffffffffffffffffffffffffffff168273ffffffffffffffffffffffffffffffffffffffff161415612751576040517f08c379a000000000000000000000000000000000000000000000000000000000815260040161274890613985565b60405180910390fd5b61275a81611c9f565b1561279a576040517f08c379a000000000000000000000000000000000000000000000000000000000815260040161279190613845565b60405180910390fd5b6127a660008383612540565b6001600360008473ffffffffffffffffffffffffffffffffffffffff1673ffffffffffffffffffffffffffffffffffffffff16815260200190815260200160002060008282546127f69190613bd7565b92505081905550816002600083815260200190815260200160002060006101000a81548173ffffffffffffffffffffffffffffffffffffffff021916908373ffffffffffffffffffffffffffffffffffffffff160217905550808273ffffffffffffffffffffffffffffffffffffffff16600073ffffffffffffffffffffffffffffffffffffffff167fddf252ad1be2c89b69c2b068fc378daa952ba7f163c4a11628f55a4df523b3ef60405160405180910390a46128b760008383612545565b5050565b6000808273ffffffffffffffffffffffffffffffffffffffff16803b806020016040519081016040528181526000908060200190933c51119050919050565b82805461290690613d48565b90600052602060002090601f0160209004810192826129285760008555612976565b82601f106129395780548555612976565b8280016001018555821561297657600052602060002091601f016020900482015b8281111561297557825482559160010191906001019061295a565b5b5090506129839190612a0d565b5090565b82805461299390613d48565b90600052602060002090601f0160209004810192826129b557600085556129fc565b82601f106129ce57805160ff19168380011785556129fc565b828001600101855582156129fc579182015b828111156129fb5782518255916020019190600101906129e0565b5b509050612a099190612a0d565b5090565b5b80821115612a26576000816000905550600101612a0e565b5090565b6000612a3d612a3884613ab1565b613a80565b905082815260208101848484011115612a5557600080fd5b612a60848285613d06565b509392505050565b6000612a7b612a7684613ae1565b613a80565b905082815260208101848484011115612a9357600080fd5b612a9e848285613d06565b509392505050565b600081359050612ab581613ec1565b92915050565b600081359050612aca81613ed8565b92915050565b600081359050612adf81613eef565b92915050565b600081519050612af481613eef565b92915050565b600082601f830112612b0b57600080fd5b8135612b1b848260208601612a2a565b91505092915050565b600082601f830112612b3557600080fd5b8135612b45848260208601612a68565b91505092915050565b600081359050612b5d81613f06565b92915050565b600060208284031215612b7557600080fd5b6000612b8384828501612aa6565b91505092915050565b60008060408385031215612b9f57600080fd5b6000612bad85828601612aa6565b9250506020612bbe85828601612aa6565b9150509250929050565b600080600060608486031215612bdd57600080fd5b6000612beb86828701612aa6565b9350506020612bfc86828701612aa6565b9250506040612c0d86828701612b4e565b9150509250925092565b60008060008060808587031215612c2d57600080fd5b6000612c3b87828801612aa6565b9450506020612c4c87828801612aa6565b9350506040612c5d87828801612b4e565b925050606085013567ffffffffffffffff811115612c7a57600080fd5b612c8687828801612afa565b91505092959194509250565b60008060408385031215612ca557600080fd5b6000612cb385828601612aa6565b9250506020612cc485828601612abb565b9150509250929050565b60008060408385031215612ce157600080fd5b6000612cef85828601612aa6565b9250506020612d0085828601612b4e565b9150509250929050565b600060208284031215612d1c57600080fd5b6000612d2a84828501612ad0565b91505092915050565b600060208284031215612d4557600080fd5b6000612d5384828501612ae5565b91505092915050565b600080600080600060a08688031215612d7457600080fd5b600086013567ffffffffffffffff811115612d8e57600080fd5b612d9a88828901612b24565b955050602086013567ffffffffffffffff811115612db757600080fd5b612dc388828901612b24565b9450506040612dd488828901612b4e565b935050606086013567ffffffffffffffff811115612df157600080fd5b612dfd88828901612b24565b9250506080612e0e88828901612b4e565b9150509295509295909350565b600060208284031215612e2d57600080fd5b6000612e3b84828501612b4e565b91505092915050565b60008060408385031215612e5757600080fd5b6000612e6585828601612b4e565b9250506020612e7685828601612b4e565b9150509250929050565b6000612e8c8383612fd6565b905092915050565b6000612ea083836136db565b60208301905092915050565b612eb581613c92565b82525050565b6000612ec682613b31565b612ed08185613b77565b935083602082028501612ee285613b11565b8060005b85811015612f1e5784840389528151612eff8582612e80565b9450612f0a83613b5d565b925060208a01995050600181019050612ee6565b50829750879550505050505092915050565b6000612f3b82613b3c565b612f458185613b88565b9350612f5083613b21565b8060005b83811015612f81578151612f688882612e94565b9750612f7383613b6a565b925050600181019050612f54565b5085935050505092915050565b612f9781613ca4565b82525050565b6000612fa882613b47565b612fb28185613b99565b9350612fc2818560208601613d15565b612fcb81613eb0565b840191505092915050565b6000612fe182613b52565b612feb8185613baa565b9350612ffb818560208601613d15565b61300481613eb0565b840191505092915050565b600061301a82613b52565b6130248185613bbb565b9350613034818560208601613d15565b61303d81613eb0565b840191505092915050565b600061305382613b52565b61305d8185613bcc565b935061306d818560208601613d15565b80840191505092915050565b6000613086603283613bbb565b91507f4552433732313a207472616e7366657220746f206e6f6e20455243373231526560008301527f63656976657220696d706c656d656e74657200000000000000000000000000006020830152604082019050919050565b60006130ec602583613bbb565b91507f4552433732313a207472616e736665722066726f6d20696e636f72726563742060008301527f6f776e65720000000000000000000000000000000000000000000000000000006020830152604082019050919050565b6000613152601c83613bbb565b91507f4552433732313a20746f6b656e20616c7265616479206d696e746564000000006000830152602082019050919050565b6000613192601083613bbb565b91507f50726963652063616e27742062652030000000000000000000000000000000006000830152602082019050919050565b60006131d2602483613bbb565b91507f4552433732313a207472616e7366657220746f20746865207a65726f2061646460008301527f72657373000000000000000000000000000000000000000000000000000000006020830152604082019050919050565b6000613238601983613bbb565b91507f4552433732313a20617070726f766520746f2063616c6c6572000000000000006000830152602082019050919050565b6000613278601983613bbb565b91507f54686973206974656d206973206e6f7420666f722073616c65000000000000006000830152602082019050919050565b60006132b8600f83613bbb565b91507f494420697320746f6f206c6172676500000000000000000000000000000000006000830152602082019050919050565b60006132f8602c83613bbb565b91507f4552433732313a206f70657261746f7220717565727920666f72206e6f6e657860008301527f697374656e7420746f6b656e00000000000000000000000000000000000000006020830152604082019050919050565b600061335e603883613bbb565b91507f4552433732313a20617070726f76652063616c6c6572206973206e6f74206f7760008301527f6e6572206e6f7220617070726f76656420666f7220616c6c00000000000000006020830152604082019050919050565b60006133c4602a83613bbb565b91507f4552433732313a2062616c616e636520717565727920666f7220746865207a6560008301527f726f2061646472657373000000000000000000000000000000000000000000006020830152604082019050919050565b600061342a602983613bbb565b91507f4552433732313a206f776e657220717565727920666f72206e6f6e657869737460008301527f656e7420746f6b656e00000000000000000000000000000000000000000000006020830152604082019050919050565b6000613490602083613bbb565b91507f4552433732313a206d696e7420746f20746865207a65726f20616464726573736000830152602082019050919050565b60006134d0602c83613bbb565b91507f4552433732313a20617070726f76656420717565727920666f72206e6f6e657860008301527f697374656e7420746f6b656e00000000000000000000000000000000000000006020830152604082019050919050565b6000613536602f83613bbb565b91507f4552433732314d657461646174613a2055524920717565727920666f72206e6f60008301527f6e6578697374656e7420746f6b656e00000000000000000000000000000000006020830152604082019050919050565b600061359c602183613bbb565b91507f4552433732313a20617070726f76616c20746f2063757272656e74206f776e6560008301527f72000000000000000000000000000000000000000000000000000000000000006020830152604082019050919050565b6000613602601183613bbb565b91507f4d757374207573652076616c69642049440000000000000000000000000000006000830152602082019050919050565b6000613642603183613bbb565b91507f4552433732313a207472616e736665722063616c6c6572206973206e6f74206f60008301527f776e6572206e6f7220617070726f7665640000000000000000000000000000006020830152604082019050919050565b60006136a8601783613bbb565b91507f5375626d6974207468652061736b696e672070726963650000000000000000006000830152602082019050919050565b6136e481613cfc565b82525050565b6136f381613cfc565b82525050565b60006137058285613048565b91506137118284613048565b91508190509392505050565b60006020820190506137326000830184612eac565b92915050565b600060808201905061374d6000830187612eac565b61375a6020830186612eac565b61376760408301856136ea565b81810360608301526137798184612f9d565b905095945050505050565b6000602082019050818103600083015261379e8184612ebb565b905092915050565b600060208201905081810360008301526137c08184612f30565b905092915050565b60006020820190506137dd6000830184612f8e565b92915050565b600060208201905081810360008301526137fd818461300f565b905092915050565b6000602082019050818103600083015261381e81613079565b9050919050565b6000602082019050818103600083015261383e816130df565b9050919050565b6000602082019050818103600083015261385e81613145565b9050919050565b6000602082019050818103600083015261387e81613185565b9050919050565b6000602082019050818103600083015261389e816131c5565b9050919050565b600060208201905081810360008301526138be8161322b565b9050919050565b600060208201905081810360008301526138de8161326b565b9050919050565b600060208201905081810360008301526138fe816132ab565b9050919050565b6000602082019050818103600083015261391e816132eb565b9050919050565b6000602082019050818103600083015261393e81613351565b9050919050565b6000602082019050818103600083015261395e816133b7565b9050919050565b6000602082019050818103600083015261397e8161341d565b9050919050565b6000602082019050818103600083015261399e81613483565b9050919050565b600060208201905081810360008301526139be816134c3565b9050919050565b600060208201905081810360008301526139de81613529565b9050919050565b600060208201905081810360008301526139fe8161358f565b9050919050565b60006020820190508181036000830152613a1e816135f5565b9050919050565b60006020820190508181036000830152613a3e81613635565b9050919050565b60006020820190508181036000830152613a5e8161369b565b9050919050565b6000602082019050613a7a60008301846136ea565b92915050565b6000604051905081810181811067ffffffffffffffff82111715613aa757613aa6613e81565b5b8060405250919050565b600067ffffffffffffffff821115613acc57613acb613e81565b5b601f19601f8301169050602081019050919050565b600067ffffffffffffffff821115613afc57613afb613e81565b5b601f19601f8301169050602081019050919050565b6000819050602082019050919050565b6000819050602082019050919050565b600081519050919050565b600081519050919050565b600081519050919050565b600081519050919050565b6000602082019050919050565b6000602082019050919050565b600082825260208201905092915050565b600082825260208201905092915050565b600082825260208201905092915050565b600082825260208201905092915050565b600082825260208201905092915050565b600081905092915050565b6000613be282613cfc565b9150613bed83613cfc565b9250827fffffffffffffffffffffffffffffffffffffffffffffffffffffffffffffffff03821115613c2257613c21613df4565b5b828201905092915050565b6000613c3882613cfc565b9150613c4383613cfc565b925082613c5357613c52613e23565b5b828204905092915050565b6000613c6982613cfc565b9150613c7483613cfc565b925082821015613c8757613c86613df4565b5b828203905092915050565b6000613c9d82613cdc565b9050919050565b60008115159050919050565b60007fffffffff0000000000000000000000000000000000000000000000000000000082169050919050565b600073ffffffffffffffffffffffffffffffffffffffff82169050919050565b6000819050919050565b82818337600083830152505050565b60005b83811015613d33578082015181840152602081019050613d18565b83811115613d42576000848401525b50505050565b60006002820490506001821680613d6057607f821691505b60208210811415613d7457613d73613e52565b5b50919050565b6000613d8582613cfc565b91507fffffffffffffffffffffffffffffffffffffffffffffffffffffffffffffffff821415613db857613db7613df4565b5b600182019050919050565b6000613dce82613cfc565b9150613dd983613cfc565b925082613de957613de8613e23565b5b828206905092915050565b7f4e487b7100000000000000000000000000000000000000000000000000000000600052601160045260246000fd5b7f4e487b7100000000000000000000000000000000000000000000000000000000600052601260045260246000fd5b7f4e487b7100000000000000000000000000000000000000000000000000000000600052602260045260246000fd5b7f4e487b7100000000000000000000000000000000000000000000000000000000600052604160045260246000fd5b6000601f19601f8301169050919050565b613eca81613c92565b8114613ed557600080fd5b50565b613ee181613ca4565b8114613eec57600080fd5b50565b613ef881613cb0565b8114613f0357600080fd5b50565b613f0f81613cfc565b8114613f1a57600080fd5b5056fea2646970667358221220067a58c394bd797484e96d3a853d9ce9ef640567d068a51b299990dd8f21157464736f6c63430008000033",
  "linkReferences": {},
  "deployedLinkReferences": {}
}