{
  "_format": "hh-sol-artifact-1",
  "contractName": "BillionaireBattles",
  "sourceName": "contracts/BillionaireBattles.sol",
  "abi": [
    {
      "inputs": [
        {
          "internalType": "string[]",
          "name": "names",
          "type": "string[]"
        },
        {
          "internalType": "string[]",
          "name": "descriptions",
          "type": "string[]"
        },
        {
          "internalType": "string[]",
          "name": "images",
          "type": "string[]"
        },
        {
          "internalType": "uint256[]",
          "name": "healths",
          "type": "uint256[]"
        },
        {
          "internalType": "uint256[]",
          "name": "maxHealths",
          "type": "uint256[]"
        },
        {
          "internalType": "string[]",
          "name": "attack1Names",
          "type": "string[]"
        },
        {
          "internalType": "string[]",
          "name": "attack2Names",
          "type": "string[]"
        },
        {
          "internalType": "string[]",
          "name": "attack3Names",
          "type": "string[]"
        },
        {
          "internalType": "uint256[]",
          "name": "attack1Damages",
          "type": "uint256[]"
        },
        {
          "internalType": "uint256[]",
          "name": "attack2Damages",
          "type": "uint256[]"
        },
        {
          "internalType": "uint256[]",
          "name": "attack3Damages",
          "type": "uint256[]"
        }
      ],
      "stateMutability": "nonpayable",
      "type": "constructor"
    },
    {
      "anonymous": false,
      "inputs": [
        {
          "indexed": true,
          "internalType": "address",
          "name": "owner",
          "type": "address"
        },
        {
          "indexed": true,
          "internalType": "address",
          "name": "approved",
          "type": "address"
        },
        {
          "indexed": true,
          "internalType": "uint256",
          "name": "tokenId",
          "type": "uint256"
        }
      ],
      "name": "Approval",
      "type": "event"
    },
    {
      "anonymous": false,
      "inputs": [
        {
          "indexed": true,
          "internalType": "address",
          "name": "owner",
          "type": "address"
        },
        {
          "indexed": true,
          "internalType": "address",
          "name": "operator",
          "type": "address"
        },
        {
          "indexed": false,
          "internalType": "bool",
          "name": "approved",
          "type": "bool"
        }
      ],
      "name": "ApprovalForAll",
      "type": "event"
    },
    {
      "anonymous": false,
      "inputs": [
        {
          "indexed": true,
          "internalType": "address",
          "name": "from",
          "type": "address"
        },
        {
          "indexed": true,
          "internalType": "address",
          "name": "to",
          "type": "address"
        },
        {
          "indexed": true,
          "internalType": "uint256",
          "name": "tokenId",
          "type": "uint256"
        }
      ],
      "name": "Transfer",
      "type": "event"
    },
    {
      "inputs": [
        {
          "internalType": "address",
          "name": "to",
          "type": "address"
        },
        {
          "internalType": "uint256",
          "name": "tokenId",
          "type": "uint256"
        }
      ],
      "name": "approve",
      "outputs": [],
      "stateMutability": "nonpayable",
      "type": "function"
    },
    {
      "inputs": [
        {
          "internalType": "address",
          "name": "owner",
          "type": "address"
        }
      ],
      "name": "balanceOf",
      "outputs": [
        {
          "internalType": "uint256",
          "name": "",
          "type": "uint256"
        }
      ],
      "stateMutability": "view",
      "type": "function"
    },
    {
      "inputs": [
        {
          "internalType": "uint256",
          "name": "tokenId",
          "type": "uint256"
        },
        {
          "internalType": "uint256",
          "name": "price",
          "type": "uint256"
        }
      ],
      "name": "createMarketListing",
      "outputs": [],
      "stateMutability": "nonpayable",
      "type": "function"
    },
    {
      "inputs": [
        {
          "internalType": "uint256",
          "name": "tokenId",
          "type": "uint256"
        }
      ],
      "name": "createMarketSale",
      "outputs": [],
      "stateMutability": "payable",
      "type": "function"
    },
    {
      "inputs": [],
      "name": "getAllCharacters",
      "outputs": [
        {
          "internalType": "string",
          "name": "",
          "type": "string"
        }
      ],
      "stateMutability": "view",
      "type": "function"
    },
    {
      "inputs": [
        {
          "internalType": "uint256",
          "name": "tokenId",
          "type": "uint256"
        }
      ],
      "name": "getApproved",
      "outputs": [
        {
          "internalType": "address",
          "name": "",
          "type": "address"
        }
      ],
      "stateMutability": "view",
      "type": "function"
    },
    {
      "inputs": [],
      "name": "getBossIds",
      "outputs": [
        {
          "internalType": "uint256[]",
          "name": "ids",
          "type": "uint256[]"
        }
      ],
      "stateMutability": "view",
      "type": "function"
    },
    {
      "inputs": [
        {
          "internalType": "uint256",
          "name": "id",
          "type": "uint256"
        }
      ],
      "name": "getBossStringDataById",
      "outputs": [
        {
          "components": [
            {
              "internalType": "address",
              "name": "owner",
              "type": "address"
            },
            {
              "internalType": "string",
              "name": "name",
              "type": "string"
            },
            {
              "internalType": "string",
              "name": "description",
              "type": "string"
            },
            {
              "internalType": "string",
              "name": "image",
              "type": "string"
            },
            {
              "internalType": "string",
              "name": "attackName",
              "type": "string"
            },
            {
              "internalType": "uint256",
              "name": "health",
              "type": "uint256"
            },
            {
              "internalType": "uint256",
              "name": "maxHealth",
              "type": "uint256"
            },
            {
              "internalType": "uint256",
              "name": "attackDamage",
              "type": "uint256"
            }
          ],
          "internalType": "struct BillionaireBattles.boss",
          "name": "current",
          "type": "tuple"
        }
      ],
      "stateMutability": "view",
      "type": "function"
    },
    {
      "inputs": [],
      "name": "getCharacterCount",
      "outputs": [
        {
          "internalType": "uint256",
          "name": "",
          "type": "uint256"
        }
      ],
      "stateMutability": "view",
      "type": "function"
    },
    {
      "inputs": [
        {
          "internalType": "uint256",
          "name": "index",
          "type": "uint256"
        }
      ],
      "name": "getCharacterDisplayDataById",
      "outputs": [
        {
          "internalType": "string[]",
          "name": "",
          "type": "string[]"
        }
      ],
      "stateMutability": "view",
      "type": "function"
    },
    {
      "inputs": [
        {
          "internalType": "uint256",
          "name": "index",
          "type": "uint256"
        }
      ],
      "name": "getCharacterHealthAndMaxHealthById",
      "outputs": [
        {
          "internalType": "uint256[]",
          "name": "",
          "type": "uint256[]"
        }
      ],
      "stateMutability": "view",
      "type": "function"
    },
    {
      "inputs": [
        {
          "internalType": "address",
          "name": "current",
          "type": "address"
        }
      ],
      "name": "getCharactersFromAddress",
      "outputs": [
        {
          "internalType": "uint256[]",
          "name": "",
          "type": "uint256[]"
        }
      ],
      "stateMutability": "view",
      "type": "function"
    },
    {
      "inputs": [],
      "name": "getListingFee",
      "outputs": [
        {
          "internalType": "uint256",
          "name": "",
          "type": "uint256"
        }
      ],
      "stateMutability": "view",
      "type": "function"
    },
    {
      "inputs": [],
      "name": "getMarketItems",
      "outputs": [
        {
          "internalType": "uint256[]",
          "name": "",
          "type": "uint256[]"
        }
      ],
      "stateMutability": "view",
      "type": "function"
    },
    {
      "inputs": [
        {
          "internalType": "uint256",
          "name": "id",
          "type": "uint256"
        }
      ],
      "name": "getOwnerOfCharcterByID",
      "outputs": [
        {
          "internalType": "address",
          "name": "",
          "type": "address"
        }
      ],
      "stateMutability": "view",
      "type": "function"
    },
    {
      "inputs": [
        {
          "internalType": "uint256",
          "name": "id",
          "type": "uint256"
        }
      ],
      "name": "getPriceById",
      "outputs": [
        {
          "internalType": "uint256",
          "name": "",
          "type": "uint256"
        }
      ],
      "stateMutability": "view",
      "type": "function"
    },
    {
      "inputs": [],
      "name": "getReviveCost",
      "outputs": [
        {
          "internalType": "uint256",
          "name": "",
          "type": "uint256"
        }
      ],
      "stateMutability": "view",
      "type": "function"
    },
    {
      "inputs": [
        {
          "internalType": "address",
          "name": "owner",
          "type": "address"
        },
        {
          "internalType": "address",
          "name": "operator",
          "type": "address"
        }
      ],
      "name": "isApprovedForAll",
      "outputs": [
        {
          "internalType": "bool",
          "name": "",
          "type": "bool"
        }
      ],
      "stateMutability": "view",
      "type": "function"
    },
    {
      "inputs": [
        {
          "internalType": "uint256",
          "name": "id",
          "type": "uint256"
        }
      ],
      "name": "mintItemById",
      "outputs": [],
      "stateMutability": "nonpayable",
      "type": "function"
    },
    {
      "inputs": [
        {
          "internalType": "string",
          "name": "_name",
          "type": "string"
        },
        {
          "internalType": "string",
          "name": "_description",
          "type": "string"
        },
        {
          "internalType": "uint256",
          "name": "_attack",
          "type": "uint256"
        },
        {
          "internalType": "string",
          "name": "_image",
          "type": "string"
        },
        {
          "internalType": "uint256",
          "name": "_health",
          "type": "uint256"
        },
        {
          "internalType": "string",
          "name": "_attackName",
          "type": "string"
        }
      ],
      "name": "mintNewBoss",
      "outputs": [],
      "stateMutability": "nonpayable",
      "type": "function"
    },
    {
      "inputs": [],
      "name": "name",
      "outputs": [
        {
          "internalType": "string",
          "name": "",
          "type": "string"
        }
      ],
      "stateMutability": "view",
      "type": "function"
    },
    {
      "inputs": [
        {
          "internalType": "uint256",
          "name": "tokenId",
          "type": "uint256"
        }
      ],
      "name": "ownerOf",
      "outputs": [
        {
          "internalType": "address",
          "name": "",
          "type": "address"
        }
      ],
      "stateMutability": "view",
      "type": "function"
    },
    {
      "inputs": [
        {
          "internalType": "address",
          "name": "from",
          "type": "address"
        },
        {
          "internalType": "address",
          "name": "to",
          "type": "address"
        },
        {
          "internalType": "uint256",
          "name": "tokenId",
          "type": "uint256"
        }
      ],
      "name": "safeTransferFrom",
      "outputs": [],
      "stateMutability": "nonpayable",
      "type": "function"
    },
    {
      "inputs": [
        {
          "internalType": "address",
          "name": "from",
          "type": "address"
        },
        {
          "internalType": "address",
          "name": "to",
          "type": "address"
        },
        {
          "internalType": "uint256",
          "name": "tokenId",
          "type": "uint256"
        },
        {
          "internalType": "bytes",
          "name": "_data",
          "type": "bytes"
        }
      ],
      "name": "safeTransferFrom",
      "outputs": [],
      "stateMutability": "nonpayable",
      "type": "function"
    },
    {
      "inputs": [
        {
          "internalType": "address",
          "name": "operator",
          "type": "address"
        },
        {
          "internalType": "bool",
          "name": "approved",
          "type": "bool"
        }
      ],
      "name": "setApprovalForAll",
      "outputs": [],
      "stateMutability": "nonpayable",
      "type": "function"
    },
    {
      "inputs": [
        {
          "internalType": "bytes4",
          "name": "interfaceId",
          "type": "bytes4"
        }
      ],
      "name": "supportsInterface",
      "outputs": [
        {
          "internalType": "bool",
          "name": "",
          "type": "bool"
        }
      ],
      "stateMutability": "view",
      "type": "function"
    },
    {
      "inputs": [],
      "name": "symbol",
      "outputs": [
        {
          "internalType": "string",
          "name": "",
          "type": "string"
        }
      ],
      "stateMutability": "view",
      "type": "function"
    },
    {
      "inputs": [
        {
          "internalType": "uint256",
          "name": "tokenId",
          "type": "uint256"
        }
      ],
      "name": "tokenURI",
      "outputs": [
        {
          "internalType": "string",
          "name": "",
          "type": "string"
        }
      ],
      "stateMutability": "view",
      "type": "function"
    },
    {
      "inputs": [
        {
          "internalType": "address",
          "name": "from",
          "type": "address"
        },
        {
          "internalType": "address",
          "name": "to",
          "type": "address"
        },
        {
          "internalType": "uint256",
          "name": "tokenId",
          "type": "uint256"
        }
      ],
      "name": "transferFrom",
      "outputs": [],
      "stateMutability": "nonpayable",
      "type": "function"
    }
  ],
  "bytecode": "0x608060405260006008553480156200001657600080fd5b50604051620051183803806200511883398181016040528101906200003c91906200084f565b6040518060400160405280601381526020017f42696c6c696f6e6169726520426174746c6573000000000000000000000000008152506040518060400160405280600381526020017f42425400000000000000000000000000000000000000000000000000000000008152508160009080519060200190620000c0929190620005e2565b508060019080519060200190620000d9929190620005e2565b5050506005600681905550600560078190555060005b6002811015620005d057600c604051806101a001604052803073ffffffffffffffffffffffffffffffffffffffff1681526020016000151581526020018e848151811062000166577f4e487b7100000000000000000000000000000000000000000000000000000000600052603260045260246000fd5b602002602001015181526020018d8481518110620001ad577f4e487b7100000000000000000000000000000000000000000000000000000000600052603260045260246000fd5b602002602001015181526020018c8481518110620001f4577f4e487b7100000000000000000000000000000000000000000000000000000000600052603260045260246000fd5b602002602001015181526020018b84815181106200023b577f4e487b7100000000000000000000000000000000000000000000000000000000600052603260045260246000fd5b602002602001015181526020018a848151811062000282577f4e487b7100000000000000000000000000000000000000000000000000000000600052603260045260246000fd5b60200260200101518152602001898481518110620002c9577f4e487b7100000000000000000000000000000000000000000000000000000000600052603260045260246000fd5b6020026020010151815260200188848151811062000310577f4e487b7100000000000000000000000000000000000000000000000000000000600052603260045260246000fd5b6020026020010151815260200187848151811062000357577f4e487b7100000000000000000000000000000000000000000000000000000000600052603260045260246000fd5b602002602001015181526020018684815181106200039e577f4e487b7100000000000000000000000000000000000000000000000000000000600052603260045260246000fd5b60200260200101518152602001858481518110620003e5577f4e487b7100000000000000000000000000000000000000000000000000000000600052603260045260246000fd5b602002602001015181526020018484815181106200042c577f4e487b7100000000000000000000000000000000000000000000000000000000600052603260045260246000fd5b602002602001015181525090806001815401808255809150506001900390600052602060002090600c020160009091909190915060008201518160000160006101000a81548173ffffffffffffffffffffffffffffffffffffffff021916908373ffffffffffffffffffffffffffffffffffffffff16021790555060208201518160000160146101000a81548160ff0219169083151502179055506040820151816001019080519060200190620004e5929190620005e2565b50606082015181600201908051906020019062000504929190620005e2565b50608082015181600301908051906020019062000523929190620005e2565b5060a0820151816004015560c0820151816005015560e082015181600601908051906020019062000556929190620005e2565b5061010082015181600701908051906020019062000576929190620005e2565b5061012082015181600801908051906020019062000596929190620005e2565b50610140820151816009015561016082015181600a015561018082015181600b015550508080620005c79062000ba4565b915050620000ef565b50505050505050505050505062000c99565b828054620005f09062000b6e565b90600052602060002090601f01602090048101928262000614576000855562000660565b82601f106200062f57805160ff191683800117855562000660565b8280016001018555821562000660579182015b828111156200065f57825182559160200191906001019062000642565b5b5090506200066f919062000673565b5090565b5b808211156200068e57600081600090555060010162000674565b5090565b6000620006a9620006a38462000a9d565b62000a69565b9050808382526020820190508260005b85811015620006ed5781518501620006d288826200080b565b845260208401935060208301925050600181019050620006b9565b5050509392505050565b60006200070e620007088462000acc565b62000a69565b905080838252602082019050828560208602820111156200072e57600080fd5b60005b8581101562000762578162000747888262000838565b84526020840193506020830192505060018101905062000731565b5050509392505050565b6000620007836200077d8462000afb565b62000a69565b9050828152602081018484840111156200079c57600080fd5b620007a984828562000b38565b509392505050565b600082601f830112620007c357600080fd5b8151620007d584826020860162000692565b91505092915050565b600082601f830112620007f057600080fd5b815162000802848260208601620006f7565b91505092915050565b600082601f8301126200081d57600080fd5b81516200082f8482602086016200076c565b91505092915050565b600081519050620008498162000c7f565b92915050565b60008060008060008060008060008060006101608c8e0312156200087257600080fd5b60008c015167ffffffffffffffff8111156200088d57600080fd5b6200089b8e828f01620007b1565b9b505060208c015167ffffffffffffffff811115620008b957600080fd5b620008c78e828f01620007b1565b9a505060408c015167ffffffffffffffff811115620008e557600080fd5b620008f38e828f01620007b1565b99505060608c015167ffffffffffffffff8111156200091157600080fd5b6200091f8e828f01620007de565b98505060808c015167ffffffffffffffff8111156200093d57600080fd5b6200094b8e828f01620007de565b97505060a08c015167ffffffffffffffff8111156200096957600080fd5b620009778e828f01620007b1565b96505060c08c015167ffffffffffffffff8111156200099557600080fd5b620009a38e828f01620007b1565b95505060e08c015167ffffffffffffffff811115620009c157600080fd5b620009cf8e828f01620007b1565b9450506101008c015167ffffffffffffffff811115620009ee57600080fd5b620009fc8e828f01620007de565b9350506101208c015167ffffffffffffffff81111562000a1b57600080fd5b62000a298e828f01620007de565b9250506101408c015167ffffffffffffffff81111562000a4857600080fd5b62000a568e828f01620007de565b9150509295989b509295989b9093969950565b6000604051905081810181811067ffffffffffffffff8211171562000a935762000a9262000c50565b5b8060405250919050565b600067ffffffffffffffff82111562000abb5762000aba62000c50565b5b602082029050602081019050919050565b600067ffffffffffffffff82111562000aea5762000ae962000c50565b5b602082029050602081019050919050565b600067ffffffffffffffff82111562000b195762000b1862000c50565b5b601f19601f8301169050602081019050919050565b6000819050919050565b60005b8381101562000b5857808201518184015260208101905062000b3b565b8381111562000b68576000848401525b50505050565b6000600282049050600182168062000b8757607f821691505b6020821081141562000b9e5762000b9d62000c21565b5b50919050565b600062000bb18262000b2e565b91507fffffffffffffffffffffffffffffffffffffffffffffffffffffffffffffffff82141562000be75762000be662000bf2565b5b600182019050919050565b7f4e487b7100000000000000000000000000000000000000000000000000000000600052601160045260246000fd5b7f4e487b7100000000000000000000000000000000000000000000000000000000600052602260045260246000fd5b7f4e487b7100000000000000000000000000000000000000000000000000000000600052604160045260246000fd5b62000c8a8162000b2e565b811462000c9657600080fd5b50565b61446f8062000ca96000396000f3fe6080604052600436106101c25760003560e01c80636cfc0542116100f7578063b8fe6abe11610095578063e985e9c511610064578063e985e9c51461067f578063eb5b6868146106bc578063f40df937146106f9578063fdb205eb14610722576101c2565b8063b8fe6abe146105be578063b9256b1b146105e9578063be9af53614610626578063c87b56dd14610642576101c2565b806383e56dca116100d157806383e56dca1461051657806395d89b4114610541578063a22cb4651461056c578063b88d4fde14610595576101c2565b80636cfc05421461047157806370a082311461049c5780637577e86d146104d9576101c2565b806329aa3a42116101645780636352211e1161013e5780636352211e146103a35780636456152a146103e057806365df8ce71461040957806368baf0a014610434576101c2565b806329aa3a42146103245780633d936d2d1461034f57806342842e0e1461037a576101c2565b8063095ea7b3116101a0578063095ea7b31461026c5780631a9a0428146102955780631bafbaa6146102d257806323b872dd146102fb576101c2565b806301ffc9a7146101c757806306fdde0314610204578063081812fc1461022f575b600080fd5b3480156101d357600080fd5b506101ee60048036038101906101e99190613166565b61075f565b6040516101fb9190613ce2565b60405180910390f35b34801561021057600080fd5b50610219610841565b6040516102269190613cfd565b60405180910390f35b34801561023b57600080fd5b50610256600480360381019061025191906132a1565b6108d3565b6040516102639190613c37565b60405180910390f35b34801561027857600080fd5b50610293600480360381019061028e919061312a565b610958565b005b3480156102a157600080fd5b506102bc60048036038101906102b791906132a1565b610a70565b6040516102c99190613c37565b60405180910390f35b3480156102de57600080fd5b506102f960048036038101906102f491906132a1565b610ab0565b005b34801561030757600080fd5b50610322600480360381019061031d9190613024565b610d9f565b005b34801561033057600080fd5b50610339610dff565b6040516103469190613cc0565b60405180910390f35b34801561035b57600080fd5b50610364610f25565b6040516103719190613f81565b60405180910390f35b34801561038657600080fd5b506103a1600480360381019061039c9190613024565b610f2f565b005b3480156103af57600080fd5b506103ca60048036038101906103c591906132a1565b610f4f565b6040516103d79190613c37565b60405180910390f35b3480156103ec57600080fd5b50610407600480360381019061040291906132ca565b611001565b005b34801561041557600080fd5b5061041e61109a565b60405161042b9190613f81565b60405180910390f35b34801561044057600080fd5b5061045b60048036038101906104569190612fbf565b6110a4565b6040516104689190613cc0565b60405180910390f35b34801561047d57600080fd5b50610486611209565b6040516104939190613cc0565b60405180910390f35b3480156104a857600080fd5b506104c360048036038101906104be9190612fbf565b611321565b6040516104d09190613f81565b60405180910390f35b3480156104e557600080fd5b5061050060048036038101906104fb91906132a1565b6113d9565b60405161050d9190613c9e565b60405180910390f35b34801561052257600080fd5b5061052b611631565b6040516105389190613cfd565b60405180910390f35b34801561054d57600080fd5b506105566116d8565b6040516105639190613cfd565b60405180910390f35b34801561057857600080fd5b50610593600480360381019061058e91906130ee565b61176a565b005b3480156105a157600080fd5b506105bc60048036038101906105b79190613073565b611780565b005b3480156105ca57600080fd5b506105d36117e2565b6040516105e09190613f81565b60405180910390f35b3480156105f557600080fd5b50610610600480360381019061060b91906132a1565b6117ec565b60405161061d9190613f81565b60405180910390f35b610640600480360381019061063b91906132a1565b611809565b005b34801561064e57600080fd5b50610669600480360381019061066491906132a1565b611982565b6040516106769190613cfd565b60405180910390f35b34801561068b57600080fd5b506106a660048036038101906106a19190612fe8565b611a29565b6040516106b39190613ce2565b60405180910390f35b3480156106c857600080fd5b506106e360048036038101906106de91906132a1565b611abd565b6040516106f09190613f5f565b60405180910390f35b34801561070557600080fd5b50610720600480360381019061071b91906131b8565b611da7565b005b34801561072e57600080fd5b50610749600480360381019061074491906132a1565b611f1a565b6040516107569190613cc0565b60405180910390f35b60007f80ac58cd000000000000000000000000000000000000000000000000000000007bffffffffffffffffffffffffffffffffffffffffffffffffffffffff1916827bffffffffffffffffffffffffffffffffffffffffffffffffffffffff1916148061082a57507f5b5e139f000000000000000000000000000000000000000000000000000000007bffffffffffffffffffffffffffffffffffffffffffffffffffffffff1916827bffffffffffffffffffffffffffffffffffffffffffffffffffffffff1916145b8061083a57506108398261205f565b5b9050919050565b60606000805461085090614264565b80601f016020809104026020016040519081016040528092919081815260200182805461087c90614264565b80156108c95780601f1061089e576101008083540402835291602001916108c9565b820191906000526020600020905b8154815290600101906020018083116108ac57829003601f168201915b5050505050905090565b60006108de826120c9565b61091d576040517f08c379a000000000000000000000000000000000000000000000000000000000815260040161091490613ebf565b60405180910390fd5b6004600083815260200190815260200160002060009054906101000a900473ffffffffffffffffffffffffffffffffffffffff169050919050565b600061096382610f4f565b90508073ffffffffffffffffffffffffffffffffffffffff168373ffffffffffffffffffffffffffffffffffffffff1614156109d4576040517f08c379a00000000000000000000000000000000000000000000000000000000081526004016109cb90613eff565b60405180910390fd5b8073ffffffffffffffffffffffffffffffffffffffff166109f3612135565b73ffffffffffffffffffffffffffffffffffffffff161480610a225750610a2181610a1c612135565b611a29565b5b610a61576040517f08c379a0000000000000000000000000000000000000000000000000000000008152600401610a5890613e3f565b60405180910390fd5b610a6b838361213d565b505050565b6000600a600083815260200190815260200160002060000160009054906101000a900473ffffffffffffffffffffffffffffffffffffffff169050919050565b6000811015610af4576040517f08c379a0000000000000000000000000000000000000000000000000000000008152600401610aeb90613f1f565b60405180910390fd5b600c805490508110610b3b576040517f08c379a0000000000000000000000000000000000000000000000000000000008152600401610b3290613dff565b60405180910390fd5b60086000815480929190610b4e90614296565b9190505550600c8181548110610b8d577f4e487b7100000000000000000000000000000000000000000000000000000000600052603260045260246000fd5b90600052602060002090600c0201600a600060085481526020019081526020016000206000820160009054906101000a900473ffffffffffffffffffffffffffffffffffffffff168160000160006101000a81548173ffffffffffffffffffffffffffffffffffffffff021916908373ffffffffffffffffffffffffffffffffffffffff1602179055506000820160149054906101000a900460ff168160000160146101000a81548160ff0219169083151502179055506001820181600101908054610c5890614264565b610c63929190612cfb565b506002820181600201908054610c7890614264565b610c83929190612cfb565b506003820181600301908054610c9890614264565b610ca3929190612cfb565b5060048201548160040155600582015481600501556006820181600601908054610ccc90614264565b610cd7929190612cfb565b506007820181600701908054610cec90614264565b610cf7929190612cfb565b506008820181600801908054610d0c90614264565b610d17929190612cfb565b5060098201548160090155600a82015481600a0155600b82015481600b015590505033600a6000600854815260200190815260200160002060000160006101000a81548173ffffffffffffffffffffffffffffffffffffffff021916908373ffffffffffffffffffffffffffffffffffffffff160217905550610d9c336008546121f6565b50565b610db0610daa612135565b82612214565b610def576040517f08c379a0000000000000000000000000000000000000000000000000000000008152600401610de690613f3f565b60405180910390fd5b610dfa8383836122f2565b505050565b606060008060085467ffffffffffffffff811115610e46577f4e487b7100000000000000000000000000000000000000000000000000000000600052604160045260246000fd5b604051908082528060200260200182016040528015610e745781602001602082028036833780820191505090505b50905060005b600854811015610f1c5760011515600a600083815260200190815260200160002060000160149054906101000a900460ff1615151415610f095780828481518110610eee577f4e487b7100000000000000000000000000000000000000000000000000000000600052603260045260246000fd5b6020026020010181815250508280610f0590614296565b9350505b8080610f1490614296565b915050610e7a565b50809250505090565b6000600754905090565b610f4a83838360405180602001604052806000815250611780565b505050565b6000806002600084815260200190815260200160002060009054906101000a900473ffffffffffffffffffffffffffffffffffffffff169050600073ffffffffffffffffffffffffffffffffffffffff168173ffffffffffffffffffffffffffffffffffffffff161415610ff8576040517f08c379a0000000000000000000000000000000000000000000000000000000008152600401610fef90613e7f565b60405180910390fd5b80915050919050565b60008111611044576040517f08c379a000000000000000000000000000000000000000000000000000000000815260040161103b90613d7f565b60405180910390fd5b80600b6000848152602001908152602001600020819055506001600a600084815260200190815260200160002060000160146101000a81548160ff0219169083151502179055506110963330846122f2565b5050565b6000600854905090565b606060008060085467ffffffffffffffff8111156110eb577f4e487b7100000000000000000000000000000000000000000000000000000000600052604160045260246000fd5b6040519080825280602002602001820160405280156111195781602001602082028036833780820191505090505b5090506000600190505b60085481116111fe578473ffffffffffffffffffffffffffffffffffffffff16600a600083815260200190815260200160002060000160009054906101000a900473ffffffffffffffffffffffffffffffffffffffff1673ffffffffffffffffffffffffffffffffffffffff1614156111eb57808284815181106111d0577f4e487b7100000000000000000000000000000000000000000000000000000000600052603260045260246000fd5b60200260200101818152505082806111e790614296565b9350505b80806111f690614296565b915050611123565b508092505050919050565b606060008060085467ffffffffffffffff811115611250577f4e487b7100000000000000000000000000000000000000000000000000000000600052604160045260246000fd5b60405190808252806020026020018201604052801561127e5781602001602082028036833780820191505090505b5090506000600190505b60085481116113185760006009600083815260200190815260200160002060050154111561130557808284815181106112ea577f4e487b7100000000000000000000000000000000000000000000000000000000600052603260045260246000fd5b602002602001018181525050828061130190614296565b9350505b808061131090614296565b915050611288565b50809250505090565b60008073ffffffffffffffffffffffffffffffffffffffff168273ffffffffffffffffffffffffffffffffffffffff161415611392576040517f08c379a000000000000000000000000000000000000000000000000000000000815260040161138990613e5f565b60405180910390fd5b600360008373ffffffffffffffffffffffffffffffffffffffff1673ffffffffffffffffffffffffffffffffffffffff168152602001908152602001600020549050919050565b60606000600467ffffffffffffffff81111561141e577f4e487b7100000000000000000000000000000000000000000000000000000000600052604160045260246000fd5b60405190808252806020026020018201604052801561145157816020015b606081526020019060019003908161143c5790505b5090506000600a6000858152602001908152602001600020600301805461147790614264565b80601f01602080910402602001604051908101604052809291908181526020018280546114a390614264565b80156114f05780601f106114c5576101008083540402835291602001916114f0565b820191906000526020600020905b8154815290600101906020018083116114d357829003601f168201915b505050505090506000600a6000868152602001908152602001600020600101805461151a90614264565b80601f016020809104026020016040519081016040528092919081815260200182805461154690614264565b80156115935780601f1061156857610100808354040283529160200191611593565b820191906000526020600020905b81548152906001019060200180831161157657829003601f168201915b5050505050905081836000815181106115d5577f4e487b7100000000000000000000000000000000000000000000000000000000600052603260045260246000fd5b6020026020010181905250808360018151811061161b577f4e487b7100000000000000000000000000000000000000000000000000000000600052603260045260246000fd5b6020026020010181905250829350505050919050565b6060600a600060018152602001908152602001600020600101805461165590614264565b80601f016020809104026020016040519081016040528092919081815260200182805461168190614264565b80156116ce5780601f106116a3576101008083540402835291602001916116ce565b820191906000526020600020905b8154815290600101906020018083116116b157829003601f168201915b5050505050905090565b6060600180546116e790614264565b80601f016020809104026020016040519081016040528092919081815260200182805461171390614264565b80156117605780601f1061173557610100808354040283529160200191611760565b820191906000526020600020905b81548152906001019060200180831161174357829003601f168201915b5050505050905090565b61177c611775612135565b8383612559565b5050565b61179161178b612135565b83612214565b6117d0576040517f08c379a00000000000000000000000000000000000000000000000000000000081526004016117c790613f3f565b60405180910390fd5b6117dc848484846126c6565b50505050565b6000600654905090565b6000600b6000838152602001908152602001600020549050919050565b60011515600a600083815260200190815260200160002060000160149054906101000a900460ff16151514611873576040517f08c379a000000000000000000000000000000000000000000000000000000000815260040161186a90613ddf565b60405180910390fd5b600a600082815260200190815260200160002060000160009054906101000a900473ffffffffffffffffffffffffffffffffffffffff1673ffffffffffffffffffffffffffffffffffffffff166108fc349081150290604051600060405180830381858888f193505050501580156118ef573d6000803e3d6000fd5b5033600a600083815260200190815260200160002060000160006101000a81548173ffffffffffffffffffffffffffffffffffffffff021916908373ffffffffffffffffffffffffffffffffffffffff1602179055506000600a600083815260200190815260200160002060000160146101000a81548160ff02191690831515021790555061197f3033836122f2565b50565b606061198d826120c9565b6119cc576040517f08c379a00000000000000000000000000000000000000000000000000000000081526004016119c390613edf565b60405180910390fd5b60006119d6612722565b905060008151116119f65760405180602001604052806000815250611a21565b80611a0084612739565b604051602001611a11929190613c13565b6040516020818303038152906040525b915050919050565b6000600560008473ffffffffffffffffffffffffffffffffffffffff1673ffffffffffffffffffffffffffffffffffffffff16815260200190815260200160002060008373ffffffffffffffffffffffffffffffffffffffff1673ffffffffffffffffffffffffffffffffffffffff16815260200190815260200160002060009054906101000a900460ff16905092915050565b611ac5612d88565b60096000838152602001908152602001600020604051806101000160405290816000820160009054906101000a900473ffffffffffffffffffffffffffffffffffffffff1673ffffffffffffffffffffffffffffffffffffffff1673ffffffffffffffffffffffffffffffffffffffff168152602001600182018054611b4a90614264565b80601f0160208091040260200160405190810160405280929190818152602001828054611b7690614264565b8015611bc35780601f10611b9857610100808354040283529160200191611bc3565b820191906000526020600020905b815481529060010190602001808311611ba657829003601f168201915b50505050508152602001600282018054611bdc90614264565b80601f0160208091040260200160405190810160405280929190818152602001828054611c0890614264565b8015611c555780601f10611c2a57610100808354040283529160200191611c55565b820191906000526020600020905b815481529060010190602001808311611c3857829003601f168201915b50505050508152602001600382018054611c6e90614264565b80601f0160208091040260200160405190810160405280929190818152602001828054611c9a90614264565b8015611ce75780601f10611cbc57610100808354040283529160200191611ce7565b820191906000526020600020905b815481529060010190602001808311611cca57829003601f168201915b50505050508152602001600482018054611d0090614264565b80601f0160208091040260200160405190810160405280929190818152602001828054611d2c90614264565b8015611d795780601f10611d4e57610100808354040283529160200191611d79565b820191906000526020600020905b815481529060010190602001808311611d5c57829003601f168201915b5050505050815260200160058201548152602001600682015481526020016007820154815250509050919050565b60086000815480929190611dba90614296565b9190505550600060085490506040518061010001604052803373ffffffffffffffffffffffffffffffffffffffff168152602001888152602001878152602001858152602001838152602001848152602001848152602001868152506009600083815260200190815260200160002060008201518160000160006101000a81548173ffffffffffffffffffffffffffffffffffffffff021916908373ffffffffffffffffffffffffffffffffffffffff1602179055506020820151816001019080519060200190611e8c929190612de3565b506040820151816002019080519060200190611ea9929190612de3565b506060820151816003019080519060200190611ec6929190612de3565b506080820151816004019080519060200190611ee3929190612de3565b5060a0820151816005015560c0820151816006015560e08201518160070155905050611f11336008546121f6565b50505050505050565b60606000600267ffffffffffffffff811115611f5f577f4e487b7100000000000000000000000000000000000000000000000000000000600052604160045260246000fd5b604051908082528060200260200182016040528015611f8d5781602001602082028036833780820191505090505b5090506000600a60008581526020019081526020016000206004015490506000600a60008681526020019081526020016000206005015490508183600081518110612001577f4e487b7100000000000000000000000000000000000000000000000000000000600052603260045260246000fd5b6020026020010181815250508083600181518110612048577f4e487b7100000000000000000000000000000000000000000000000000000000600052603260045260246000fd5b602002602001018181525050829350505050919050565b60007f01ffc9a7000000000000000000000000000000000000000000000000000000007bffffffffffffffffffffffffffffffffffffffffffffffffffffffff1916827bffffffffffffffffffffffffffffffffffffffffffffffffffffffff1916149050919050565b60008073ffffffffffffffffffffffffffffffffffffffff166002600084815260200190815260200160002060009054906101000a900473ffffffffffffffffffffffffffffffffffffffff1673ffffffffffffffffffffffffffffffffffffffff1614159050919050565b600033905090565b816004600083815260200190815260200160002060006101000a81548173ffffffffffffffffffffffffffffffffffffffff021916908373ffffffffffffffffffffffffffffffffffffffff160217905550808273ffffffffffffffffffffffffffffffffffffffff166121b083610f4f565b73ffffffffffffffffffffffffffffffffffffffff167f8c5be1e5ebec7d5bd14f71427d1e84f3dd0314c0f7b2291e5b200ac8c7c3b92560405160405180910390a45050565b6122108282604051806020016040528060008152506128e6565b5050565b600061221f826120c9565b61225e576040517f08c379a000000000000000000000000000000000000000000000000000000000815260040161225590613e1f565b60405180910390fd5b600061226983610f4f565b90508073ffffffffffffffffffffffffffffffffffffffff168473ffffffffffffffffffffffffffffffffffffffff1614806122ab57506122aa8185611a29565b5b806122e957508373ffffffffffffffffffffffffffffffffffffffff166122d1846108d3565b73ffffffffffffffffffffffffffffffffffffffff16145b91505092915050565b8273ffffffffffffffffffffffffffffffffffffffff1661231282610f4f565b73ffffffffffffffffffffffffffffffffffffffff1614612368576040517f08c379a000000000000000000000000000000000000000000000000000000000815260040161235f90613d3f565b60405180910390fd5b600073ffffffffffffffffffffffffffffffffffffffff168273ffffffffffffffffffffffffffffffffffffffff1614156123d8576040517f08c379a00000000000000000000000000000000000000000000000000000000081526004016123cf90613d9f565b60405180910390fd5b6123e3838383612941565b6123ee60008261213d565b6001600360008573ffffffffffffffffffffffffffffffffffffffff1673ffffffffffffffffffffffffffffffffffffffff168152602001908152602001600020600082825461243e919061417a565b925050819055506001600360008473ffffffffffffffffffffffffffffffffffffffff1673ffffffffffffffffffffffffffffffffffffffff168152602001908152602001600020600082825461249591906140f3565b92505081905550816002600083815260200190815260200160002060006101000a81548173ffffffffffffffffffffffffffffffffffffffff021916908373ffffffffffffffffffffffffffffffffffffffff160217905550808273ffffffffffffffffffffffffffffffffffffffff168473ffffffffffffffffffffffffffffffffffffffff167fddf252ad1be2c89b69c2b068fc378daa952ba7f163c4a11628f55a4df523b3ef60405160405180910390a4612554838383612946565b505050565b8173ffffffffffffffffffffffffffffffffffffffff168373ffffffffffffffffffffffffffffffffffffffff1614156125c8576040517f08c379a00000000000000000000000000000000000000000000000000000000081526004016125bf90613dbf565b60405180910390fd5b80600560008573ffffffffffffffffffffffffffffffffffffffff1673ffffffffffffffffffffffffffffffffffffffff16815260200190815260200160002060008473ffffffffffffffffffffffffffffffffffffffff1673ffffffffffffffffffffffffffffffffffffffff16815260200190815260200160002060006101000a81548160ff0219169083151502179055508173ffffffffffffffffffffffffffffffffffffffff168373ffffffffffffffffffffffffffffffffffffffff167f17307eab39ab6107e8899845ad3d59bd9653f200f220920489ca2b5937696c31836040516126b99190613ce2565b60405180910390a3505050565b6126d18484846122f2565b6126dd8484848461294b565b61271c576040517f08c379a000000000000000000000000000000000000000000000000000000000815260040161271390613d1f565b60405180910390fd5b50505050565b606060405180602001604052806000815250905090565b60606000821415612781576040518060400160405280600181526020017f300000000000000000000000000000000000000000000000000000000000000081525090506128e1565b600082905060005b600082146127b357808061279c90614296565b915050600a826127ac9190614149565b9150612789565b60008167ffffffffffffffff8111156127f5577f4e487b7100000000000000000000000000000000000000000000000000000000600052604160045260246000fd5b6040519080825280601f01601f1916602001820160405280156128275781602001600182028036833780820191505090505b5090505b600085146128da57600182612840919061417a565b9150600a8561284f91906142df565b603061285b91906140f3565b60f81b818381518110612897577f4e487b7100000000000000000000000000000000000000000000000000000000600052603260045260246000fd5b60200101907effffffffffffffffffffffffffffffffffffffffffffffffffffffffffffff1916908160001a905350600a856128d39190614149565b945061282b565b8093505050505b919050565b6128f08383612ae2565b6128fd600084848461294b565b61293c576040517f08c379a000000000000000000000000000000000000000000000000000000000815260040161293390613d1f565b60405180910390fd5b505050565b505050565b505050565b600061296c8473ffffffffffffffffffffffffffffffffffffffff16612cbc565b15612ad5578373ffffffffffffffffffffffffffffffffffffffff1663150b7a02612995612135565b8786866040518563ffffffff1660e01b81526004016129b79493929190613c52565b602060405180830381600087803b1580156129d157600080fd5b505af1925050508015612a0257506040513d601f19601f820116820180604052508101906129ff919061318f565b60015b612a85573d8060008114612a32576040519150601f19603f3d011682016040523d82523d6000602084013e612a37565b606091505b50600081511415612a7d576040517f08c379a0000000000000000000000000000000000000000000000000000000008152600401612a7490613d1f565b60405180910390fd5b805181602001fd5b63150b7a0260e01b7bffffffffffffffffffffffffffffffffffffffffffffffffffffffff1916817bffffffffffffffffffffffffffffffffffffffffffffffffffffffff191614915050612ada565b600190505b949350505050565b600073ffffffffffffffffffffffffffffffffffffffff168273ffffffffffffffffffffffffffffffffffffffff161415612b52576040517f08c379a0000000000000000000000000000000000000000000000000000000008152600401612b4990613e9f565b60405180910390fd5b612b5b816120c9565b15612b9b576040517f08c379a0000000000000000000000000000000000000000000000000000000008152600401612b9290613d5f565b60405180910390fd5b612ba760008383612941565b6001600360008473ffffffffffffffffffffffffffffffffffffffff1673ffffffffffffffffffffffffffffffffffffffff1681526020019081526020016000206000828254612bf791906140f3565b92505081905550816002600083815260200190815260200160002060006101000a81548173ffffffffffffffffffffffffffffffffffffffff021916908373ffffffffffffffffffffffffffffffffffffffff160217905550808273ffffffffffffffffffffffffffffffffffffffff16600073ffffffffffffffffffffffffffffffffffffffff167fddf252ad1be2c89b69c2b068fc378daa952ba7f163c4a11628f55a4df523b3ef60405160405180910390a4612cb860008383612946565b5050565b6000808273ffffffffffffffffffffffffffffffffffffffff16803b806020016040519081016040528181526000908060200190933c51119050919050565b828054612d0790614264565b90600052602060002090601f016020900481019282612d295760008555612d77565b82601f10612d3a5780548555612d77565b82800160010185558215612d7757600052602060002091601f016020900482015b82811115612d76578254825591600101919060010190612d5b565b5b509050612d849190612e69565b5090565b604051806101000160405280600073ffffffffffffffffffffffffffffffffffffffff168152602001606081526020016060815260200160608152602001606081526020016000815260200160008152602001600081525090565b828054612def90614264565b90600052602060002090601f016020900481019282612e115760008555612e58565b82601f10612e2a57805160ff1916838001178555612e58565b82800160010185558215612e58579182015b82811115612e57578251825591602001919060010190612e3c565b5b509050612e659190612e69565b5090565b5b80821115612e82576000816000905550600101612e6a565b5090565b6000612e99612e9484613fcd565b613f9c565b905082815260208101848484011115612eb157600080fd5b612ebc848285614222565b509392505050565b6000612ed7612ed284613ffd565b613f9c565b905082815260208101848484011115612eef57600080fd5b612efa848285614222565b509392505050565b600081359050612f11816143dd565b92915050565b600081359050612f26816143f4565b92915050565b600081359050612f3b8161440b565b92915050565b600081519050612f508161440b565b92915050565b600082601f830112612f6757600080fd5b8135612f77848260208601612e86565b91505092915050565b600082601f830112612f9157600080fd5b8135612fa1848260208601612ec4565b91505092915050565b600081359050612fb981614422565b92915050565b600060208284031215612fd157600080fd5b6000612fdf84828501612f02565b91505092915050565b60008060408385031215612ffb57600080fd5b600061300985828601612f02565b925050602061301a85828601612f02565b9150509250929050565b60008060006060848603121561303957600080fd5b600061304786828701612f02565b935050602061305886828701612f02565b925050604061306986828701612faa565b9150509250925092565b6000806000806080858703121561308957600080fd5b600061309787828801612f02565b94505060206130a887828801612f02565b93505060406130b987828801612faa565b925050606085013567ffffffffffffffff8111156130d657600080fd5b6130e287828801612f56565b91505092959194509250565b6000806040838503121561310157600080fd5b600061310f85828601612f02565b925050602061312085828601612f17565b9150509250929050565b6000806040838503121561313d57600080fd5b600061314b85828601612f02565b925050602061315c85828601612faa565b9150509250929050565b60006020828403121561317857600080fd5b600061318684828501612f2c565b91505092915050565b6000602082840312156131a157600080fd5b60006131af84828501612f41565b91505092915050565b60008060008060008060c087890312156131d157600080fd5b600087013567ffffffffffffffff8111156131eb57600080fd5b6131f789828a01612f80565b965050602087013567ffffffffffffffff81111561321457600080fd5b61322089828a01612f80565b955050604061323189828a01612faa565b945050606087013567ffffffffffffffff81111561324e57600080fd5b61325a89828a01612f80565b935050608061326b89828a01612faa565b92505060a087013567ffffffffffffffff81111561328857600080fd5b61329489828a01612f80565b9150509295509295509295565b6000602082840312156132b357600080fd5b60006132c184828501612faa565b91505092915050565b600080604083850312156132dd57600080fd5b60006132eb85828601612faa565b92505060206132fc85828601612faa565b9150509250929050565b6000613312838361346b565b905092915050565b60006133268383613bf5565b60208301905092915050565b61333b816141ae565b82525050565b61334a816141ae565b82525050565b600061335b8261404d565b6133658185614093565b9350836020820285016133778561402d565b8060005b858110156133b357848403895281516133948582613306565b945061339f83614079565b925060208a0199505060018101905061337b565b50829750879550505050505092915050565b60006133d082614058565b6133da81856140a4565b93506133e58361403d565b8060005b838110156134165781516133fd888261331a565b975061340883614086565b9250506001810190506133e9565b5085935050505092915050565b61342c816141c0565b82525050565b600061343d82614063565b61344781856140b5565b9350613457818560208601614231565b613460816143cc565b840191505092915050565b60006134768261406e565b61348081856140c6565b9350613490818560208601614231565b613499816143cc565b840191505092915050565b60006134af8261406e565b6134b981856140d7565b93506134c9818560208601614231565b6134d2816143cc565b840191505092915050565b60006134e88261406e565b6134f281856140e8565b9350613502818560208601614231565b80840191505092915050565b600061351b6032836140d7565b91507f4552433732313a207472616e7366657220746f206e6f6e20455243373231526560008301527f63656976657220696d706c656d656e74657200000000000000000000000000006020830152604082019050919050565b60006135816025836140d7565b91507f4552433732313a207472616e736665722066726f6d20696e636f72726563742060008301527f6f776e65720000000000000000000000000000000000000000000000000000006020830152604082019050919050565b60006135e7601c836140d7565b91507f4552433732313a20746f6b656e20616c7265616479206d696e746564000000006000830152602082019050919050565b60006136276010836140d7565b91507f50726963652063616e27742062652030000000000000000000000000000000006000830152602082019050919050565b60006136676024836140d7565b91507f4552433732313a207472616e7366657220746f20746865207a65726f2061646460008301527f72657373000000000000000000000000000000000000000000000000000000006020830152604082019050919050565b60006136cd6019836140d7565b91507f4552433732313a20617070726f766520746f2063616c6c6572000000000000006000830152602082019050919050565b600061370d6019836140d7565b91507f54686973206974656d206973206e6f7420666f722073616c65000000000000006000830152602082019050919050565b600061374d600f836140d7565b91507f494420697320746f6f206c6172676500000000000000000000000000000000006000830152602082019050919050565b600061378d602c836140d7565b91507f4552433732313a206f70657261746f7220717565727920666f72206e6f6e657860008301527f697374656e7420746f6b656e00000000000000000000000000000000000000006020830152604082019050919050565b60006137f36038836140d7565b91507f4552433732313a20617070726f76652063616c6c6572206973206e6f74206f7760008301527f6e6572206e6f7220617070726f76656420666f7220616c6c00000000000000006020830152604082019050919050565b6000613859602a836140d7565b91507f4552433732313a2062616c616e636520717565727920666f7220746865207a6560008301527f726f2061646472657373000000000000000000000000000000000000000000006020830152604082019050919050565b60006138bf6029836140d7565b91507f4552433732313a206f776e657220717565727920666f72206e6f6e657869737460008301527f656e7420746f6b656e00000000000000000000000000000000000000000000006020830152604082019050919050565b60006139256020836140d7565b91507f4552433732313a206d696e7420746f20746865207a65726f20616464726573736000830152602082019050919050565b6000613965602c836140d7565b91507f4552433732313a20617070726f76656420717565727920666f72206e6f6e657860008301527f697374656e7420746f6b656e00000000000000000000000000000000000000006020830152604082019050919050565b60006139cb602f836140d7565b91507f4552433732314d657461646174613a2055524920717565727920666f72206e6f60008301527f6e6578697374656e7420746f6b656e00000000000000000000000000000000006020830152604082019050919050565b6000613a316021836140d7565b91507f4552433732313a20617070726f76616c20746f2063757272656e74206f776e6560008301527f72000000000000000000000000000000000000000000000000000000000000006020830152604082019050919050565b6000613a976011836140d7565b91507f4d757374207573652076616c69642049440000000000000000000000000000006000830152602082019050919050565b6000613ad76031836140d7565b91507f4552433732313a207472616e736665722063616c6c6572206973206e6f74206f60008301527f776e6572206e6f7220617070726f7665640000000000000000000000000000006020830152604082019050919050565b600061010083016000830151613b496000860182613332565b5060208301518482036020860152613b61828261346b565b91505060408301518482036040860152613b7b828261346b565b91505060608301518482036060860152613b95828261346b565b91505060808301518482036080860152613baf828261346b565b91505060a0830151613bc460a0860182613bf5565b5060c0830151613bd760c0860182613bf5565b5060e0830151613bea60e0860182613bf5565b508091505092915050565b613bfe81614218565b82525050565b613c0d81614218565b82525050565b6000613c1f82856134dd565b9150613c2b82846134dd565b91508190509392505050565b6000602082019050613c4c6000830184613341565b92915050565b6000608082019050613c676000830187613341565b613c746020830186613341565b613c816040830185613c04565b8181036060830152613c938184613432565b905095945050505050565b60006020820190508181036000830152613cb88184613350565b905092915050565b60006020820190508181036000830152613cda81846133c5565b905092915050565b6000602082019050613cf76000830184613423565b92915050565b60006020820190508181036000830152613d1781846134a4565b905092915050565b60006020820190508181036000830152613d388161350e565b9050919050565b60006020820190508181036000830152613d5881613574565b9050919050565b60006020820190508181036000830152613d78816135da565b9050919050565b60006020820190508181036000830152613d988161361a565b9050919050565b60006020820190508181036000830152613db88161365a565b9050919050565b60006020820190508181036000830152613dd8816136c0565b9050919050565b60006020820190508181036000830152613df881613700565b9050919050565b60006020820190508181036000830152613e1881613740565b9050919050565b60006020820190508181036000830152613e3881613780565b9050919050565b60006020820190508181036000830152613e58816137e6565b9050919050565b60006020820190508181036000830152613e788161384c565b9050919050565b60006020820190508181036000830152613e98816138b2565b9050919050565b60006020820190508181036000830152613eb881613918565b9050919050565b60006020820190508181036000830152613ed881613958565b9050919050565b60006020820190508181036000830152613ef8816139be565b9050919050565b60006020820190508181036000830152613f1881613a24565b9050919050565b60006020820190508181036000830152613f3881613a8a565b9050919050565b60006020820190508181036000830152613f5881613aca565b9050919050565b60006020820190508181036000830152613f798184613b30565b905092915050565b6000602082019050613f966000830184613c04565b92915050565b6000604051905081810181811067ffffffffffffffff82111715613fc357613fc261439d565b5b8060405250919050565b600067ffffffffffffffff821115613fe857613fe761439d565b5b601f19601f8301169050602081019050919050565b600067ffffffffffffffff8211156140185761401761439d565b5b601f19601f8301169050602081019050919050565b6000819050602082019050919050565b6000819050602082019050919050565b600081519050919050565b600081519050919050565b600081519050919050565b600081519050919050565b6000602082019050919050565b6000602082019050919050565b600082825260208201905092915050565b600082825260208201905092915050565b600082825260208201905092915050565b600082825260208201905092915050565b600082825260208201905092915050565b600081905092915050565b60006140fe82614218565b915061410983614218565b9250827fffffffffffffffffffffffffffffffffffffffffffffffffffffffffffffffff0382111561413e5761413d614310565b5b828201905092915050565b600061415482614218565b915061415f83614218565b92508261416f5761416e61433f565b5b828204905092915050565b600061418582614218565b915061419083614218565b9250828210156141a3576141a2614310565b5b828203905092915050565b60006141b9826141f8565b9050919050565b60008115159050919050565b60007fffffffff0000000000000000000000000000000000000000000000000000000082169050919050565b600073ffffffffffffffffffffffffffffffffffffffff82169050919050565b6000819050919050565b82818337600083830152505050565b60005b8381101561424f578082015181840152602081019050614234565b8381111561425e576000848401525b50505050565b6000600282049050600182168061427c57607f821691505b602082108114156142905761428f61436e565b5b50919050565b60006142a182614218565b91507fffffffffffffffffffffffffffffffffffffffffffffffffffffffffffffffff8214156142d4576142d3614310565b5b600182019050919050565b60006142ea82614218565b91506142f583614218565b9250826143055761430461433f565b5b828206905092915050565b7f4e487b7100000000000000000000000000000000000000000000000000000000600052601160045260246000fd5b7f4e487b7100000000000000000000000000000000000000000000000000000000600052601260045260246000fd5b7f4e487b7100000000000000000000000000000000000000000000000000000000600052602260045260246000fd5b7f4e487b7100000000000000000000000000000000000000000000000000000000600052604160045260246000fd5b6000601f19601f8301169050919050565b6143e6816141ae565b81146143f157600080fd5b50565b6143fd816141c0565b811461440857600080fd5b50565b614414816141cc565b811461441f57600080fd5b50565b61442b81614218565b811461443657600080fd5b5056fea26469706673582212207e747681eaee9b900d9a6067c02e668f757326c1d08bf5ced270fe5af009316964736f6c63430008000033",
  "linkReferences": {},
  "deployedLinkReferences": {}
}