{
  "_format": "hh-sol-artifact-1",
  "contractName": "BillionaireBattles",
  "sourceName": "contracts/BillionaireBattles.sol",
  "abi": [
    {
      "inputs": [
        {
          "internalType": "string[]",
          "name": "names",
          "type": "string[]"
        },
        {
          "internalType": "string[]",
          "name": "descriptions",
          "type": "string[]"
        },
        {
          "internalType": "string[]",
          "name": "images",
          "type": "string[]"
        },
        {
          "internalType": "uint256[]",
          "name": "healths",
          "type": "uint256[]"
        },
        {
          "internalType": "uint256[]",
          "name": "maxHealths",
          "type": "uint256[]"
        },
        {
          "internalType": "string[]",
          "name": "attack1Names",
          "type": "string[]"
        },
        {
          "internalType": "string[]",
          "name": "attack2Names",
          "type": "string[]"
        },
        {
          "internalType": "string[]",
          "name": "attack3Names",
          "type": "string[]"
        },
        {
          "internalType": "uint256[]",
          "name": "attack1Damages",
          "type": "uint256[]"
        },
        {
          "internalType": "uint256[]",
          "name": "attack2Damages",
          "type": "uint256[]"
        },
        {
          "internalType": "uint256[]",
          "name": "attack3Damages",
          "type": "uint256[]"
        }
      ],
      "stateMutability": "nonpayable",
      "type": "constructor"
    },
    {
      "anonymous": false,
      "inputs": [
        {
          "indexed": true,
          "internalType": "address",
          "name": "owner",
          "type": "address"
        },
        {
          "indexed": true,
          "internalType": "address",
          "name": "approved",
          "type": "address"
        },
        {
          "indexed": true,
          "internalType": "uint256",
          "name": "tokenId",
          "type": "uint256"
        }
      ],
      "name": "Approval",
      "type": "event"
    },
    {
      "anonymous": false,
      "inputs": [
        {
          "indexed": true,
          "internalType": "address",
          "name": "owner",
          "type": "address"
        },
        {
          "indexed": true,
          "internalType": "address",
          "name": "operator",
          "type": "address"
        },
        {
          "indexed": false,
          "internalType": "bool",
          "name": "approved",
          "type": "bool"
        }
      ],
      "name": "ApprovalForAll",
      "type": "event"
    },
    {
      "anonymous": false,
      "inputs": [
        {
          "indexed": true,
          "internalType": "address",
          "name": "from",
          "type": "address"
        },
        {
          "indexed": true,
          "internalType": "address",
          "name": "to",
          "type": "address"
        },
        {
          "indexed": true,
          "internalType": "uint256",
          "name": "tokenId",
          "type": "uint256"
        }
      ],
      "name": "Transfer",
      "type": "event"
    },
    {
      "inputs": [
        {
          "internalType": "address",
          "name": "to",
          "type": "address"
        },
        {
          "internalType": "uint256",
          "name": "tokenId",
          "type": "uint256"
        }
      ],
      "name": "approve",
      "outputs": [],
      "stateMutability": "nonpayable",
      "type": "function"
    },
    {
      "inputs": [
        {
          "internalType": "address",
          "name": "owner",
          "type": "address"
        }
      ],
      "name": "balanceOf",
      "outputs": [
        {
          "internalType": "uint256",
          "name": "",
          "type": "uint256"
        }
      ],
      "stateMutability": "view",
      "type": "function"
    },
    {
      "inputs": [
        {
          "internalType": "uint256",
          "name": "tokenId",
          "type": "uint256"
        },
        {
          "internalType": "uint256",
          "name": "price",
          "type": "uint256"
        }
      ],
      "name": "createMarketListing",
      "outputs": [],
      "stateMutability": "nonpayable",
      "type": "function"
    },
    {
      "inputs": [
        {
          "internalType": "uint256",
          "name": "tokenId",
          "type": "uint256"
        }
      ],
      "name": "createMarketSale",
      "outputs": [],
      "stateMutability": "payable",
      "type": "function"
    },
    {
      "inputs": [],
      "name": "getAllCharacters",
      "outputs": [
        {
          "internalType": "string",
          "name": "",
          "type": "string"
        }
      ],
      "stateMutability": "view",
      "type": "function"
    },
    {
      "inputs": [
        {
          "internalType": "uint256",
          "name": "tokenId",
          "type": "uint256"
        }
      ],
      "name": "getApproved",
      "outputs": [
        {
          "internalType": "address",
          "name": "",
          "type": "address"
        }
      ],
      "stateMutability": "view",
      "type": "function"
    },
    {
      "inputs": [],
      "name": "getBossIds",
      "outputs": [
        {
          "internalType": "uint256[]",
          "name": "ids",
          "type": "uint256[]"
        }
      ],
      "stateMutability": "view",
      "type": "function"
    },
    {
      "inputs": [
        {
          "internalType": "uint256",
          "name": "id",
          "type": "uint256"
        }
      ],
      "name": "getBossStringDataById",
      "outputs": [
        {
          "components": [
            {
              "internalType": "address",
              "name": "owner",
              "type": "address"
            },
            {
              "internalType": "string",
              "name": "name",
              "type": "string"
            },
            {
              "internalType": "string",
              "name": "description",
              "type": "string"
            },
            {
              "internalType": "string",
              "name": "image",
              "type": "string"
            },
            {
              "internalType": "string",
              "name": "attackName",
              "type": "string"
            },
            {
              "internalType": "uint256",
              "name": "health",
              "type": "uint256"
            },
            {
              "internalType": "uint256",
              "name": "maxHealth",
              "type": "uint256"
            },
            {
              "internalType": "uint256",
              "name": "attackDamage",
              "type": "uint256"
            }
          ],
          "internalType": "struct BillionaireBattles.boss",
          "name": "current",
          "type": "tuple"
        }
      ],
      "stateMutability": "view",
      "type": "function"
    },
    {
      "inputs": [
        {
          "internalType": "uint256",
          "name": "id",
          "type": "uint256"
        }
      ],
      "name": "getCharacterById",
      "outputs": [
        {
          "components": [
            {
              "internalType": "address",
              "name": "owner",
              "type": "address"
            },
            {
              "internalType": "bool",
              "name": "isBeingSold",
              "type": "bool"
            },
            {
              "internalType": "string",
              "name": "name",
              "type": "string"
            },
            {
              "internalType": "string",
              "name": "description",
              "type": "string"
            },
            {
              "internalType": "string",
              "name": "image",
              "type": "string"
            },
            {
              "internalType": "uint256",
              "name": "health",
              "type": "uint256"
            },
            {
              "internalType": "uint256",
              "name": "maxHealth",
              "type": "uint256"
            },
            {
              "internalType": "string",
              "name": "attack1Name",
              "type": "string"
            },
            {
              "internalType": "string",
              "name": "attack2Name",
              "type": "string"
            },
            {
              "internalType": "string",
              "name": "attack3Name",
              "type": "string"
            },
            {
              "internalType": "uint256",
              "name": "attackDamageAttack1",
              "type": "uint256"
            },
            {
              "internalType": "uint256",
              "name": "attackDamageAttack2",
              "type": "uint256"
            },
            {
              "internalType": "uint256",
              "name": "attackDamageAttack3",
              "type": "uint256"
            }
          ],
          "internalType": "struct BillionaireBattles.character",
          "name": "",
          "type": "tuple"
        }
      ],
      "stateMutability": "view",
      "type": "function"
    },
    {
      "inputs": [],
      "name": "getCharacterCount",
      "outputs": [
        {
          "internalType": "uint256",
          "name": "",
          "type": "uint256"
        }
      ],
      "stateMutability": "view",
      "type": "function"
    },
    {
      "inputs": [
        {
          "internalType": "uint256",
          "name": "index",
          "type": "uint256"
        }
      ],
      "name": "getCharacterDisplayDataById",
      "outputs": [
        {
          "internalType": "string[]",
          "name": "",
          "type": "string[]"
        }
      ],
      "stateMutability": "view",
      "type": "function"
    },
    {
      "inputs": [
        {
          "internalType": "uint256",
          "name": "index",
          "type": "uint256"
        }
      ],
      "name": "getCharacterHealthAndMaxHealthById",
      "outputs": [
        {
          "internalType": "uint256[]",
          "name": "",
          "type": "uint256[]"
        }
      ],
      "stateMutability": "view",
      "type": "function"
    },
    {
      "inputs": [
        {
          "internalType": "address",
          "name": "current",
          "type": "address"
        }
      ],
      "name": "getCharactersFromAddress",
      "outputs": [
        {
          "internalType": "uint256[]",
          "name": "",
          "type": "uint256[]"
        }
      ],
      "stateMutability": "view",
      "type": "function"
    },
    {
      "inputs": [],
      "name": "getListingFee",
      "outputs": [
        {
          "internalType": "uint256",
          "name": "",
          "type": "uint256"
        }
      ],
      "stateMutability": "view",
      "type": "function"
    },
    {
      "inputs": [],
      "name": "getMarketItems",
      "outputs": [
        {
          "internalType": "uint256[]",
          "name": "",
          "type": "uint256[]"
        }
      ],
      "stateMutability": "view",
      "type": "function"
    },
    {
      "inputs": [
        {
          "internalType": "uint256",
          "name": "id",
          "type": "uint256"
        }
      ],
      "name": "getOwnerOfCharcterByID",
      "outputs": [
        {
          "internalType": "address",
          "name": "",
          "type": "address"
        }
      ],
      "stateMutability": "view",
      "type": "function"
    },
    {
      "inputs": [
        {
          "internalType": "uint256",
          "name": "id",
          "type": "uint256"
        }
      ],
      "name": "getPriceById",
      "outputs": [
        {
          "internalType": "uint256",
          "name": "",
          "type": "uint256"
        }
      ],
      "stateMutability": "view",
      "type": "function"
    },
    {
      "inputs": [],
      "name": "getReviveCost",
      "outputs": [
        {
          "internalType": "uint256",
          "name": "",
          "type": "uint256"
        }
      ],
      "stateMutability": "view",
      "type": "function"
    },
    {
      "inputs": [
        {
          "internalType": "address",
          "name": "owner",
          "type": "address"
        },
        {
          "internalType": "address",
          "name": "operator",
          "type": "address"
        }
      ],
      "name": "isApprovedForAll",
      "outputs": [
        {
          "internalType": "bool",
          "name": "",
          "type": "bool"
        }
      ],
      "stateMutability": "view",
      "type": "function"
    },
    {
      "inputs": [
        {
          "internalType": "uint256",
          "name": "id",
          "type": "uint256"
        }
      ],
      "name": "mintItemById",
      "outputs": [],
      "stateMutability": "nonpayable",
      "type": "function"
    },
    {
      "inputs": [
        {
          "internalType": "string",
          "name": "_name",
          "type": "string"
        },
        {
          "internalType": "string",
          "name": "_description",
          "type": "string"
        },
        {
          "internalType": "uint256",
          "name": "_attack",
          "type": "uint256"
        },
        {
          "internalType": "string",
          "name": "_image",
          "type": "string"
        },
        {
          "internalType": "uint256",
          "name": "_health",
          "type": "uint256"
        },
        {
          "internalType": "string",
          "name": "_attackName",
          "type": "string"
        }
      ],
      "name": "mintNewBoss",
      "outputs": [],
      "stateMutability": "nonpayable",
      "type": "function"
    },
    {
      "inputs": [],
      "name": "name",
      "outputs": [
        {
          "internalType": "string",
          "name": "",
          "type": "string"
        }
      ],
      "stateMutability": "view",
      "type": "function"
    },
    {
      "inputs": [
        {
          "internalType": "uint256",
          "name": "tokenId",
          "type": "uint256"
        }
      ],
      "name": "ownerOf",
      "outputs": [
        {
          "internalType": "address",
          "name": "",
          "type": "address"
        }
      ],
      "stateMutability": "view",
      "type": "function"
    },
    {
      "inputs": [
        {
          "internalType": "address",
          "name": "from",
          "type": "address"
        },
        {
          "internalType": "address",
          "name": "to",
          "type": "address"
        },
        {
          "internalType": "uint256",
          "name": "tokenId",
          "type": "uint256"
        }
      ],
      "name": "safeTransferFrom",
      "outputs": [],
      "stateMutability": "nonpayable",
      "type": "function"
    },
    {
      "inputs": [
        {
          "internalType": "address",
          "name": "from",
          "type": "address"
        },
        {
          "internalType": "address",
          "name": "to",
          "type": "address"
        },
        {
          "internalType": "uint256",
          "name": "tokenId",
          "type": "uint256"
        },
        {
          "internalType": "bytes",
          "name": "_data",
          "type": "bytes"
        }
      ],
      "name": "safeTransferFrom",
      "outputs": [],
      "stateMutability": "nonpayable",
      "type": "function"
    },
    {
      "inputs": [
        {
          "internalType": "address",
          "name": "operator",
          "type": "address"
        },
        {
          "internalType": "bool",
          "name": "approved",
          "type": "bool"
        }
      ],
      "name": "setApprovalForAll",
      "outputs": [],
      "stateMutability": "nonpayable",
      "type": "function"
    },
    {
      "inputs": [
        {
          "internalType": "bytes4",
          "name": "interfaceId",
          "type": "bytes4"
        }
      ],
      "name": "supportsInterface",
      "outputs": [
        {
          "internalType": "bool",
          "name": "",
          "type": "bool"
        }
      ],
      "stateMutability": "view",
      "type": "function"
    },
    {
      "inputs": [],
      "name": "symbol",
      "outputs": [
        {
          "internalType": "string",
          "name": "",
          "type": "string"
        }
      ],
      "stateMutability": "view",
      "type": "function"
    },
    {
      "inputs": [
        {
          "internalType": "uint256",
          "name": "tokenId",
          "type": "uint256"
        }
      ],
      "name": "tokenURI",
      "outputs": [
        {
          "internalType": "string",
          "name": "",
          "type": "string"
        }
      ],
      "stateMutability": "view",
      "type": "function"
    },
    {
      "inputs": [
        {
          "internalType": "address",
          "name": "from",
          "type": "address"
        },
        {
          "internalType": "address",
          "name": "to",
          "type": "address"
        },
        {
          "internalType": "uint256",
          "name": "tokenId",
          "type": "uint256"
        }
      ],
      "name": "transferFrom",
      "outputs": [],
      "stateMutability": "nonpayable",
      "type": "function"
    }
  ],
  "bytecode": "0x608060405260006008553480156200001657600080fd5b506040516200578a3803806200578a83398181016040528101906200003c91906200084f565b6040518060400160405280601381526020017f42696c6c696f6e6169726520426174746c6573000000000000000000000000008152506040518060400160405280600381526020017f42425400000000000000000000000000000000000000000000000000000000008152508160009080519060200190620000c0929190620005e2565b508060019080519060200190620000d9929190620005e2565b5050506005600681905550600560078190555060005b6002811015620005d057600c604051806101a001604052803073ffffffffffffffffffffffffffffffffffffffff1681526020016000151581526020018e848151811062000166577f4e487b7100000000000000000000000000000000000000000000000000000000600052603260045260246000fd5b602002602001015181526020018d8481518110620001ad577f4e487b7100000000000000000000000000000000000000000000000000000000600052603260045260246000fd5b602002602001015181526020018c8481518110620001f4577f4e487b7100000000000000000000000000000000000000000000000000000000600052603260045260246000fd5b602002602001015181526020018b84815181106200023b577f4e487b7100000000000000000000000000000000000000000000000000000000600052603260045260246000fd5b602002602001015181526020018a848151811062000282577f4e487b7100000000000000000000000000000000000000000000000000000000600052603260045260246000fd5b60200260200101518152602001898481518110620002c9577f4e487b7100000000000000000000000000000000000000000000000000000000600052603260045260246000fd5b6020026020010151815260200188848151811062000310577f4e487b7100000000000000000000000000000000000000000000000000000000600052603260045260246000fd5b6020026020010151815260200187848151811062000357577f4e487b7100000000000000000000000000000000000000000000000000000000600052603260045260246000fd5b602002602001015181526020018684815181106200039e577f4e487b7100000000000000000000000000000000000000000000000000000000600052603260045260246000fd5b60200260200101518152602001858481518110620003e5577f4e487b7100000000000000000000000000000000000000000000000000000000600052603260045260246000fd5b602002602001015181526020018484815181106200042c577f4e487b7100000000000000000000000000000000000000000000000000000000600052603260045260246000fd5b602002602001015181525090806001815401808255809150506001900390600052602060002090600c020160009091909190915060008201518160000160006101000a81548173ffffffffffffffffffffffffffffffffffffffff021916908373ffffffffffffffffffffffffffffffffffffffff16021790555060208201518160000160146101000a81548160ff0219169083151502179055506040820151816001019080519060200190620004e5929190620005e2565b50606082015181600201908051906020019062000504929190620005e2565b50608082015181600301908051906020019062000523929190620005e2565b5060a0820151816004015560c0820151816005015560e082015181600601908051906020019062000556929190620005e2565b5061010082015181600701908051906020019062000576929190620005e2565b5061012082015181600801908051906020019062000596929190620005e2565b50610140820151816009015561016082015181600a015561018082015181600b015550508080620005c79062000ba4565b915050620000ef565b50505050505050505050505062000c99565b828054620005f09062000b6e565b90600052602060002090601f01602090048101928262000614576000855562000660565b82601f106200062f57805160ff191683800117855562000660565b8280016001018555821562000660579182015b828111156200065f57825182559160200191906001019062000642565b5b5090506200066f919062000673565b5090565b5b808211156200068e57600081600090555060010162000674565b5090565b6000620006a9620006a38462000a9d565b62000a69565b9050808382526020820190508260005b85811015620006ed5781518501620006d288826200080b565b845260208401935060208301925050600181019050620006b9565b5050509392505050565b60006200070e620007088462000acc565b62000a69565b905080838252602082019050828560208602820111156200072e57600080fd5b60005b8581101562000762578162000747888262000838565b84526020840193506020830192505060018101905062000731565b5050509392505050565b6000620007836200077d8462000afb565b62000a69565b9050828152602081018484840111156200079c57600080fd5b620007a984828562000b38565b509392505050565b600082601f830112620007c357600080fd5b8151620007d584826020860162000692565b91505092915050565b600082601f830112620007f057600080fd5b815162000802848260208601620006f7565b91505092915050565b600082601f8301126200081d57600080fd5b81516200082f8482602086016200076c565b91505092915050565b600081519050620008498162000c7f565b92915050565b60008060008060008060008060008060006101608c8e0312156200087257600080fd5b60008c015167ffffffffffffffff8111156200088d57600080fd5b6200089b8e828f01620007b1565b9b505060208c015167ffffffffffffffff811115620008b957600080fd5b620008c78e828f01620007b1565b9a505060408c015167ffffffffffffffff811115620008e557600080fd5b620008f38e828f01620007b1565b99505060608c015167ffffffffffffffff8111156200091157600080fd5b6200091f8e828f01620007de565b98505060808c015167ffffffffffffffff8111156200093d57600080fd5b6200094b8e828f01620007de565b97505060a08c015167ffffffffffffffff8111156200096957600080fd5b620009778e828f01620007b1565b96505060c08c015167ffffffffffffffff8111156200099557600080fd5b620009a38e828f01620007b1565b95505060e08c015167ffffffffffffffff811115620009c157600080fd5b620009cf8e828f01620007b1565b9450506101008c015167ffffffffffffffff811115620009ee57600080fd5b620009fc8e828f01620007de565b9350506101208c015167ffffffffffffffff81111562000a1b57600080fd5b62000a298e828f01620007de565b9250506101408c015167ffffffffffffffff81111562000a4857600080fd5b62000a568e828f01620007de565b9150509295989b509295989b9093969950565b6000604051905081810181811067ffffffffffffffff8211171562000a935762000a9262000c50565b5b8060405250919050565b600067ffffffffffffffff82111562000abb5762000aba62000c50565b5b602082029050602081019050919050565b600067ffffffffffffffff82111562000aea5762000ae962000c50565b5b602082029050602081019050919050565b600067ffffffffffffffff82111562000b195762000b1862000c50565b5b601f19601f8301169050602081019050919050565b6000819050919050565b60005b8381101562000b5857808201518184015260208101905062000b3b565b8381111562000b68576000848401525b50505050565b6000600282049050600182168062000b8757607f821691505b6020821081141562000b9e5762000b9d62000c21565b5b50919050565b600062000bb18262000b2e565b91507fffffffffffffffffffffffffffffffffffffffffffffffffffffffffffffffff82141562000be75762000be662000bf2565b5b600182019050919050565b7f4e487b7100000000000000000000000000000000000000000000000000000000600052601160045260246000fd5b7f4e487b7100000000000000000000000000000000000000000000000000000000600052602260045260246000fd5b7f4e487b7100000000000000000000000000000000000000000000000000000000600052604160045260246000fd5b62000c8a8162000b2e565b811462000c9657600080fd5b50565b614ae18062000ca96000396000f3fe6080604052600436106101cd5760003560e01c806370a08231116100f7578063b9256b1b11610095578063e985e9c511610064578063e985e9c5146106c7578063eb5b686814610704578063f40df93714610741578063fdb205eb1461076a576101cd565b8063b9256b1b146105f4578063be9af53614610631578063c87b56dd1461064d578063e034713d1461068a576101cd565b806395d89b41116100d157806395d89b411461054c578063a22cb46514610577578063b88d4fde146105a0578063b8fe6abe146105c9576101cd565b806370a08231146104a75780637577e86d146104e457806383e56dca14610521576101cd565b806329aa3a421161016f5780636456152a1161013e5780636456152a146103eb57806365df8ce71461041457806368baf0a01461043f5780636cfc05421461047c576101cd565b806329aa3a421461032f5780633d936d2d1461035a57806342842e0e146103855780636352211e146103ae576101cd565b8063095ea7b3116101ab578063095ea7b3146102775780631a9a0428146102a05780631bafbaa6146102dd57806323b872dd14610306576101cd565b806301ffc9a7146101d257806306fdde031461020f578063081812fc1461023a575b600080fd5b3480156101de57600080fd5b506101f960048036038101906101f4919061366b565b6107a7565b6040516102069190614332565b60405180910390f35b34801561021b57600080fd5b50610224610889565b604051610231919061434d565b60405180910390f35b34801561024657600080fd5b50610261600480360381019061025c91906137a6565b61091b565b60405161026e9190614287565b60405180910390f35b34801561028357600080fd5b5061029e6004803603810190610299919061362f565b6109a0565b005b3480156102ac57600080fd5b506102c760048036038101906102c291906137a6565b610ab8565b6040516102d49190614287565b60405180910390f35b3480156102e957600080fd5b5061030460048036038101906102ff91906137a6565b610af8565b005b34801561031257600080fd5b5061032d60048036038101906103289190613529565b610de7565b005b34801561033b57600080fd5b50610344610e47565b6040516103519190614310565b60405180910390f35b34801561036657600080fd5b5061036f610f6d565b60405161037c91906145f3565b60405180910390f35b34801561039157600080fd5b506103ac60048036038101906103a79190613529565b610f77565b005b3480156103ba57600080fd5b506103d560048036038101906103d091906137a6565b610f97565b6040516103e29190614287565b60405180910390f35b3480156103f757600080fd5b50610412600480360381019061040d91906137cf565b611049565b005b34801561042057600080fd5b506104296110e2565b60405161043691906145f3565b60405180910390f35b34801561044b57600080fd5b50610466600480360381019061046191906134c4565b6110ec565b6040516104739190614310565b60405180910390f35b34801561048857600080fd5b50610491611251565b60405161049e9190614310565b60405180910390f35b3480156104b357600080fd5b506104ce60048036038101906104c991906134c4565b611369565b6040516104db91906145f3565b60405180910390f35b3480156104f057600080fd5b5061050b600480360381019061050691906137a6565b611421565b60405161051891906142ee565b60405180910390f35b34801561052d57600080fd5b50610536611679565b604051610543919061434d565b60405180910390f35b34801561055857600080fd5b50610561611720565b60405161056e919061434d565b60405180910390f35b34801561058357600080fd5b5061059e600480360381019061059991906135f3565b6117b2565b005b3480156105ac57600080fd5b506105c760048036038101906105c29190613578565b6117c8565b005b3480156105d557600080fd5b506105de61182a565b6040516105eb91906145f3565b60405180910390f35b34801561060057600080fd5b5061061b600480360381019061061691906137a6565b611834565b60405161062891906145f3565b60405180910390f35b61064b600480360381019061064691906137a6565b611851565b005b34801561065957600080fd5b50610674600480360381019061066f91906137a6565b6119ca565b604051610681919061434d565b60405180910390f35b34801561069657600080fd5b506106b160048036038101906106ac91906137a6565b611a71565b6040516106be91906145d1565b60405180910390f35b3480156106d357600080fd5b506106ee60048036038101906106e991906134ed565b611eae565b6040516106fb9190614332565b60405180910390f35b34801561071057600080fd5b5061072b600480360381019061072691906137a6565b611f42565b60405161073891906145af565b60405180910390f35b34801561074d57600080fd5b50610768600480360381019061076391906136bd565b61222c565b005b34801561077657600080fd5b50610791600480360381019061078c91906137a6565b61239f565b60405161079e9190614310565b60405180910390f35b60007f80ac58cd000000000000000000000000000000000000000000000000000000007bffffffffffffffffffffffffffffffffffffffffffffffffffffffff1916827bffffffffffffffffffffffffffffffffffffffffffffffffffffffff1916148061087257507f5b5e139f000000000000000000000000000000000000000000000000000000007bffffffffffffffffffffffffffffffffffffffffffffffffffffffff1916827bffffffffffffffffffffffffffffffffffffffffffffffffffffffff1916145b806108825750610881826124e4565b5b9050919050565b606060008054610898906148d6565b80601f01602080910402602001604051908101604052809291908181526020018280546108c4906148d6565b80156109115780601f106108e657610100808354040283529160200191610911565b820191906000526020600020905b8154815290600101906020018083116108f457829003601f168201915b5050505050905090565b60006109268261254e565b610965576040517f08c379a000000000000000000000000000000000000000000000000000000000815260040161095c9061450f565b60405180910390fd5b6004600083815260200190815260200160002060009054906101000a900473ffffffffffffffffffffffffffffffffffffffff169050919050565b60006109ab82610f97565b90508073ffffffffffffffffffffffffffffffffffffffff168373ffffffffffffffffffffffffffffffffffffffff161415610a1c576040517f08c379a0000000000000000000000000000000000000000000000000000000008152600401610a139061454f565b60405180910390fd5b8073ffffffffffffffffffffffffffffffffffffffff16610a3b6125ba565b73ffffffffffffffffffffffffffffffffffffffff161480610a6a5750610a6981610a646125ba565b611eae565b5b610aa9576040517f08c379a0000000000000000000000000000000000000000000000000000000008152600401610aa09061448f565b60405180910390fd5b610ab383836125c2565b505050565b6000600a600083815260200190815260200160002060000160009054906101000a900473ffffffffffffffffffffffffffffffffffffffff169050919050565b6000811015610b3c576040517f08c379a0000000000000000000000000000000000000000000000000000000008152600401610b339061456f565b60405180910390fd5b600c805490508110610b83576040517f08c379a0000000000000000000000000000000000000000000000000000000008152600401610b7a9061444f565b60405180910390fd5b60086000815480929190610b9690614908565b9190505550600c8181548110610bd5577f4e487b7100000000000000000000000000000000000000000000000000000000600052603260045260246000fd5b90600052602060002090600c0201600a600060085481526020019081526020016000206000820160009054906101000a900473ffffffffffffffffffffffffffffffffffffffff168160000160006101000a81548173ffffffffffffffffffffffffffffffffffffffff021916908373ffffffffffffffffffffffffffffffffffffffff1602179055506000820160149054906101000a900460ff168160000160146101000a81548160ff0219169083151502179055506001820181600101908054610ca0906148d6565b610cab929190613180565b506002820181600201908054610cc0906148d6565b610ccb929190613180565b506003820181600301908054610ce0906148d6565b610ceb929190613180565b5060048201548160040155600582015481600501556006820181600601908054610d14906148d6565b610d1f929190613180565b506007820181600701908054610d34906148d6565b610d3f929190613180565b506008820181600801908054610d54906148d6565b610d5f929190613180565b5060098201548160090155600a82015481600a0155600b82015481600b015590505033600a6000600854815260200190815260200160002060000160006101000a81548173ffffffffffffffffffffffffffffffffffffffff021916908373ffffffffffffffffffffffffffffffffffffffff160217905550610de43360085461267b565b50565b610df8610df26125ba565b82612699565b610e37576040517f08c379a0000000000000000000000000000000000000000000000000000000008152600401610e2e9061458f565b60405180910390fd5b610e42838383612777565b505050565b606060008060085467ffffffffffffffff811115610e8e577f4e487b7100000000000000000000000000000000000000000000000000000000600052604160045260246000fd5b604051908082528060200260200182016040528015610ebc5781602001602082028036833780820191505090505b50905060005b600854811015610f645760011515600a600083815260200190815260200160002060000160149054906101000a900460ff1615151415610f515780828481518110610f36577f4e487b7100000000000000000000000000000000000000000000000000000000600052603260045260246000fd5b6020026020010181815250508280610f4d90614908565b9350505b8080610f5c90614908565b915050610ec2565b50809250505090565b6000600754905090565b610f92838383604051806020016040528060008152506117c8565b505050565b6000806002600084815260200190815260200160002060009054906101000a900473ffffffffffffffffffffffffffffffffffffffff169050600073ffffffffffffffffffffffffffffffffffffffff168173ffffffffffffffffffffffffffffffffffffffff161415611040576040517f08c379a0000000000000000000000000000000000000000000000000000000008152600401611037906144cf565b60405180910390fd5b80915050919050565b6000811161108c576040517f08c379a0000000000000000000000000000000000000000000000000000000008152600401611083906143cf565b60405180910390fd5b80600b6000848152602001908152602001600020819055506001600a600084815260200190815260200160002060000160146101000a81548160ff0219169083151502179055506110de333084612777565b5050565b6000600854905090565b606060008060085467ffffffffffffffff811115611133577f4e487b7100000000000000000000000000000000000000000000000000000000600052604160045260246000fd5b6040519080825280602002602001820160405280156111615781602001602082028036833780820191505090505b5090506000600190505b6008548111611246578473ffffffffffffffffffffffffffffffffffffffff16600a600083815260200190815260200160002060000160009054906101000a900473ffffffffffffffffffffffffffffffffffffffff1673ffffffffffffffffffffffffffffffffffffffff1614156112335780828481518110611218577f4e487b7100000000000000000000000000000000000000000000000000000000600052603260045260246000fd5b602002602001018181525050828061122f90614908565b9350505b808061123e90614908565b91505061116b565b508092505050919050565b606060008060085467ffffffffffffffff811115611298577f4e487b7100000000000000000000000000000000000000000000000000000000600052604160045260246000fd5b6040519080825280602002602001820160405280156112c65781602001602082028036833780820191505090505b5090506000600190505b60085481116113605760006009600083815260200190815260200160002060050154111561134d5780828481518110611332577f4e487b7100000000000000000000000000000000000000000000000000000000600052603260045260246000fd5b602002602001018181525050828061134990614908565b9350505b808061135890614908565b9150506112d0565b50809250505090565b60008073ffffffffffffffffffffffffffffffffffffffff168273ffffffffffffffffffffffffffffffffffffffff1614156113da576040517f08c379a00000000000000000000000000000000000000000000000000000000081526004016113d1906144af565b60405180910390fd5b600360008373ffffffffffffffffffffffffffffffffffffffff1673ffffffffffffffffffffffffffffffffffffffff168152602001908152602001600020549050919050565b60606000600467ffffffffffffffff811115611466577f4e487b7100000000000000000000000000000000000000000000000000000000600052604160045260246000fd5b60405190808252806020026020018201604052801561149957816020015b60608152602001906001900390816114845790505b5090506000600a600085815260200190815260200160002060030180546114bf906148d6565b80601f01602080910402602001604051908101604052809291908181526020018280546114eb906148d6565b80156115385780601f1061150d57610100808354040283529160200191611538565b820191906000526020600020905b81548152906001019060200180831161151b57829003601f168201915b505050505090506000600a60008681526020019081526020016000206001018054611562906148d6565b80601f016020809104026020016040519081016040528092919081815260200182805461158e906148d6565b80156115db5780601f106115b0576101008083540402835291602001916115db565b820191906000526020600020905b8154815290600101906020018083116115be57829003601f168201915b50505050509050818360008151811061161d577f4e487b7100000000000000000000000000000000000000000000000000000000600052603260045260246000fd5b60200260200101819052508083600181518110611663577f4e487b7100000000000000000000000000000000000000000000000000000000600052603260045260246000fd5b6020026020010181905250829350505050919050565b6060600a600060018152602001908152602001600020600101805461169d906148d6565b80601f01602080910402602001604051908101604052809291908181526020018280546116c9906148d6565b80156117165780601f106116eb57610100808354040283529160200191611716565b820191906000526020600020905b8154815290600101906020018083116116f957829003601f168201915b5050505050905090565b60606001805461172f906148d6565b80601f016020809104026020016040519081016040528092919081815260200182805461175b906148d6565b80156117a85780601f1061177d576101008083540402835291602001916117a8565b820191906000526020600020905b81548152906001019060200180831161178b57829003601f168201915b5050505050905090565b6117c46117bd6125ba565b83836129de565b5050565b6117d96117d36125ba565b83612699565b611818576040517f08c379a000000000000000000000000000000000000000000000000000000000815260040161180f9061458f565b60405180910390fd5b61182484848484612b4b565b50505050565b6000600654905090565b6000600b6000838152602001908152602001600020549050919050565b60011515600a600083815260200190815260200160002060000160149054906101000a900460ff161515146118bb576040517f08c379a00000000000000000000000000000000000000000000000000000000081526004016118b29061442f565b60405180910390fd5b600a600082815260200190815260200160002060000160009054906101000a900473ffffffffffffffffffffffffffffffffffffffff1673ffffffffffffffffffffffffffffffffffffffff166108fc349081150290604051600060405180830381858888f19350505050158015611937573d6000803e3d6000fd5b5033600a600083815260200190815260200160002060000160006101000a81548173ffffffffffffffffffffffffffffffffffffffff021916908373ffffffffffffffffffffffffffffffffffffffff1602179055506000600a600083815260200190815260200160002060000160146101000a81548160ff0219169083151502179055506119c7303383612777565b50565b60606119d58261254e565b611a14576040517f08c379a0000000000000000000000000000000000000000000000000000000008152600401611a0b9061452f565b60405180910390fd5b6000611a1e612ba7565b90506000815111611a3e5760405180602001604052806000815250611a69565b80611a4884612bbe565b604051602001611a59929190614263565b6040516020818303038152906040525b915050919050565b611a7961320d565b600a6000838152602001908152602001600020604051806101a00160405290816000820160009054906101000a900473ffffffffffffffffffffffffffffffffffffffff1673ffffffffffffffffffffffffffffffffffffffff1673ffffffffffffffffffffffffffffffffffffffff1681526020016000820160149054906101000a900460ff16151515158152602001600182018054611b19906148d6565b80601f0160208091040260200160405190810160405280929190818152602001828054611b45906148d6565b8015611b925780601f10611b6757610100808354040283529160200191611b92565b820191906000526020600020905b815481529060010190602001808311611b7557829003601f168201915b50505050508152602001600282018054611bab906148d6565b80601f0160208091040260200160405190810160405280929190818152602001828054611bd7906148d6565b8015611c245780601f10611bf957610100808354040283529160200191611c24565b820191906000526020600020905b815481529060010190602001808311611c0757829003601f168201915b50505050508152602001600382018054611c3d906148d6565b80601f0160208091040260200160405190810160405280929190818152602001828054611c69906148d6565b8015611cb65780601f10611c8b57610100808354040283529160200191611cb6565b820191906000526020600020905b815481529060010190602001808311611c9957829003601f168201915b505050505081526020016004820154815260200160058201548152602001600682018054611ce3906148d6565b80601f0160208091040260200160405190810160405280929190818152602001828054611d0f906148d6565b8015611d5c5780601f10611d3157610100808354040283529160200191611d5c565b820191906000526020600020905b815481529060010190602001808311611d3f57829003601f168201915b50505050508152602001600782018054611d75906148d6565b80601f0160208091040260200160405190810160405280929190818152602001828054611da1906148d6565b8015611dee5780601f10611dc357610100808354040283529160200191611dee565b820191906000526020600020905b815481529060010190602001808311611dd157829003601f168201915b50505050508152602001600882018054611e07906148d6565b80601f0160208091040260200160405190810160405280929190818152602001828054611e33906148d6565b8015611e805780601f10611e5557610100808354040283529160200191611e80565b820191906000526020600020905b815481529060010190602001808311611e6357829003601f168201915b5050505050815260200160098201548152602001600a8201548152602001600b820154815250509050919050565b6000600560008473ffffffffffffffffffffffffffffffffffffffff1673ffffffffffffffffffffffffffffffffffffffff16815260200190815260200160002060008373ffffffffffffffffffffffffffffffffffffffff1673ffffffffffffffffffffffffffffffffffffffff16815260200190815260200160002060009054906101000a900460ff16905092915050565b611f4a61328d565b60096000838152602001908152602001600020604051806101000160405290816000820160009054906101000a900473ffffffffffffffffffffffffffffffffffffffff1673ffffffffffffffffffffffffffffffffffffffff1673ffffffffffffffffffffffffffffffffffffffff168152602001600182018054611fcf906148d6565b80601f0160208091040260200160405190810160405280929190818152602001828054611ffb906148d6565b80156120485780601f1061201d57610100808354040283529160200191612048565b820191906000526020600020905b81548152906001019060200180831161202b57829003601f168201915b50505050508152602001600282018054612061906148d6565b80601f016020809104026020016040519081016040528092919081815260200182805461208d906148d6565b80156120da5780601f106120af576101008083540402835291602001916120da565b820191906000526020600020905b8154815290600101906020018083116120bd57829003601f168201915b505050505081526020016003820180546120f3906148d6565b80601f016020809104026020016040519081016040528092919081815260200182805461211f906148d6565b801561216c5780601f106121415761010080835404028352916020019161216c565b820191906000526020600020905b81548152906001019060200180831161214f57829003601f168201915b50505050508152602001600482018054612185906148d6565b80601f01602080910402602001604051908101604052809291908181526020018280546121b1906148d6565b80156121fe5780601f106121d3576101008083540402835291602001916121fe565b820191906000526020600020905b8154815290600101906020018083116121e157829003601f168201915b5050505050815260200160058201548152602001600682015481526020016007820154815250509050919050565b6008600081548092919061223f90614908565b9190505550600060085490506040518061010001604052803373ffffffffffffffffffffffffffffffffffffffff168152602001888152602001878152602001858152602001838152602001848152602001848152602001868152506009600083815260200190815260200160002060008201518160000160006101000a81548173ffffffffffffffffffffffffffffffffffffffff021916908373ffffffffffffffffffffffffffffffffffffffff16021790555060208201518160010190805190602001906123119291906132e8565b50604082015181600201908051906020019061232e9291906132e8565b50606082015181600301908051906020019061234b9291906132e8565b5060808201518160040190805190602001906123689291906132e8565b5060a0820151816005015560c0820151816006015560e082015181600701559050506123963360085461267b565b50505050505050565b60606000600267ffffffffffffffff8111156123e4577f4e487b7100000000000000000000000000000000000000000000000000000000600052604160045260246000fd5b6040519080825280602002602001820160405280156124125781602001602082028036833780820191505090505b5090506000600a60008581526020019081526020016000206004015490506000600a60008681526020019081526020016000206005015490508183600081518110612486577f4e487b7100000000000000000000000000000000000000000000000000000000600052603260045260246000fd5b60200260200101818152505080836001815181106124cd577f4e487b7100000000000000000000000000000000000000000000000000000000600052603260045260246000fd5b602002602001018181525050829350505050919050565b60007f01ffc9a7000000000000000000000000000000000000000000000000000000007bffffffffffffffffffffffffffffffffffffffffffffffffffffffff1916827bffffffffffffffffffffffffffffffffffffffffffffffffffffffff1916149050919050565b60008073ffffffffffffffffffffffffffffffffffffffff166002600084815260200190815260200160002060009054906101000a900473ffffffffffffffffffffffffffffffffffffffff1673ffffffffffffffffffffffffffffffffffffffff1614159050919050565b600033905090565b816004600083815260200190815260200160002060006101000a81548173ffffffffffffffffffffffffffffffffffffffff021916908373ffffffffffffffffffffffffffffffffffffffff160217905550808273ffffffffffffffffffffffffffffffffffffffff1661263583610f97565b73ffffffffffffffffffffffffffffffffffffffff167f8c5be1e5ebec7d5bd14f71427d1e84f3dd0314c0f7b2291e5b200ac8c7c3b92560405160405180910390a45050565b612695828260405180602001604052806000815250612d6b565b5050565b60006126a48261254e565b6126e3576040517f08c379a00000000000000000000000000000000000000000000000000000000081526004016126da9061446f565b60405180910390fd5b60006126ee83610f97565b90508073ffffffffffffffffffffffffffffffffffffffff168473ffffffffffffffffffffffffffffffffffffffff161480612730575061272f8185611eae565b5b8061276e57508373ffffffffffffffffffffffffffffffffffffffff166127568461091b565b73ffffffffffffffffffffffffffffffffffffffff16145b91505092915050565b8273ffffffffffffffffffffffffffffffffffffffff1661279782610f97565b73ffffffffffffffffffffffffffffffffffffffff16146127ed576040517f08c379a00000000000000000000000000000000000000000000000000000000081526004016127e49061438f565b60405180910390fd5b600073ffffffffffffffffffffffffffffffffffffffff168273ffffffffffffffffffffffffffffffffffffffff16141561285d576040517f08c379a0000000000000000000000000000000000000000000000000000000008152600401612854906143ef565b60405180910390fd5b612868838383612dc6565b6128736000826125c2565b6001600360008573ffffffffffffffffffffffffffffffffffffffff1673ffffffffffffffffffffffffffffffffffffffff16815260200190815260200160002060008282546128c391906147ec565b925050819055506001600360008473ffffffffffffffffffffffffffffffffffffffff1673ffffffffffffffffffffffffffffffffffffffff168152602001908152602001600020600082825461291a9190614765565b92505081905550816002600083815260200190815260200160002060006101000a81548173ffffffffffffffffffffffffffffffffffffffff021916908373ffffffffffffffffffffffffffffffffffffffff160217905550808273ffffffffffffffffffffffffffffffffffffffff168473ffffffffffffffffffffffffffffffffffffffff167fddf252ad1be2c89b69c2b068fc378daa952ba7f163c4a11628f55a4df523b3ef60405160405180910390a46129d9838383612dcb565b505050565b8173ffffffffffffffffffffffffffffffffffffffff168373ffffffffffffffffffffffffffffffffffffffff161415612a4d576040517f08c379a0000000000000000000000000000000000000000000000000000000008152600401612a449061440f565b60405180910390fd5b80600560008573ffffffffffffffffffffffffffffffffffffffff1673ffffffffffffffffffffffffffffffffffffffff16815260200190815260200160002060008473ffffffffffffffffffffffffffffffffffffffff1673ffffffffffffffffffffffffffffffffffffffff16815260200190815260200160002060006101000a81548160ff0219169083151502179055508173ffffffffffffffffffffffffffffffffffffffff168373ffffffffffffffffffffffffffffffffffffffff167f17307eab39ab6107e8899845ad3d59bd9653f200f220920489ca2b5937696c3183604051612b3e9190614332565b60405180910390a3505050565b612b56848484612777565b612b6284848484612dd0565b612ba1576040517f08c379a0000000000000000000000000000000000000000000000000000000008152600401612b989061436f565b60405180910390fd5b50505050565b606060405180602001604052806000815250905090565b60606000821415612c06576040518060400160405280600181526020017f30000000000000000000000000000000000000000000000000000000000000008152509050612d66565b600082905060005b60008214612c38578080612c2190614908565b915050600a82612c3191906147bb565b9150612c0e565b60008167ffffffffffffffff811115612c7a577f4e487b7100000000000000000000000000000000000000000000000000000000600052604160045260246000fd5b6040519080825280601f01601f191660200182016040528015612cac5781602001600182028036833780820191505090505b5090505b60008514612d5f57600182612cc591906147ec565b9150600a85612cd49190614951565b6030612ce09190614765565b60f81b818381518110612d1c577f4e487b7100000000000000000000000000000000000000000000000000000000600052603260045260246000fd5b60200101907effffffffffffffffffffffffffffffffffffffffffffffffffffffffffffff1916908160001a905350600a85612d5891906147bb565b9450612cb0565b8093505050505b919050565b612d758383612f67565b612d826000848484612dd0565b612dc1576040517f08c379a0000000000000000000000000000000000000000000000000000000008152600401612db89061436f565b60405180910390fd5b505050565b505050565b505050565b6000612df18473ffffffffffffffffffffffffffffffffffffffff16613141565b15612f5a578373ffffffffffffffffffffffffffffffffffffffff1663150b7a02612e1a6125ba565b8786866040518563ffffffff1660e01b8152600401612e3c94939291906142a2565b602060405180830381600087803b158015612e5657600080fd5b505af1925050508015612e8757506040513d601f19601f82011682018060405250810190612e849190613694565b60015b612f0a573d8060008114612eb7576040519150601f19603f3d011682016040523d82523d6000602084013e612ebc565b606091505b50600081511415612f02576040517f08c379a0000000000000000000000000000000000000000000000000000000008152600401612ef99061436f565b60405180910390fd5b805181602001fd5b63150b7a0260e01b7bffffffffffffffffffffffffffffffffffffffffffffffffffffffff1916817bffffffffffffffffffffffffffffffffffffffffffffffffffffffff191614915050612f5f565b600190505b949350505050565b600073ffffffffffffffffffffffffffffffffffffffff168273ffffffffffffffffffffffffffffffffffffffff161415612fd7576040517f08c379a0000000000000000000000000000000000000000000000000000000008152600401612fce906144ef565b60405180910390fd5b612fe08161254e565b15613020576040517f08c379a0000000000000000000000000000000000000000000000000000000008152600401613017906143af565b60405180910390fd5b61302c60008383612dc6565b6001600360008473ffffffffffffffffffffffffffffffffffffffff1673ffffffffffffffffffffffffffffffffffffffff168152602001908152602001600020600082825461307c9190614765565b92505081905550816002600083815260200190815260200160002060006101000a81548173ffffffffffffffffffffffffffffffffffffffff021916908373ffffffffffffffffffffffffffffffffffffffff160217905550808273ffffffffffffffffffffffffffffffffffffffff16600073ffffffffffffffffffffffffffffffffffffffff167fddf252ad1be2c89b69c2b068fc378daa952ba7f163c4a11628f55a4df523b3ef60405160405180910390a461313d60008383612dcb565b5050565b6000808273ffffffffffffffffffffffffffffffffffffffff16803b806020016040519081016040528181526000908060200190933c51119050919050565b82805461318c906148d6565b90600052602060002090601f0160209004810192826131ae57600085556131fc565b82601f106131bf57805485556131fc565b828001600101855582156131fc57600052602060002091601f016020900482015b828111156131fb5782548255916001019190600101906131e0565b5b509050613209919061336e565b5090565b604051806101a00160405280600073ffffffffffffffffffffffffffffffffffffffff16815260200160001515815260200160608152602001606081526020016060815260200160008152602001600081526020016060815260200160608152602001606081526020016000815260200160008152602001600081525090565b604051806101000160405280600073ffffffffffffffffffffffffffffffffffffffff168152602001606081526020016060815260200160608152602001606081526020016000815260200160008152602001600081525090565b8280546132f4906148d6565b90600052602060002090601f016020900481019282613316576000855561335d565b82601f1061332f57805160ff191683800117855561335d565b8280016001018555821561335d579182015b8281111561335c578251825591602001919060010190613341565b5b50905061336a919061336e565b5090565b5b8082111561338757600081600090555060010161336f565b5090565b600061339e6133998461463f565b61460e565b9050828152602081018484840111156133b657600080fd5b6133c1848285614894565b509392505050565b60006133dc6133d78461466f565b61460e565b9050828152602081018484840111156133f457600080fd5b6133ff848285614894565b509392505050565b60008135905061341681614a4f565b92915050565b60008135905061342b81614a66565b92915050565b60008135905061344081614a7d565b92915050565b60008151905061345581614a7d565b92915050565b600082601f83011261346c57600080fd5b813561347c84826020860161338b565b91505092915050565b600082601f83011261349657600080fd5b81356134a68482602086016133c9565b91505092915050565b6000813590506134be81614a94565b92915050565b6000602082840312156134d657600080fd5b60006134e484828501613407565b91505092915050565b6000806040838503121561350057600080fd5b600061350e85828601613407565b925050602061351f85828601613407565b9150509250929050565b60008060006060848603121561353e57600080fd5b600061354c86828701613407565b935050602061355d86828701613407565b925050604061356e868287016134af565b9150509250925092565b6000806000806080858703121561358e57600080fd5b600061359c87828801613407565b94505060206135ad87828801613407565b93505060406135be878288016134af565b925050606085013567ffffffffffffffff8111156135db57600080fd5b6135e78782880161345b565b91505092959194509250565b6000806040838503121561360657600080fd5b600061361485828601613407565b92505060206136258582860161341c565b9150509250929050565b6000806040838503121561364257600080fd5b600061365085828601613407565b9250506020613661858286016134af565b9150509250929050565b60006020828403121561367d57600080fd5b600061368b84828501613431565b91505092915050565b6000602082840312156136a657600080fd5b60006136b484828501613446565b91505092915050565b60008060008060008060c087890312156136d657600080fd5b600087013567ffffffffffffffff8111156136f057600080fd5b6136fc89828a01613485565b965050602087013567ffffffffffffffff81111561371957600080fd5b61372589828a01613485565b955050604061373689828a016134af565b945050606087013567ffffffffffffffff81111561375357600080fd5b61375f89828a01613485565b935050608061377089828a016134af565b92505060a087013567ffffffffffffffff81111561378d57600080fd5b61379989828a01613485565b9150509295509295509295565b6000602082840312156137b857600080fd5b60006137c6848285016134af565b91505092915050565b600080604083850312156137e257600080fd5b60006137f0858286016134af565b9250506020613801858286016134af565b9150509250929050565b6000613817838361397f565b905092915050565b600061382b8383614245565b60208301905092915050565b61384081614820565b82525050565b61384f81614820565b82525050565b6000613860826146bf565b61386a8185614705565b93508360208202850161387c8561469f565b8060005b858110156138b85784840389528151613899858261380b565b94506138a4836146eb565b925060208a01995050600181019050613880565b50829750879550505050505092915050565b60006138d5826146ca565b6138df8185614716565b93506138ea836146af565b8060005b8381101561391b578151613902888261381f565b975061390d836146f8565b9250506001810190506138ee565b5085935050505092915050565b61393181614832565b82525050565b61394081614832565b82525050565b6000613951826146d5565b61395b8185614727565b935061396b8185602086016148a3565b61397481614a3e565b840191505092915050565b600061398a826146e0565b6139948185614738565b93506139a48185602086016148a3565b6139ad81614a3e565b840191505092915050565b60006139c3826146e0565b6139cd8185614749565b93506139dd8185602086016148a3565b6139e681614a3e565b840191505092915050565b60006139fc826146e0565b613a06818561475a565b9350613a168185602086016148a3565b80840191505092915050565b6000613a2f603283614749565b91507f4552433732313a207472616e7366657220746f206e6f6e20455243373231526560008301527f63656976657220696d706c656d656e74657200000000000000000000000000006020830152604082019050919050565b6000613a95602583614749565b91507f4552433732313a207472616e736665722066726f6d20696e636f72726563742060008301527f6f776e65720000000000000000000000000000000000000000000000000000006020830152604082019050919050565b6000613afb601c83614749565b91507f4552433732313a20746f6b656e20616c7265616479206d696e746564000000006000830152602082019050919050565b6000613b3b601083614749565b91507f50726963652063616e27742062652030000000000000000000000000000000006000830152602082019050919050565b6000613b7b602483614749565b91507f4552433732313a207472616e7366657220746f20746865207a65726f2061646460008301527f72657373000000000000000000000000000000000000000000000000000000006020830152604082019050919050565b6000613be1601983614749565b91507f4552433732313a20617070726f766520746f2063616c6c6572000000000000006000830152602082019050919050565b6000613c21601983614749565b91507f54686973206974656d206973206e6f7420666f722073616c65000000000000006000830152602082019050919050565b6000613c61600f83614749565b91507f494420697320746f6f206c6172676500000000000000000000000000000000006000830152602082019050919050565b6000613ca1602c83614749565b91507f4552433732313a206f70657261746f7220717565727920666f72206e6f6e657860008301527f697374656e7420746f6b656e00000000000000000000000000000000000000006020830152604082019050919050565b6000613d07603883614749565b91507f4552433732313a20617070726f76652063616c6c6572206973206e6f74206f7760008301527f6e6572206e6f7220617070726f76656420666f7220616c6c00000000000000006020830152604082019050919050565b6000613d6d602a83614749565b91507f4552433732313a2062616c616e636520717565727920666f7220746865207a6560008301527f726f2061646472657373000000000000000000000000000000000000000000006020830152604082019050919050565b6000613dd3602983614749565b91507f4552433732313a206f776e657220717565727920666f72206e6f6e657869737460008301527f656e7420746f6b656e00000000000000000000000000000000000000000000006020830152604082019050919050565b6000613e39602083614749565b91507f4552433732313a206d696e7420746f20746865207a65726f20616464726573736000830152602082019050919050565b6000613e79602c83614749565b91507f4552433732313a20617070726f76656420717565727920666f72206e6f6e657860008301527f697374656e7420746f6b656e00000000000000000000000000000000000000006020830152604082019050919050565b6000613edf602f83614749565b91507f4552433732314d657461646174613a2055524920717565727920666f72206e6f60008301527f6e6578697374656e7420746f6b656e00000000000000000000000000000000006020830152604082019050919050565b6000613f45602183614749565b91507f4552433732313a20617070726f76616c20746f2063757272656e74206f776e6560008301527f72000000000000000000000000000000000000000000000000000000000000006020830152604082019050919050565b6000613fab601183614749565b91507f4d757374207573652076616c69642049440000000000000000000000000000006000830152602082019050919050565b6000613feb603183614749565b91507f4552433732313a207472616e736665722063616c6c6572206973206e6f74206f60008301527f776e6572206e6f7220617070726f7665640000000000000000000000000000006020830152604082019050919050565b60006101008301600083015161405d6000860182613837565b5060208301518482036020860152614075828261397f565b9150506040830151848203604086015261408f828261397f565b915050606083015184820360608601526140a9828261397f565b915050608083015184820360808601526140c3828261397f565b91505060a08301516140d860a0860182614245565b5060c08301516140eb60c0860182614245565b5060e08301516140fe60e0860182614245565b508091505092915050565b60006101a0830160008301516141226000860182613837565b5060208301516141356020860182613928565b506040830151848203604086015261414d828261397f565b91505060608301518482036060860152614167828261397f565b91505060808301518482036080860152614181828261397f565b91505060a083015161419660a0860182614245565b5060c08301516141a960c0860182614245565b5060e083015184820360e08601526141c1828261397f565b9150506101008301518482036101008601526141dd828261397f565b9150506101208301518482036101208601526141f9828261397f565b915050610140830151614210610140860182614245565b50610160830151614225610160860182614245565b5061018083015161423a610180860182614245565b508091505092915050565b61424e8161488a565b82525050565b61425d8161488a565b82525050565b600061426f82856139f1565b915061427b82846139f1565b91508190509392505050565b600060208201905061429c6000830184613846565b92915050565b60006080820190506142b76000830187613846565b6142c46020830186613846565b6142d16040830185614254565b81810360608301526142e38184613946565b905095945050505050565b600060208201905081810360008301526143088184613855565b905092915050565b6000602082019050818103600083015261432a81846138ca565b905092915050565b60006020820190506143476000830184613937565b92915050565b6000602082019050818103600083015261436781846139b8565b905092915050565b6000602082019050818103600083015261438881613a22565b9050919050565b600060208201905081810360008301526143a881613a88565b9050919050565b600060208201905081810360008301526143c881613aee565b9050919050565b600060208201905081810360008301526143e881613b2e565b9050919050565b6000602082019050818103600083015261440881613b6e565b9050919050565b6000602082019050818103600083015261442881613bd4565b9050919050565b6000602082019050818103600083015261444881613c14565b9050919050565b6000602082019050818103600083015261446881613c54565b9050919050565b6000602082019050818103600083015261448881613c94565b9050919050565b600060208201905081810360008301526144a881613cfa565b9050919050565b600060208201905081810360008301526144c881613d60565b9050919050565b600060208201905081810360008301526144e881613dc6565b9050919050565b6000602082019050818103600083015261450881613e2c565b9050919050565b6000602082019050818103600083015261452881613e6c565b9050919050565b6000602082019050818103600083015261454881613ed2565b9050919050565b6000602082019050818103600083015261456881613f38565b9050919050565b6000602082019050818103600083015261458881613f9e565b9050919050565b600060208201905081810360008301526145a881613fde565b9050919050565b600060208201905081810360008301526145c98184614044565b905092915050565b600060208201905081810360008301526145eb8184614109565b905092915050565b60006020820190506146086000830184614254565b92915050565b6000604051905081810181811067ffffffffffffffff8211171561463557614634614a0f565b5b8060405250919050565b600067ffffffffffffffff82111561465a57614659614a0f565b5b601f19601f8301169050602081019050919050565b600067ffffffffffffffff82111561468a57614689614a0f565b5b601f19601f8301169050602081019050919050565b6000819050602082019050919050565b6000819050602082019050919050565b600081519050919050565b600081519050919050565b600081519050919050565b600081519050919050565b6000602082019050919050565b6000602082019050919050565b600082825260208201905092915050565b600082825260208201905092915050565b600082825260208201905092915050565b600082825260208201905092915050565b600082825260208201905092915050565b600081905092915050565b60006147708261488a565b915061477b8361488a565b9250827fffffffffffffffffffffffffffffffffffffffffffffffffffffffffffffffff038211156147b0576147af614982565b5b828201905092915050565b60006147c68261488a565b91506147d18361488a565b9250826147e1576147e06149b1565b5b828204905092915050565b60006147f78261488a565b91506148028361488a565b92508282101561481557614814614982565b5b828203905092915050565b600061482b8261486a565b9050919050565b60008115159050919050565b60007fffffffff0000000000000000000000000000000000000000000000000000000082169050919050565b600073ffffffffffffffffffffffffffffffffffffffff82169050919050565b6000819050919050565b82818337600083830152505050565b60005b838110156148c15780820151818401526020810190506148a6565b838111156148d0576000848401525b50505050565b600060028204905060018216806148ee57607f821691505b60208210811415614902576149016149e0565b5b50919050565b60006149138261488a565b91507fffffffffffffffffffffffffffffffffffffffffffffffffffffffffffffffff82141561494657614945614982565b5b600182019050919050565b600061495c8261488a565b91506149678361488a565b925082614977576149766149b1565b5b828206905092915050565b7f4e487b7100000000000000000000000000000000000000000000000000000000600052601160045260246000fd5b7f4e487b7100000000000000000000000000000000000000000000000000000000600052601260045260246000fd5b7f4e487b7100000000000000000000000000000000000000000000000000000000600052602260045260246000fd5b7f4e487b7100000000000000000000000000000000000000000000000000000000600052604160045260246000fd5b6000601f19601f8301169050919050565b614a5881614820565b8114614a6357600080fd5b50565b614a6f81614832565b8114614a7a57600080fd5b50565b614a868161483e565b8114614a9157600080fd5b50565b614a9d8161488a565b8114614aa857600080fd5b5056fea26469706673582212202802ec760b497495003f912d0fb887aa4119b3ac433ad25122c1df8de23102b164736f6c63430008000033",
  "linkReferences": {},
  "deployedLinkReferences": {}
}