{
  "_format": "hh-sol-artifact-1",
  "contractName": "BillionaireBattles",
  "sourceName": "contracts/BillionaireBattles.sol",
  "abi": [
    {
      "inputs": [
        {
          "internalType": "string[]",
          "name": "names",
          "type": "string[]"
        },
        {
          "internalType": "string[]",
          "name": "descriptions",
          "type": "string[]"
        },
        {
          "internalType": "string[]",
          "name": "images",
          "type": "string[]"
        },
        {
          "internalType": "uint256[]",
          "name": "healths",
          "type": "uint256[]"
        },
        {
          "internalType": "uint256[]",
          "name": "maxHealths",
          "type": "uint256[]"
        },
        {
          "internalType": "string[]",
          "name": "attack1Names",
          "type": "string[]"
        },
        {
          "internalType": "string[]",
          "name": "attack2Names",
          "type": "string[]"
        },
        {
          "internalType": "string[]",
          "name": "attack3Names",
          "type": "string[]"
        },
        {
          "internalType": "uint256[]",
          "name": "attack1Damages",
          "type": "uint256[]"
        },
        {
          "internalType": "uint256[]",
          "name": "attack2Damages",
          "type": "uint256[]"
        },
        {
          "internalType": "uint256[]",
          "name": "attack3Damages",
          "type": "uint256[]"
        }
      ],
      "stateMutability": "nonpayable",
      "type": "constructor"
    },
    {
      "anonymous": false,
      "inputs": [
        {
          "indexed": true,
          "internalType": "address",
          "name": "owner",
          "type": "address"
        },
        {
          "indexed": true,
          "internalType": "address",
          "name": "approved",
          "type": "address"
        },
        {
          "indexed": true,
          "internalType": "uint256",
          "name": "tokenId",
          "type": "uint256"
        }
      ],
      "name": "Approval",
      "type": "event"
    },
    {
      "anonymous": false,
      "inputs": [
        {
          "indexed": true,
          "internalType": "address",
          "name": "owner",
          "type": "address"
        },
        {
          "indexed": true,
          "internalType": "address",
          "name": "operator",
          "type": "address"
        },
        {
          "indexed": false,
          "internalType": "bool",
          "name": "approved",
          "type": "bool"
        }
      ],
      "name": "ApprovalForAll",
      "type": "event"
    },
    {
      "anonymous": false,
      "inputs": [
        {
          "indexed": true,
          "internalType": "address",
          "name": "from",
          "type": "address"
        },
        {
          "indexed": true,
          "internalType": "address",
          "name": "to",
          "type": "address"
        },
        {
          "indexed": true,
          "internalType": "uint256",
          "name": "tokenId",
          "type": "uint256"
        }
      ],
      "name": "Transfer",
      "type": "event"
    },
    {
      "inputs": [
        {
          "internalType": "address",
          "name": "to",
          "type": "address"
        },
        {
          "internalType": "uint256",
          "name": "tokenId",
          "type": "uint256"
        }
      ],
      "name": "approve",
      "outputs": [],
      "stateMutability": "nonpayable",
      "type": "function"
    },
    {
      "inputs": [
        {
          "internalType": "address",
          "name": "owner",
          "type": "address"
        }
      ],
      "name": "balanceOf",
      "outputs": [
        {
          "internalType": "uint256",
          "name": "",
          "type": "uint256"
        }
      ],
      "stateMutability": "view",
      "type": "function"
    },
    {
      "inputs": [
        {
          "internalType": "uint256",
          "name": "tokenId",
          "type": "uint256"
        },
        {
          "internalType": "uint256",
          "name": "attackNumber",
          "type": "uint256"
        },
        {
          "internalType": "uint256",
          "name": "bossId",
          "type": "uint256"
        }
      ],
      "name": "createAttack",
      "outputs": [],
      "stateMutability": "nonpayable",
      "type": "function"
    },
    {
      "inputs": [
        {
          "internalType": "uint256",
          "name": "tokenId",
          "type": "uint256"
        },
        {
          "internalType": "uint256",
          "name": "price",
          "type": "uint256"
        }
      ],
      "name": "createMarketListing",
      "outputs": [],
      "stateMutability": "nonpayable",
      "type": "function"
    },
    {
      "inputs": [
        {
          "internalType": "uint256",
          "name": "tokenId",
          "type": "uint256"
        }
      ],
      "name": "createMarketSale",
      "outputs": [],
      "stateMutability": "payable",
      "type": "function"
    },
    {
      "inputs": [],
      "name": "getAllCharacters",
      "outputs": [
        {
          "internalType": "string",
          "name": "",
          "type": "string"
        }
      ],
      "stateMutability": "view",
      "type": "function"
    },
    {
      "inputs": [
        {
          "internalType": "uint256",
          "name": "tokenId",
          "type": "uint256"
        }
      ],
      "name": "getApproved",
      "outputs": [
        {
          "internalType": "address",
          "name": "",
          "type": "address"
        }
      ],
      "stateMutability": "view",
      "type": "function"
    },
    {
      "inputs": [],
      "name": "getBossIds",
      "outputs": [
        {
          "internalType": "uint256[]",
          "name": "ids",
          "type": "uint256[]"
        }
      ],
      "stateMutability": "view",
      "type": "function"
    },
    {
      "inputs": [
        {
          "internalType": "uint256",
          "name": "id",
          "type": "uint256"
        }
      ],
      "name": "getBossStringDataById",
      "outputs": [
        {
          "components": [
            {
              "internalType": "address",
              "name": "owner",
              "type": "address"
            },
            {
              "internalType": "string",
              "name": "name",
              "type": "string"
            },
            {
              "internalType": "string",
              "name": "description",
              "type": "string"
            },
            {
              "internalType": "string",
              "name": "image",
              "type": "string"
            },
            {
              "internalType": "string",
              "name": "attackName",
              "type": "string"
            },
            {
              "internalType": "uint256",
              "name": "health",
              "type": "uint256"
            },
            {
              "internalType": "uint256",
              "name": "maxHealth",
              "type": "uint256"
            },
            {
              "internalType": "uint256",
              "name": "attackDamage",
              "type": "uint256"
            }
          ],
          "internalType": "struct BillionaireBattles.boss",
          "name": "current",
          "type": "tuple"
        }
      ],
      "stateMutability": "view",
      "type": "function"
    },
    {
      "inputs": [
        {
          "internalType": "uint256",
          "name": "id",
          "type": "uint256"
        }
      ],
      "name": "getCharacterById",
      "outputs": [
        {
          "components": [
            {
              "internalType": "address",
              "name": "owner",
              "type": "address"
            },
            {
              "internalType": "bool",
              "name": "isBeingSold",
              "type": "bool"
            },
            {
              "internalType": "string",
              "name": "name",
              "type": "string"
            },
            {
              "internalType": "string",
              "name": "description",
              "type": "string"
            },
            {
              "internalType": "string",
              "name": "image",
              "type": "string"
            },
            {
              "internalType": "uint256",
              "name": "health",
              "type": "uint256"
            },
            {
              "internalType": "uint256",
              "name": "maxHealth",
              "type": "uint256"
            },
            {
              "internalType": "string",
              "name": "attack1Name",
              "type": "string"
            },
            {
              "internalType": "string",
              "name": "attack2Name",
              "type": "string"
            },
            {
              "internalType": "string",
              "name": "attack3Name",
              "type": "string"
            },
            {
              "internalType": "uint256",
              "name": "attackDamageAttack1",
              "type": "uint256"
            },
            {
              "internalType": "uint256",
              "name": "attackDamageAttack2",
              "type": "uint256"
            },
            {
              "internalType": "uint256",
              "name": "attackDamageAttack3",
              "type": "uint256"
            }
          ],
          "internalType": "struct BillionaireBattles.character",
          "name": "",
          "type": "tuple"
        }
      ],
      "stateMutability": "view",
      "type": "function"
    },
    {
      "inputs": [],
      "name": "getCharacterCount",
      "outputs": [
        {
          "internalType": "uint256",
          "name": "",
          "type": "uint256"
        }
      ],
      "stateMutability": "view",
      "type": "function"
    },
    {
      "inputs": [
        {
          "internalType": "uint256",
          "name": "index",
          "type": "uint256"
        }
      ],
      "name": "getCharacterDisplayDataById",
      "outputs": [
        {
          "internalType": "string[]",
          "name": "",
          "type": "string[]"
        }
      ],
      "stateMutability": "view",
      "type": "function"
    },
    {
      "inputs": [
        {
          "internalType": "uint256",
          "name": "index",
          "type": "uint256"
        }
      ],
      "name": "getCharacterHealthAndMaxHealthById",
      "outputs": [
        {
          "internalType": "uint256[]",
          "name": "",
          "type": "uint256[]"
        }
      ],
      "stateMutability": "view",
      "type": "function"
    },
    {
      "inputs": [
        {
          "internalType": "address",
          "name": "current",
          "type": "address"
        }
      ],
      "name": "getCharactersFromAddress",
      "outputs": [
        {
          "internalType": "uint256[]",
          "name": "",
          "type": "uint256[]"
        }
      ],
      "stateMutability": "view",
      "type": "function"
    },
    {
      "inputs": [],
      "name": "getListingFee",
      "outputs": [
        {
          "internalType": "uint256",
          "name": "",
          "type": "uint256"
        }
      ],
      "stateMutability": "view",
      "type": "function"
    },
    {
      "inputs": [],
      "name": "getMarketItems",
      "outputs": [
        {
          "internalType": "uint256[]",
          "name": "",
          "type": "uint256[]"
        }
      ],
      "stateMutability": "view",
      "type": "function"
    },
    {
      "inputs": [
        {
          "internalType": "uint256",
          "name": "id",
          "type": "uint256"
        }
      ],
      "name": "getOwnerOfCharcterByID",
      "outputs": [
        {
          "internalType": "address",
          "name": "",
          "type": "address"
        }
      ],
      "stateMutability": "view",
      "type": "function"
    },
    {
      "inputs": [
        {
          "internalType": "uint256",
          "name": "id",
          "type": "uint256"
        }
      ],
      "name": "getPriceById",
      "outputs": [
        {
          "internalType": "uint256",
          "name": "",
          "type": "uint256"
        }
      ],
      "stateMutability": "view",
      "type": "function"
    },
    {
      "inputs": [],
      "name": "getReviveCost",
      "outputs": [
        {
          "internalType": "uint256",
          "name": "",
          "type": "uint256"
        }
      ],
      "stateMutability": "view",
      "type": "function"
    },
    {
      "inputs": [
        {
          "internalType": "address",
          "name": "owner",
          "type": "address"
        },
        {
          "internalType": "address",
          "name": "operator",
          "type": "address"
        }
      ],
      "name": "isApprovedForAll",
      "outputs": [
        {
          "internalType": "bool",
          "name": "",
          "type": "bool"
        }
      ],
      "stateMutability": "view",
      "type": "function"
    },
    {
      "inputs": [
        {
          "internalType": "uint256",
          "name": "id",
          "type": "uint256"
        }
      ],
      "name": "mintItemById",
      "outputs": [],
      "stateMutability": "nonpayable",
      "type": "function"
    },
    {
      "inputs": [
        {
          "internalType": "string",
          "name": "_name",
          "type": "string"
        },
        {
          "internalType": "string",
          "name": "_description",
          "type": "string"
        },
        {
          "internalType": "uint256",
          "name": "_attack",
          "type": "uint256"
        },
        {
          "internalType": "string",
          "name": "_image",
          "type": "string"
        },
        {
          "internalType": "uint256",
          "name": "_health",
          "type": "uint256"
        },
        {
          "internalType": "string",
          "name": "_attackName",
          "type": "string"
        }
      ],
      "name": "mintNewBoss",
      "outputs": [],
      "stateMutability": "nonpayable",
      "type": "function"
    },
    {
      "inputs": [],
      "name": "name",
      "outputs": [
        {
          "internalType": "string",
          "name": "",
          "type": "string"
        }
      ],
      "stateMutability": "view",
      "type": "function"
    },
    {
      "inputs": [
        {
          "internalType": "uint256",
          "name": "tokenId",
          "type": "uint256"
        }
      ],
      "name": "ownerOf",
      "outputs": [
        {
          "internalType": "address",
          "name": "",
          "type": "address"
        }
      ],
      "stateMutability": "view",
      "type": "function"
    },
    {
      "inputs": [
        {
          "internalType": "address",
          "name": "from",
          "type": "address"
        },
        {
          "internalType": "address",
          "name": "to",
          "type": "address"
        },
        {
          "internalType": "uint256",
          "name": "tokenId",
          "type": "uint256"
        }
      ],
      "name": "safeTransferFrom",
      "outputs": [],
      "stateMutability": "nonpayable",
      "type": "function"
    },
    {
      "inputs": [
        {
          "internalType": "address",
          "name": "from",
          "type": "address"
        },
        {
          "internalType": "address",
          "name": "to",
          "type": "address"
        },
        {
          "internalType": "uint256",
          "name": "tokenId",
          "type": "uint256"
        },
        {
          "internalType": "bytes",
          "name": "_data",
          "type": "bytes"
        }
      ],
      "name": "safeTransferFrom",
      "outputs": [],
      "stateMutability": "nonpayable",
      "type": "function"
    },
    {
      "inputs": [
        {
          "internalType": "address",
          "name": "operator",
          "type": "address"
        },
        {
          "internalType": "bool",
          "name": "approved",
          "type": "bool"
        }
      ],
      "name": "setApprovalForAll",
      "outputs": [],
      "stateMutability": "nonpayable",
      "type": "function"
    },
    {
      "inputs": [
        {
          "internalType": "bytes4",
          "name": "interfaceId",
          "type": "bytes4"
        }
      ],
      "name": "supportsInterface",
      "outputs": [
        {
          "internalType": "bool",
          "name": "",
          "type": "bool"
        }
      ],
      "stateMutability": "view",
      "type": "function"
    },
    {
      "inputs": [],
      "name": "symbol",
      "outputs": [
        {
          "internalType": "string",
          "name": "",
          "type": "string"
        }
      ],
      "stateMutability": "view",
      "type": "function"
    },
    {
      "inputs": [
        {
          "internalType": "uint256",
          "name": "tokenId",
          "type": "uint256"
        }
      ],
      "name": "tokenURI",
      "outputs": [
        {
          "internalType": "string",
          "name": "",
          "type": "string"
        }
      ],
      "stateMutability": "view",
      "type": "function"
    },
    {
      "inputs": [
        {
          "internalType": "address",
          "name": "from",
          "type": "address"
        },
        {
          "internalType": "address",
          "name": "to",
          "type": "address"
        },
        {
          "internalType": "uint256",
          "name": "tokenId",
          "type": "uint256"
        }
      ],
      "name": "transferFrom",
      "outputs": [],
      "stateMutability": "nonpayable",
      "type": "function"
    }
  ],
  "bytecode": "0x608060405260006008553480156200001657600080fd5b50604051620058b5380380620058b583398181016040528101906200003c91906200084f565b6040518060400160405280601381526020017f42696c6c696f6e6169726520426174746c6573000000000000000000000000008152506040518060400160405280600381526020017f42425400000000000000000000000000000000000000000000000000000000008152508160009080519060200190620000c0929190620005e2565b508060019080519060200190620000d9929190620005e2565b5050506005600681905550600560078190555060005b6002811015620005d057600c604051806101a001604052803073ffffffffffffffffffffffffffffffffffffffff1681526020016000151581526020018e848151811062000166577f4e487b7100000000000000000000000000000000000000000000000000000000600052603260045260246000fd5b602002602001015181526020018d8481518110620001ad577f4e487b7100000000000000000000000000000000000000000000000000000000600052603260045260246000fd5b602002602001015181526020018c8481518110620001f4577f4e487b7100000000000000000000000000000000000000000000000000000000600052603260045260246000fd5b602002602001015181526020018b84815181106200023b577f4e487b7100000000000000000000000000000000000000000000000000000000600052603260045260246000fd5b602002602001015181526020018a848151811062000282577f4e487b7100000000000000000000000000000000000000000000000000000000600052603260045260246000fd5b60200260200101518152602001898481518110620002c9577f4e487b7100000000000000000000000000000000000000000000000000000000600052603260045260246000fd5b6020026020010151815260200188848151811062000310577f4e487b7100000000000000000000000000000000000000000000000000000000600052603260045260246000fd5b6020026020010151815260200187848151811062000357577f4e487b7100000000000000000000000000000000000000000000000000000000600052603260045260246000fd5b602002602001015181526020018684815181106200039e577f4e487b7100000000000000000000000000000000000000000000000000000000600052603260045260246000fd5b60200260200101518152602001858481518110620003e5577f4e487b7100000000000000000000000000000000000000000000000000000000600052603260045260246000fd5b602002602001015181526020018484815181106200042c577f4e487b7100000000000000000000000000000000000000000000000000000000600052603260045260246000fd5b602002602001015181525090806001815401808255809150506001900390600052602060002090600c020160009091909190915060008201518160000160006101000a81548173ffffffffffffffffffffffffffffffffffffffff021916908373ffffffffffffffffffffffffffffffffffffffff16021790555060208201518160000160146101000a81548160ff0219169083151502179055506040820151816001019080519060200190620004e5929190620005e2565b50606082015181600201908051906020019062000504929190620005e2565b50608082015181600301908051906020019062000523929190620005e2565b5060a0820151816004015560c0820151816005015560e082015181600601908051906020019062000556929190620005e2565b5061010082015181600701908051906020019062000576929190620005e2565b5061012082015181600801908051906020019062000596929190620005e2565b50610140820151816009015561016082015181600a015561018082015181600b015550508080620005c79062000ba4565b915050620000ef565b50505050505050505050505062000c99565b828054620005f09062000b6e565b90600052602060002090601f01602090048101928262000614576000855562000660565b82601f106200062f57805160ff191683800117855562000660565b8280016001018555821562000660579182015b828111156200065f57825182559160200191906001019062000642565b5b5090506200066f919062000673565b5090565b5b808211156200068e57600081600090555060010162000674565b5090565b6000620006a9620006a38462000a9d565b62000a69565b9050808382526020820190508260005b85811015620006ed5781518501620006d288826200080b565b845260208401935060208301925050600181019050620006b9565b5050509392505050565b60006200070e620007088462000acc565b62000a69565b905080838252602082019050828560208602820111156200072e57600080fd5b60005b8581101562000762578162000747888262000838565b84526020840193506020830192505060018101905062000731565b5050509392505050565b6000620007836200077d8462000afb565b62000a69565b9050828152602081018484840111156200079c57600080fd5b620007a984828562000b38565b509392505050565b600082601f830112620007c357600080fd5b8151620007d584826020860162000692565b91505092915050565b600082601f830112620007f057600080fd5b815162000802848260208601620006f7565b91505092915050565b600082601f8301126200081d57600080fd5b81516200082f8482602086016200076c565b91505092915050565b600081519050620008498162000c7f565b92915050565b60008060008060008060008060008060006101608c8e0312156200087257600080fd5b60008c015167ffffffffffffffff8111156200088d57600080fd5b6200089b8e828f01620007b1565b9b505060208c015167ffffffffffffffff811115620008b957600080fd5b620008c78e828f01620007b1565b9a505060408c015167ffffffffffffffff811115620008e557600080fd5b620008f38e828f01620007b1565b99505060608c015167ffffffffffffffff8111156200091157600080fd5b6200091f8e828f01620007de565b98505060808c015167ffffffffffffffff8111156200093d57600080fd5b6200094b8e828f01620007de565b97505060a08c015167ffffffffffffffff8111156200096957600080fd5b620009778e828f01620007b1565b96505060c08c015167ffffffffffffffff8111156200099557600080fd5b620009a38e828f01620007b1565b95505060e08c015167ffffffffffffffff811115620009c157600080fd5b620009cf8e828f01620007b1565b9450506101008c015167ffffffffffffffff811115620009ee57600080fd5b620009fc8e828f01620007de565b9350506101208c015167ffffffffffffffff81111562000a1b57600080fd5b62000a298e828f01620007de565b9250506101408c015167ffffffffffffffff81111562000a4857600080fd5b62000a568e828f01620007de565b9150509295989b509295989b9093969950565b6000604051905081810181811067ffffffffffffffff8211171562000a935762000a9262000c50565b5b8060405250919050565b600067ffffffffffffffff82111562000abb5762000aba62000c50565b5b602082029050602081019050919050565b600067ffffffffffffffff82111562000aea5762000ae962000c50565b5b602082029050602081019050919050565b600067ffffffffffffffff82111562000b195762000b1862000c50565b5b601f19601f8301169050602081019050919050565b6000819050919050565b60005b8381101562000b5857808201518184015260208101905062000b3b565b8381111562000b68576000848401525b50505050565b6000600282049050600182168062000b8757607f821691505b6020821081141562000b9e5762000b9d62000c21565b5b50919050565b600062000bb18262000b2e565b91507fffffffffffffffffffffffffffffffffffffffffffffffffffffffffffffffff82141562000be75762000be662000bf2565b5b600182019050919050565b7f4e487b7100000000000000000000000000000000000000000000000000000000600052601160045260246000fd5b7f4e487b7100000000000000000000000000000000000000000000000000000000600052602260045260246000fd5b7f4e487b7100000000000000000000000000000000000000000000000000000000600052604160045260246000fd5b62000c8a8162000b2e565b811462000c9657600080fd5b50565b614c0c8062000ca96000396000f3fe6080604052600436106101d85760003560e01c80636cfc054211610102578063b9256b1b11610095578063e985e9c511610064578063e985e9c5146106fb578063eb5b686814610738578063f40df93714610775578063fdb205eb1461079e576101d8565b8063b9256b1b14610628578063be9af53614610665578063c87b56dd14610681578063e034713d146106be576101d8565b806395d89b41116100d157806395d89b4114610580578063a22cb465146105ab578063b88d4fde146105d4578063b8fe6abe146105fd576101d8565b80636cfc0542146104b057806370a08231146104db5780637577e86d1461051857806383e56dca14610555576101d8565b806329aa3a421161017a5780636352211e116101495780636352211e146103e25780636456152a1461041f57806365df8ce71461044857806368baf0a014610473576101d8565b806329aa3a421461033a5780633d936d2d1461036557806342842e0e146103905780634f2ccf42146103b9576101d8565b8063095ea7b3116101b6578063095ea7b3146102825780631a9a0428146102ab5780631bafbaa6146102e857806323b872dd14610311576101d8565b806301ffc9a7146101dd57806306fdde031461021a578063081812fc14610245575b600080fd5b3480156101e957600080fd5b5061020460048036038101906101ff9190613747565b6107db565b604051610211919061445d565b60405180910390f35b34801561022657600080fd5b5061022f6108bd565b60405161023c9190614478565b60405180910390f35b34801561025157600080fd5b5061026c60048036038101906102679190613882565b61094f565b60405161027991906143b2565b60405180910390f35b34801561028e57600080fd5b506102a960048036038101906102a4919061370b565b6109d4565b005b3480156102b757600080fd5b506102d260048036038101906102cd9190613882565b610aec565b6040516102df91906143b2565b60405180910390f35b3480156102f457600080fd5b5061030f600480360381019061030a9190613882565b610b2c565b005b34801561031d57600080fd5b5061033860048036038101906103339190613605565b610e1b565b005b34801561034657600080fd5b5061034f610e7b565b60405161035c919061443b565b60405180910390f35b34801561037157600080fd5b5061037a610fa1565b604051610387919061471e565b60405180910390f35b34801561039c57600080fd5b506103b760048036038101906103b29190613605565b610fab565b005b3480156103c557600080fd5b506103e060048036038101906103db91906138e7565b610fcb565b005b3480156103ee57600080fd5b5061040960048036038101906104049190613882565b611073565b60405161041691906143b2565b60405180910390f35b34801561042b57600080fd5b50610446600480360381019061044191906138ab565b611125565b005b34801561045457600080fd5b5061045d6111be565b60405161046a919061471e565b60405180910390f35b34801561047f57600080fd5b5061049a600480360381019061049591906135a0565b6111c8565b6040516104a7919061443b565b60405180910390f35b3480156104bc57600080fd5b506104c561132d565b6040516104d2919061443b565b60405180910390f35b3480156104e757600080fd5b5061050260048036038101906104fd91906135a0565b611445565b60405161050f919061471e565b60405180910390f35b34801561052457600080fd5b5061053f600480360381019061053a9190613882565b6114fd565b60405161054c9190614419565b60405180910390f35b34801561056157600080fd5b5061056a611755565b6040516105779190614478565b60405180910390f35b34801561058c57600080fd5b506105956117fc565b6040516105a29190614478565b60405180910390f35b3480156105b757600080fd5b506105d260048036038101906105cd91906136cf565b61188e565b005b3480156105e057600080fd5b506105fb60048036038101906105f69190613654565b6118a4565b005b34801561060957600080fd5b50610612611906565b60405161061f919061471e565b60405180910390f35b34801561063457600080fd5b5061064f600480360381019061064a9190613882565b611910565b60405161065c919061471e565b60405180910390f35b61067f600480360381019061067a9190613882565b61192d565b005b34801561068d57600080fd5b506106a860048036038101906106a39190613882565b611aa6565b6040516106b59190614478565b60405180910390f35b3480156106ca57600080fd5b506106e560048036038101906106e09190613882565b611b4d565b6040516106f291906146fc565b60405180910390f35b34801561070757600080fd5b50610722600480360381019061071d91906135c9565b611f8a565b60405161072f919061445d565b60405180910390f35b34801561074457600080fd5b5061075f600480360381019061075a9190613882565b61201e565b60405161076c91906146da565b60405180910390f35b34801561078157600080fd5b5061079c60048036038101906107979190613799565b612308565b005b3480156107aa57600080fd5b506107c560048036038101906107c09190613882565b61247b565b6040516107d2919061443b565b60405180910390f35b60007f80ac58cd000000000000000000000000000000000000000000000000000000007bffffffffffffffffffffffffffffffffffffffffffffffffffffffff1916827bffffffffffffffffffffffffffffffffffffffffffffffffffffffff191614806108a657507f5b5e139f000000000000000000000000000000000000000000000000000000007bffffffffffffffffffffffffffffffffffffffffffffffffffffffff1916827bffffffffffffffffffffffffffffffffffffffffffffffffffffffff1916145b806108b657506108b5826125c0565b5b9050919050565b6060600080546108cc90614a01565b80601f01602080910402602001604051908101604052809291908181526020018280546108f890614a01565b80156109455780601f1061091a57610100808354040283529160200191610945565b820191906000526020600020905b81548152906001019060200180831161092857829003601f168201915b5050505050905090565b600061095a8261262a565b610999576040517f08c379a00000000000000000000000000000000000000000000000000000000081526004016109909061463a565b60405180910390fd5b6004600083815260200190815260200160002060009054906101000a900473ffffffffffffffffffffffffffffffffffffffff169050919050565b60006109df82611073565b90508073ffffffffffffffffffffffffffffffffffffffff168373ffffffffffffffffffffffffffffffffffffffff161415610a50576040517f08c379a0000000000000000000000000000000000000000000000000000000008152600401610a479061467a565b60405180910390fd5b8073ffffffffffffffffffffffffffffffffffffffff16610a6f612696565b73ffffffffffffffffffffffffffffffffffffffff161480610a9e5750610a9d81610a98612696565b611f8a565b5b610add576040517f08c379a0000000000000000000000000000000000000000000000000000000008152600401610ad4906145ba565b60405180910390fd5b610ae7838361269e565b505050565b6000600a600083815260200190815260200160002060000160009054906101000a900473ffffffffffffffffffffffffffffffffffffffff169050919050565b6000811015610b70576040517f08c379a0000000000000000000000000000000000000000000000000000000008152600401610b679061469a565b60405180910390fd5b600c805490508110610bb7576040517f08c379a0000000000000000000000000000000000000000000000000000000008152600401610bae9061457a565b60405180910390fd5b60086000815480929190610bca90614a33565b9190505550600c8181548110610c09577f4e487b7100000000000000000000000000000000000000000000000000000000600052603260045260246000fd5b90600052602060002090600c0201600a600060085481526020019081526020016000206000820160009054906101000a900473ffffffffffffffffffffffffffffffffffffffff168160000160006101000a81548173ffffffffffffffffffffffffffffffffffffffff021916908373ffffffffffffffffffffffffffffffffffffffff1602179055506000820160149054906101000a900460ff168160000160146101000a81548160ff0219169083151502179055506001820181600101908054610cd490614a01565b610cdf92919061325c565b506002820181600201908054610cf490614a01565b610cff92919061325c565b506003820181600301908054610d1490614a01565b610d1f92919061325c565b5060048201548160040155600582015481600501556006820181600601908054610d4890614a01565b610d5392919061325c565b506007820181600701908054610d6890614a01565b610d7392919061325c565b506008820181600801908054610d8890614a01565b610d9392919061325c565b5060098201548160090155600a82015481600a0155600b82015481600b015590505033600a6000600854815260200190815260200160002060000160006101000a81548173ffffffffffffffffffffffffffffffffffffffff021916908373ffffffffffffffffffffffffffffffffffffffff160217905550610e1833600854612757565b50565b610e2c610e26612696565b82612775565b610e6b576040517f08c379a0000000000000000000000000000000000000000000000000000000008152600401610e62906146ba565b60405180910390fd5b610e76838383612853565b505050565b606060008060085467ffffffffffffffff811115610ec2577f4e487b7100000000000000000000000000000000000000000000000000000000600052604160045260246000fd5b604051908082528060200260200182016040528015610ef05781602001602082028036833780820191505090505b50905060005b600854811015610f985760011515600a600083815260200190815260200160002060000160149054906101000a900460ff1615151415610f855780828481518110610f6a577f4e487b7100000000000000000000000000000000000000000000000000000000600052603260045260246000fd5b6020026020010181815250508280610f8190614a33565b9350505b8080610f9090614a33565b915050610ef6565b50809250505090565b6000600754905090565b610fc6838383604051806020016040528060008152506118a4565b505050565b60006001831415610ff457600a6000858152602001908152602001600020600901549050611040565b600283141561101b57600a6000858152602001908152602001600020600a0154905061103f565b600383141561103e57600a6000858152602001908152602001600020600b015490505b5b5b806009600084815260200190815260200160002060050160008282546110669190614917565b9250508190555050505050565b6000806002600084815260200190815260200160002060009054906101000a900473ffffffffffffffffffffffffffffffffffffffff169050600073ffffffffffffffffffffffffffffffffffffffff168173ffffffffffffffffffffffffffffffffffffffff16141561111c576040517f08c379a0000000000000000000000000000000000000000000000000000000008152600401611113906145fa565b60405180910390fd5b80915050919050565b60008111611168576040517f08c379a000000000000000000000000000000000000000000000000000000000815260040161115f906144fa565b60405180910390fd5b80600b6000848152602001908152602001600020819055506001600a600084815260200190815260200160002060000160146101000a81548160ff0219169083151502179055506111ba333084612853565b5050565b6000600854905090565b606060008060085467ffffffffffffffff81111561120f577f4e487b7100000000000000000000000000000000000000000000000000000000600052604160045260246000fd5b60405190808252806020026020018201604052801561123d5781602001602082028036833780820191505090505b5090506000600190505b6008548111611322578473ffffffffffffffffffffffffffffffffffffffff16600a600083815260200190815260200160002060000160009054906101000a900473ffffffffffffffffffffffffffffffffffffffff1673ffffffffffffffffffffffffffffffffffffffff16141561130f57808284815181106112f4577f4e487b7100000000000000000000000000000000000000000000000000000000600052603260045260246000fd5b602002602001018181525050828061130b90614a33565b9350505b808061131a90614a33565b915050611247565b508092505050919050565b606060008060085467ffffffffffffffff811115611374577f4e487b7100000000000000000000000000000000000000000000000000000000600052604160045260246000fd5b6040519080825280602002602001820160405280156113a25781602001602082028036833780820191505090505b5090506000600190505b600854811161143c57600060096000838152602001908152602001600020600501541115611429578082848151811061140e577f4e487b7100000000000000000000000000000000000000000000000000000000600052603260045260246000fd5b602002602001018181525050828061142590614a33565b9350505b808061143490614a33565b9150506113ac565b50809250505090565b60008073ffffffffffffffffffffffffffffffffffffffff168273ffffffffffffffffffffffffffffffffffffffff1614156114b6576040517f08c379a00000000000000000000000000000000000000000000000000000000081526004016114ad906145da565b60405180910390fd5b600360008373ffffffffffffffffffffffffffffffffffffffff1673ffffffffffffffffffffffffffffffffffffffff168152602001908152602001600020549050919050565b60606000600467ffffffffffffffff811115611542577f4e487b7100000000000000000000000000000000000000000000000000000000600052604160045260246000fd5b60405190808252806020026020018201604052801561157557816020015b60608152602001906001900390816115605790505b5090506000600a6000858152602001908152602001600020600301805461159b90614a01565b80601f01602080910402602001604051908101604052809291908181526020018280546115c790614a01565b80156116145780601f106115e957610100808354040283529160200191611614565b820191906000526020600020905b8154815290600101906020018083116115f757829003601f168201915b505050505090506000600a6000868152602001908152602001600020600101805461163e90614a01565b80601f016020809104026020016040519081016040528092919081815260200182805461166a90614a01565b80156116b75780601f1061168c576101008083540402835291602001916116b7565b820191906000526020600020905b81548152906001019060200180831161169a57829003601f168201915b5050505050905081836000815181106116f9577f4e487b7100000000000000000000000000000000000000000000000000000000600052603260045260246000fd5b6020026020010181905250808360018151811061173f577f4e487b7100000000000000000000000000000000000000000000000000000000600052603260045260246000fd5b6020026020010181905250829350505050919050565b6060600a600060018152602001908152602001600020600101805461177990614a01565b80601f01602080910402602001604051908101604052809291908181526020018280546117a590614a01565b80156117f25780601f106117c7576101008083540402835291602001916117f2565b820191906000526020600020905b8154815290600101906020018083116117d557829003601f168201915b5050505050905090565b60606001805461180b90614a01565b80601f016020809104026020016040519081016040528092919081815260200182805461183790614a01565b80156118845780601f1061185957610100808354040283529160200191611884565b820191906000526020600020905b81548152906001019060200180831161186757829003601f168201915b5050505050905090565b6118a0611899612696565b8383612aba565b5050565b6118b56118af612696565b83612775565b6118f4576040517f08c379a00000000000000000000000000000000000000000000000000000000081526004016118eb906146ba565b60405180910390fd5b61190084848484612c27565b50505050565b6000600654905090565b6000600b6000838152602001908152602001600020549050919050565b60011515600a600083815260200190815260200160002060000160149054906101000a900460ff16151514611997576040517f08c379a000000000000000000000000000000000000000000000000000000000815260040161198e9061455a565b60405180910390fd5b600a600082815260200190815260200160002060000160009054906101000a900473ffffffffffffffffffffffffffffffffffffffff1673ffffffffffffffffffffffffffffffffffffffff166108fc349081150290604051600060405180830381858888f19350505050158015611a13573d6000803e3d6000fd5b5033600a600083815260200190815260200160002060000160006101000a81548173ffffffffffffffffffffffffffffffffffffffff021916908373ffffffffffffffffffffffffffffffffffffffff1602179055506000600a600083815260200190815260200160002060000160146101000a81548160ff021916908315150217905550611aa3303383612853565b50565b6060611ab18261262a565b611af0576040517f08c379a0000000000000000000000000000000000000000000000000000000008152600401611ae79061465a565b60405180910390fd5b6000611afa612c83565b90506000815111611b1a5760405180602001604052806000815250611b45565b80611b2484612c9a565b604051602001611b3592919061438e565b6040516020818303038152906040525b915050919050565b611b556132e9565b600a6000838152602001908152602001600020604051806101a00160405290816000820160009054906101000a900473ffffffffffffffffffffffffffffffffffffffff1673ffffffffffffffffffffffffffffffffffffffff1673ffffffffffffffffffffffffffffffffffffffff1681526020016000820160149054906101000a900460ff16151515158152602001600182018054611bf590614a01565b80601f0160208091040260200160405190810160405280929190818152602001828054611c2190614a01565b8015611c6e5780601f10611c4357610100808354040283529160200191611c6e565b820191906000526020600020905b815481529060010190602001808311611c5157829003601f168201915b50505050508152602001600282018054611c8790614a01565b80601f0160208091040260200160405190810160405280929190818152602001828054611cb390614a01565b8015611d005780601f10611cd557610100808354040283529160200191611d00565b820191906000526020600020905b815481529060010190602001808311611ce357829003601f168201915b50505050508152602001600382018054611d1990614a01565b80601f0160208091040260200160405190810160405280929190818152602001828054611d4590614a01565b8015611d925780601f10611d6757610100808354040283529160200191611d92565b820191906000526020600020905b815481529060010190602001808311611d7557829003601f168201915b505050505081526020016004820154815260200160058201548152602001600682018054611dbf90614a01565b80601f0160208091040260200160405190810160405280929190818152602001828054611deb90614a01565b8015611e385780601f10611e0d57610100808354040283529160200191611e38565b820191906000526020600020905b815481529060010190602001808311611e1b57829003601f168201915b50505050508152602001600782018054611e5190614a01565b80601f0160208091040260200160405190810160405280929190818152602001828054611e7d90614a01565b8015611eca5780601f10611e9f57610100808354040283529160200191611eca565b820191906000526020600020905b815481529060010190602001808311611ead57829003601f168201915b50505050508152602001600882018054611ee390614a01565b80601f0160208091040260200160405190810160405280929190818152602001828054611f0f90614a01565b8015611f5c5780601f10611f3157610100808354040283529160200191611f5c565b820191906000526020600020905b815481529060010190602001808311611f3f57829003601f168201915b5050505050815260200160098201548152602001600a8201548152602001600b820154815250509050919050565b6000600560008473ffffffffffffffffffffffffffffffffffffffff1673ffffffffffffffffffffffffffffffffffffffff16815260200190815260200160002060008373ffffffffffffffffffffffffffffffffffffffff1673ffffffffffffffffffffffffffffffffffffffff16815260200190815260200160002060009054906101000a900460ff16905092915050565b612026613369565b60096000838152602001908152602001600020604051806101000160405290816000820160009054906101000a900473ffffffffffffffffffffffffffffffffffffffff1673ffffffffffffffffffffffffffffffffffffffff1673ffffffffffffffffffffffffffffffffffffffff1681526020016001820180546120ab90614a01565b80601f01602080910402602001604051908101604052809291908181526020018280546120d790614a01565b80156121245780601f106120f957610100808354040283529160200191612124565b820191906000526020600020905b81548152906001019060200180831161210757829003601f168201915b5050505050815260200160028201805461213d90614a01565b80601f016020809104026020016040519081016040528092919081815260200182805461216990614a01565b80156121b65780601f1061218b576101008083540402835291602001916121b6565b820191906000526020600020905b81548152906001019060200180831161219957829003601f168201915b505050505081526020016003820180546121cf90614a01565b80601f01602080910402602001604051908101604052809291908181526020018280546121fb90614a01565b80156122485780601f1061221d57610100808354040283529160200191612248565b820191906000526020600020905b81548152906001019060200180831161222b57829003601f168201915b5050505050815260200160048201805461226190614a01565b80601f016020809104026020016040519081016040528092919081815260200182805461228d90614a01565b80156122da5780601f106122af576101008083540402835291602001916122da565b820191906000526020600020905b8154815290600101906020018083116122bd57829003601f168201915b5050505050815260200160058201548152602001600682015481526020016007820154815250509050919050565b6008600081548092919061231b90614a33565b9190505550600060085490506040518061010001604052803373ffffffffffffffffffffffffffffffffffffffff168152602001888152602001878152602001858152602001838152602001848152602001848152602001868152506009600083815260200190815260200160002060008201518160000160006101000a81548173ffffffffffffffffffffffffffffffffffffffff021916908373ffffffffffffffffffffffffffffffffffffffff16021790555060208201518160010190805190602001906123ed9291906133c4565b50604082015181600201908051906020019061240a9291906133c4565b5060608201518160030190805190602001906124279291906133c4565b5060808201518160040190805190602001906124449291906133c4565b5060a0820151816005015560c0820151816006015560e0820151816007015590505061247233600854612757565b50505050505050565b60606000600267ffffffffffffffff8111156124c0577f4e487b7100000000000000000000000000000000000000000000000000000000600052604160045260246000fd5b6040519080825280602002602001820160405280156124ee5781602001602082028036833780820191505090505b5090506000600a60008581526020019081526020016000206004015490506000600a60008681526020019081526020016000206005015490508183600081518110612562577f4e487b7100000000000000000000000000000000000000000000000000000000600052603260045260246000fd5b60200260200101818152505080836001815181106125a9577f4e487b7100000000000000000000000000000000000000000000000000000000600052603260045260246000fd5b602002602001018181525050829350505050919050565b60007f01ffc9a7000000000000000000000000000000000000000000000000000000007bffffffffffffffffffffffffffffffffffffffffffffffffffffffff1916827bffffffffffffffffffffffffffffffffffffffffffffffffffffffff1916149050919050565b60008073ffffffffffffffffffffffffffffffffffffffff166002600084815260200190815260200160002060009054906101000a900473ffffffffffffffffffffffffffffffffffffffff1673ffffffffffffffffffffffffffffffffffffffff1614159050919050565b600033905090565b816004600083815260200190815260200160002060006101000a81548173ffffffffffffffffffffffffffffffffffffffff021916908373ffffffffffffffffffffffffffffffffffffffff160217905550808273ffffffffffffffffffffffffffffffffffffffff1661271183611073565b73ffffffffffffffffffffffffffffffffffffffff167f8c5be1e5ebec7d5bd14f71427d1e84f3dd0314c0f7b2291e5b200ac8c7c3b92560405160405180910390a45050565b612771828260405180602001604052806000815250612e47565b5050565b60006127808261262a565b6127bf576040517f08c379a00000000000000000000000000000000000000000000000000000000081526004016127b69061459a565b60405180910390fd5b60006127ca83611073565b90508073ffffffffffffffffffffffffffffffffffffffff168473ffffffffffffffffffffffffffffffffffffffff16148061280c575061280b8185611f8a565b5b8061284a57508373ffffffffffffffffffffffffffffffffffffffff166128328461094f565b73ffffffffffffffffffffffffffffffffffffffff16145b91505092915050565b8273ffffffffffffffffffffffffffffffffffffffff1661287382611073565b73ffffffffffffffffffffffffffffffffffffffff16146128c9576040517f08c379a00000000000000000000000000000000000000000000000000000000081526004016128c0906144ba565b60405180910390fd5b600073ffffffffffffffffffffffffffffffffffffffff168273ffffffffffffffffffffffffffffffffffffffff161415612939576040517f08c379a00000000000000000000000000000000000000000000000000000000081526004016129309061451a565b60405180910390fd5b612944838383612ea2565b61294f60008261269e565b6001600360008573ffffffffffffffffffffffffffffffffffffffff1673ffffffffffffffffffffffffffffffffffffffff168152602001908152602001600020600082825461299f9190614917565b925050819055506001600360008473ffffffffffffffffffffffffffffffffffffffff1673ffffffffffffffffffffffffffffffffffffffff16815260200190815260200160002060008282546129f69190614890565b92505081905550816002600083815260200190815260200160002060006101000a81548173ffffffffffffffffffffffffffffffffffffffff021916908373ffffffffffffffffffffffffffffffffffffffff160217905550808273ffffffffffffffffffffffffffffffffffffffff168473ffffffffffffffffffffffffffffffffffffffff167fddf252ad1be2c89b69c2b068fc378daa952ba7f163c4a11628f55a4df523b3ef60405160405180910390a4612ab5838383612ea7565b505050565b8173ffffffffffffffffffffffffffffffffffffffff168373ffffffffffffffffffffffffffffffffffffffff161415612b29576040517f08c379a0000000000000000000000000000000000000000000000000000000008152600401612b209061453a565b60405180910390fd5b80600560008573ffffffffffffffffffffffffffffffffffffffff1673ffffffffffffffffffffffffffffffffffffffff16815260200190815260200160002060008473ffffffffffffffffffffffffffffffffffffffff1673ffffffffffffffffffffffffffffffffffffffff16815260200190815260200160002060006101000a81548160ff0219169083151502179055508173ffffffffffffffffffffffffffffffffffffffff168373ffffffffffffffffffffffffffffffffffffffff167f17307eab39ab6107e8899845ad3d59bd9653f200f220920489ca2b5937696c3183604051612c1a919061445d565b60405180910390a3505050565b612c32848484612853565b612c3e84848484612eac565b612c7d576040517f08c379a0000000000000000000000000000000000000000000000000000000008152600401612c749061449a565b60405180910390fd5b50505050565b606060405180602001604052806000815250905090565b60606000821415612ce2576040518060400160405280600181526020017f30000000000000000000000000000000000000000000000000000000000000008152509050612e42565b600082905060005b60008214612d14578080612cfd90614a33565b915050600a82612d0d91906148e6565b9150612cea565b60008167ffffffffffffffff811115612d56577f4e487b7100000000000000000000000000000000000000000000000000000000600052604160045260246000fd5b6040519080825280601f01601f191660200182016040528015612d885781602001600182028036833780820191505090505b5090505b60008514612e3b57600182612da19190614917565b9150600a85612db09190614a7c565b6030612dbc9190614890565b60f81b818381518110612df8577f4e487b7100000000000000000000000000000000000000000000000000000000600052603260045260246000fd5b60200101907effffffffffffffffffffffffffffffffffffffffffffffffffffffffffffff1916908160001a905350600a85612e3491906148e6565b9450612d8c565b8093505050505b919050565b612e518383613043565b612e5e6000848484612eac565b612e9d576040517f08c379a0000000000000000000000000000000000000000000000000000000008152600401612e949061449a565b60405180910390fd5b505050565b505050565b505050565b6000612ecd8473ffffffffffffffffffffffffffffffffffffffff1661321d565b15613036578373ffffffffffffffffffffffffffffffffffffffff1663150b7a02612ef6612696565b8786866040518563ffffffff1660e01b8152600401612f1894939291906143cd565b602060405180830381600087803b158015612f3257600080fd5b505af1925050508015612f6357506040513d601f19601f82011682018060405250810190612f609190613770565b60015b612fe6573d8060008114612f93576040519150601f19603f3d011682016040523d82523d6000602084013e612f98565b606091505b50600081511415612fde576040517f08c379a0000000000000000000000000000000000000000000000000000000008152600401612fd59061449a565b60405180910390fd5b805181602001fd5b63150b7a0260e01b7bffffffffffffffffffffffffffffffffffffffffffffffffffffffff1916817bffffffffffffffffffffffffffffffffffffffffffffffffffffffff19161491505061303b565b600190505b949350505050565b600073ffffffffffffffffffffffffffffffffffffffff168273ffffffffffffffffffffffffffffffffffffffff1614156130b3576040517f08c379a00000000000000000000000000000000000000000000000000000000081526004016130aa9061461a565b60405180910390fd5b6130bc8161262a565b156130fc576040517f08c379a00000000000000000000000000000000000000000000000000000000081526004016130f3906144da565b60405180910390fd5b61310860008383612ea2565b6001600360008473ffffffffffffffffffffffffffffffffffffffff1673ffffffffffffffffffffffffffffffffffffffff16815260200190815260200160002060008282546131589190614890565b92505081905550816002600083815260200190815260200160002060006101000a81548173ffffffffffffffffffffffffffffffffffffffff021916908373ffffffffffffffffffffffffffffffffffffffff160217905550808273ffffffffffffffffffffffffffffffffffffffff16600073ffffffffffffffffffffffffffffffffffffffff167fddf252ad1be2c89b69c2b068fc378daa952ba7f163c4a11628f55a4df523b3ef60405160405180910390a461321960008383612ea7565b5050565b6000808273ffffffffffffffffffffffffffffffffffffffff16803b806020016040519081016040528181526000908060200190933c51119050919050565b82805461326890614a01565b90600052602060002090601f01602090048101928261328a57600085556132d8565b82601f1061329b57805485556132d8565b828001600101855582156132d857600052602060002091601f016020900482015b828111156132d75782548255916001019190600101906132bc565b5b5090506132e5919061344a565b5090565b604051806101a00160405280600073ffffffffffffffffffffffffffffffffffffffff16815260200160001515815260200160608152602001606081526020016060815260200160008152602001600081526020016060815260200160608152602001606081526020016000815260200160008152602001600081525090565b604051806101000160405280600073ffffffffffffffffffffffffffffffffffffffff168152602001606081526020016060815260200160608152602001606081526020016000815260200160008152602001600081525090565b8280546133d090614a01565b90600052602060002090601f0160209004810192826133f25760008555613439565b82601f1061340b57805160ff1916838001178555613439565b82800160010185558215613439579182015b8281111561343857825182559160200191906001019061341d565b5b509050613446919061344a565b5090565b5b8082111561346357600081600090555060010161344b565b5090565b600061347a6134758461476a565b614739565b90508281526020810184848401111561349257600080fd5b61349d8482856149bf565b509392505050565b60006134b86134b38461479a565b614739565b9050828152602081018484840111156134d057600080fd5b6134db8482856149bf565b509392505050565b6000813590506134f281614b7a565b92915050565b60008135905061350781614b91565b92915050565b60008135905061351c81614ba8565b92915050565b60008151905061353181614ba8565b92915050565b600082601f83011261354857600080fd5b8135613558848260208601613467565b91505092915050565b600082601f83011261357257600080fd5b81356135828482602086016134a5565b91505092915050565b60008135905061359a81614bbf565b92915050565b6000602082840312156135b257600080fd5b60006135c0848285016134e3565b91505092915050565b600080604083850312156135dc57600080fd5b60006135ea858286016134e3565b92505060206135fb858286016134e3565b9150509250929050565b60008060006060848603121561361a57600080fd5b6000613628868287016134e3565b9350506020613639868287016134e3565b925050604061364a8682870161358b565b9150509250925092565b6000806000806080858703121561366a57600080fd5b6000613678878288016134e3565b9450506020613689878288016134e3565b935050604061369a8782880161358b565b925050606085013567ffffffffffffffff8111156136b757600080fd5b6136c387828801613537565b91505092959194509250565b600080604083850312156136e257600080fd5b60006136f0858286016134e3565b9250506020613701858286016134f8565b9150509250929050565b6000806040838503121561371e57600080fd5b600061372c858286016134e3565b925050602061373d8582860161358b565b9150509250929050565b60006020828403121561375957600080fd5b60006137678482850161350d565b91505092915050565b60006020828403121561378257600080fd5b600061379084828501613522565b91505092915050565b60008060008060008060c087890312156137b257600080fd5b600087013567ffffffffffffffff8111156137cc57600080fd5b6137d889828a01613561565b965050602087013567ffffffffffffffff8111156137f557600080fd5b61380189828a01613561565b955050604061381289828a0161358b565b945050606087013567ffffffffffffffff81111561382f57600080fd5b61383b89828a01613561565b935050608061384c89828a0161358b565b92505060a087013567ffffffffffffffff81111561386957600080fd5b61387589828a01613561565b9150509295509295509295565b60006020828403121561389457600080fd5b60006138a28482850161358b565b91505092915050565b600080604083850312156138be57600080fd5b60006138cc8582860161358b565b92505060206138dd8582860161358b565b9150509250929050565b6000806000606084860312156138fc57600080fd5b600061390a8682870161358b565b935050602061391b8682870161358b565b925050604061392c8682870161358b565b9150509250925092565b60006139428383613aaa565b905092915050565b60006139568383614370565b60208301905092915050565b61396b8161494b565b82525050565b61397a8161494b565b82525050565b600061398b826147ea565b6139958185614830565b9350836020820285016139a7856147ca565b8060005b858110156139e357848403895281516139c48582613936565b94506139cf83614816565b925060208a019950506001810190506139ab565b50829750879550505050505092915050565b6000613a00826147f5565b613a0a8185614841565b9350613a15836147da565b8060005b83811015613a46578151613a2d888261394a565b9750613a3883614823565b925050600181019050613a19565b5085935050505092915050565b613a5c8161495d565b82525050565b613a6b8161495d565b82525050565b6000613a7c82614800565b613a868185614852565b9350613a968185602086016149ce565b613a9f81614b69565b840191505092915050565b6000613ab58261480b565b613abf8185614863565b9350613acf8185602086016149ce565b613ad881614b69565b840191505092915050565b6000613aee8261480b565b613af88185614874565b9350613b088185602086016149ce565b613b1181614b69565b840191505092915050565b6000613b278261480b565b613b318185614885565b9350613b418185602086016149ce565b80840191505092915050565b6000613b5a603283614874565b91507f4552433732313a207472616e7366657220746f206e6f6e20455243373231526560008301527f63656976657220696d706c656d656e74657200000000000000000000000000006020830152604082019050919050565b6000613bc0602583614874565b91507f4552433732313a207472616e736665722066726f6d20696e636f72726563742060008301527f6f776e65720000000000000000000000000000000000000000000000000000006020830152604082019050919050565b6000613c26601c83614874565b91507f4552433732313a20746f6b656e20616c7265616479206d696e746564000000006000830152602082019050919050565b6000613c66601083614874565b91507f50726963652063616e27742062652030000000000000000000000000000000006000830152602082019050919050565b6000613ca6602483614874565b91507f4552433732313a207472616e7366657220746f20746865207a65726f2061646460008301527f72657373000000000000000000000000000000000000000000000000000000006020830152604082019050919050565b6000613d0c601983614874565b91507f4552433732313a20617070726f766520746f2063616c6c6572000000000000006000830152602082019050919050565b6000613d4c601983614874565b91507f54686973206974656d206973206e6f7420666f722073616c65000000000000006000830152602082019050919050565b6000613d8c600f83614874565b91507f494420697320746f6f206c6172676500000000000000000000000000000000006000830152602082019050919050565b6000613dcc602c83614874565b91507f4552433732313a206f70657261746f7220717565727920666f72206e6f6e657860008301527f697374656e7420746f6b656e00000000000000000000000000000000000000006020830152604082019050919050565b6000613e32603883614874565b91507f4552433732313a20617070726f76652063616c6c6572206973206e6f74206f7760008301527f6e6572206e6f7220617070726f76656420666f7220616c6c00000000000000006020830152604082019050919050565b6000613e98602a83614874565b91507f4552433732313a2062616c616e636520717565727920666f7220746865207a6560008301527f726f2061646472657373000000000000000000000000000000000000000000006020830152604082019050919050565b6000613efe602983614874565b91507f4552433732313a206f776e657220717565727920666f72206e6f6e657869737460008301527f656e7420746f6b656e00000000000000000000000000000000000000000000006020830152604082019050919050565b6000613f64602083614874565b91507f4552433732313a206d696e7420746f20746865207a65726f20616464726573736000830152602082019050919050565b6000613fa4602c83614874565b91507f4552433732313a20617070726f76656420717565727920666f72206e6f6e657860008301527f697374656e7420746f6b656e00000000000000000000000000000000000000006020830152604082019050919050565b600061400a602f83614874565b91507f4552433732314d657461646174613a2055524920717565727920666f72206e6f60008301527f6e6578697374656e7420746f6b656e00000000000000000000000000000000006020830152604082019050919050565b6000614070602183614874565b91507f4552433732313a20617070726f76616c20746f2063757272656e74206f776e6560008301527f72000000000000000000000000000000000000000000000000000000000000006020830152604082019050919050565b60006140d6601183614874565b91507f4d757374207573652076616c69642049440000000000000000000000000000006000830152602082019050919050565b6000614116603183614874565b91507f4552433732313a207472616e736665722063616c6c6572206973206e6f74206f60008301527f776e6572206e6f7220617070726f7665640000000000000000000000000000006020830152604082019050919050565b6000610100830160008301516141886000860182613962565b50602083015184820360208601526141a08282613aaa565b915050604083015184820360408601526141ba8282613aaa565b915050606083015184820360608601526141d48282613aaa565b915050608083015184820360808601526141ee8282613aaa565b91505060a083015161420360a0860182614370565b5060c083015161421660c0860182614370565b5060e083015161422960e0860182614370565b508091505092915050565b60006101a08301600083015161424d6000860182613962565b5060208301516142606020860182613a53565b50604083015184820360408601526142788282613aaa565b915050606083015184820360608601526142928282613aaa565b915050608083015184820360808601526142ac8282613aaa565b91505060a08301516142c160a0860182614370565b5060c08301516142d460c0860182614370565b5060e083015184820360e08601526142ec8282613aaa565b9150506101008301518482036101008601526143088282613aaa565b9150506101208301518482036101208601526143248282613aaa565b91505061014083015161433b610140860182614370565b50610160830151614350610160860182614370565b50610180830151614365610180860182614370565b508091505092915050565b614379816149b5565b82525050565b614388816149b5565b82525050565b600061439a8285613b1c565b91506143a68284613b1c565b91508190509392505050565b60006020820190506143c76000830184613971565b92915050565b60006080820190506143e26000830187613971565b6143ef6020830186613971565b6143fc604083018561437f565b818103606083015261440e8184613a71565b905095945050505050565b600060208201905081810360008301526144338184613980565b905092915050565b6000602082019050818103600083015261445581846139f5565b905092915050565b60006020820190506144726000830184613a62565b92915050565b600060208201905081810360008301526144928184613ae3565b905092915050565b600060208201905081810360008301526144b381613b4d565b9050919050565b600060208201905081810360008301526144d381613bb3565b9050919050565b600060208201905081810360008301526144f381613c19565b9050919050565b6000602082019050818103600083015261451381613c59565b9050919050565b6000602082019050818103600083015261453381613c99565b9050919050565b6000602082019050818103600083015261455381613cff565b9050919050565b6000602082019050818103600083015261457381613d3f565b9050919050565b6000602082019050818103600083015261459381613d7f565b9050919050565b600060208201905081810360008301526145b381613dbf565b9050919050565b600060208201905081810360008301526145d381613e25565b9050919050565b600060208201905081810360008301526145f381613e8b565b9050919050565b6000602082019050818103600083015261461381613ef1565b9050919050565b6000602082019050818103600083015261463381613f57565b9050919050565b6000602082019050818103600083015261465381613f97565b9050919050565b6000602082019050818103600083015261467381613ffd565b9050919050565b6000602082019050818103600083015261469381614063565b9050919050565b600060208201905081810360008301526146b3816140c9565b9050919050565b600060208201905081810360008301526146d381614109565b9050919050565b600060208201905081810360008301526146f4818461416f565b905092915050565b600060208201905081810360008301526147168184614234565b905092915050565b6000602082019050614733600083018461437f565b92915050565b6000604051905081810181811067ffffffffffffffff821117156147605761475f614b3a565b5b8060405250919050565b600067ffffffffffffffff82111561478557614784614b3a565b5b601f19601f8301169050602081019050919050565b600067ffffffffffffffff8211156147b5576147b4614b3a565b5b601f19601f8301169050602081019050919050565b6000819050602082019050919050565b6000819050602082019050919050565b600081519050919050565b600081519050919050565b600081519050919050565b600081519050919050565b6000602082019050919050565b6000602082019050919050565b600082825260208201905092915050565b600082825260208201905092915050565b600082825260208201905092915050565b600082825260208201905092915050565b600082825260208201905092915050565b600081905092915050565b600061489b826149b5565b91506148a6836149b5565b9250827fffffffffffffffffffffffffffffffffffffffffffffffffffffffffffffffff038211156148db576148da614aad565b5b828201905092915050565b60006148f1826149b5565b91506148fc836149b5565b92508261490c5761490b614adc565b5b828204905092915050565b6000614922826149b5565b915061492d836149b5565b9250828210156149405761493f614aad565b5b828203905092915050565b600061495682614995565b9050919050565b60008115159050919050565b60007fffffffff0000000000000000000000000000000000000000000000000000000082169050919050565b600073ffffffffffffffffffffffffffffffffffffffff82169050919050565b6000819050919050565b82818337600083830152505050565b60005b838110156149ec5780820151818401526020810190506149d1565b838111156149fb576000848401525b50505050565b60006002820490506001821680614a1957607f821691505b60208210811415614a2d57614a2c614b0b565b5b50919050565b6000614a3e826149b5565b91507fffffffffffffffffffffffffffffffffffffffffffffffffffffffffffffffff821415614a7157614a70614aad565b5b600182019050919050565b6000614a87826149b5565b9150614a92836149b5565b925082614aa257614aa1614adc565b5b828206905092915050565b7f4e487b7100000000000000000000000000000000000000000000000000000000600052601160045260246000fd5b7f4e487b7100000000000000000000000000000000000000000000000000000000600052601260045260246000fd5b7f4e487b7100000000000000000000000000000000000000000000000000000000600052602260045260246000fd5b7f4e487b7100000000000000000000000000000000000000000000000000000000600052604160045260246000fd5b6000601f19601f8301169050919050565b614b838161494b565b8114614b8e57600080fd5b50565b614b9a8161495d565b8114614ba557600080fd5b50565b614bb181614969565b8114614bbc57600080fd5b50565b614bc8816149b5565b8114614bd357600080fd5b5056fea26469706673582212202eb88debaa91eb12818ea681f979b907fb5492df7f13fd6a2dbb1f85fb8e6dad64736f6c63430008000033",
  "linkReferences": {},
  "deployedLinkReferences": {}
}