{
  "_format": "hh-sol-artifact-1",
  "contractName": "BillionaireBattles",
  "sourceName": "contracts/BillionaireBattles.sol",
  "abi": [
    {
      "inputs": [
        {
          "internalType": "string[]",
          "name": "names",
          "type": "string[]"
        },
        {
          "internalType": "string[]",
          "name": "descriptions",
          "type": "string[]"
        },
        {
          "internalType": "string[]",
          "name": "images",
          "type": "string[]"
        },
        {
          "internalType": "uint256[]",
          "name": "healths",
          "type": "uint256[]"
        },
        {
          "internalType": "uint256[]",
          "name": "maxHealths",
          "type": "uint256[]"
        },
        {
          "internalType": "string[]",
          "name": "attack1Names",
          "type": "string[]"
        },
        {
          "internalType": "string[]",
          "name": "attack2Names",
          "type": "string[]"
        },
        {
          "internalType": "string[]",
          "name": "attack3Names",
          "type": "string[]"
        },
        {
          "internalType": "uint256[]",
          "name": "attack1Damages",
          "type": "uint256[]"
        },
        {
          "internalType": "uint256[]",
          "name": "attack2Damages",
          "type": "uint256[]"
        },
        {
          "internalType": "uint256[]",
          "name": "attack3Damages",
          "type": "uint256[]"
        }
      ],
      "stateMutability": "nonpayable",
      "type": "constructor"
    },
    {
      "anonymous": false,
      "inputs": [
        {
          "indexed": true,
          "internalType": "address",
          "name": "owner",
          "type": "address"
        },
        {
          "indexed": true,
          "internalType": "address",
          "name": "approved",
          "type": "address"
        },
        {
          "indexed": true,
          "internalType": "uint256",
          "name": "tokenId",
          "type": "uint256"
        }
      ],
      "name": "Approval",
      "type": "event"
    },
    {
      "anonymous": false,
      "inputs": [
        {
          "indexed": true,
          "internalType": "address",
          "name": "owner",
          "type": "address"
        },
        {
          "indexed": true,
          "internalType": "address",
          "name": "operator",
          "type": "address"
        },
        {
          "indexed": false,
          "internalType": "bool",
          "name": "approved",
          "type": "bool"
        }
      ],
      "name": "ApprovalForAll",
      "type": "event"
    },
    {
      "anonymous": false,
      "inputs": [
        {
          "indexed": true,
          "internalType": "address",
          "name": "from",
          "type": "address"
        },
        {
          "indexed": true,
          "internalType": "address",
          "name": "to",
          "type": "address"
        },
        {
          "indexed": true,
          "internalType": "uint256",
          "name": "tokenId",
          "type": "uint256"
        }
      ],
      "name": "Transfer",
      "type": "event"
    },
    {
      "inputs": [
        {
          "internalType": "address",
          "name": "to",
          "type": "address"
        },
        {
          "internalType": "uint256",
          "name": "tokenId",
          "type": "uint256"
        }
      ],
      "name": "approve",
      "outputs": [],
      "stateMutability": "nonpayable",
      "type": "function"
    },
    {
      "inputs": [
        {
          "internalType": "address",
          "name": "owner",
          "type": "address"
        }
      ],
      "name": "balanceOf",
      "outputs": [
        {
          "internalType": "uint256",
          "name": "",
          "type": "uint256"
        }
      ],
      "stateMutability": "view",
      "type": "function"
    },
    {
      "inputs": [
        {
          "internalType": "uint256",
          "name": "tokenId",
          "type": "uint256"
        },
        {
          "internalType": "uint256",
          "name": "price",
          "type": "uint256"
        }
      ],
      "name": "createMarketListing",
      "outputs": [],
      "stateMutability": "nonpayable",
      "type": "function"
    },
    {
      "inputs": [
        {
          "internalType": "uint256",
          "name": "tokenId",
          "type": "uint256"
        }
      ],
      "name": "createMarketSale",
      "outputs": [],
      "stateMutability": "payable",
      "type": "function"
    },
    {
      "inputs": [],
      "name": "getAllCharacters",
      "outputs": [
        {
          "internalType": "string",
          "name": "",
          "type": "string"
        }
      ],
      "stateMutability": "view",
      "type": "function"
    },
    {
      "inputs": [
        {
          "internalType": "uint256",
          "name": "tokenId",
          "type": "uint256"
        }
      ],
      "name": "getApproved",
      "outputs": [
        {
          "internalType": "address",
          "name": "",
          "type": "address"
        }
      ],
      "stateMutability": "view",
      "type": "function"
    },
    {
      "inputs": [],
      "name": "getBossIds",
      "outputs": [
        {
          "internalType": "uint256[]",
          "name": "ids",
          "type": "uint256[]"
        }
      ],
      "stateMutability": "view",
      "type": "function"
    },
    {
      "inputs": [
        {
          "internalType": "uint256",
          "name": "id",
          "type": "uint256"
        }
      ],
      "name": "getBossStringDataById",
      "outputs": [
        {
          "components": [
            {
              "internalType": "address",
              "name": "owner",
              "type": "address"
            },
            {
              "internalType": "string",
              "name": "name",
              "type": "string"
            },
            {
              "internalType": "string",
              "name": "description",
              "type": "string"
            },
            {
              "internalType": "string",
              "name": "image",
              "type": "string"
            },
            {
              "internalType": "string",
              "name": "attackName",
              "type": "string"
            },
            {
              "internalType": "uint256",
              "name": "health",
              "type": "uint256"
            },
            {
              "internalType": "uint256",
              "name": "maxHealth",
              "type": "uint256"
            },
            {
              "internalType": "uint256",
              "name": "attackDamage",
              "type": "uint256"
            }
          ],
          "internalType": "struct BillionaireBattles.boss",
          "name": "current",
          "type": "tuple"
        }
      ],
      "stateMutability": "view",
      "type": "function"
    },
    {
      "inputs": [],
      "name": "getCharacterCount",
      "outputs": [
        {
          "internalType": "uint256",
          "name": "",
          "type": "uint256"
        }
      ],
      "stateMutability": "view",
      "type": "function"
    },
    {
      "inputs": [
        {
          "internalType": "uint256",
          "name": "index",
          "type": "uint256"
        }
      ],
      "name": "getCharacterDisplayDataById",
      "outputs": [
        {
          "internalType": "string[]",
          "name": "",
          "type": "string[]"
        }
      ],
      "stateMutability": "view",
      "type": "function"
    },
    {
      "inputs": [
        {
          "internalType": "uint256",
          "name": "index",
          "type": "uint256"
        }
      ],
      "name": "getCharacterHealthAndMaxHealthById",
      "outputs": [
        {
          "internalType": "uint256[]",
          "name": "",
          "type": "uint256[]"
        }
      ],
      "stateMutability": "view",
      "type": "function"
    },
    {
      "inputs": [
        {
          "internalType": "address",
          "name": "current",
          "type": "address"
        }
      ],
      "name": "getCharactersFromAddress",
      "outputs": [
        {
          "internalType": "uint256[]",
          "name": "",
          "type": "uint256[]"
        }
      ],
      "stateMutability": "view",
      "type": "function"
    },
    {
      "inputs": [],
      "name": "getListingFee",
      "outputs": [
        {
          "internalType": "uint256",
          "name": "",
          "type": "uint256"
        }
      ],
      "stateMutability": "view",
      "type": "function"
    },
    {
      "inputs": [],
      "name": "getMarketItems",
      "outputs": [
        {
          "internalType": "uint256[]",
          "name": "",
          "type": "uint256[]"
        }
      ],
      "stateMutability": "view",
      "type": "function"
    },
    {
      "inputs": [
        {
          "internalType": "uint256",
          "name": "id",
          "type": "uint256"
        }
      ],
      "name": "getOwnerOfCharcterByID",
      "outputs": [
        {
          "internalType": "address",
          "name": "",
          "type": "address"
        }
      ],
      "stateMutability": "view",
      "type": "function"
    },
    {
      "inputs": [
        {
          "internalType": "uint256",
          "name": "id",
          "type": "uint256"
        }
      ],
      "name": "getPriceById",
      "outputs": [
        {
          "internalType": "uint256",
          "name": "",
          "type": "uint256"
        }
      ],
      "stateMutability": "view",
      "type": "function"
    },
    {
      "inputs": [],
      "name": "getReviveCost",
      "outputs": [
        {
          "internalType": "uint256",
          "name": "",
          "type": "uint256"
        }
      ],
      "stateMutability": "view",
      "type": "function"
    },
    {
      "inputs": [
        {
          "internalType": "address",
          "name": "owner",
          "type": "address"
        },
        {
          "internalType": "address",
          "name": "operator",
          "type": "address"
        }
      ],
      "name": "isApprovedForAll",
      "outputs": [
        {
          "internalType": "bool",
          "name": "",
          "type": "bool"
        }
      ],
      "stateMutability": "view",
      "type": "function"
    },
    {
      "inputs": [
        {
          "internalType": "uint256",
          "name": "id",
          "type": "uint256"
        }
      ],
      "name": "mintItemById",
      "outputs": [],
      "stateMutability": "nonpayable",
      "type": "function"
    },
    {
      "inputs": [
        {
          "internalType": "string",
          "name": "_name",
          "type": "string"
        },
        {
          "internalType": "string",
          "name": "_description",
          "type": "string"
        },
        {
          "internalType": "uint256",
          "name": "_attack",
          "type": "uint256"
        },
        {
          "internalType": "string",
          "name": "_image",
          "type": "string"
        },
        {
          "internalType": "uint256",
          "name": "_health",
          "type": "uint256"
        },
        {
          "internalType": "string",
          "name": "_attackName",
          "type": "string"
        }
      ],
      "name": "mintNewBoss",
      "outputs": [],
      "stateMutability": "nonpayable",
      "type": "function"
    },
    {
      "inputs": [],
      "name": "name",
      "outputs": [
        {
          "internalType": "string",
          "name": "",
          "type": "string"
        }
      ],
      "stateMutability": "view",
      "type": "function"
    },
    {
      "inputs": [
        {
          "internalType": "uint256",
          "name": "tokenId",
          "type": "uint256"
        }
      ],
      "name": "ownerOf",
      "outputs": [
        {
          "internalType": "address",
          "name": "",
          "type": "address"
        }
      ],
      "stateMutability": "view",
      "type": "function"
    },
    {
      "inputs": [
        {
          "internalType": "address",
          "name": "from",
          "type": "address"
        },
        {
          "internalType": "address",
          "name": "to",
          "type": "address"
        },
        {
          "internalType": "uint256",
          "name": "tokenId",
          "type": "uint256"
        }
      ],
      "name": "safeTransferFrom",
      "outputs": [],
      "stateMutability": "nonpayable",
      "type": "function"
    },
    {
      "inputs": [
        {
          "internalType": "address",
          "name": "from",
          "type": "address"
        },
        {
          "internalType": "address",
          "name": "to",
          "type": "address"
        },
        {
          "internalType": "uint256",
          "name": "tokenId",
          "type": "uint256"
        },
        {
          "internalType": "bytes",
          "name": "_data",
          "type": "bytes"
        }
      ],
      "name": "safeTransferFrom",
      "outputs": [],
      "stateMutability": "nonpayable",
      "type": "function"
    },
    {
      "inputs": [
        {
          "internalType": "address",
          "name": "operator",
          "type": "address"
        },
        {
          "internalType": "bool",
          "name": "approved",
          "type": "bool"
        }
      ],
      "name": "setApprovalForAll",
      "outputs": [],
      "stateMutability": "nonpayable",
      "type": "function"
    },
    {
      "inputs": [
        {
          "internalType": "bytes4",
          "name": "interfaceId",
          "type": "bytes4"
        }
      ],
      "name": "supportsInterface",
      "outputs": [
        {
          "internalType": "bool",
          "name": "",
          "type": "bool"
        }
      ],
      "stateMutability": "view",
      "type": "function"
    },
    {
      "inputs": [],
      "name": "symbol",
      "outputs": [
        {
          "internalType": "string",
          "name": "",
          "type": "string"
        }
      ],
      "stateMutability": "view",
      "type": "function"
    },
    {
      "inputs": [
        {
          "internalType": "uint256",
          "name": "tokenId",
          "type": "uint256"
        }
      ],
      "name": "tokenURI",
      "outputs": [
        {
          "internalType": "string",
          "name": "",
          "type": "string"
        }
      ],
      "stateMutability": "view",
      "type": "function"
    },
    {
      "inputs": [
        {
          "internalType": "address",
          "name": "from",
          "type": "address"
        },
        {
          "internalType": "address",
          "name": "to",
          "type": "address"
        },
        {
          "internalType": "uint256",
          "name": "tokenId",
          "type": "uint256"
        }
      ],
      "name": "transferFrom",
      "outputs": [],
      "stateMutability": "nonpayable",
      "type": "function"
    }
  ],
  "bytecode": "0x608060405260006008553480156200001657600080fd5b50604051620051cd380380620051cd83398181016040528101906200003c91906200084f565b6040518060400160405280601381526020017f42696c6c696f6e6169726520426174746c6573000000000000000000000000008152506040518060400160405280600381526020017f42425400000000000000000000000000000000000000000000000000000000008152508160009080519060200190620000c0929190620005e2565b508060019080519060200190620000d9929190620005e2565b5050506005600681905550600560078190555060005b6002811015620005d057600c604051806101a001604052803073ffffffffffffffffffffffffffffffffffffffff1681526020016000151581526020018e848151811062000166577f4e487b7100000000000000000000000000000000000000000000000000000000600052603260045260246000fd5b602002602001015181526020018d8481518110620001ad577f4e487b7100000000000000000000000000000000000000000000000000000000600052603260045260246000fd5b602002602001015181526020018c8481518110620001f4577f4e487b7100000000000000000000000000000000000000000000000000000000600052603260045260246000fd5b602002602001015181526020018b84815181106200023b577f4e487b7100000000000000000000000000000000000000000000000000000000600052603260045260246000fd5b602002602001015181526020018a848151811062000282577f4e487b7100000000000000000000000000000000000000000000000000000000600052603260045260246000fd5b60200260200101518152602001898481518110620002c9577f4e487b7100000000000000000000000000000000000000000000000000000000600052603260045260246000fd5b6020026020010151815260200188848151811062000310577f4e487b7100000000000000000000000000000000000000000000000000000000600052603260045260246000fd5b6020026020010151815260200187848151811062000357577f4e487b7100000000000000000000000000000000000000000000000000000000600052603260045260246000fd5b602002602001015181526020018684815181106200039e577f4e487b7100000000000000000000000000000000000000000000000000000000600052603260045260246000fd5b60200260200101518152602001858481518110620003e5577f4e487b7100000000000000000000000000000000000000000000000000000000600052603260045260246000fd5b602002602001015181526020018484815181106200042c577f4e487b7100000000000000000000000000000000000000000000000000000000600052603260045260246000fd5b602002602001015181525090806001815401808255809150506001900390600052602060002090600c020160009091909190915060008201518160000160006101000a81548173ffffffffffffffffffffffffffffffffffffffff021916908373ffffffffffffffffffffffffffffffffffffffff16021790555060208201518160000160146101000a81548160ff0219169083151502179055506040820151816001019080519060200190620004e5929190620005e2565b50606082015181600201908051906020019062000504929190620005e2565b50608082015181600301908051906020019062000523929190620005e2565b5060a0820151816004015560c0820151816005015560e082015181600601908051906020019062000556929190620005e2565b5061010082015181600701908051906020019062000576929190620005e2565b5061012082015181600801908051906020019062000596929190620005e2565b50610140820151816009015561016082015181600a015561018082015181600b015550508080620005c79062000ba4565b915050620000ef565b50505050505050505050505062000c99565b828054620005f09062000b6e565b90600052602060002090601f01602090048101928262000614576000855562000660565b82601f106200062f57805160ff191683800117855562000660565b8280016001018555821562000660579182015b828111156200065f57825182559160200191906001019062000642565b5b5090506200066f919062000673565b5090565b5b808211156200068e57600081600090555060010162000674565b5090565b6000620006a9620006a38462000a9d565b62000a69565b9050808382526020820190508260005b85811015620006ed5781518501620006d288826200080b565b845260208401935060208301925050600181019050620006b9565b5050509392505050565b60006200070e620007088462000acc565b62000a69565b905080838252602082019050828560208602820111156200072e57600080fd5b60005b8581101562000762578162000747888262000838565b84526020840193506020830192505060018101905062000731565b5050509392505050565b6000620007836200077d8462000afb565b62000a69565b9050828152602081018484840111156200079c57600080fd5b620007a984828562000b38565b509392505050565b600082601f830112620007c357600080fd5b8151620007d584826020860162000692565b91505092915050565b600082601f830112620007f057600080fd5b815162000802848260208601620006f7565b91505092915050565b600082601f8301126200081d57600080fd5b81516200082f8482602086016200076c565b91505092915050565b600081519050620008498162000c7f565b92915050565b60008060008060008060008060008060006101608c8e0312156200087257600080fd5b60008c015167ffffffffffffffff8111156200088d57600080fd5b6200089b8e828f01620007b1565b9b505060208c015167ffffffffffffffff811115620008b957600080fd5b620008c78e828f01620007b1565b9a505060408c015167ffffffffffffffff811115620008e557600080fd5b620008f38e828f01620007b1565b99505060608c015167ffffffffffffffff8111156200091157600080fd5b6200091f8e828f01620007de565b98505060808c015167ffffffffffffffff8111156200093d57600080fd5b6200094b8e828f01620007de565b97505060a08c015167ffffffffffffffff8111156200096957600080fd5b620009778e828f01620007b1565b96505060c08c015167ffffffffffffffff8111156200099557600080fd5b620009a38e828f01620007b1565b95505060e08c015167ffffffffffffffff811115620009c157600080fd5b620009cf8e828f01620007b1565b9450506101008c015167ffffffffffffffff811115620009ee57600080fd5b620009fc8e828f01620007de565b9350506101208c015167ffffffffffffffff81111562000a1b57600080fd5b62000a298e828f01620007de565b9250506101408c015167ffffffffffffffff81111562000a4857600080fd5b62000a568e828f01620007de565b9150509295989b509295989b9093969950565b6000604051905081810181811067ffffffffffffffff8211171562000a935762000a9262000c50565b5b8060405250919050565b600067ffffffffffffffff82111562000abb5762000aba62000c50565b5b602082029050602081019050919050565b600067ffffffffffffffff82111562000aea5762000ae962000c50565b5b602082029050602081019050919050565b600067ffffffffffffffff82111562000b195762000b1862000c50565b5b601f19601f8301169050602081019050919050565b6000819050919050565b60005b8381101562000b5857808201518184015260208101905062000b3b565b8381111562000b68576000848401525b50505050565b6000600282049050600182168062000b8757607f821691505b6020821081141562000b9e5762000b9d62000c21565b5b50919050565b600062000bb18262000b2e565b91507fffffffffffffffffffffffffffffffffffffffffffffffffffffffffffffffff82141562000be75762000be662000bf2565b5b600182019050919050565b7f4e487b7100000000000000000000000000000000000000000000000000000000600052601160045260246000fd5b7f4e487b7100000000000000000000000000000000000000000000000000000000600052602260045260246000fd5b7f4e487b7100000000000000000000000000000000000000000000000000000000600052604160045260246000fd5b62000c8a8162000b2e565b811462000c9657600080fd5b50565b6145248062000ca96000396000f3fe6080604052600436106101c25760003560e01c80636cfc0542116100f7578063b8fe6abe11610095578063e985e9c511610064578063e985e9c51461067f578063eb5b6868146106bc578063f40df937146106f9578063fdb205eb14610722576101c2565b8063b8fe6abe146105be578063b9256b1b146105e9578063be9af53614610626578063c87b56dd14610642576101c2565b806383e56dca116100d157806383e56dca1461051657806395d89b4114610541578063a22cb4651461056c578063b88d4fde14610595576101c2565b80636cfc05421461047157806370a082311461049c5780637577e86d146104d9576101c2565b806329aa3a42116101645780636352211e1161013e5780636352211e146103a35780636456152a146103e057806365df8ce71461040957806368baf0a014610434576101c2565b806329aa3a42146103245780633d936d2d1461034f57806342842e0e1461037a576101c2565b8063095ea7b3116101a0578063095ea7b31461026c5780631a9a0428146102955780631bafbaa6146102d257806323b872dd146102fb576101c2565b806301ffc9a7146101c757806306fdde0314610204578063081812fc1461022f575b600080fd5b3480156101d357600080fd5b506101ee60048036038101906101e991906131bb565b61075f565b6040516101fb9190613d77565b60405180910390f35b34801561021057600080fd5b50610219610841565b6040516102269190613d92565b60405180910390f35b34801561023b57600080fd5b50610256600480360381019061025191906132f6565b6108d3565b6040516102639190613ccc565b60405180910390f35b34801561027857600080fd5b50610293600480360381019061028e919061317f565b610958565b005b3480156102a157600080fd5b506102bc60048036038101906102b791906132f6565b610a70565b6040516102c99190613ccc565b60405180910390f35b3480156102de57600080fd5b506102f960048036038101906102f491906132f6565b610ab0565b005b34801561030757600080fd5b50610322600480360381019061031d9190613079565b610d9f565b005b34801561033057600080fd5b50610339610dff565b6040516103469190613d55565b60405180910390f35b34801561035b57600080fd5b50610364610f25565b6040516103719190614036565b60405180910390f35b34801561038657600080fd5b506103a1600480360381019061039c9190613079565b610f2f565b005b3480156103af57600080fd5b506103ca60048036038101906103c591906132f6565b610f4f565b6040516103d79190613ccc565b60405180910390f35b3480156103ec57600080fd5b506104076004803603810190610402919061331f565b611001565b005b34801561041557600080fd5b5061041e61109a565b60405161042b9190614036565b60405180910390f35b34801561044057600080fd5b5061045b60048036038101906104569190613014565b6110a4565b6040516104689190613d55565b60405180910390f35b34801561047d57600080fd5b50610486611209565b6040516104939190613d55565b60405180910390f35b3480156104a857600080fd5b506104c360048036038101906104be9190613014565b611321565b6040516104d09190614036565b60405180910390f35b3480156104e557600080fd5b5061050060048036038101906104fb91906132f6565b6113d9565b60405161050d9190613d33565b60405180910390f35b34801561052257600080fd5b5061052b611631565b6040516105389190613d92565b60405180910390f35b34801561054d57600080fd5b506105566116d8565b6040516105639190613d92565b60405180910390f35b34801561057857600080fd5b50610593600480360381019061058e9190613143565b61176a565b005b3480156105a157600080fd5b506105bc60048036038101906105b791906130c8565b611780565b005b3480156105ca57600080fd5b506105d36117e2565b6040516105e09190614036565b60405180910390f35b3480156105f557600080fd5b50610610600480360381019061060b91906132f6565b6117ec565b60405161061d9190614036565b60405180910390f35b610640600480360381019061063b91906132f6565b611809565b005b34801561064e57600080fd5b50610669600480360381019061066491906132f6565b6119d7565b6040516106769190613d92565b60405180910390f35b34801561068b57600080fd5b506106a660048036038101906106a1919061303d565b611a7e565b6040516106b39190613d77565b60405180910390f35b3480156106c857600080fd5b506106e360048036038101906106de91906132f6565b611b12565b6040516106f09190614014565b60405180910390f35b34801561070557600080fd5b50610720600480360381019061071b919061320d565b611dfc565b005b34801561072e57600080fd5b50610749600480360381019061074491906132f6565b611f6f565b6040516107569190613d55565b60405180910390f35b60007f80ac58cd000000000000000000000000000000000000000000000000000000007bffffffffffffffffffffffffffffffffffffffffffffffffffffffff1916827bffffffffffffffffffffffffffffffffffffffffffffffffffffffff1916148061082a57507f5b5e139f000000000000000000000000000000000000000000000000000000007bffffffffffffffffffffffffffffffffffffffffffffffffffffffff1916827bffffffffffffffffffffffffffffffffffffffffffffffffffffffff1916145b8061083a5750610839826120b4565b5b9050919050565b60606000805461085090614319565b80601f016020809104026020016040519081016040528092919081815260200182805461087c90614319565b80156108c95780601f1061089e576101008083540402835291602001916108c9565b820191906000526020600020905b8154815290600101906020018083116108ac57829003601f168201915b5050505050905090565b60006108de8261211e565b61091d576040517f08c379a000000000000000000000000000000000000000000000000000000000815260040161091490613f54565b60405180910390fd5b6004600083815260200190815260200160002060009054906101000a900473ffffffffffffffffffffffffffffffffffffffff169050919050565b600061096382610f4f565b90508073ffffffffffffffffffffffffffffffffffffffff168373ffffffffffffffffffffffffffffffffffffffff1614156109d4576040517f08c379a00000000000000000000000000000000000000000000000000000000081526004016109cb90613f94565b60405180910390fd5b8073ffffffffffffffffffffffffffffffffffffffff166109f361218a565b73ffffffffffffffffffffffffffffffffffffffff161480610a225750610a2181610a1c61218a565b611a7e565b5b610a61576040517f08c379a0000000000000000000000000000000000000000000000000000000008152600401610a5890613ed4565b60405180910390fd5b610a6b8383612192565b505050565b6000600a600083815260200190815260200160002060000160009054906101000a900473ffffffffffffffffffffffffffffffffffffffff169050919050565b6000811015610af4576040517f08c379a0000000000000000000000000000000000000000000000000000000008152600401610aeb90613fb4565b60405180910390fd5b600c805490508110610b3b576040517f08c379a0000000000000000000000000000000000000000000000000000000008152600401610b3290613e94565b60405180910390fd5b60086000815480929190610b4e9061434b565b9190505550600c8181548110610b8d577f4e487b7100000000000000000000000000000000000000000000000000000000600052603260045260246000fd5b90600052602060002090600c0201600a600060085481526020019081526020016000206000820160009054906101000a900473ffffffffffffffffffffffffffffffffffffffff168160000160006101000a81548173ffffffffffffffffffffffffffffffffffffffff021916908373ffffffffffffffffffffffffffffffffffffffff1602179055506000820160149054906101000a900460ff168160000160146101000a81548160ff0219169083151502179055506001820181600101908054610c5890614319565b610c63929190612d50565b506002820181600201908054610c7890614319565b610c83929190612d50565b506003820181600301908054610c9890614319565b610ca3929190612d50565b5060048201548160040155600582015481600501556006820181600601908054610ccc90614319565b610cd7929190612d50565b506007820181600701908054610cec90614319565b610cf7929190612d50565b506008820181600801908054610d0c90614319565b610d17929190612d50565b5060098201548160090155600a82015481600a0155600b82015481600b015590505033600a6000600854815260200190815260200160002060000160006101000a81548173ffffffffffffffffffffffffffffffffffffffff021916908373ffffffffffffffffffffffffffffffffffffffff160217905550610d9c3360085461224b565b50565b610db0610daa61218a565b82612269565b610def576040517f08c379a0000000000000000000000000000000000000000000000000000000008152600401610de690613fd4565b60405180910390fd5b610dfa838383612347565b505050565b606060008060085467ffffffffffffffff811115610e46577f4e487b7100000000000000000000000000000000000000000000000000000000600052604160045260246000fd5b604051908082528060200260200182016040528015610e745781602001602082028036833780820191505090505b50905060005b600854811015610f1c5760011515600a600083815260200190815260200160002060000160149054906101000a900460ff1615151415610f095780828481518110610eee577f4e487b7100000000000000000000000000000000000000000000000000000000600052603260045260246000fd5b6020026020010181815250508280610f059061434b565b9350505b8080610f149061434b565b915050610e7a565b50809250505090565b6000600754905090565b610f4a83838360405180602001604052806000815250611780565b505050565b6000806002600084815260200190815260200160002060009054906101000a900473ffffffffffffffffffffffffffffffffffffffff169050600073ffffffffffffffffffffffffffffffffffffffff168173ffffffffffffffffffffffffffffffffffffffff161415610ff8576040517f08c379a0000000000000000000000000000000000000000000000000000000008152600401610fef90613f14565b60405180910390fd5b80915050919050565b60008111611044576040517f08c379a000000000000000000000000000000000000000000000000000000000815260040161103b90613e14565b60405180910390fd5b80600b6000848152602001908152602001600020819055506001600a600084815260200190815260200160002060000160146101000a81548160ff021916908315150217905550611096333084612347565b5050565b6000600854905090565b606060008060085467ffffffffffffffff8111156110eb577f4e487b7100000000000000000000000000000000000000000000000000000000600052604160045260246000fd5b6040519080825280602002602001820160405280156111195781602001602082028036833780820191505090505b5090506000600190505b60085481116111fe578473ffffffffffffffffffffffffffffffffffffffff16600a600083815260200190815260200160002060000160009054906101000a900473ffffffffffffffffffffffffffffffffffffffff1673ffffffffffffffffffffffffffffffffffffffff1614156111eb57808284815181106111d0577f4e487b7100000000000000000000000000000000000000000000000000000000600052603260045260246000fd5b60200260200101818152505082806111e79061434b565b9350505b80806111f69061434b565b915050611123565b508092505050919050565b606060008060085467ffffffffffffffff811115611250577f4e487b7100000000000000000000000000000000000000000000000000000000600052604160045260246000fd5b60405190808252806020026020018201604052801561127e5781602001602082028036833780820191505090505b5090506000600190505b60085481116113185760006009600083815260200190815260200160002060050154111561130557808284815181106112ea577f4e487b7100000000000000000000000000000000000000000000000000000000600052603260045260246000fd5b60200260200101818152505082806113019061434b565b9350505b80806113109061434b565b915050611288565b50809250505090565b60008073ffffffffffffffffffffffffffffffffffffffff168273ffffffffffffffffffffffffffffffffffffffff161415611392576040517f08c379a000000000000000000000000000000000000000000000000000000000815260040161138990613ef4565b60405180910390fd5b600360008373ffffffffffffffffffffffffffffffffffffffff1673ffffffffffffffffffffffffffffffffffffffff168152602001908152602001600020549050919050565b60606000600467ffffffffffffffff81111561141e577f4e487b7100000000000000000000000000000000000000000000000000000000600052604160045260246000fd5b60405190808252806020026020018201604052801561145157816020015b606081526020019060019003908161143c5790505b5090506000600a6000858152602001908152602001600020600301805461147790614319565b80601f01602080910402602001604051908101604052809291908181526020018280546114a390614319565b80156114f05780601f106114c5576101008083540402835291602001916114f0565b820191906000526020600020905b8154815290600101906020018083116114d357829003601f168201915b505050505090506000600a6000868152602001908152602001600020600101805461151a90614319565b80601f016020809104026020016040519081016040528092919081815260200182805461154690614319565b80156115935780601f1061156857610100808354040283529160200191611593565b820191906000526020600020905b81548152906001019060200180831161157657829003601f168201915b5050505050905081836000815181106115d5577f4e487b7100000000000000000000000000000000000000000000000000000000600052603260045260246000fd5b6020026020010181905250808360018151811061161b577f4e487b7100000000000000000000000000000000000000000000000000000000600052603260045260246000fd5b6020026020010181905250829350505050919050565b6060600a600060018152602001908152602001600020600101805461165590614319565b80601f016020809104026020016040519081016040528092919081815260200182805461168190614319565b80156116ce5780601f106116a3576101008083540402835291602001916116ce565b820191906000526020600020905b8154815290600101906020018083116116b157829003601f168201915b5050505050905090565b6060600180546116e790614319565b80601f016020809104026020016040519081016040528092919081815260200182805461171390614319565b80156117605780601f1061173557610100808354040283529160200191611760565b820191906000526020600020905b81548152906001019060200180831161174357829003601f168201915b5050505050905090565b61177c61177561218a565b83836125ae565b5050565b61179161178b61218a565b83612269565b6117d0576040517f08c379a00000000000000000000000000000000000000000000000000000000081526004016117c790613fd4565b60405180910390fd5b6117dc8484848461271b565b50505050565b6000600654905090565b6000600b6000838152602001908152602001600020549050919050565b60011515600a600083815260200190815260200160002060000160149054906101000a900460ff16151514611873576040517f08c379a000000000000000000000000000000000000000000000000000000000815260040161186a90613e74565b60405180910390fd5b34600b600083815260200190815260200160002054146118c8576040517f08c379a00000000000000000000000000000000000000000000000000000000081526004016118bf90613ff4565b60405180910390fd5b600a600082815260200190815260200160002060000160009054906101000a900473ffffffffffffffffffffffffffffffffffffffff1673ffffffffffffffffffffffffffffffffffffffff166108fc349081150290604051600060405180830381858888f19350505050158015611944573d6000803e3d6000fd5b5033600a600083815260200190815260200160002060000160006101000a81548173ffffffffffffffffffffffffffffffffffffffff021916908373ffffffffffffffffffffffffffffffffffffffff1602179055506000600a600083815260200190815260200160002060000160146101000a81548160ff0219169083151502179055506119d4303383612347565b50565b60606119e28261211e565b611a21576040517f08c379a0000000000000000000000000000000000000000000000000000000008152600401611a1890613f74565b60405180910390fd5b6000611a2b612777565b90506000815111611a4b5760405180602001604052806000815250611a76565b80611a558461278e565b604051602001611a66929190613ca8565b6040516020818303038152906040525b915050919050565b6000600560008473ffffffffffffffffffffffffffffffffffffffff1673ffffffffffffffffffffffffffffffffffffffff16815260200190815260200160002060008373ffffffffffffffffffffffffffffffffffffffff1673ffffffffffffffffffffffffffffffffffffffff16815260200190815260200160002060009054906101000a900460ff16905092915050565b611b1a612ddd565b60096000838152602001908152602001600020604051806101000160405290816000820160009054906101000a900473ffffffffffffffffffffffffffffffffffffffff1673ffffffffffffffffffffffffffffffffffffffff1673ffffffffffffffffffffffffffffffffffffffff168152602001600182018054611b9f90614319565b80601f0160208091040260200160405190810160405280929190818152602001828054611bcb90614319565b8015611c185780601f10611bed57610100808354040283529160200191611c18565b820191906000526020600020905b815481529060010190602001808311611bfb57829003601f168201915b50505050508152602001600282018054611c3190614319565b80601f0160208091040260200160405190810160405280929190818152602001828054611c5d90614319565b8015611caa5780601f10611c7f57610100808354040283529160200191611caa565b820191906000526020600020905b815481529060010190602001808311611c8d57829003601f168201915b50505050508152602001600382018054611cc390614319565b80601f0160208091040260200160405190810160405280929190818152602001828054611cef90614319565b8015611d3c5780601f10611d1157610100808354040283529160200191611d3c565b820191906000526020600020905b815481529060010190602001808311611d1f57829003601f168201915b50505050508152602001600482018054611d5590614319565b80601f0160208091040260200160405190810160405280929190818152602001828054611d8190614319565b8015611dce5780601f10611da357610100808354040283529160200191611dce565b820191906000526020600020905b815481529060010190602001808311611db157829003601f168201915b5050505050815260200160058201548152602001600682015481526020016007820154815250509050919050565b60086000815480929190611e0f9061434b565b9190505550600060085490506040518061010001604052803373ffffffffffffffffffffffffffffffffffffffff168152602001888152602001878152602001858152602001838152602001848152602001848152602001868152506009600083815260200190815260200160002060008201518160000160006101000a81548173ffffffffffffffffffffffffffffffffffffffff021916908373ffffffffffffffffffffffffffffffffffffffff1602179055506020820151816001019080519060200190611ee1929190612e38565b506040820151816002019080519060200190611efe929190612e38565b506060820151816003019080519060200190611f1b929190612e38565b506080820151816004019080519060200190611f38929190612e38565b5060a0820151816005015560c0820151816006015560e08201518160070155905050611f663360085461224b565b50505050505050565b60606000600267ffffffffffffffff811115611fb4577f4e487b7100000000000000000000000000000000000000000000000000000000600052604160045260246000fd5b604051908082528060200260200182016040528015611fe25781602001602082028036833780820191505090505b5090506000600a60008581526020019081526020016000206004015490506000600a60008681526020019081526020016000206005015490508183600081518110612056577f4e487b7100000000000000000000000000000000000000000000000000000000600052603260045260246000fd5b602002602001018181525050808360018151811061209d577f4e487b7100000000000000000000000000000000000000000000000000000000600052603260045260246000fd5b602002602001018181525050829350505050919050565b60007f01ffc9a7000000000000000000000000000000000000000000000000000000007bffffffffffffffffffffffffffffffffffffffffffffffffffffffff1916827bffffffffffffffffffffffffffffffffffffffffffffffffffffffff1916149050919050565b60008073ffffffffffffffffffffffffffffffffffffffff166002600084815260200190815260200160002060009054906101000a900473ffffffffffffffffffffffffffffffffffffffff1673ffffffffffffffffffffffffffffffffffffffff1614159050919050565b600033905090565b816004600083815260200190815260200160002060006101000a81548173ffffffffffffffffffffffffffffffffffffffff021916908373ffffffffffffffffffffffffffffffffffffffff160217905550808273ffffffffffffffffffffffffffffffffffffffff1661220583610f4f565b73ffffffffffffffffffffffffffffffffffffffff167f8c5be1e5ebec7d5bd14f71427d1e84f3dd0314c0f7b2291e5b200ac8c7c3b92560405160405180910390a45050565b61226582826040518060200160405280600081525061293b565b5050565b60006122748261211e565b6122b3576040517f08c379a00000000000000000000000000000000000000000000000000000000081526004016122aa90613eb4565b60405180910390fd5b60006122be83610f4f565b90508073ffffffffffffffffffffffffffffffffffffffff168473ffffffffffffffffffffffffffffffffffffffff16148061230057506122ff8185611a7e565b5b8061233e57508373ffffffffffffffffffffffffffffffffffffffff16612326846108d3565b73ffffffffffffffffffffffffffffffffffffffff16145b91505092915050565b8273ffffffffffffffffffffffffffffffffffffffff1661236782610f4f565b73ffffffffffffffffffffffffffffffffffffffff16146123bd576040517f08c379a00000000000000000000000000000000000000000000000000000000081526004016123b490613dd4565b60405180910390fd5b600073ffffffffffffffffffffffffffffffffffffffff168273ffffffffffffffffffffffffffffffffffffffff16141561242d576040517f08c379a000000000000000000000000000000000000000000000000000000000815260040161242490613e34565b60405180910390fd5b612438838383612996565b612443600082612192565b6001600360008573ffffffffffffffffffffffffffffffffffffffff1673ffffffffffffffffffffffffffffffffffffffff1681526020019081526020016000206000828254612493919061422f565b925050819055506001600360008473ffffffffffffffffffffffffffffffffffffffff1673ffffffffffffffffffffffffffffffffffffffff16815260200190815260200160002060008282546124ea91906141a8565b92505081905550816002600083815260200190815260200160002060006101000a81548173ffffffffffffffffffffffffffffffffffffffff021916908373ffffffffffffffffffffffffffffffffffffffff160217905550808273ffffffffffffffffffffffffffffffffffffffff168473ffffffffffffffffffffffffffffffffffffffff167fddf252ad1be2c89b69c2b068fc378daa952ba7f163c4a11628f55a4df523b3ef60405160405180910390a46125a983838361299b565b505050565b8173ffffffffffffffffffffffffffffffffffffffff168373ffffffffffffffffffffffffffffffffffffffff16141561261d576040517f08c379a000000000000000000000000000000000000000000000000000000000815260040161261490613e54565b60405180910390fd5b80600560008573ffffffffffffffffffffffffffffffffffffffff1673ffffffffffffffffffffffffffffffffffffffff16815260200190815260200160002060008473ffffffffffffffffffffffffffffffffffffffff1673ffffffffffffffffffffffffffffffffffffffff16815260200190815260200160002060006101000a81548160ff0219169083151502179055508173ffffffffffffffffffffffffffffffffffffffff168373ffffffffffffffffffffffffffffffffffffffff167f17307eab39ab6107e8899845ad3d59bd9653f200f220920489ca2b5937696c318360405161270e9190613d77565b60405180910390a3505050565b612726848484612347565b612732848484846129a0565b612771576040517f08c379a000000000000000000000000000000000000000000000000000000000815260040161276890613db4565b60405180910390fd5b50505050565b606060405180602001604052806000815250905090565b606060008214156127d6576040518060400160405280600181526020017f30000000000000000000000000000000000000000000000000000000000000008152509050612936565b600082905060005b600082146128085780806127f19061434b565b915050600a8261280191906141fe565b91506127de565b60008167ffffffffffffffff81111561284a577f4e487b7100000000000000000000000000000000000000000000000000000000600052604160045260246000fd5b6040519080825280601f01601f19166020018201604052801561287c5781602001600182028036833780820191505090505b5090505b6000851461292f57600182612895919061422f565b9150600a856128a49190614394565b60306128b091906141a8565b60f81b8183815181106128ec577f4e487b7100000000000000000000000000000000000000000000000000000000600052603260045260246000fd5b60200101907effffffffffffffffffffffffffffffffffffffffffffffffffffffffffffff1916908160001a905350600a8561292891906141fe565b9450612880565b8093505050505b919050565b6129458383612b37565b61295260008484846129a0565b612991576040517f08c379a000000000000000000000000000000000000000000000000000000000815260040161298890613db4565b60405180910390fd5b505050565b505050565b505050565b60006129c18473ffffffffffffffffffffffffffffffffffffffff16612d11565b15612b2a578373ffffffffffffffffffffffffffffffffffffffff1663150b7a026129ea61218a565b8786866040518563ffffffff1660e01b8152600401612a0c9493929190613ce7565b602060405180830381600087803b158015612a2657600080fd5b505af1925050508015612a5757506040513d601f19601f82011682018060405250810190612a5491906131e4565b60015b612ada573d8060008114612a87576040519150601f19603f3d011682016040523d82523d6000602084013e612a8c565b606091505b50600081511415612ad2576040517f08c379a0000000000000000000000000000000000000000000000000000000008152600401612ac990613db4565b60405180910390fd5b805181602001fd5b63150b7a0260e01b7bffffffffffffffffffffffffffffffffffffffffffffffffffffffff1916817bffffffffffffffffffffffffffffffffffffffffffffffffffffffff191614915050612b2f565b600190505b949350505050565b600073ffffffffffffffffffffffffffffffffffffffff168273ffffffffffffffffffffffffffffffffffffffff161415612ba7576040517f08c379a0000000000000000000000000000000000000000000000000000000008152600401612b9e90613f34565b60405180910390fd5b612bb08161211e565b15612bf0576040517f08c379a0000000000000000000000000000000000000000000000000000000008152600401612be790613df4565b60405180910390fd5b612bfc60008383612996565b6001600360008473ffffffffffffffffffffffffffffffffffffffff1673ffffffffffffffffffffffffffffffffffffffff1681526020019081526020016000206000828254612c4c91906141a8565b92505081905550816002600083815260200190815260200160002060006101000a81548173ffffffffffffffffffffffffffffffffffffffff021916908373ffffffffffffffffffffffffffffffffffffffff160217905550808273ffffffffffffffffffffffffffffffffffffffff16600073ffffffffffffffffffffffffffffffffffffffff167fddf252ad1be2c89b69c2b068fc378daa952ba7f163c4a11628f55a4df523b3ef60405160405180910390a4612d0d6000838361299b565b5050565b6000808273ffffffffffffffffffffffffffffffffffffffff16803b806020016040519081016040528181526000908060200190933c51119050919050565b828054612d5c90614319565b90600052602060002090601f016020900481019282612d7e5760008555612dcc565b82601f10612d8f5780548555612dcc565b82800160010185558215612dcc57600052602060002091601f016020900482015b82811115612dcb578254825591600101919060010190612db0565b5b509050612dd99190612ebe565b5090565b604051806101000160405280600073ffffffffffffffffffffffffffffffffffffffff168152602001606081526020016060815260200160608152602001606081526020016000815260200160008152602001600081525090565b828054612e4490614319565b90600052602060002090601f016020900481019282612e665760008555612ead565b82601f10612e7f57805160ff1916838001178555612ead565b82800160010185558215612ead579182015b82811115612eac578251825591602001919060010190612e91565b5b509050612eba9190612ebe565b5090565b5b80821115612ed7576000816000905550600101612ebf565b5090565b6000612eee612ee984614082565b614051565b905082815260208101848484011115612f0657600080fd5b612f118482856142d7565b509392505050565b6000612f2c612f27846140b2565b614051565b905082815260208101848484011115612f4457600080fd5b612f4f8482856142d7565b509392505050565b600081359050612f6681614492565b92915050565b600081359050612f7b816144a9565b92915050565b600081359050612f90816144c0565b92915050565b600081519050612fa5816144c0565b92915050565b600082601f830112612fbc57600080fd5b8135612fcc848260208601612edb565b91505092915050565b600082601f830112612fe657600080fd5b8135612ff6848260208601612f19565b91505092915050565b60008135905061300e816144d7565b92915050565b60006020828403121561302657600080fd5b600061303484828501612f57565b91505092915050565b6000806040838503121561305057600080fd5b600061305e85828601612f57565b925050602061306f85828601612f57565b9150509250929050565b60008060006060848603121561308e57600080fd5b600061309c86828701612f57565b93505060206130ad86828701612f57565b92505060406130be86828701612fff565b9150509250925092565b600080600080608085870312156130de57600080fd5b60006130ec87828801612f57565b94505060206130fd87828801612f57565b935050604061310e87828801612fff565b925050606085013567ffffffffffffffff81111561312b57600080fd5b61313787828801612fab565b91505092959194509250565b6000806040838503121561315657600080fd5b600061316485828601612f57565b925050602061317585828601612f6c565b9150509250929050565b6000806040838503121561319257600080fd5b60006131a085828601612f57565b92505060206131b185828601612fff565b9150509250929050565b6000602082840312156131cd57600080fd5b60006131db84828501612f81565b91505092915050565b6000602082840312156131f657600080fd5b600061320484828501612f96565b91505092915050565b60008060008060008060c0878903121561322657600080fd5b600087013567ffffffffffffffff81111561324057600080fd5b61324c89828a01612fd5565b965050602087013567ffffffffffffffff81111561326957600080fd5b61327589828a01612fd5565b955050604061328689828a01612fff565b945050606087013567ffffffffffffffff8111156132a357600080fd5b6132af89828a01612fd5565b93505060806132c089828a01612fff565b92505060a087013567ffffffffffffffff8111156132dd57600080fd5b6132e989828a01612fd5565b9150509295509295509295565b60006020828403121561330857600080fd5b600061331684828501612fff565b91505092915050565b6000806040838503121561333257600080fd5b600061334085828601612fff565b925050602061335185828601612fff565b9150509250929050565b600061336783836134c0565b905092915050565b600061337b8383613c8a565b60208301905092915050565b61339081614263565b82525050565b61339f81614263565b82525050565b60006133b082614102565b6133ba8185614148565b9350836020820285016133cc856140e2565b8060005b8581101561340857848403895281516133e9858261335b565b94506133f48361412e565b925060208a019950506001810190506133d0565b50829750879550505050505092915050565b60006134258261410d565b61342f8185614159565b935061343a836140f2565b8060005b8381101561346b578151613452888261336f565b975061345d8361413b565b92505060018101905061343e565b5085935050505092915050565b61348181614275565b82525050565b600061349282614118565b61349c818561416a565b93506134ac8185602086016142e6565b6134b581614481565b840191505092915050565b60006134cb82614123565b6134d5818561417b565b93506134e58185602086016142e6565b6134ee81614481565b840191505092915050565b600061350482614123565b61350e818561418c565b935061351e8185602086016142e6565b61352781614481565b840191505092915050565b600061353d82614123565b613547818561419d565b93506135578185602086016142e6565b80840191505092915050565b600061357060328361418c565b91507f4552433732313a207472616e7366657220746f206e6f6e20455243373231526560008301527f63656976657220696d706c656d656e74657200000000000000000000000000006020830152604082019050919050565b60006135d660258361418c565b91507f4552433732313a207472616e736665722066726f6d20696e636f72726563742060008301527f6f776e65720000000000000000000000000000000000000000000000000000006020830152604082019050919050565b600061363c601c8361418c565b91507f4552433732313a20746f6b656e20616c7265616479206d696e746564000000006000830152602082019050919050565b600061367c60108361418c565b91507f50726963652063616e27742062652030000000000000000000000000000000006000830152602082019050919050565b60006136bc60248361418c565b91507f4552433732313a207472616e7366657220746f20746865207a65726f2061646460008301527f72657373000000000000000000000000000000000000000000000000000000006020830152604082019050919050565b600061372260198361418c565b91507f4552433732313a20617070726f766520746f2063616c6c6572000000000000006000830152602082019050919050565b600061376260198361418c565b91507f54686973206974656d206973206e6f7420666f722073616c65000000000000006000830152602082019050919050565b60006137a2600f8361418c565b91507f494420697320746f6f206c6172676500000000000000000000000000000000006000830152602082019050919050565b60006137e2602c8361418c565b91507f4552433732313a206f70657261746f7220717565727920666f72206e6f6e657860008301527f697374656e7420746f6b656e00000000000000000000000000000000000000006020830152604082019050919050565b600061384860388361418c565b91507f4552433732313a20617070726f76652063616c6c6572206973206e6f74206f7760008301527f6e6572206e6f7220617070726f76656420666f7220616c6c00000000000000006020830152604082019050919050565b60006138ae602a8361418c565b91507f4552433732313a2062616c616e636520717565727920666f7220746865207a6560008301527f726f2061646472657373000000000000000000000000000000000000000000006020830152604082019050919050565b600061391460298361418c565b91507f4552433732313a206f776e657220717565727920666f72206e6f6e657869737460008301527f656e7420746f6b656e00000000000000000000000000000000000000000000006020830152604082019050919050565b600061397a60208361418c565b91507f4552433732313a206d696e7420746f20746865207a65726f20616464726573736000830152602082019050919050565b60006139ba602c8361418c565b91507f4552433732313a20617070726f76656420717565727920666f72206e6f6e657860008301527f697374656e7420746f6b656e00000000000000000000000000000000000000006020830152604082019050919050565b6000613a20602f8361418c565b91507f4552433732314d657461646174613a2055524920717565727920666f72206e6f60008301527f6e6578697374656e7420746f6b656e00000000000000000000000000000000006020830152604082019050919050565b6000613a8660218361418c565b91507f4552433732313a20617070726f76616c20746f2063757272656e74206f776e6560008301527f72000000000000000000000000000000000000000000000000000000000000006020830152604082019050919050565b6000613aec60118361418c565b91507f4d757374207573652076616c69642049440000000000000000000000000000006000830152602082019050919050565b6000613b2c60318361418c565b91507f4552433732313a207472616e736665722063616c6c6572206973206e6f74206f60008301527f776e6572206e6f7220617070726f7665640000000000000000000000000000006020830152604082019050919050565b6000613b9260178361418c565b91507f5375626d6974207468652061736b696e672070726963650000000000000000006000830152602082019050919050565b600061010083016000830151613bde6000860182613387565b5060208301518482036020860152613bf682826134c0565b91505060408301518482036040860152613c1082826134c0565b91505060608301518482036060860152613c2a82826134c0565b91505060808301518482036080860152613c4482826134c0565b91505060a0830151613c5960a0860182613c8a565b5060c0830151613c6c60c0860182613c8a565b5060e0830151613c7f60e0860182613c8a565b508091505092915050565b613c93816142cd565b82525050565b613ca2816142cd565b82525050565b6000613cb48285613532565b9150613cc08284613532565b91508190509392505050565b6000602082019050613ce16000830184613396565b92915050565b6000608082019050613cfc6000830187613396565b613d096020830186613396565b613d166040830185613c99565b8181036060830152613d288184613487565b905095945050505050565b60006020820190508181036000830152613d4d81846133a5565b905092915050565b60006020820190508181036000830152613d6f818461341a565b905092915050565b6000602082019050613d8c6000830184613478565b92915050565b60006020820190508181036000830152613dac81846134f9565b905092915050565b60006020820190508181036000830152613dcd81613563565b9050919050565b60006020820190508181036000830152613ded816135c9565b9050919050565b60006020820190508181036000830152613e0d8161362f565b9050919050565b60006020820190508181036000830152613e2d8161366f565b9050919050565b60006020820190508181036000830152613e4d816136af565b9050919050565b60006020820190508181036000830152613e6d81613715565b9050919050565b60006020820190508181036000830152613e8d81613755565b9050919050565b60006020820190508181036000830152613ead81613795565b9050919050565b60006020820190508181036000830152613ecd816137d5565b9050919050565b60006020820190508181036000830152613eed8161383b565b9050919050565b60006020820190508181036000830152613f0d816138a1565b9050919050565b60006020820190508181036000830152613f2d81613907565b9050919050565b60006020820190508181036000830152613f4d8161396d565b9050919050565b60006020820190508181036000830152613f6d816139ad565b9050919050565b60006020820190508181036000830152613f8d81613a13565b9050919050565b60006020820190508181036000830152613fad81613a79565b9050919050565b60006020820190508181036000830152613fcd81613adf565b9050919050565b60006020820190508181036000830152613fed81613b1f565b9050919050565b6000602082019050818103600083015261400d81613b85565b9050919050565b6000602082019050818103600083015261402e8184613bc5565b905092915050565b600060208201905061404b6000830184613c99565b92915050565b6000604051905081810181811067ffffffffffffffff8211171561407857614077614452565b5b8060405250919050565b600067ffffffffffffffff82111561409d5761409c614452565b5b601f19601f8301169050602081019050919050565b600067ffffffffffffffff8211156140cd576140cc614452565b5b601f19601f8301169050602081019050919050565b6000819050602082019050919050565b6000819050602082019050919050565b600081519050919050565b600081519050919050565b600081519050919050565b600081519050919050565b6000602082019050919050565b6000602082019050919050565b600082825260208201905092915050565b600082825260208201905092915050565b600082825260208201905092915050565b600082825260208201905092915050565b600082825260208201905092915050565b600081905092915050565b60006141b3826142cd565b91506141be836142cd565b9250827fffffffffffffffffffffffffffffffffffffffffffffffffffffffffffffffff038211156141f3576141f26143c5565b5b828201905092915050565b6000614209826142cd565b9150614214836142cd565b925082614224576142236143f4565b5b828204905092915050565b600061423a826142cd565b9150614245836142cd565b925082821015614258576142576143c5565b5b828203905092915050565b600061426e826142ad565b9050919050565b60008115159050919050565b60007fffffffff0000000000000000000000000000000000000000000000000000000082169050919050565b600073ffffffffffffffffffffffffffffffffffffffff82169050919050565b6000819050919050565b82818337600083830152505050565b60005b838110156143045780820151818401526020810190506142e9565b83811115614313576000848401525b50505050565b6000600282049050600182168061433157607f821691505b6020821081141561434557614344614423565b5b50919050565b6000614356826142cd565b91507fffffffffffffffffffffffffffffffffffffffffffffffffffffffffffffffff821415614389576143886143c5565b5b600182019050919050565b600061439f826142cd565b91506143aa836142cd565b9250826143ba576143b96143f4565b5b828206905092915050565b7f4e487b7100000000000000000000000000000000000000000000000000000000600052601160045260246000fd5b7f4e487b7100000000000000000000000000000000000000000000000000000000600052601260045260246000fd5b7f4e487b7100000000000000000000000000000000000000000000000000000000600052602260045260246000fd5b7f4e487b7100000000000000000000000000000000000000000000000000000000600052604160045260246000fd5b6000601f19601f8301169050919050565b61449b81614263565b81146144a657600080fd5b50565b6144b281614275565b81146144bd57600080fd5b50565b6144c981614281565b81146144d457600080fd5b50565b6144e0816142cd565b81146144eb57600080fd5b5056fea264697066735822122025f911dbe12fed287c94f339cdd4661ab0399805d1f22aa6823fcde9900af3a764736f6c63430008000033",
  "linkReferences": {},
  "deployedLinkReferences": {}
}